:020000040000FA
:060000000216DC020A13E7
:03001300020ACF0F
:03002B0002145369
:03003300020C5D5F
:03003B00020B2491
:03004B0002136736
:0300530002094857
:03005B000211BFD0
:030063000211E0A7
:03006B00020C0381
:03007B00020C3440
:100083000209A7010020FD0002013505000000015F
:10009300D81CE41C0000EA1CF61C00000000FC1C39
:1000A300201D261D2C1D0000000000000000010182
:1000B3000204081020408001FFFF090D0101040123
:1000C300FEFF000000000000000612FFFFFFFFFF1D
:1000D300FFFF0101010400E912000000E803000032
:1000E300FFFF9113E803000064006400B801A0BBA4
:1000F3000D00A0BB0D00020200F8FF0705021E045D
:1001030001051E02051E020A0A0101080803102741
:1001130002803E0102FEFFE8030A050001FFFF0221
:100123000A1401E0C503423F1A51123FF304B53FDD
:100133000000803E05030101FF1838000000004E57
:100143003700000000FF000000FF00C082C083E909
:10015300FA5407F8742C28F582E43416F583E0F892
:100163007900EAC4540F5403600814600914600D45
:100173008012E5808002E5905870078007E5A0585B
:1001830060027901020255C082C0831202E760084F
:1001930014601214601C802BEA6005EB42808023FC
:1001A300E85280801EEA6005EB42908016E8529088
:1001B3008011EBC39420500BEA6005EB42A080034F
:1001C300E852A0020255C082C0831202E7600814FD
:1001D300602C146050807BE852F374016A601274DF
:1001E300026A601574046A7003EB428FEB42FD8070
:1001F3006153F7DFE8528F80F343F72080F6E8522C
:10020300F474016A601274026A601574046A7003FC
:10021300EB42F6EB42FE803A53F7BFE852F680F327
:1002230043F74080F6EBC394205027E852F574015E
:100233006A601274026A601574046A7003EB42F711
:10024300EB42FF800D53F77FE852F780F343F780CB
:1002530080F6D083D08222C082C0831202E7600876
:1002630014602B14604E806CE852F352FD74016AE3
:10027300600F74026A600F74046A7058EB428F80D7
:100283005353F7DF800343F720E8528F8046E85249
:10029300F452FE74016A600F74026A600F74046A98
:1002A3007032EB42F6802D53F7BF800343F740E8EB
:1002B30052F68020EBC39420501AE844E0F852F53C
:1002C30052FF74016A601074026A601374046A70E6
:1002D30003EB42F702025553F77FE852F780F543E9
:1002E300F78080F6E95407FC742C2CF582E434166D
:1002F300F583E0FBF4F8E9C4540F540322C082C031
:10030300831202E7600814601214601C802DEA60F7
:1003130005EB42FD8025E852FD8020EA6005EB42B3
:10032300FE8018E852FE8013EBC39420500DEA6060
:1003330005EB42FF800574E04852FF020255C0827C
:10034300C0831202E760081460151460228034EA47
:100353006005EB42808003E85280EB42FD8024EA93
:100363006005EB42908003E85290EB42FE8014EB71
:10037300C39420500EEA6005EB42A08003E852A02C
:10038300EB42FF020255E9C4540F540360071460A3
:1003930013146020227801E8F4FBEA602014602142
:1003A30014601522740F59C394045004780280E733
:1003B300780480E3780880DFE58C586004EB528C86
:1003C30022E8428C221216EC601D1216FB700519EE
:1003D3001919801A121555701F12157DC37003E683
:1003E300673319191940071818182208080874FFE9
:1003F300F618F618F618F62212157D60171217A1D3
:10040300702192F01217AA7019501720F0140808DF
:1004130008090909E7F61819E7F61819E7F618198C
:10042300E7F6221217AA60E6E869701F0808E624B7
:1004330080F608E436F618547FB47F0CE6548060E7
:1004430007F6E418F618F622181822E9C6CC08C6EF
:10045300CD08C6CE08C6CFC0E0E8C0E0EAC0E0EBF6
:10046300C0E009E9F809E7FA09E7FBE6F918E6F855
:10047300C3EC98ED99EE9AEBC2E7F5F0EFC2E7957E
:10048300F0500E600CEBCFFBEACEFAE9CDF9E8CCE5
:10049300F8EAA2E7D2E7FAEB33FB13F5F0EEA2E7B3
:1004A300D2E7FEEF33FFC5F013A2E730E601B31343
:1004B300C5F0C3C0E0C0F07F00C39BFB605E94182F
:1004C300600F401D14601AD0E023F9D0E0F8020554
:1004D300A98AF0E9486003D2F0E4AFF0FAF9F880B2
:1004E3003BEB30E40D89F0EA6003D2F0E4AFF0F9BE
:1004F300CAF8EB30E30D88F0EF6002D2F0AFF0E41E
:10050300CAC9F8EB54076014FBC3EA13FAE913F9F9
:10051300E813F8EF135002D2E0FFDBEDD0E0C0E0C8
:1005230030E739C3E49FFFF5F0EC98FC42F0ED9916
:10053300FD42F0EE9AFE42F0D0E0F9D0E0F8E5F0AB
:10054300607AE923F9EE20E742D8028067C3EF33EC
:10055300FFEC33FCED33FDEE33FE80EAEC28FCEDDB
:1005630039FDEE3AFED0E023F9D0E0F84002801BDB
:10057300C3EE13FEED13FDEC13FCEF135002D2E0B8
:10058300FF08B800067F7F74FF802EEF3350178C6F
:10059300F020F00260100CBC000C0DBD00080EBE74
:1005A300000408E860DFE933E813FFEE2313FE4F8E
:1005B3004D4C8008E95480FFE4FEFDFCEE33EF333D
:1005C300F47004FCFD7E80D0E0FBD0E0FAD0E0F8CC
:1005D300D0E0CFC618CEC618CDC618CCC6F92212A5
:1005E30016EC7004181818221216FB700D74FFF61F
:1005F3001819F61819F61819F622E7548066F61238
:1006030017AA700F1217A170F014F608F608F6086F
:10061300F680D11217A1700CF608F608768008E66A
:10062300447F80EC121580700C12155860BFE6549D
:1006330080F6E480BB121558700519191980A5E8D6
:1006430069700C763F18768018F618F6E8F922E6FA
:10065300CDC0E018ECC0E0E633CD33CDD313F6E7DD
:1006630019FCE7191933CC33C3947F400ECD9D5049
:100673002408E65480F6E418F6800FF4043D145081
:100683001408E6447FF6187680E418F618F6D0E0EE
:10069300FCD0E0FD22CCD313CCFD18E4C6CBC0E0E4
:1006A30018E4C6CAC0E00808ED08C633E613F61816
:1006B300E433C675F003C3CA97CA09CB97CB199C19
:1006C30040047D08802EBD000302078B16B6FF058C
:1006D3000606081618C3CA33CACB33CB33CA27CA94
:1006E30009CB37CB193CC37D08803E187D0820E732
:1006F3005CC633C6CA33CACB33CB33DDF1D5F0EB9B
:1007030030E77BCA97CA09CB974ACB199C406F4BFA
:100713007025E620E0218066187D08C3CA97CA09C0
:10072300CB97CB199CD3C633C6CA33CACB33CB338F
:1007330050C9DDE7D5F0E1D3E4C636C608C636C6F0
:1007430008C636C608C636C61818188031C3CA97F5
:10075300CA09CB97CB199CB34097C633C6CA33CAD1
:10076300CB33CB33DD34D5F02EC6A2E0C640C8CAA6
:1007730027CA09CB37194A70BECB3CB480B90808E5
:10078300E63308E633601F181818D0E0FAD0E0FB10
:10079300D0E0FCD0E0FD22187D08CA27CA09CB3778
:1007A300CB193CD3808013F618E4B67F11F618B644
:1007B300FF0EF618C60470D20808768080CAF618B1
:1007C300F618F680C5001216EC604F1216FB601285
:1007D300E7548066F612155570111217A1703B0984
:1007E3000909F4F618F618F618F62212157D701595
:1007F3001217AA08080860EAE6447FF618768018FC
:10080300E4F618F6221217AA60161217A17012E462
:10081300F608F608F608E65480F6090909181818C8
:1008230022EAC0E0EBC0E0ECC0E0EDC0E0E687F018
:10083300A4FBACF008E687F0A42CFCE435F0FA182E
:1008430009E687F0A42C4B60027401CA35F0FCE47E
:1008530033FB09E687F0D2F7A42CCB35F0FC19085B
:10086300E687F0A42BCC35F0FBE433FD0819E687CB
:10087300F0D2E7A42C4ACB35F0CD3400FC09E6874F
:10088300F0D2E7A42DCC35F0FDE433FA0918E6875E
:10089300F0D2F7A42CCD35F0CA3400FC08E687F07B
:1008A300D2E7D2F7A42ACC35F07A7E20E70B0ACB25
:1008B30033CBCD33CDCC33CC33CB3350147004EDA9
:1008C30030E00ED2F1E4CD3DCDCC3CCC3B5005DA4B
:1008D30005C2F1EB547FC63308E63392F0FBE733EE
:1008E30009E733C39A502D2B70190C0D4C4D70151D
:1008F3001806E608C333700D20F10AA2F013F6E4DC
:1009030018800B4024E4F630F002768018F618F6CF
:1009130018F68024D33B14501074FFA2F013F6187A
:100923007680E418F618F6800FA2F013F618E63373
:1009330003F618ECF618EDF6D0E0FDD0E0FCD0E0BD
:10094300FBD0E0FA22C0E074F1120E59A2AFE433F7
:10095300F509D2AF85A708AFA1EF5508FE74105E65
:1009630060061219C075A1EF74085E60081219C6FB
:1009730075A1F78024EFA2E092F0E508A2E082F0EF
:100983005017906198E0F89004A5E0C398A2D2654F
:10099300D0335002E8F075A1FEE509A2E092AF7FE3
:1009A30002020EB8C0E074F2120E59A2AFE433FE95
:1009B300D2AF9061A4E0F8759B00E59158540860AC
:1009C300087591F7121A0E8023E5915854106008A8
:1009D3007591EF121A148014E591A2E092F0E8A247
:1009E300E082F05007E0C2E0F0121B5E9061A3E0EA
:1009F300F8E5E9585404600E121B3475E9FB906165
:100A030093E0A2E640F2EEA2E092AF7F01020EB8BD
:100A1300C0E074F2120E59A2AFE433FED2AF90617C
:100A2300A5E0F8E5BF585404600675BFFB121B76BA
:100A330080D4C3E498F8E499F9120A768026C3E4D3
:100A43009AFAE49BFBE920E7E9120A76E498F8E4D2
:100A530099F922C3E498F8E499F9120A76E498F82C
:100A6300E499F9C3E49AFAE49BFB22EB20E7CFE98C
:100A730020E7E0B90010BB0008E88AF084F8AAF088
:100A830022E4FBC8FA22EB70227B10C833C8C933B7
:100A9300C9335007C39AC3DBF280069A50012ADB9D
:100AA300EAC833F4C8C933F4C9FA2275F008E4C8B4
:100AB30033C8C933C933C99AC99B5004C92AC93B2E
:100AC300D5F0ECFBC833F4C8E4C9FA22C0E0C0D0C7
:100AD300E8C0E0E9C0E0C082C083A8C1E8C0E090FC
:100AE3000412E0F8749128F582E43403F583D0E02E
:100AF300F0900411E0F8A3E0687006E59590041403
:100B0300F0900412E004F0C394804002E4F0A37474
:100B1300C6F0D083D082D0E0F9D0E0F8D0D0D0E0D6
:100B230032C0E0C0D0E8C0E0E9C0E0C082C083903A
:100B33000495E0F8A3E0687008539AFBA37401805E
:100B430022C2E9900495E0F8740128F0741528F5A1
:100B530082E43404F583E0F5C1900495E0C3948006
:100B63004002E4F080AC120BB430F039120BF98080
:100B730034120BB420F01430E72B74FFFCFBFA742F
:100B83007F8022E4FCFBFA7480801AB48008BC00E6
:100B9300F2BB00EF800F50EBF9E4C39AFAE49BFB3E
:100BA300E49CFCE499C6CC18C6CB18C6CA18C6F98F
:100BB30022E4C9C608CAC608CBC6D3330308CCC6C9
:100BC3003392F0C3947F402E94184019C9B9070497
:100BD300CACBCC225025C309CA33CACB33CBCC33BF
:100BE300CC33D9F422F4600DC9CCC313CB13CBCAD5
:100BF30013CAD9F6CC22E4FCFBFA2214FCFBFA223A
:100C0300C0E074F2120E59A2AFE433FED2AF9007E4
:100C13000EE05589600FE589FA7900121E289007C6
:100C23000EE0F45289C2C5EEA2E092AF7F01020E3C
:100C3300B8C0E074F2120E59A2AFE433FED2AF9003
:100C4300070FE0558A600FE58AFA7901121E289092
:100C5300070FE0F4528AC2EB80CDC0E074F2120EAB
:100C630059A2AFE433FED2AF900710E0558B600F6B
:100C7300E58BFA7902121E28900710E0F4528BC21A
:100C8300E880A4080808EAC0E0EBC0E086F0E7A427
:100C9300FA180986F0E7A42AFA180986F0E7A42AC5
:100CA300FA180986F0E7A42AFA1986F0E7A4FBE507
:100CB300F02AFA190886F0E7A42BFBE5F03AFA19B3
:100CC3000886F0E7A42BFBE5F03AFA18180986F03A
:100CD300E7A4C5F02BFBE43AFA1908E7C5F0C6A46C
:100CE30026F6E5F03BFBE43AFA1886F0E7A4F6E5CE
:100CF300F00826F6E43B08F6E43A08F6D0E0FBD029
:100D0300E0FA22080808E630E7111215B9120D1EA1
:100D1300080808C64480C618181822181818E97954
:100D23009EC608CAC608CBC608CCC6C3702079962F
:100D3300CACBCC7019798ECBCC70137986CC700E5C
:100D4300F9802ACA33CACB33CBCC33CC331930E73F
:100D5300F2CCCBCA3350147004EA30E00DE4CA3A43
:100D6300CACB3BCBCC3CCC500209C3E913C6CC184D
:100D73002313C6CB18C6CA18C6F922E4CFC0E0E4D1
:100D8300CEC0E0E4CDC0E0E4CCC0E075F020E626C0
:100D9300F608E633F608E633F608E633F6181818CD
:100DA300EC33FCED33FDEE33FEEF33FFC3EC970979
:100DB300ED9709EE9709EF97191919400FFFEC9773
:100DC300FC09ED97FD09EE97FE191906D5F0BFEC66
:100DD300F709EDF709EEF709EFF7191919D0E0FC58
:100DE300D0E0FDD0E0FED0E0FF222518C582C0E0B0
:100DF300E51934FFC583C0E0E518C3958224F810D4
:100E0300AF08858319858218800885831985821820
:100E1300D2AFCEF0A3E520F0A37808E608F0A3DE76
:100E2300FAEFF0A3E58124FAF8E608F0A3E608F068
:100E3300A3E608F0A30808E608F0A3E608F0A31564
:100E4300811581D0E0FED0E0F8158115811581E888
:100E5300C0E0EEC0E022C0D02518C582C0E0E5198D
:100E630034FFC583C0E0E518C3958224F310AF08AF
:100E73008583198582188008858319858218D2AFE6
:100E8300C8F0A3E9F0A3EAF0A3EBF0A37908E7091C
:100E9300F0A3D8FAECF0A3EDF0A3EEF0A3EFF0A3E8
:100EA300D0E0F0A3D0E0F0A3D0E0F0A3E520F0A3DE
:100EB300E5F0F0A322851983851882E0C0E0A3E062
:100EC300F9A3E0FAA3E0FBA37808E0F608A3DFFAAE
:100ED300E0FCA3E0FDA3E0FEA3E0FFA3E0C0E0A3EA
:100EE300E0C0E0A3E0F5D0A3E0F520A3E0A3F5F094
:100EF30010AF088583198582188008858319858238
:100F030018D2AFD082D083D0E0F8D0E0321215BC33
:100F1300181818120D7E12168B1919192212168B16
:100F2300191919080808E618181820E7E0120D7EA9
:100F33001215BC18181822090909E719191920E70D
:100F4300DC080808E618181820E703020D7E1215BE
:100F5300BC181818120D7E1215BC18181812168B0F
:100F63001919192212178CB90003020FA6E4900372
:100F73003178D079138002F0A3D8FCD9FA7A007BB8
:100F83001690008678C979018015E493A3AD82AEEB
:100F9300838A828B83F0A3AA82AB838D828E83D8CC
:100FA300E9D9E77582937583B474061213E47582E5
:100FB3002875833374001213E475F0108E1A8F1B97
:100FC30085821F85831E851882851983E0CEA3E061
:100FD300CF851F82851E83EBC9EAC8EDCBECCAC35C
:100FE300E833C8E933C9EA33CAEB33CBC3EA9EF526
:100FF3001DEB9FF51CB35004AB1CAA1DEC33CCEDC9
:1010030033CDD5F0DAAE1AAF1B221216EC601C12E8
:1010130016FB60171217AA70071217A17001D322CB
:10102300C0D01217A17006D0D0B322C32233D0D0C0
:10103300501430E0F6C3E7960809E7960809E796E7
:101043000809E796B32220E0D5E6970809E6970852
:1010530009E6970809E697B322D083D082ECC0E073
:10106300EDC0E0E493A3FCE493A3FDED4C600D120B
:101073001180EC24FFFCED34FFFD80EFE493A3FC2F
:10108300E493A3FDED4C600D121287EC24FFFCEDFD
:1010930034FFFD80EFD0E0FDD0E0FCE493A3C0E09B
:1010A300E493C0E0221216EC601B1216FB601612CA
:1010B30017AA70071217A1600CB322C0D01217A190
:1010C3007005D0D022C32233D0D0501330E0EBC30D
:1010D300E7960809E7960809E7960809E7962220A4
:1010E300E0E4E6970809E6970809E6970809E69712
:1010F30022851983851882E0A3FEE0A3F5207808F2
:10110300E0A3F608DFFAE0A3FFE0A3C0E0E0A3C09A
:10111300E0E0A3C0E0E0A3C0E0E0A3C0E010AF08BC
:101123008582188583198008858218858319D2AF33
:10113300D083D0820213EAD083D082E9C0E0E49363
:10114300A3C386F0C5F095F0F908E493A386F0C530
:10115300F095F0700BE493A3C3994005E904800272
:10116300A3E475F002A42582F582E5F03583F583C7
:10117300D0E0F9E493A3C0E0E493C0E022C0E0C36D
:10118300E49396087401939618400FE493667008ED
:1011930008740193661870007019A3A3C3E49396AF
:1011A300087401939618A3A3400DD0E0D0E0D0E0DB
:1011B300021098A3A3A3A3A3A3D0E022C0E074F2D8
:1011C300120E59C2D990164AE0C39400A2D265D038
:1011D300334005E0F91221167F01020EB8C0E07416
:1011E300F2120E59C2DC90164CE0F9C39400A2D25D
:1011F30065D033400312211680DE74048004740228
:101203008000CCC0E0EDC0E0E518C39CCCAD195024
:10121300011D10AF068C188D1980068C188D19D2FC
:10122300AF121346D0E0FDD0E0FC2274028000CC64
:10123300C0E0EDC0E0E518C39CCCAD1950011D1012
:10124300AF068C188D1980068C188D19D2AF121326
:1012530002D0E0FDD0E0FC221216EC60251216FB52
:1012630060201217AA70030217A1080808E7667026
:10127300101819E766700A1819E76670041819E759
:101283006622F422C0E0C0F088F0E4936670080898
:1012930074019366187000A8F0A3A3700BD0F0D06C
:1012A300E0D0E0D0E0021098A3A3D0F0D0E022D0A9
:1012B30083D082CCC0E0E493A3600612138714703A
:1012C300FAE493A360061214EA1470FAD0E0FCE483
:1012D30093A3C0E0E493C0E022C008C3E096F508FE
:1012E30008A3E096420808A3E096420808A3E09604
:1012F3004208A2D265D033E5087001D3D00822CAD0
:10130300C0E0E493A3C582CCC582C583CDC583F079
:10131300A3C582CCC582C583CDC583DAE5D0E0CA37
:1013230022A2E792D65002F40430F70663F0FF05D9
:10133300F0B3400384800384F40430D60563F0FFE4
:1013430005F022CAC0E0E0A3C582CCC582C583CD27
:10135300C583F0A3C582CCC582C583CDC583DAE638
:10136300D0E0CA22C0E0C0D0C082C08375AF009075
:10137300075CE02401F0A3E03400F0D083D082D0F6
:10138300D0D0E032C0E0E493A3D39C5010E493A305
:10139300C39C400AD0E0D0E0D0E00212CFA3A3A3C5
:1013A300D0E0227009080808226016181818C6C36E
:1013B30033C608C633C608C633C608C633C6D5E027
:1013C300EA22C008C3E096F50808A3E0964208089D
:1013D300A3E096420808A3E09645087001D3D0081D
:1013E30022C09FF59FE473D09F22D083D082C09FF9
:1013F300E493C0E0740193C0E0740293F59F2274F8
:1014030004800A74038006740280027401C0E0F44D
:101413000412141DD0E0121737222518F58210AFDD
:1014230008F518400C15198008F51840021519D253
:10143300AF8519832200C0D0251810AF08F51850C6
:101443000C05198008F51850020519D2AFD0D02227
:10145300C0E0C0D0E8C0E0A8A8D2AFC2C7E8A2E706
:1014630092AFD0E0F8D0D0D0E032BB0102E722C087
:1014730082C08389828A83BB0003E08002E493D025
:1014830083D082226017080808C6A2E713C618C6CD
:1014930013C618C613C618C613C6D5E0E9226016CC
:1014A300080808C6C313C618C613C618C613C61839
:1014B300C613C6D5E0EA222518F8E43519F9222522
:1014C30018FAE43519FB222518FCE43519FD22C36B
:1014D300E0C696F608A3E0C696F608A3E0C696F61D
:1014E30008A3E0C696F622C0E0E493A36C7009D08B
:1014F300E0D0E0D0E00212CFA3A3D0E02225181061
:10150300AF08F518400C15198008F5184002151995
:10151300D2AF22C3E09608A3E09608A3E09608A3FF
:10152300E096A2D265D03322E76670100809E76619
:10153300700A0809E76670040809E76622E0667026
:101543001008A3E066700A08A3E066700408A3E02D
:101553006622181818E60846087009E6260870057A
:10156300E633F4220822C3E49396087401939608A1
:1015730074029396087403939622191919E709477D
:10158300097009E727097005E733F4220922C3E04C
:1015930096F008A3E096F008A3E096F008A3E0967F
:1015A300F022C3E697F60809E697F60809E697F6E8
:1015B3000809E697F622181818E4C396F608E49685
:1015C300F608E496F608E496F622E026F608A3E089
:1015D30036F608A3E036F608A3E036F622E627F649
:1015E3000809E637F60809E637F60809E637F6226A
:1015F300E493F608740193F608740293F6087403EF
:1016030093F622E657F60809E657F60809E657F671
:101613000809E657F622E056F008A3E056F008A3BF
:10162300E056F008A3E056F022E647F60809E6473D
:10163300F60809E647F60809E647F6227004226031
:101643000D18C6C333C608C633C6D5E0F41822E660
:1016530067F60809E667F60809E667F60809E66724
:10166300F622E026F008A3E036F008A3E036F008FF
:10167300A3E036F022E056F608A3E056F608A3E00E
:1016830056F608A3E056F622E4C397F709E497F762
:1016930009E497F709E497F722600D08C6A2E71358
:1016A300C618C613C6D5E0F322C6F4C608C6F4C6E8
:1016B30008C6F4C608C6F4C622C3E09608A3E0969B
:1016C30008A3E09608A3E09622C3E7960809E796E5
:1016D3000809E7960809E7962275D00075813F75DA
:1016E300183175190300020F67E6084608C313464D
:1016F30008336002E633F422E7094709C3134709B5
:10170300336002E733F422600C08C6C313C618C65D
:1017130013C6D5E0F422E6F008A3E6F008A3E6F04A
:1017230008A3E6F022E0F608A3E0F608A3E0F60833
:10173300A3E0F622CAC0E0E6F0A308DAFAD0E0FAA2
:1017430022E0FCA3E0FDA3E0FEA3E0FF22EAF0A376
:10175300EBF0A3ECF0A3EDF022E0FAA3E0FBA3E0AF
:10176300FCA3E0FD22E8F0A3E9F0A3EAF0A3EBF089
:1017730022ECF0A3EDF0A3EEF0A3EFF022E0F8A348
:10178300E0F9A3E0FAA3E0FB22E5C754F84401F52E
:10179300C77901222518F582E43519F58322E72755
:1017A30019471947194722E62618461846184622AC
:1017B300C2AF75D69F020000221213ED48D2041265
:1017C30013ED9CD3041213ED52D4041213ED51D52F
:1017D300041213ED84D6041213ED14A9061213EDAB
:1017E30095A9061213EDD0AA061213EDE2C506124F
:1017F30013EDF3C5061213ED91C6061213ED9CC645
:10180300061213EDFA7F001213EDE8FF031213ED36
:10181300FAC7061213ED0AC8061213ED1FC8061203
:1018230013ED85C8061213EDE5C2061213ED68C366
:10183300061213EDCEC3061213ED43B0061213EDD9
:101843007EB0061213EDDDB0061213ED35B10612AC
:1018530013EDCAB1061213ED1DB2061213EDD7FF35
:10186300041213EDE7FF041213ED658C061213ED5A
:10187300BB8C061213ED0A8D061213ED378D06127B
:1018830013ED8D8D061213ED47CB061213EDA4ABAA
:10189300061213EDEEAB061213ED84AC061213ED34
:1018A3000AAD061213ED3BAD061213ED53AD06124E
:1018B30013EDC7AD061213EDDDAD061213EDF0AD5A
:1018C300061213EDFAAD061213ED7DC1041213EDEA
:1018D3002EC6041213ED43C7041213ED6FC704128F
:1018E30013EDFEC7041213EDC5CA041213EDAFF5D1
:1018F300031213ED12F6031213EDC2F6031213EDE6
:101903008DF7031213EDE2F8031213EDC2F903127C
:1019130013EDBFFA031213ED97FC031213EDBEFC94
:10192300031213ED4AFD031213EDA4FE031213ED8C
:101933001AFF031213ED58FF031213ED6AFF03128C
:1019430013EDEA9A051213EDB89C051213EDE39D0E
:10195300051213EDA69F051213ED61DE051213EDBB
:101963008DDE051213EDFEE0051213ED3EE10512C7
:1019730013ED7EE1051213ED92E1051213EDABE1D8
:10198300051213ED9CE2051213ED41E3051213ED6D
:1019930055E3051213ED2FBB061213ED53BB0612CD
:1019A30013ED6CBB061213ED9EBB061213EDCEBBFB
:1019B300061213EDFBBB061213ED5DBC061213ED0D
:1019C3006CBC061213ED76BC061213ED83BC061233
:1019D30013ED7EA6061213ED9EA6061213EDDDA6E9
:1019E300061213EDF8A6061213ED17A7061213ED50
:1019F3007DA7061213ED86A7061213EDE3A70612C1
:101A030013ED07A8061213EDC8A8061213EDD5A807
:101A1300061213EDE6A8061213ED16C9061213ED0E
:101A23002EC9061213ED5AC9061213ED6DF20512F3
:101A330013EDC9F3051213EDD7F3051213EDEAF312
:101A4300051213EDFFF3051213ED14F4051213ED54
:101A530027F4051213ED9BF4051213ED00F505129F
:101A630013EDA2F5051213ED66F6051213ED76F6E6
:101A7300051213ED85F6051213ED61C7061213ED7A
:101A830085C7061213EDADC7061213EDD5C70612AF
:101A930013ED70B2061213ED97B2061213EDB5B241
:101AA300061213ED28B3061213EDABA3061213EDC2
:101AB300C4A3061213EDD0A3061213EDE4A306127A
:101AC30013ED02A4061213ED0CA4061213ED16A4D3
:101AD300061213ED29A4061213EDAFA4061213ED9B
:101AE30024A5061213ED53A5061213EDA1A50612A4
:101AF30013EDF0A5061213ED0BA6061213ED15A6B2
:101B0300061213ED26A6061213ED69A6061213EDAF
:101B130076CA061213ED6CF6041213ED96F6041250
:101B230013EDB3F6041213EDC6F6041213EDDCF64F
:101B3300041213ED3AF7041213ED72F7041213EDC6
:101B430066FB041213EDABFC041213EDDEFC04126E
:101B530013ED41FD041213EDABFE041213EDD3FE9E
:101B6300041213EDE8FE041213EDF8FE041213ED54
:101B73003CFF041213ED97FF041213EDA7FF0412A9
:101B830013EDB5C1061213EDCFC1061213EDF7C164
:101B9300061213ED10C2061213ED34C2061213ED32
:101BA30052C2061213ED69C2061213ED97C2061252
:101BB30013EDB2C2061213EDB4FF051213ED4B90F1
:101BC300061213ED5B90061213ED6291061213EDEC
:101BD3009691061213EDB891061213EDDB910612DE
:101BE30013EDF991061213ED3392061213ED989249
:101BF300061213EDDA92061213ED1993061213ED82
:101C03004A93061213ED8193061213ED9B9205126C
:101C130013ED9793051213EDB593051213EDDC93B2
:101C2300051213EDA195051213EDCF95051213EDD2
:101C33008496051213ED4B97051213ED5A9805126E
:101C430013ED8C99051213ED4E84061213EDA38444
:101C5300061213ED1D85061213ED3085061213EDE2
:101C63005785061213EDEA85061213EDC486061294
:101C730013ED0080051213ED2B80051213EDF68092
:101C8300051213ED3381051213EDC481051213ED13
:101C93005485051213ED6787051213ED00800312B7
:101CA30013ED3A80031213ED3A82031213ED7B8492
:101CB300031213EDFB84031213EDF787031213EDE5
:101CC3006988031213ED0689031213ED21890312A8
:101CD30013EDCB89031213ED1A8A031213ED568AFF
:101CE300031213ED708A031213ED9C8A031213ED92
:101CF3009F8A031213EDF88A031213ED4B8B031221
:101D030013ED108C031213ED4D8D031213ED03909D
:101D1300031213ED1C92031213ED4F92031213EDF2
:101D2300AF92031213ED0193031213ED8493031285
:101D330013ED1894031213ED2E96031213EDCD97A2
:101D4300031213ED0799031213EDA29A031213ED75
:101D5300C39A031213EDE7C4061213ED01C506126D
:101D630013ED43C5061213ED71C5061213ED8BC5B2
:101D7300061213EDA4C5061213EDC8C5061213ED22
:101D8300E9D3051213ED3DD4051213ED0DD505125C
:101D930013ED3AD5051213ED67D5051213EDB9D539
:101DA300051213EDE3D5051213ED07D6051213ED56
:101DB3002FD6051213ED6FD6051213EDF9D60512C2
:101DC30013ED2AD7051213ED51D7051213ED97D74B
:101DD300051213EDB5D7051213EDD9D7051213ED7F
:101DE300F9D7051213ED2FD8051213ED8ED805126E
:101DF30013EDFDD8051213ED3AB0051213ED74B0CF
:101E0300051213EDAFB1051213EDC7B2051213EDB1
:101E1300E7B6051213ED52CE051213ED8CCE051263
:101E230013ED40CF051213EDECFE021213ED5DFF2F
:101E3300021213EDBFFF021213ED0EB7051213EDDD
:101E430021B8051213ED47B9051213ED97BA051220
:101E530013EDEDBA051213ED30BB051213ED3EBBC6
:101E6300051213EDF3BC051213ED5B9A061213ED85
:101E7300BD9A061213EDB99C061213ED6AE805121A
:101E830013EDABE8051213EDE1E8051213ED08EAD3
:101E9300051213EDA4EB051213ED44EC051213ED3B
:101EA30069E3051213EDBBE6051213ED3BE70512DB
:101EB30013EDC7B9061213ED04BA061213ED38BABF
:101EC300061213ED4BBA061213EDD993061213ED56
:101ED300EC94061213EDAE95061213ED5996061205
:101EE30013ED8596061213EDFC96061213ED8DBCC9
:101EF300061213ED9FBC061213EDB2BD061213EDCD
:101F0300B5BD061213ED33BF061213ED69BF0612FA
:101F130013ED83BF061213EDC5BF061213EDD5BF34
:101F2300061213ED6FC0061213ED63A2051213ED33
:101F33006DA2051213EDA7A2051213ED10A305124E
:101F430013ED2DA3051213EDCFA3051213EDD8A3A3
:101F5300051213ED1DA4051213ED46A4051213ED8E
:101F630053A4051213EDC4A4051213ED4FA50512D6
:101F730013ED9DA5051213EDDBA5051213ED40A688
:101F8300051213ED63A6051213EDDAA6051213ED80
:101F930031A7051213ED6CA7051213EDA1A70512C6
:101FA30013EDB3A7051213EDC5A7051213EDE4A7AF
:101FB300051213EDEDA7051213EDA8A8051213EDF5
:101FC300F4A8051213ED32A9051213EDE2BD0612B2
:101FD30013ED22BF061213ED0DAE061213ED43AE41
:101FE300061213ED8BAE061213EDE4AF061213EDDA
:101FF3009BC9061213ED62B0031213ED86B10312EF
:1020030013EDC0B1031213ED6AB3031213ED94B3CE
:10201300031213ED09B6031213ED49B6031213EDC0
:10202300DFB7031213ED7CB8031213EDCEB803121E
:1020330013ED71B9031213EDA9B9031213EDEBB943
:10204300031213ED5ABB031213EDA8BC031213EDD5
:10205300D9BE031213ED07BF031213ED2EBF0312F4
:1020630013ED37BF031213ED87BF031213ED19C02E
:10207300031213ED48C3031213EDCBC3031213ED85
:10208300EAFF011213ED6188061213ED7788061239
:1020930013ED1B89061213ED5A89061213ED778986
:1020A300061213EDA889061213EDF589061213ED36
:1020B300288A061213ED638A061213ED588C061252
:1020C30013EDE0C2051213ED06C5051213ED38C674
:1020D300051213ED50C6051213ED62ED051213ED53
:1020E3009DEE051213ED2FF0051213ED5EA90512F7
:1020F30013ED62AA051213ED7EAB051213ED99AC35
:10210300051213ED6FAD051213ED75B6061213ED3F
:10211300EBB6061213EDF2E6031213EDB7E7031263
:1021230013EDC4E7031213ED6DE8031213EDCCE8CE
:10213300031213ED3DEA031213EDB5EA031213ED97
:1021430077EC031213EDA3EC031213EDADEE0312C0
:1021530013EDD5EE031213ED36EF031213ED91EFEA
:10216300031213EDE2F0031213ED35F1031213ED35
:10217300BAF1031213EDADC8051213EDD4C805125D
:1021830013ED28CB051213ED4FCB051213EDA4CBA2
:10219300051213EDD6CC051213ED52CD051213ED36
:1021A300E7C3061213ED46C4061213ED84C40612E8
:1021B30013EDC5C4061213ED929C041213EDFB9CA0
:1021C300041213ED469D041213ED819D041213EDC9
:1021D300F69F041213ED10A4041213ED30A604129B
:1021E30013ED3EA7041213ED18A8041213ED8CF996
:1021F300011213EDC6F9011213EDFFFA011213EDEB
:10220300A5FC011213EDD2FC011213ED75FD0112B1
:1022130013EDD8FD011213ED0FFF011213EDB4C638
:10222300061213EDFEC6061213EDFEBC051213EDE6
:102233005BBD051213ED39BE051213ED2ABF05125E
:1022430013ED56BF051213ED32C0051213ED4EC048
:10225300051213EDE7C0051213ED70C1051213ED5E
:1022630079C0061213ED88C0061213EDE8C00612FA
:1022730013EDD5FF031213ED40B6041213EDABB605
:10228300041213EDA9B7041213EDBFB8041213ED32
:1022930045B9041213ED1EBA041213EDFEBA04126B
:1022A30013ED20BC041213ED39BD041213EDC2BFAC
:1022B300041213ED0080021213ED0C80021213EDD1
:1022C3006E80021213ED7880021213ED0B8102125D
:1022D30013ED4781021213ED0782021213ED1482EC
:1022E300021213ED7782021213ED0C83021213ED27
:1022F3004283021213EDBF83021213ED5F850212B4
:1023030013ED3387021213ED1488021213ED5E8965
:10231300021213EDC08B021213ED258D021213ED81
:10232300BA8D021213EDED8E021213EDE18F02123C
:1023330013ED1A91021213EDB095021213ED9D964F
:10234300021213ED3597021213ED5A97021213ED91
:102353008697021213ED1E98021213ED349802129F
:1023630013ED5698021213EDBC98021213EDDB988D
:10237300021213ED0499021213ED249A021213EDC3
:10238300FA9A021213ED6F9C021213ED909C021243
:1023930013ED119D021213EDB79D021213EDFF9D74
:1023A300021213ED709E021213EDFC9E021213ED46
:1023B300609F021213EDC09F021213ED6FA0021271
:1023C30013EDDBA0021213ED0EA1021213ED8CA18B
:1023D300021213EDE8A2021213ED58A3021213ED39
:1023E300EAA3021213ED4DA5021213EDD4A50212B6
:1023F30013ED39A6021213ED67A8021213EDF3A928
:10240300021213ED03AA021213ED37AA021213EDFF
:10241300A5AA021213EDE0AA021213ED42AB0212B7
:1024230013EDD7AB021213EDB2AD021213ED7DAF74
:10243300021213ED87B0021213ED84B4021213EDEE
:1024430051B5021213ED69B6021213ED13B802125D
:1024530013ED3A7C001213EDAA7C001213EDB87C45
:10246300001213ED47F0041213EDB88E041213EDAE
:102473006F8F041213ED7690041213EDF49004128F
:1024830013ED3692041213ED5792041213ED0F93CA
:10249300041213EDBA93041213ED9A97041213ED79
:1024A300B699041213ED1D9B041213EDC1CA061253
:1024B30013ED7AE5021213EDD2E5021213ED58E69D
:1024C300021213ED6AE7021213EDB7E7021213EDDE
:1024D3009DE8021213EDB4E8021213ED06E90212AD
:1024E30013ED3EE9021213ED51E9021213EDA7E9D0
:1024F300021213ED00EA021213ED18EA021213EDB1
:1025030066CF041213ED44ED021213ED6EED0212C9
:1025130013EDA6ED021213EDCCEF021213ED12F040
:10252300021213ED5CF0021213ED30F1021213EDFF
:1025330071F1021213ED94F1021213EDDBF10212A9
:1025430013EDFBF1021213ED7CF2021213ED00F313
:10255300021213ED5AF3021213EDA2F3021213ED5A
:10256300ABF4021213ED6BF7021213ED97F802129C
:1025730013EDD4F8021213ED9BF9021213EDDBF9FC
:10258300021213EDDEF9021213EDE8F9021213ED54
:10259300FBF9021213ED80FA021213EDB6FA0212DE
:1025A30013EDE2FA021213ED09FB021213ED2DFBF8
:1025B300021213EDC4FB021213EDDDFB021213ED45
:1025C30010FC021213ED30FC021213ED6DFC02122B
:1025D30013EDA4FC021213EDA3FD021213EDD6FEBC
:1025E300021213ED8FC8061213ED9BC8061213EDEA
:1025F300E1C8061213EDBEF6051213EDFCF6051243
:1026030013ED88F7051213ED93F8051213EDAFFAE6
:10261300051213ED18C4031213ED3BC4031213ED9B
:1026230012C5031213ED5BC5031213EDB3C50312F9
:1026330013ED0DC6031213ED59C6031213EDCFC6E6
:10264300031213ED5DC7031213EDD5C7031213ED88
:1026530018C8031213EDE6CB031213ED2DCE0312AC
:1026630013ED67CE031213EDF1CE031213ED70CF0A
:10267300031213ED3DD0031213ED69D1031213EDD1
:1026830054D2031213ED28D3031213EDACD4031267
:1026930013ED42D5031213ED63D7031213ED03D8E1
:1026A300031213ED6DD8031213ED14D9031213EDB6
:1026B30078D9031213EDABDA031213EDD1DB031256
:1026C30013ED4ADC031213ED22DE031213EDC2DE17
:1026D300031213ED65DF031213EDC4DF031213EDD1
:1026E3007FE0031213ED45E2031213EDE8E3031257
:1026F30013ED94E4031213EDA9E5031213EDDC9B30
:10270300031213ED549C031213ED9C9C031213ED5F
:10271300E09C031213ED299D031213ED739D031225
:1027230013EDA89D031213ED269E031213ED809E55
:10273300031213EDD99F031213ED62A0031213EDDD
:10274300BEA0031213EDD8A0031213EDFFA00312D2
:1027530013ED57A1031213EDC1A2031213EDE0A26F
:10276300031213ED08A4031213ED85A4031213ED52
:10277300F2A4031213ED54A5031213ED04A60312DE
:1027830013EDD6A7031213EDC1A8031213EDBBA9D2
:10279300031213EDC1AA031213EDDDAB031213ED04
:1027A300EBAB031213EDC4AC031213ED64AD0312D0
:1027B30013EDA8AD031213EDBDAD031213EDCEAEB1
:1027C300031213ED71AF031213EDC9AF031213ED2F
:1027D3002497061213EDCC98061213ED899906126D
:1027E30013EDDE99061213ED7F9D061213ED9A9DEC
:1027F300061213EDDE9D061213ED049E061213ED71
:102803002A9E061213ED429E061213EDA59E061292
:1028130013EDBA9E061213EDDC9F061213EDE59F2E
:10282300061213EDEE9F061213EDF79F061213ED3A
:1028330001A0061213ED0080061213EDE0830612C9
:1028430013EDE583061213EDE783061213ED02B5CC
:10285300061213ED0DCA061213ED7FCB061213ED0C
:102863003BB8061213EDDC7F001213ED9DD5011268
:1028730013EDF4D5011213ED60D6011213EDECD66E
:10288300011213EDA2D7011213EDEAD7011213EDD2
:1028930003D8011213ED26D8011213ED48D8011203
:1028A30013ED86D8011213EDD5D8011213ED00D91B
:1028B300011213ED5ED9011213ED05DA011213EDC6
:1028C300ADDA011213ED29DB011213EDF6DB011270
:1028D30013ED42DC011213EDCADC011213ED03DD2B
:1028E300011213ED94DD011213EDA5DD011213EDB9
:1028F30017DE011213EDB0DE011213ED1ADF011220
:1029030013ED0AE0011213ED2FE0011213ED2CE198
:10291300011213ED39E1011213ED42E1011213ED3E
:102923002BE3011213ED47E4011213EDD8E4011276
:1029330013ED49E5011213ED23E7011213EDEEEA5E
:10294300011213ED02EB011213ED12EB011213ED61
:102953001CEB011213ED25EB011213ED2EEB01120B
:1029630013ED38EB011213ED67EB011213ED95EB49
:10297300011213EDA0EB011213EDC4EB011213EDE1
:10298300E8EB011213ED5AEC011213EDA3EC011263
:1029930013EDBFEC011213ED30ED011213ED7CEDDD
:1029A300011213EDC5ED011213ED03EE011213ED48
:1029B30084EE011213ED4FF0011213EDEEF001124C
:1029C30013EDB6F1011213ED42F4011213ED97F476
:1029D300011213EDBFF4011213EDF2F5011213ED21
:1029E30037F6011213ED8CF6011213ED3AF70112CB
:1029F30013EDDFF7011213ED14F8011213EDB4F820
:102A0300011213ED30F9011213ED7484011213ED69
:102A1300A684011213EDDA84011213ED8E860112DE
:102A230013ED6287011213EDC187011213EDD788ED
:102A3300011213ED2389011213EDC08B011213ED63
:102A4300358E011213ED818F011213ED19900112CE
:102A530013ED2590011213ED6E90011213EDA19069
:102A6300011213ED2D91011213ED3F92011213ED9B
:102A73008093011213ED7F94011213EDA9940112B7
:102A830013ED1495011213ED6D95011213EDE095FD
:102A9300011213ED1698011213ED9C99011213ED17
:102AA300879A011213EDD59B011213ED0D9E0112AE
:102AB30013ED04A1011213ED13A1011213EDA7A14C
:102AC300011213ED52A2011213ED95A2011213ED9F
:102AD300DEA2011213ED2EA3011213ED9BA301122B
:102AE30013ED07A4011213ED23A4011213ED52A455
:102AF300011213ED91A4011213ED79A5011213ED47
:102B030028A6011213ED9FA8011213EDD1A90112FA
:102B130013EDA0AA011213ED22AB011213ED6EAF58
:102B2300011213ED9DAF011213EDF8AF011213ED76
:102B33002BB0011213ED86B0011213EDA2B00112F6
:102B430013ED03B1011213ED53B1011213ED02B2F0
:102B5300011213EDC5B2011213ED8DB3011213ED82
:102B6300D9B5011213ED65B7011213EDBCB801120B
:102B730013EDD8B9011213EDDBB9011213ED0ABA43
:102B8300011213EDF9BB011213EDC2BC011213EDD7
:102B930003BD011213ED59BE011213EDCFBE011295
:102BA30013ED02BF011213ED66BF011213ED87C1CE
:102BB300011213EDE6C1011213EDBCC2011213EDB4
:102BC300D0C2011213EDE4C2011213ED11C30112BD
:102BD30013ED41C3011213EDE5C4011213EDE2C578
:102BE300011213ED30C6011213ED57C6011213ED96
:102BF30032C7011213EDD8C7011213ED5EC90112DA
:102C030013EDA5C9011213ED12CA011213ED67CB1F
:102C1300011213ED10CC011213ED44CC011213ED8C
:102C23005CCC011213EDFFCC011213ED7BCF01122B
:102C330013ED23D1011213ED47D1011213ED65D129
:102C4300011213ED31D2011213ED7FD5011213EDF1
:102C5300F03A001213ED223B001213EDA23F0012D3
:102C630013EDF13F001213ED3740001213EDDA407C
:102C7300001213ED3F41001213ED8341001213EDD7
:102C8300EA42001213ED1644001213ED134800122A
:102C930013ED9248001213EDB849001213ED1B4ACD
:102CA300001213ED674B001213EDFF4D001213EDED
:102CB3008C4E001213ED964E001213EDBE4E001211
:102CC30013ED864F001213ED1B50001213ED445009
:102CD300001213ED7150001213EDC652001213EDE2
:102CE3009353001213EDD253001213ED54540012F8
:102CF30013EDFF54001213ED3155001213ED7C5503
:102D0300001213EDB555001213ED0456001213ED26
:102D13006056001213EDE256001213ED47570012EE
:102D230013EDBF57001213ED6859001213ED605AEB
:102D3300001213EDA15B001213EDF55E001213ED0B
:102D43005161001213ED0A62001213ED5262001278
:102D530013ED3364001213ED6E64001213ED776408
:102D6300001213ED8064001213ED8B64001213ED57
:102D7300AA64001213ED5D65001213EDBA6500122B
:102D830013EDC465001213EDCE65001213ED1A6640
:102D9300001213ED6266001213ED6667001213ED65
:102DA300FF67001213EDC668001213EDF0690012FD
:102DB30013ED1B6B001213ED116C001213ED296C54
:102DC300001213ED5D6C001213ED7B6C001213ED1A
:102DD300C36C001213EDFC6C001213EDB36D001203
:102DE30013ED746E001213EDE76E001213ED636FB3
:102DF300001213EDFF6F001213ED2571001213ED96
:102E0300E171001213ED8172001213ED6E73001263
:102E130013EDC673001213ED8C74001213EDAF742F
:102E2300001213EDC475001213ED0F76001213EDAB
:102E33006B76001213EDD376001213EDF7760012C2
:102E430013ED1F77001213ED6477001213ED8877EB
:102E5300001213ED0C78001213EDF578001213ED48
:102E63003A79001213ED6379001213ED017A00121F
:102E730013ED6C7A001213ED987A001213ED797B3F
:102E8300001213ED35E2041213ED6DE2041213ED9B
:102E93008EE2041213EDD0E2041213ED34E30412B4
:102EA30013ED3EE3041213ED4EE3041213ED85E339
:102EB300041213ED2EE7041213EDF6E8041213EDDA
:102EC300DAEA041213ED7CEB041213ED06EC0412A0
:102ED30013ED56BB021213EDBABB021213ED18BC6D
:102EE300021213ED63BC021213ED7EBC021213ED4A
:102EF300A5BC021213EDC2BC021213EDCEBC02122A
:102F030013ED5FBE021213ED78BE021213EDF4BE91
:102F1300021213ED07BF021213ED17BF021213EDD6
:102F2300BBBF021213ED27C1021213ED3AC2021204
:102F330013EDDAC2021213EDE4C2021213ED63C3FE
:102F4300021213ED74C3021213EDB3C3021213ED95
:102F5300E1C3021213EDAEC4021213ED05C5021252
:102F630013ED3EC5021213ED94C5021213EDB2C563
:102F7300021213ED00C6021213EDCBC6021213EDBB
:102F830019C7021213ED66C7021213EDE9C7021245
:102F930013ED13C8021213ED49C8021213ED58C8FA
:102FA300021213EDB7C8021213ED2FC9021213ED6B
:102FB30070C9021213EDC0C9021213EDEBC902125C
:102FC30013ED05CA021213ED1FCA021213EDF4CA60
:102FD300021213EDFECA021213ED39CB021213EDE6
:102FE30049CB021213ED52CB021213EDA3CB021203
:102FF30013EDB7CB021213EDD9CC021213EDEECCC5
:10300300021213ED81CD021213EDF5CD021213ED71
:103013009ACE021213EDA5CE021213ED05D00212C1
:1030230013ED21D0021213ED6DD0021213EDDBD09C
:10303300021213ED0DD1021213ED27D1021213ED7B
:1030430069D1021213EDBCD3021213ED54D4021250
:1030530013EDCBD4021213ED28D7021213ED40D790
:10306300021213ED43D7021213ED4FD7021213EDE1
:1030730063D7021213ED6BD7021213EDA2D702121C
:1030830013ED96D8021213ED20D9021213EDA2D933
:10309300021213ED22DA021213EDF9DA021213ED22
:1030A3001BDB021213EDB4DB021213ED11DC02126F
:1030B30013ED14DC021213ED83DC021213EDCFDDEA
:1030C300021213EDE2DE021213ED6DDF021213EDB5
:1030D30080E0021213ED45E1021213ED76E10212D4
:1030E30013ED9CE1021213EDA5E1021213EDD4E1FD
:1030F300021213ED84E2021213ED34E3021213ED14
:10310300A7E3021213ED4AE4021213EDBDE4021227
:1031130013EDFCE4021213ED45E5021213ED2AEF61
:10312300041213EDDFEE041213ED44EE041213ED5B
:10313300B5EC041213EDED8C041213ED728B041233
:1031430013ED708A041213ED3188041213EDDB873B
:10315300041213ED1E86041213ED9583041213ED6E
:103163000F83041213ED92CE041213ED92CD0412C9
:1031730013EDCB81041213ED8780041213EDB3CC4E
:10318300041213EDF6DD051213ED0080041213EDA6
:1031930098A1061213ED70A1061213ED03A10612F6
:1031A30013EDA3A0061213ED67B5041213ED8DB44E
:1031B300041213EDC3B3041213ED32B2041213ED70
:1031C300FBB1041213EDCDB1041213ED81B104125E
:1031D30013EDEAB0041213ED5AB0041213ED34B038
:1031E300041213EDE9AF041213EDB3AF041213EDA0
:1031F30036AF041213EDD1AE041213ED80AE0412F8
:1032030013EDA8AD041213ED18AD041213EDCCACFD
:10321300041213ED47AC041213ED02AC041213EDC8
:10322300E6AB041213ED59DD051213ED8EAA041259
:1032330013ED11DA051213ED8ED9051213ED3BD9F7
:10324300051213ED20CB061213ED05CB061213ED79
:103253000EF5041213EDB0F3041213ED47F3041249
:1032630013ED60AA041213ED2DAA041213EDB1A9F4
:10327300041213ED8BFD051213EDDEF2041213EDB0
:103283007CFC051213EDB6FB051213ED3DFB051295
:1032930013EDEAE1041213EDBEF1041213ED91E113
:1032A300041213EDADEC021213ED5CE1041213ED05
:1032B30027E1041213EDF3E0041213ED86E0041288
:1032C30013ED6EE0041213ED49E0041213ED22DD59
:1032D300041213EDF5DA041213EDFCD8041213ED06
:1032E30088D8041213ED39D8041213EDF3D704125E
:1032F30013ED95D7041213ED618F051213ED00F151
:10330300041213EDCF8E051213EDE48D051213EDA8
:103313006C8C051213ED278A051213ED62890512D1
:1033230013EDC67D0000000080FBE4730000000085
:1033330020016F840000010020016F84000002005F
:103343002001738400000300200170840000040046
:1033530042016D800000050042017E8000000600EE
:103363004201A080000007002001AB800000004064
:103373004201A0800000100042018F800000110074
:103383002001F2070000120010032B1606000000B4
:103393001011000008000000203300000C0055004D
:1033A300393300000C001C004233000012005500AA
:1033B3002001000014000E0042220000050B000053
:1033C30021010000050B010021010000050B000194
:1033D30023010000050B010123010000050B02017D
:1033E30023010000050B030123010000050B040169
:1033F30021010000050B050121010000050B060159
:1034030021010000050B070121010000050B080144
:1034130021010000050B090121010000050B0A0130
:1034230021010000050B0B0121010000050B0C011C
:1034330021010000050B0D0121010000050B0E0108
:1034430021010000050B0F0121010000050B1001F4
:1034530021010000050B110121010000050B1201E0
:1034630021010000050B130121010000050B1401CC
:1034730021010000050B150121010000050B1601B8
:1034830021010000050B170121010000050B1801A4
:1034930021010000050B190121010000050B1A0190
:1034A30021010000050B1B0121010000050B1C017C
:1034B30020010000050B1D01280100008F00010001
:1034C3002E14870001009C163500040061162500A8
:1034D300020065162600020067162700020069161F
:1034E30028000100731629000100741684000400EB
:1034F30075168600010079162A0001007A162B0042
:1035030001007B162C0001007F162D00080011140A
:103513002E00010080162F000100811630000100EB
:1035230082163100010083163200010019143300A2
:1035330001001A14340001008416360001001B1424
:10354300380001008516390001007E168300020051
:103553009A16630001002B14640001007C166500B9
:1035630001007D166D0001002C1471000800091480
:10357300660001009916430001008A164400020008
:103583008B16450001008D16460002008E1647007B
:10359300080023144800010090164B000100911607
:1035A300040001009D16A1000100A01637000100D0
:1035B3009F16880001009E163C0001001C143D006C
:1035C30001008616490002009216670001002D14BF
:1035D3004D00020094164E00010096164F000200A3
:1035E30097163E0001002214510001008716520075
:1035F30001008816530001008916540001001D14B0
:103603000000000000000001363601010001020144
:103613000001030100010401060605020000070181
:1036230000340801000F090401010D0100FF0E0819
:10363300000017020000190100FF1A0100011B011D
:1036430000FE1C0100081D0200001F0100012001F3
:103653000001210200002301000F240200002601C3
:10366300000127010008280200FF2A0100072B019F
:1036730002402C0100002D0100012E0100012F0149
:1036830000FF30010B1D310800003A0100083B0127
:10369300000F3C0100013D0100FF3E040000420415
:1036A3000000460400004A0400004E0400005204D7
:1036B3000000560400005A0400000000210100012C
:1036C30000210200000123660001012367000201BB
:1036D30023680003012369000401216A0005012115
:1036E3006B000601212C010701212D010801212E68
:1036F300010901212F010A012130010B01213101AF
:103703000C0121C8000D0121C9000E0121CA000FBF
:103713000121CB00100121CC00110121CD001201A8
:1037230021CE00130121320114012133011501219E
:10373300CF001601213401170121D000180121D136
:1037430000190121D2001A0121D3000103710301E1
:103753000301030103010301032203020301031015
:1037630003000300030003000300030003000342FC
:1037730003000324030603000300030403120325C9
:1037830003230325032303040304030003000300AB
:1037930003440300030003230300036503210035EF
:1037A3000381030003050300030003000300032553
:1037B300032303030271023001600211027002014C
:1037C30002020202028002100261023A0041006317
:1037D3000273027202620243020002130238000003
:1037E30002000204021202000200020002000204AC
:1037F300020402370037003C024402000239000091
:103803000200026502000235028102000205028203
:103813000283020002030071003001600011007096
:1038230000310220035004800010006100000014E6
:10383300006300730072006200430000001300067F
:10384300000000000004001200000000000000005F
:103853000004000400370037003C0244000000006D
:103863000000000000650000003500810000000535
:103873000000008300000001017101010101011139
:103883000101013101010101018001100161013BCD
:10389300001400630173017201620143010001130B
:1038A3000106013D01350004011201000100010080
:1038B30001000104010401330133013C01440132DD
:1038C300013600000100016501000135008101009E
:1038D3000105018201830100013600010006000099
:1038E300000F0000000000000000000000000003C3
:1038F300FFFF00000403FFFF0000FFFF0FF40100C0
:1039030005C4040320000100000B000000000000B8
:10391300000003010F000000000000000000000091
:103923000000000000000000000000000000000094
:1039330000000000000000C8232224CE23D222D49A
:10394300232824D4233424DA23D222D4232824E0A2
:1039530023D222E623D222EC23D222F223D222F84C
:1039630023D222FE23D22204243A240A24D2220080
:10397300000000000000000000000010244C24168A
:1039830024D22210244C241624D22204243A241CA8
:1039930024D2220A000000020000000400000008F4
:1039A3000000001000000020000000400000008024
:1039B30000000000010000000200000004000000FD
:1039C300080000001000000020000000400000017B
:1039D30000B026020032260300382604003E2605E6
:1039E300004426060050263000682633007426342F
:1039F300007A26110080261400862615006226FF11
:103A0300FF000007ECFDFDFDECDCDCCCBCACAC9CAA
:103A13009C8C7C7C6C6C5C5C5C4C4C3C3C2C2C1C13
:103A23001C03EAF5E5D5D5C5B5A5959585857575C9
:103A3300656555554545353525251515050AC22CAA
:103A430002922C05A42C07982C0C7A2C0D862CFFA3
:103A5300000000160F00000B150B020002220F33AB
:103A630000000E01030507090B0D0F0002040608F1
:103A73000A0C0D5A6967426565416C6C69616E6336
:103A830065303900393D3F373C3C362C442D00032B
:103A93004A49434E181A250502000119161816162D
:103AA30018230300303017181921301B1D1F300C49
:103AB3000E020B040B0A0708000F303016181920EA
:103AC300231A1C1E30020402010101010902E8034A
:103AD300000000BE040AE8030E00FF1E10040903E1
:103AE300040A0C040408280C050832031E74F71298
:103AF3000DEDE99014F9F09014AEE4F0121EEE907F
:103B03001502E4F0A3F09014FAF0A3F0122E24129D
:103B13001EF490143EE4F0A3F012281802565B74CE
:103B2300EC120DED74D7121500EAFEEBFF54806022
:103B3300689014F9E0F9121F668A088B09EA4509AF
:103B4300604F7C0080010CEC75F003A4F8A9F074BD
:103B53004028F582743A39F583E493F4602CE493B6
:103B6300F88508828B83E06870DCAA08EC75F003A3
:103B7300A4F8744128F582743A39F583E493C0E0DC
:103B8300740193F583D08212332DAA08AB09121F57
:103B930054EEFAEF6480023F84EF5420601E122D2E
:103BA3001C8A088B09EA4509600A122C86AA08AB0D
:103BB30009121F54EEFAEF6420023F84EEA2E05094
:103BC3001F9014B3E0640F70117900122C5CE9604C
:103BD3000990166112175C122C74EE6401023F59AE
:103BE300EF5440604F901651E064067028740BF058
:103BF300901679E0F9750801750900750A00750BCF
:103C0300009014A1E078081213A6AA08AB09AC0A25
:103C1300AD0B12290890141E1211FD7A007B4090FF
:103C230014F9E0F91220A47404121438EEFAEF64C4
:103C330040023F84EE54207003023F5D7A207B00F4
:103C43009014F9E0F91220B0EA4B4C4D701A90141D
:103C5300FE121780E8494A4B700E750C01750D0072
:103C6300750E00750F008061750C00750D00750EE3
:103C730000750F001220BC8A088B098C0A8D0B90EB
:103C830014FE121780E8494A4B602A9014FE780804
:103C93001213C5400E750CFF750DFF750EFF750FE2
:103CA300FF801285080C85090D8C0E8D0F9014FE74
:103CB300780C1214D27401780C1214A1E50C450D82
:103CC300450E450F7003023E8A7C0079047A007B1F
:103CD30000122CF88A088B09023DB18518828519D8
:103CE3008374FFF0740112179774FFF074021217B4
:103CF3009774FF124B4AFAA3E0FB74031214CA121F
:103D03006BF6126467122D3AE964016003023D9376
:103D1300E508125A5312529A4480F8A3E0F9742426
:103D2300121797E8F0A3E91263D2A3A3A3E0C0E0BC
:103D33007426121797D0E01269E8A3E054086016BE
:103D43007424121797A3E04401123F9CC0E0742827
:103D5300121797D0E0F01277E13509126CF460186E
:103D63001277E1126388A3E0C8127AF8E0F87412BC
:103D7300121797E8F0A3E4F090839B1211FD7404EB
:103D83001214CA74071214C2122938740412143894
:103D9300850882850983A3A3A3A3A3A3A3A3A374D1
:103DA30006123F9CF9122CDA850A08850B09E508EF
:103DB30045097003023E8A7C007904AA08AB091204
:103DC3002CF88A0A8B0B850882850983A3A3A3A3F6
:103DD300E0F510A3E0F511E4F512F513780C791072
:103DE3001216CC4029E5082404F8E43509F9850CBA
:103DF30010850D1188828983C3E09510F0A3E095A7
:103E0300111242E5F8A3E0F9E849709C800E850899
:103E130082850983A3A3A3A3E4F0A3F08508828585
:103E23000983A3A3A3A3A3A3A3A3A3A3E0640185DB
:103E33000882850983A3A3A3A3A3A3702BE054043F
:103E43006003023CDE850882850983A3A3A3A3A3A1
:103E5300A3A3A3A37406F07AB78508828509831206
:103E630040D1122C6E023DABA3A3A3A3E0600302D7
:103E73003CDE850882850983A3A3A3A3A3A3A3A3ED
:103E8300A37401F0023DAB122CC87C0079017A00C7
:103E93007B00122CF88B09EA4509600C7A207B0021
:103EA3009014F9E0F9121F90850C0A850D0B7C0024
:103EB30079047A007B00122CF8EA4B701580538A40
:103EC300828B83A3A3A3A312758CE50898E50999B4
:103ED30040078A828B831256C67C007904122CF821
:103EE3008B0DA90DEA4970D7C3E50A9508E50B9533
:103EF300095013C3E508950AF508E509950BF5097B
:103F0300E508450970167A207B009014F9E0F91250
:103F13001F909014FE123F95A3F08037E50825E02B
:103F2300F508E50933F509E4F50AF50B78081214E9
:103F3300027A207B009014F9E0F912209E74041297
:103F430014381220BCEAF8EBF9ECFAEDFB9014FEFE
:103F5300121768EE6420FAEF8027EF5402600A120A
:103F63002E1EEEFAEF64028018EF540460161268F6
:103F7300A979019014AC12646912294AEEFAEF642C
:103F830004FB80047A007B0074291214387F0C022E
:103F930010F4E4F0A3F0A3F0221263D6A3E022C04E
:103FA30082C08374EA1215007C167D007900AA187A
:103FB300AB19121F3C74081217977402F09014A2E5
:103FC300126C07123FE57409121797126B157413DD
:103FD300121797E41267F912280C74161214380298
:103FE3006449E8F0A3E9F09014AC125EE62274F79A
:103FF300120DED74DA121500EAFEEBFFEE4F602DA1
:10400300AC18AD19122D3A7406121797E0601E749E
:1040130017121797E0FD7401121797E0FCEEFAEF01
:10402300FB7900122C32E9600479A48002790074D0
:104033002602565874F7120DEDEAFEEBFF8E828FBF
:1040430083A3A3A3A3A3A3E0544060171275501244
:104053006469122DCAE960067AFF7BFF8015127529
:104063005080039014A212646974FE6A700374FF93
:104073006B604712755012711F122DCAE98E828F21
:1040830083600E125B8F125A5338F583E4F0A380DA
:1040930003127B23F07C627D2C8E828F83126469F2
:1040A300122812E9F5087015EE4F60097901EEFA4E
:1040B300EFFB122CD4A90802565B7508CDAA08128F
:1040C30040CD122C6EE960E080EB8E828F83125B11
:1040D30093127ADBE0F92274F6120DEDE9FEEAFFA2
:1040E3007A0F7B00121F4EEA4B601F8A828B837408
:1040F3000CF0EEA3A3F0EF8A828B83125438901452
:10410300F9E0F9121F5A7900802FEEF9122CFE8A7A
:10411300088B09A808A909E849601C88828983A338
:10412300A3A3A3A3A3A3A3A374061277E9E0F9129D
:1041330029DAEEF9122CDA79100267B774F4120D4A
:10414300ED8A088B098C0A8D0B9014B3E0640F7011
:104153002CEA4509450A450B60239014AEE0640838
:104163006005E06404701678081214027A017B007B
:104173009014F9E0F912209E7404121438024411C9
:1041830074F4120DED74FC121500EAFEEBFF8E823F
:104193008F83A3A3E0F9122CFE8A088B09EA450951
:1041A30070030242C08E828F83A3A882A983E0C0DA
:1041B300E0EA240B126385D0E01242E564F1602843
:1041C3008E828F83A3E064CD601E8E828F83A3E0F3
:1041D300641A60148E828F83A3E064E9600A8E827E
:1041E3008F83A3E064E170367900122CD4E9602E4A
:1041F300E5082404F50AE43509F50B8508828509E9
:10420300831242D1A3E0F9850A82850B8312646984
:10421300121F00850A82850B8312711F806E8E82A6
:104223008F83A3E0C0E07402121797D0E0124DF31E
:10423300127B65124DE5C0E07403121797D0E0F0CE
:10424300E508240C125297AA18AB197005122932EB
:104253008003122DB27402121797E064E9702D8562
:104263000882850983124B5F750A01780A12140EBE
:10427300750AE9780A12140E12528D124DD5125690
:104283009A126469122D707402121438850882859B
:104293000983A3A3A3A3A3A3A3A3A3E0640270120C
:1042A300850882850983A3A3A3A3A3A3A3A3A374BC
:1042B30006F08E828F83A3A3E0F9122CDA122CC8A6
:1042C300901667124801122C74740402440EA3A3BF
:1042D300A3A3A3A31242DB22E0FCA3E0FD8E828F03
:1042E30083221277F9E02274F4120DEDEAFEEBFF5C
:1042F3007508008E828F83A3A3A3A3A3E0604875F0
:1043030008088E828F83A3A3A3A3A3A3A3A3A312AB
:10431300646979FF122AC48B0BEA450B6010750898
:104323002C8E828F83A3A3A3A3A3E0D2E0F08E827B
:104333008F83A3A3A3A3A3E05403640160030244F4
:104343000A43081102440AEE241812594F6038EE4A
:10435300241A12594F6003F470131274767003A376
:10436300E069600302440A75082202440AEE241B32
:1043730012735EEE241A12594FFAEE241912594F92
:10438300F91229C802440A8E828F83A3A3A3A3A38D
:10439300A3A3A3A3126469122DCAE964027003756F
:1043A30008011274767003A3E0697006E508D2E190
:1043B300F508E50860158E828F83A3A3E07006E5F8
:1043C30008D2E58004E508D2E6F5088E828F83A340
:1043D300A3A3A3A3A3A3A3A3126469122DCAE9648D
:1043E300017006E508D2E0F5088E828F83A3A3E06F
:1043F3006015EE241D1257ADF9122DB8E964016062
:1044030006E508C2E0F508A90880031214387F0402
:104413000210F474F0120DED74D7121500EAFEEBDE
:10442300FF8E828F83A3A3A3A3E06011901665126E
:104433006CF66009901665124801122C747403120D
:1044430014CA8E828F83A3A3A3A3124DC6126469D9
:10445300122D3AE970030245AF78017405121797DC
:10446300E0C39402400278007407121797E0C394E4
:104473000240027800740C121797E064F87003A3EB
:10448300E0F470030245AF740C121797E064F970FF
:1044930003A3E0F470030245AF740C121797E064B2
:1044A300FA7003A3E0F470030245AF740C1217977C
:1044B300E064FB7003A3E0F470030245AF740612DB
:1044C3001797E0F990149CE06960030245AFE8A2F6
:1044D300E040030245AF7427121797E060030245DB
:1044E300AFEE2413125EDC74221217971269D024E4
:1044F3001C125EDC7410121797126B1574091217D5
:1045030097E0601F741A121797E0FD74041217974F
:10451300E0FC8E828F83A3A31264697901122C328B
:10452300E9703D74031214C2122C80E9F508740972
:10453300121797E0702E901496E0602874225508A5
:104543006422602074425508644270147420121768
:104553009712480D600E74201217971247EA6004F1
:104563007ACF804AE9A2E6504D742012179712576A
:10457300B324FD600F14600C24FD600824FD600467
:1045830024FE702874201217971247E3700E7420CC
:10459300121797126761A3E0640D601A7403121473
:1045A300C2122DE2E96401700D0247D67AD37B0073
:1045B3001226020247D6EE242DF582E43FF583123C
:1045C3004B3D7003A3E0697022750900780912144A
:1045D3000E780912140EEE242F12594FF91247F1D7
:1045E300126463122D70740212143874091217972F
:1045F300E070030246921247F1126463122E488A56
:104603000A8B0BEA450B700302472F7404121797AA
:10461300E0F88E828F83A3A3E028F8A3E03400F9A7
:10462300E8240D1247DBF88A828B83A3A3A3E068F7
:10463300600EE88A828B83A3A3A3125431123F96A0
:104643007904E9121797124DBDE02AF8A3E034006C
:104653008882F583A3AA82AB83121F428A0C8B0D37
:104663008C0E8D0F850A82850B83A3A3A3A3780CDD
:104673001213C540030247D69083FF780C1215CD61
:10468300850A82850B83A3A3A3A3780C1217199021
:1046930014AEE064046008E0640960030247D6E5F1
:1046A30008A2E54003024769EE242F12594F8518EB
:1046B30082851983F0EE243012594FC0E074011241
:1046C3001797D0E0F0EE243112594FC0E074021274
:1046D3001797D0E0F07414121797E06401702C74EC
:1046E3000E1217971252A7241312594F687003A37F
:1046F300E0697017740C121797126469122DCAE9D6
:10470300640270077414121797E4F0EE2425F582FF
:10471300E43FF5831211FD74041214CA74071214D2
:10472300C212293874041214380247D69014F3E0E5
:1047330064016003024692742012179712480D70A9
:1047430009E508A2E650030246927410121797E097
:10475300F47003A3E0F4607BEEFCEFFD740312142A
:10476300C2122C8C806DA2E6506974201217971226
:104773006BDD7016741A121797E064027055740398
:104783001214C27900122DAC8049742012179712AB
:1047930047EA7014741A121797E0640470357403AF
:1047A3001214C2122DA0802B74201217971247E304
:1047B300700C790074031214C2122DEE801574204C
:1047C300121797126761E0640C700874031214C225
:1047D300122E0674290252BEF582E439F583E022D3
:1047E30012755AE064032212755AE0640722EE241C
:1047F3002BF582E43FF583127368EE241322E0F570
:1048030008A3E0AA08FBE4FCFD221256B6640622C4
:1048130074F4120DEDEAFEEBFF8C088D0990141968
:10482300E0600F1274767003A3E06970051229B675
:10483300805A79008E828F83A3A3A3A3A3A3A3A3E8
:10484300A31264691229E68A828B83E58245836019
:1048530033A3A3A3A3A3A3E054186028E508241C4F
:10486300126385121201E5082413126385121201E3
:10487300EE241812594FF91264501229F8740412D5
:104883001438800879001264501229BC0244117450
:10489300F7120DED74F7121500EAFEEBFF9014AE5C
:1048A300E06403600DE064016008E06409600302F2
:1048B30049AA8E828F83A3E060030249707C007D46
:1048C300007A027B00121EFA1275968A828B83127B
:1048D3005EE290149F126B1579531227FA9014AE6F
:1048E300E0640960099014AC126469122E428518C1
:1048F3008285198374011267F979421227FA901499
:10490300AE7404F074011214C2794A1227F47401CC
:104913001214CA7AA47B141221B2901651E0640BCC
:1049230070057406F0800B79009014AC1264691260
:10493300294A90149F1273647A037B00121EFA9023
:1049430014A21273647A047B00121EFA901499E085
:10495300A2E35004D2F08002C2F01267EF79521240
:1049630027FA90166112175C122C748037FC7D00B5
:104973007A037B10121EFA901651E0640B700374D5
:104983000AF0901687E4F0FA7B409014F9E0F912EC
:1049930020AA8E828F831249B112646912294A9028
:1049A30014AEE4F0122CB67409025658E0F8A3E0F2
:1049B300F99014AC22C082C08390143E126CF6703E
:1049C3001F9014AEE014600924FC600A14600C808C
:1049D3000F9014488034901444802F901446802AFA
:1049E300E849600890143F124DCF700C8A828B8384
:1049F300A3E0F912293E801D90143E126BE364027A
:104A03007005122E12800E90151D126CF6600612A0
:104A1300676212332D02644974F4120DED74FE12B1
:104A230015008A088B097A007B049014F9E0F912C7
:104A330020AAAA18AB1979501227F47A0F7B001217
:104A43001F4E8A0A8B0BAE0AAF0BEE4F6020850810
:104A530082850983A3E070169014ACE0F47003A37D
:104A6300E0F4603B124B377003A3E06960318508C3
:104A730082850983A374EA124DEB1227FA7AA27B8B
:104A830014794B1227FA7AAC7B1479501227FA7AED
:104A9300A17B1479E11227FAEE4F7003024B2B8EA0
:104AA300828F837402F09014ACE0F47003A3E0F4FB
:104AB300600A124B377003A3E069704F8518828533
:104AC30019831249AFE8F0A3E9124DEB1227F490D2
:104AD300149F1252AC126B157AA27B14794B1227D6
:104AE300F47AA17B1479E11227F4750A00780A128B
:104AF300140E780A12140E9016461249B212500C74
:104B0300126469122D7074021214388508828509A3
:104B130083124B30A3F09014AE7403F0EEFAEFFB64
:104B23009014F9E0F9121F5A740202440EA3E08EA6
:104B3300828F8322851882851983125EE69014ACD6
:104B4300E06822E8F0A3E9124B4E22F08508828543
:104B53000983E022F582E43BF583E022125EE6E876
:104B6300FAE9FB2274F5120DED74D11215008A08CF
:104B73008B098A828B831257A5741C1214CA8A82EA
:104B83008B83A3A3A3A3A3A3A3A3124DD5126469E9
:104B9300122CBC741C121797E0702C8508828509AF
:104BA30083A3A3A3A3A3A3A3A3E0C3940B40188E3F
:104BB300828F83A3A3A3A3A3A3A3A3E06402700789
:104BC300126B01E0F46003024DB89014AEE064028E
:104BD3007003024C9FE064067003024C9F90143EE6
:104BE300126CF66008124DCF7003024CCF9014AED6
:104BF300E064086008E064046003024DB8741E12A8
:104C03001797124DBDA3A3A3A31257A590143EE07B
:104C1300F8496007126BE9640260779014ACE06EA8
:104C23007003A3E06F6003024DB874016A601674E9
:104C330023121797AC82AD837AC07B141221ACE99F
:104C43006003024DB87A007B029014F9E0F9122058
:104C5300B0EA4B4C4D6003024DB89014AF1217806D
:104C63008518828519831217689014B5E0C0E07423
:104C730004121797D0E0F074051217977401F074BB
:104C83000612179774021267F91228FCE9600302EF
:104C93004DB5EEFAEFFB122E0C024DB890143E12F6
:104CA3006CF67028750800780812140E7808121430
:104CB3000EEE2410F582E43FF583124DC6A3124293
:104CC300D1126469122D7074021214388E828F838C
:104CD300125EE27407121797E8F0A3E91252B212B8
:104CE3005EE274091217971269D0125E7BC0E074FA
:104CF3000B121797D0E0124DE5F508A3E0F5097400
:104D03000F780812170A740C121797E508F074202D
:104D1300121797E0C0E0740D121797D0E0F07422D9
:104D2300121797E0C0E0740E121797D0E0F0741DCD
:104D3300121797E0C0E07410121797D0E0F0741EBA
:104D4300121797E0C0E0740F121797D0E0F0EE242B
:104D53001012594FC0E07411121797D0E0F074216C
:104D6300121797E0C0E07412121797D0E0F0742E78
:104D7300121797E0C0E07413121797D0E0F0742372
:104D8300121797A982AA8389088A09750A007808E5
:104D93001214067C087D007417121797AA82AB833E
:104DA300121F30740312143874071214C2122944E8
:104DB3008003122902742F0257B7E0FA8E828F8381
:104DC300A3A322E0F98E828F83A3A322126BEA644A
:104DD3000122E0F98A828B83A3A3A3A3A3A3A3A3A2
:104DE300A322F0126B05E022F07A9F7B1479532201
:104DF300124DF722F08518828519832274F2120D61
:104E0300ED74F8121500EAFEEBFF8C0A8D0B890D89
:104E1300908295AC18AD197408121346750C00EE08
:104E2300FCEFFDAA18AB191221ACE97003750C0154
:104E33009014FA801AEEFCEFFDE508240BFAE43532
:104E430009FB1221ACE97023E508241412638512CF
:104E53004E846024E50CA2E040DB8508828509834B
:104E6300E0650A7004A3E0650B70DD85088285099F
:104E730083A3A3E0650D70D0AA08AB09740802549C
:104E83004C1256CEE508450922C082C0839014FA1D
:104E930002644674F7120DED9014FA127807800C31
:104EA300126F541257A8121FEAEEFAEFFBEA4B7087
:104EB300EF9014FAE4F0A3F002565B74F1120DEDD7
:104EC300EAFEEBFF890A8C088D098E828F83E08CC2
:104ED300828D83125EAAAE82AF83E01261EF12630A
:104EE300F6C41261EF124F7DE01261F61263F4A271
:104EF300E2E4338C828D831263F3131313541F1272
:104F030061EF1263F2A2E7E4338C828D83A3A3A340
:104F1300A3124F7D8E0C8F0D750E00780C121406A4
:104F23007C087D00E5082407FAE43509FB121F30ED
:104F33007403121438EE2408FE50010F8E0C8F0DEB
:104F4300780C1214067C037D00E508240FFAE4357F
:104F530009FB121F307403121438E50AC3940F407F
:104F6300118E828F83A3A3A3E0C0E0126381D0E0FC
:104F73008004126381E4F0027591A3A3125EAE0E66
:104F8300AF832274F5120DED8A088B098A828B8315
:104F9300A3AE82AF83E0F91229628E828F83E0642D
:104FA300EB6024850882850983A3E064E1601885AA
:104FB3000882850983A3E064F1600C850882850972
:104FC30083A3E0641A7009850882850983A3E4F04A
:104FD30090166112175C122C74750A01780A121468
:104FE3000E850882850983A3E0F508780812140E5C
:104FF30079009014AC12500C126469122D70740273
:10500300121438122CC80257BA1273689014A222D1
:10501300EAF0A3EBF002644974F6120DED9014FD6F
:10502300E0701B7C0079017A007B00122CF8EA4BBC
:10503300600C8A828B83126CF66003122C68026701
:10504300B7C082C0837904122CF2E9F8903AEBE4FA
:1050530093C398401079FF122CF2E9F8903AEAE4EE
:1050630093C398500479018002790002644974F073
:10507300120DED8A088B09890B750C008A828B83CC
:10508300A3A3A3A3A3A3A3A3E0F9122CFE8A0E8BCD
:105093000FAE0EAF0F750A01EE4F600302516B8521
:1050A3000882850983A3A3A3A3A3A312736485081A
:1050B30082850983A3A3A3A3A3A3A3A3E0F98508DC
:1050C30082850983126469122CE68A0C8B0DAE0C5F
:1050D300AF0DEE4F70030252868E828F83A3A3A37C
:1050E300A3E4F0A3F0E508240CFAE43509FB8A8273
:1050F3008B83E0C0E012528DD0E0F0E508240D125E
:1051030052A0240D126B0F122DD0EE240F12711921
:10511300E50824111252A02411126B0FE508241381
:10512300125297C0E01269B9D0E0F0750C01EE2479
:1051330006125E6F547FF0A3E054FC1242E5540460
:1051430060030251E0901673E0F5087509007407D7
:10515300780812163F8E828F83A3A3A3A3A3A3E091
:105163004508F0A3E04509F08E828F83A3A312566E
:10517300C67407780812170AE5085407FCE50B60A4
:105183006C8E828F83A3A3A3A3A3A3A3A3A374025D
:105193001263F7125571600B90149A1252ACA3A3C9
:1051A300126B15EC7003025254EE2406127AE45487
:1051B3007FF508A3E054FCF509EC24FFF50EE43475
:1051C300FFF50F7407780E12163FE508450EF8E554
:1051D30009450FF98A828B83126B1580748E828F37
:1051E30083A3A3A3A3A3A3E0448002516AEC7005A5
:1051F300750A00805C8E828F83A3A3A3A3A3A3E07D
:105203005420600C121F48EA547F7900245F8019F0
:105213008E828F83A3A3A3A3A3A3E05410601A12C7
:105223001F48EA540F7900240A5001098E828F83A4
:10523300A3A3A3A3F0A3E9800D8E828F83A3A3A3CB
:10524300A37401F0A3E41252B274041254F4121FB3
:1052530090E50CA2E0502F8E828F83A3A3A3A31209
:105263006EDAE0F9EEFAEFFB122CECE96018126C3F
:10527300ED6009EE240F126463121FEAEEFAEFFBEE
:10528300121FEA750A00A90A8034EE240CF582E4A1
:105293003FF58322F582E43509F583E022F582E4C4
:1052A3003509F583125EE6EE221275BAA3A3221224
:1052B30052B622126132A3A3A3A3221214387F0889
:1052C3000210F474F4120DED74F71215007E00123F
:1052D3002CFEEA4B700302538C8A828B83A3A3A315
:1052E300A3A3A3A3A3A3E06406600302538C8A824F
:1052F3008B83A3A3A3A3A3A3A3E0FF8A828B83121D
:105303007B08E0C0E07408121797D0E01256ADF89E
:10531300A3E0F9851882851983126B15122D10EFFE
:10532300540860638518828519831273647A007B3D
:1053330000122CE08B0BEA450B704C127B571228A2
:10534300247C007D007A007B0080288E828F83126C
:1053530057B3F47003A3E0F4602D9014AC1242D75A
:1053630012646912281EE9641A601C7C007D00EE39
:10537300FAEFFB122CE08A0A8B0BAE0AAF0BEE4F4F
:1053830070C9790012282A7E01EEF9740902440ECD
:10539300C082C083EA4B700590150280068A828B17
:1053A30083A3A31255A960208A828B83A3A3A3A3FB
:1053B300A3A3A3E0540860E5EC4D60101255B07050
:1053C30003A3E06D70D780047A007B000264497404
:1053D300F2120DEDEAFEEBFF890A8C088D097A14AF
:1053E3007B00121FE4EA4B603A8A828B83A3A3A358
:1053F300A3A3A3A3A3A3E41256A2A3E50A12756170
:10540300A3127B631254311256C01254388A828B12
:105413008312757EEA1277E33BF583E4F012542896
:10542300F0A3F08027A3F08A828B83A3A3221275B3
:1054330075E4F0A322A3F01254433BF583E4F02276
:10544300EA1267DE22A90A74031214387F060210D7
:10545300F474F4120DEDEAFEEBFF89088C0A8D0B50
:10546300EE4F70030254EF74016508701279011254
:105473002CF2E9F8903AECE493C398502280167426
:1054830004650870147904122CF2E9F8903AEBE4FD
:1054930093C398500A7911805574026508704D8E34
:1054A300828F83A3A3A3A3A3A3A3A3A3E508125E4D
:1054B300AAA31271B8E4F0A3F0901502126CF6607F
:1054C3001A8003E0F8A3E0F988828983A3A3125525
:1054D300A988828983A3A370EA8003901502EEF062
:1054E300A3EF1254F4121F907900800279C1024491
:1054F30011F07A207B009014F9E0F922C082C08376
:10550300E9F87900901502801D8A828B83A3A3A3F7
:10551300A3A3A3A3A3A3E068600574FF68700109B4
:105523008A828B83A3A31255A970DE02644974F7A0
:10553300120DEDEA4B700590150280068A828B836B
:10554300A3A31255A960208A828B83A3A3A3A3A339
:10555300A3A3A3A3E06970E4EC60108A828B83E0C9
:1055630012557170D780047A007B0002565BF8A352
:10557300E0C8127B2FE0540422C082C0839015023E
:1055830080068A828B83A3A31255A960128A828B19
:1055930083A3A3A3A3A3A3A3A3E06970E580047AD1
:1055A300007B00026449127807FBEA4B221256B2D1
:1055B3006C2274F2120DED8A0A8B0B8C0C8D0D7517
:1055C3000800750900EA450B603090150280068ECD
:1055D300828F83A3A31257A8EE4F601EAC0CAD0DB0
:1055E300EEFAEFFB850A82850B8312332DE9640102
:1055F30070DDEEF8EFF988088909AA08AB090254AF
:105603004F74F7120DED901502125EE27C007D00DF
:10561300800DE8FCE9FD88828983A3A3125EE2E89A
:10562300496030EA687002EB6970E7901502126412
:1056330069E86A7002E96B88828983A3A370081200
:105643005EE29015028009125EE28C828D83A3A331
:10565300126B1580031214387F010210F474F712D1
:105663000DEDEAFEEBFFEE4F602B122D0A1256D61C
:10567300126467121FEA8E828F83126469121FEA13
:10568300126CED6009EE240F126463121FEAEEFA46
:10569300EFFB121FEA80C11273688A828B83221286
:1056A30056A622127579A3A3A322F01256B2228A18
:1056B300828B83E0F8A3E0F5838882E0221256A66A
:1056C300A3A322A3A3A3A31256CE22E0F508A3E02B
:1056D300F509228E828F83125B93125B893822C075
:1056E30082C083EAFCEBFDEC4D6017EC24FBF582F2
:1056F300ED34FF126CF4700712573CE0F4600712AC
:105703001F54790580309014F9E0C0E012573CD063
:10571300E0F0903AE4E493F97A047B15121F8AE9E6
:10572300640170107A007B209014F9E0F9121F9045
:10573300790080027904026449EC24FFF582ED3498
:10574300FFF5832274F4120DEDA2AFE433F508C222
:10575300AF9015041257A8EE4F603AEE24FBF58282
:10576300EF34FF126CF47A007B209014F96007E0A9
:10577300F9121F908005E0F9121F96E4F50AF50B64
:10578300780A12140AEEFCEFFD7A047B15121F84CB
:105793007402121438E508A2E092AFEEFAEFFB02AE
:1057A3004411A3A3A31271D0FF22F582E43FF58332
:1057B3001256B6221214387F030210F474F2120D3B
:1057C300ED74FA121500EAFEEBFF750AFE750BFF86
:1057D300122CCEE960057911025947EE24151259AE
:1057E3004F6035901691E0C43354E0F8E0333354FE
:1057F300FC48C0E01260F8D0E0127B38FAA3E0FB6B
:1058030079FF122AC48B09EA4509600C750AFF1255
:1058130069BD1268A3D2E0F08E828F83A3A31264C2
:1058230069122DCAE96006EE24121267C6EE24132C
:1058330012594F700D903AEFE493C0E01269B9D05A
:10584300E0F08E828F83E0A2E7500454038019EEC8
:10585300241412594F701290148BE0C0E0125E654D
:10586300D0E0F090148BE004F012594C64017016F0
:1058730090167CE0600D901496E0700A8E828F8300
:10588300E070031267C38E828F83E064017011EEB0
:10589300240B1257AD64027007125963E04440F0C1
:1058A300AC18AD19EEFAEFFB122D348A088B09748C
:1058B300FE650A700374FFF4700D8E828F83A3A3B9
:1058C300E0F50AA3E0F50BEA450960748E828F8345
:1058D300E0C0E07401121797D0E0F0740412179738
:1058E30012757EEE241E125EDC7402121797126B81
:1058F3001574011214BA880C890D780C12140AEE6F
:10590300242012595712140E125963121201EE2455
:105913000E12595712140E90149F1212017408128A
:105923001797E0F9AC0AAD0B122D2E740812143838
:10593300E9FE74106E700BAA08AB09121FEA80020D
:105943007E10EEF9740602544CEE2411F582E43F06
:10595300F583E022F582E43FF583E0F50C780C2231
:10596300EE1269C522C082C08374D71215009081DC
:10597300C974031214CA74261213468A828B83A332
:10598300A3A3A3125EE2740E121797E8F0A3E91221
:105993005429125EE2740C121797125A59125A5371
:1059A300124B5AC0E0741A121797D0E0F0126F5ED0
:1059B300125EE07420121797125A592415124B578E
:1059C300C0E07408121797D0E0F0EA241CF582E4D3
:1059D3003B125EE07412121797125A592411124B9C
:1059E30057C0E07409121797D0E0F0EA2412124B63
:1059F30057C0E07407121797D0E0F0EA241EF5822F
:105A0300E43B125EE07424121797125A59242012B1
:105A13004B57C0E07426121797D0E0124DF374FF72
:105A2300F0740112179774FFF0740212179774FF42
:105A3300F090839B1211FD74041214CA740712149C
:105A4300C2122938740412143879007429023FDF12
:105A5300240DF582E422E8F0A3E9F0EA2274F412BB
:105A63000DED74EC121500EAFEEBFF8C0A8D0B8929
:105A7300097508107A217B00121FE48518828519A5
:105A83008312711F851882851983126CF6700302C5
:105A93005B827C217D007900851882851983E0FA79
:105AA300121F3C9014AC1264698518828519831205
:105AB3005B8F2409F582E43812711D742012179745
:105AC300125EE27411121797E8F0A3E9125B9912C0
:105AD3007AF2125B99127B0F7402125EECF8126772
:105AE30061E50AF0A3E50B125B99127AFFE509F071
:105AF3007422121797E0F8851882851983E0F9A3B9
:105B0300E0C9240CF582E439F583E8125EECF9A3CD
