:020000040000FA
:060000000216DC020A13E7
:03001300020ACF0F
:03002B0002145369
:03003300020C5D5F
:03003B00020B2491
:03004B0002136736
:0300530002094857
:03005B000211BFD0
:030063000211E0A7
:03006B00020C0381
:03007B00020C3440
:100083000209A7010020FD0002013705000000015D
:10009300E41CF01C0000F61C021D00000000081DFB
:1000A3002C1D321D381D000000000000000001015E
:1000B3000204081020408001FFFF090D0101040123
:1000C300FEFF000000000000000612FFFFFFFFFF1D
:1000D300FFFF0101010400EB12000000E803000030
:1000E300FFFF9313E803000064006400B801A0BBA2
:1000F3000D00A0BB0D00020200F8FF0705021E045D
:1001030001051E02051E020A0A0101080803102741
:1001130002803E0102FEFFE8030A050001FFFF0221
:100123000A1401E0C503423F1A51123FF304B53FDD
:100133000000803E05030101FF8638000000005ADD
:100143003700000000FF000000FF00C082C083E909
:10015300FA5407F8742E28F582E43416F583E0F890
:100163007900EAC4540F5403600814600914600D45
:100173008012E5808002E5905870078007E5A0585B
:1001830060027901020255C082C0831202E760084F
:1001930014601214601C802BEA6005EB42808023FC
:1001A300E85280801EEA6005EB42908016E8529088
:1001B3008011EBC39420500BEA6005EB42A080034F
:1001C300E852A0020255C082C0831202E7600814FD
:1001D300602C146050807BE852F374016A601274DF
:1001E300026A601574046A7003EB428FEB42FD8070
:1001F3006153F7DFE8528F80F343F72080F6E8522C
:10020300F474016A601274026A601574046A7003FC
:10021300EB42F6EB42FE803A53F7BFE852F680F327
:1002230043F74080F6EBC394205027E852F574015E
:100233006A601274026A601574046A7003EB42F711
:10024300EB42FF800D53F77FE852F780F343F780CB
:1002530080F6D083D08222C082C0831202E7600876
:1002630014602B14604E806CE852F352FD74016AE3
:10027300600F74026A600F74046A7058EB428F80D7
:100283005353F7DF800343F720E8528F8046E85249
:10029300F452FE74016A600F74026A600F74046A98
:1002A3007032EB42F6802D53F7BF800343F740E8EB
:1002B30052F68020EBC39420501AE844E0F852F53C
:1002C30052FF74016A601074026A601374046A70E6
:1002D30003EB42F702025553F77FE852F780F543E9
:1002E300F78080F6E95407FC742E2CF582E434166B
:1002F300F583E0FBF4F8E9C4540F540322C082C031
:10030300831202E7600814601214601C802DEA60F7
:1003130005EB42FD8025E852FD8020EA6005EB42B3
:10032300FE8018E852FE8013EBC39420500DEA6060
:1003330005EB42FF800574E04852FF020255C0827C
:10034300C0831202E760081460151460228034EA47
:100353006005EB42808003E85280EB42FD8024EA93
:100363006005EB42908003E85290EB42FE8014EB71
:10037300C39420500EEA6005EB42A08003E852A02C
:10038300EB42FF020255E9C4540F540360071460A3
:1003930013146020227801E8F4FBEA602014602142
:1003A30014601522740F59C394045004780280E733
:1003B300780480E3780880DFE58C586004EB528C86
:1003C30022E8428C221216EC601D1216FB700519EE
:1003D3001919801A121555701F12157DC37003E683
:1003E300673319191940071818182208080874FFE9
:1003F300F618F618F618F62212157D60171217A1D3
:10040300702192F01217AA7019501720F0140808DF
:1004130008090909E7F61819E7F61819E7F618198C
:10042300E7F6221217AA60E6E869701F0808E624B7
:1004330080F608E436F618547FB47F0CE6548060E7
:1004430007F6E418F618F622181822E9C6CC08C6EF
:10045300CD08C6CE08C6CFC0E0E8C0E0EAC0E0EBF6
:10046300C0E009E9F809E7FA09E7FBE6F918E6F855
:10047300C3EC98ED99EE9AEBC2E7F5F0EFC2E7957E
:10048300F0500E600CEBCFFBEACEFAE9CDF9E8CCE5
:10049300F8EAA2E7D2E7FAEB33FB13F5F0EEA2E7B3
:1004A300D2E7FEEF33FFC5F013A2E730E601B31343
:1004B300C5F0C3C0E0C0F07F00C39BFB605E94182F
:1004C300600F401D14601AD0E023F9D0E0F8020554
:1004D300A98AF0E9486003D2F0E4AFF0FAF9F880B2
:1004E3003BEB30E40D89F0EA6003D2F0E4AFF0F9BE
:1004F300CAF8EB30E30D88F0EF6002D2F0AFF0E41E
:10050300CAC9F8EB54076014FBC3EA13FAE913F9F9
:10051300E813F8EF135002D2E0FFDBEDD0E0C0E0C8
:1005230030E739C3E49FFFF5F0EC98FC42F0ED9916
:10053300FD42F0EE9AFE42F0D0E0F9D0E0F8E5F0AB
:10054300607AE923F9EE20E742D8028067C3EF33EC
:10055300FFEC33FCED33FDEE33FE80EAEC28FCEDDB
:1005630039FDEE3AFED0E023F9D0E0F84002801BDB
:10057300C3EE13FEED13FDEC13FCEF135002D2E0B8
:10058300FF08B800067F7F74FF802EEF3350178C6F
:10059300F020F00260100CBC000C0DBD00080EBE74
:1005A300000408E860DFE933E813FFEE2313FE4F8E
:1005B3004D4C8008E95480FFE4FEFDFCEE33EF333D
:1005C300F47004FCFD7E80D0E0FBD0E0FAD0E0F8CC
:1005D300D0E0CFC618CEC618CDC618CCC6F92212A5
:1005E30016EC7004181818221216FB700D74FFF61F
:1005F3001819F61819F61819F622E7548066F61238
:1006030017AA700F1217A170F014F608F608F6086F
:10061300F680D11217A1700CF608F608768008E66A
:10062300447F80EC121580700C12155860BFE6549D
:1006330080F6E480BB121558700519191980A5E8D6
:1006430069700C763F18768018F618F6E8F922E6FA
:10065300CDC0E018ECC0E0E633CD33CDD313F6E7DD
:1006630019FCE7191933CC33C3947F400ECD9D5049
:100673002408E65480F6E418F6800FF4043D145081
:100683001408E6447FF6187680E418F618F6D0E0EE
:10069300FCD0E0FD22CCD313CCFD18E4C6CBC0E0E4
:1006A30018E4C6CAC0E00808ED08C633E613F61816
:1006B300E433C675F003C3CA97CA09CB97CB199C19
:1006C30040047D08802EBD000302078B16B6FF058C
:1006D3000606081618C3CA33CACB33CB33CA27CA94
:1006E30009CB37CB193CC37D08803E187D0820E732
:1006F3005CC633C6CA33CACB33CB33DDF1D5F0EB9B
:1007030030E77BCA97CA09CB974ACB199C406F4BFA
:100713007025E620E0218066187D08C3CA97CA09C0
:10072300CB97CB199CD3C633C6CA33CACB33CB338F
:1007330050C9DDE7D5F0E1D3E4C636C608C636C6F0
:1007430008C636C608C636C61818188031C3CA97F5
:10075300CA09CB97CB199CB34097C633C6CA33CAD1
:10076300CB33CB33DD34D5F02EC6A2E0C640C8CAA6
:1007730027CA09CB37194A70BECB3CB480B90808E5
:10078300E63308E633601F181818D0E0FAD0E0FB10
:10079300D0E0FCD0E0FD22187D08CA27CA09CB3778
:1007A300CB193CD3808013F618E4B67F11F618B644
:1007B300FF0EF618C60470D20808768080CAF618B1
:1007C300F618F680C5001216EC604F1216FB601285
:1007D300E7548066F612155570111217A1703B0984
:1007E3000909F4F618F618F618F62212157D701595
:1007F3001217AA08080860EAE6447FF618768018FC
:10080300E4F618F6221217AA60161217A17012E462
:10081300F608F608F608E65480F6090909181818C8
:1008230022EAC0E0EBC0E0ECC0E0EDC0E0E687F018
:10083300A4FBACF008E687F0A42CFCE435F0FA182E
:1008430009E687F0A42C4B60027401CA35F0FCE47E
:1008530033FB09E687F0D2F7A42CCB35F0FC19085B
:10086300E687F0A42BCC35F0FBE433FD0819E687CB
:10087300F0D2E7A42C4ACB35F0CD3400FC09E6874F
:10088300F0D2E7A42DCC35F0FDE433FA0918E6875E
:10089300F0D2F7A42CCD35F0CA3400FC08E687F07B
:1008A300D2E7D2F7A42ACC35F07A7E20E70B0ACB25
:1008B30033CBCD33CDCC33CC33CB3350147004EDA9
:1008C30030E00ED2F1E4CD3DCDCC3CCC3B5005DA4B
:1008D30005C2F1EB547FC63308E63392F0FBE733EE
:1008E30009E733C39A502D2B70190C0D4C4D70151D
:1008F3001806E608C333700D20F10AA2F013F6E4DC
:1009030018800B4024E4F630F002768018F618F6CF
:1009130018F68024D33B14501074FFA2F013F6187A
:100923007680E418F618F6800FA2F013F618E63373
:1009330003F618ECF618EDF6D0E0FDD0E0FCD0E0BD
:10094300FBD0E0FA22C0E074F1120E59A2AFE433F7
:10095300F509D2AF85A708AFA1EF5508FE74105E65
:1009630060061219C075A1EF74085E60081219C6FB
:1009730075A1F78024EFA2E092F0E508A2E082F0EF
:100983005017906198E0F89004A5E0C398A2D2654F
:10099300D0335002E8F075A1FEE509A2E092AF7FE3
:1009A30002020EB8C0E074F2120E59A2AFE433FE95
:1009B300D2AF9061A4E0F8759B00E59158540860AC
:1009C300087591F7121A0E8023E5915854106008A8
:1009D3007591EF121A148014E591A2E092F0E8A247
:1009E300E082F05007E0C2E0F0121B6A9061A3E0DE
:1009F300F8E5E9585404600E121B4075E9FB906159
:100A030093E0A2E640F2EEA2E092AF7F01020EB8BD
:100A1300C0E074F2120E59A2AFE433FED2AF90617C
:100A2300A5E0F8E5BF585404600675BFFB121B82AE
:100A330080D4C3E498F8E499F9120A768026C3E4D3
:100A43009AFAE49BFBE920E7E9120A76E498F8E4D2
:100A530099F922C3E498F8E499F9120A76E498F82C
:100A6300E499F9C3E49AFAE49BFB22EB20E7CFE98C
:100A730020E7E0B90010BB0008E88AF084F8AAF088
:100A830022E4FBC8FA22EB70227B10C833C8C933B7
:100A9300C9335007C39AC3DBF280069A50012ADB9D
:100AA300EAC833F4C8C933F4C9FA2275F008E4C8B4
:100AB30033C8C933C933C99AC99B5004C92AC93B2E
:100AC300D5F0ECFBC833F4C8E4C9FA22C0E0C0D0C7
:100AD300E8C0E0E9C0E0C082C083A8C1E8C0E090FC
:100AE3000412E0F8749128F582E43403F583D0E02E
:100AF300F0900411E0F8A3E0687006E59590041403
:100B0300F0900412E004F0C394804002E4F0A37474
:100B1300C6F0D083D082D0E0F9D0E0F8D0D0D0E0D6
:100B230032C0E0C0D0E8C0E0E9C0E0C082C083903A
:100B33000495E0F8A3E0687008539AFBA37401805E
:100B430022C2E9900495E0F8740128F0741528F5A1
:100B530082E43404F583E0F5C1900495E0C3948006
:100B63004002E4F080AC120BB430F039120BF98080
:100B730034120BB420F01430E72B74FFFCFBFA742F
:100B83007F8022E4FCFBFA7480801AB48008BC00E6
:100B9300F2BB00EF800F50EBF9E4C39AFAE49BFB3E
:100BA300E49CFCE499C6CC18C6CB18C6CA18C6F98F
:100BB30022E4C9C608CAC608CBC6D3330308CCC6C9
:100BC3003392F0C3947F402E94184019C9B9070497
:100BD300CACBCC225025C309CA33CACB33CBCC33BF
:100BE300CC33D9F422F4600DC9CCC313CB13CBCAD5
:100BF30013CAD9F6CC22E4FCFBFA2214FCFBFA223A
:100C0300C0E074F2120E59A2AFE433FED2AF9007E4
:100C130010E05589600FE589FA7900121E349007B8
:100C230010E0F45289C2C5EEA2E092AF7F01020E3A
:100C3300B8C0E074F2120E59A2AFE433FED2AF9003
:100C43000711E0558A600FE58AFA7901121E349084
:100C53000711E0F4528AC2EB80CDC0E074F2120EA9
:100C630059A2AFE433FED2AF900712E0558B600F69
:100C7300E58BFA7902121E34900712E0F4528BC20C
:100C8300E880A4080808EAC0E0EBC0E086F0E7A427
:100C9300FA180986F0E7A42AFA180986F0E7A42AC5
:100CA300FA180986F0E7A42AFA1986F0E7A4FBE507
:100CB300F02AFA190886F0E7A42BFBE5F03AFA19B3
:100CC3000886F0E7A42BFBE5F03AFA18180986F03A
:100CD300E7A4C5F02BFBE43AFA1908E7C5F0C6A46C
:100CE30026F6E5F03BFBE43AFA1886F0E7A4F6E5CE
:100CF300F00826F6E43B08F6E43A08F6D0E0FBD029
:100D0300E0FA22080808E630E7111215B9120D1EA1
:100D1300080808C64480C618181822181818E97954
:100D23009EC608CAC608CBC608CCC6C3702079962F
:100D3300CACBCC7019798ECBCC70137986CC700E5C
:100D4300F9802ACA33CACB33CBCC33CC331930E73F
:100D5300F2CCCBCA3350147004EA30E00DE4CA3A43
:100D6300CACB3BCBCC3CCC500209C3E913C6CC184D
:100D73002313C6CB18C6CA18C6F922E4CFC0E0E4D1
:100D8300CEC0E0E4CDC0E0E4CCC0E075F020E626C0
:100D9300F608E633F608E633F608E633F6181818CD
:100DA300EC33FCED33FDEE33FEEF33FFC3EC970979
:100DB300ED9709EE9709EF97191919400FFFEC9773
:100DC300FC09ED97FD09EE97FE191906D5F0BFEC66
:100DD300F709EDF709EEF709EFF7191919D0E0FC58
:100DE300D0E0FDD0E0FED0E0FF222518C582C0E0B0
:100DF300E51934FFC583C0E0E518C3958224F810D4
:100E0300AF08858319858218800885831985821820
:100E1300D2AFCEF0A3E520F0A37808E608F0A3DE76
:100E2300FAEFF0A3E58124FAF8E608F0A3E608F068
:100E3300A3E608F0A30808E608F0A3E608F0A31564
:100E4300811581D0E0FED0E0F8158115811581E888
:100E5300C0E0EEC0E022C0D02518C582C0E0E5198D
:100E630034FFC583C0E0E518C3958224F310AF08AF
:100E73008583198582188008858319858218D2AFE6
:100E8300C8F0A3E9F0A3EAF0A3EBF0A37908E7091C
:100E9300F0A3D8FAECF0A3EDF0A3EEF0A3EFF0A3E8
:100EA300D0E0F0A3D0E0F0A3D0E0F0A3E520F0A3DE
:100EB300E5F0F0A322851983851882E0C0E0A3E062
:100EC300F9A3E0FAA3E0FBA37808E0F608A3DFFAAE
:100ED300E0FCA3E0FDA3E0FEA3E0FFA3E0C0E0A3EA
:100EE300E0C0E0A3E0F5D0A3E0F520A3E0A3F5F094
:100EF30010AF088583198582188008858319858238
:100F030018D2AFD082D083D0E0F8D0E0321215BC33
:100F1300181818120D7E12168B1919192212168B16
:100F2300191919080808E618181820E7E0120D7EA9
:100F33001215BC18181822090909E719191920E70D
:100F4300DC080808E618181820E703020D7E1215BE
:100F5300BC181818120D7E1215BC18181812168B0F
:100F63001919192212178CB90003020FA6E4900372
:100F73003178D279138002F0A3D8FCD9FA7A027BB4
:100F83001690008678C979018015E493A3AD82AEEB
:100F9300838A828B83F0A3AA82AB838D828E83D8CC
:100FA300E9D9E77582D17583B474061213E47582A7
:100FB3003475833374001213E475F0108E1A8F1B8B
:100FC30085821F85831E851882851983E0CEA3E061
:100FD300CF851F82851E83EBC9EAC8EDCBECCAC35C
:100FE300E833C8E933C9EA33CAEB33CBC3EA9EF526
:100FF3001DEB9FF51CB35004AB1CAA1DEC33CCEDC9
:1010030033CDD5F0DAAE1AAF1B221216EC601C12E8
:1010130016FB60171217AA70071217A17001D322CB
:10102300C0D01217A17006D0D0B322C32233D0D0C0
:10103300501430E0F6C3E7960809E7960809E796E7
:101043000809E796B32220E0D5E6970809E6970852
:1010530009E6970809E697B322D083D082ECC0E073
:10106300EDC0E0E493A3FCE493A3FDED4C600D120B
:101073001180EC24FFFCED34FFFD80EFE493A3FC2F
:10108300E493A3FDED4C600D121287EC24FFFCEDFD
:1010930034FFFD80EFD0E0FDD0E0FCE493A3C0E09B
:1010A300E493C0E0221216EC601B1216FB601612CA
:1010B30017AA70071217A1600CB322C0D01217A190
:1010C3007005D0D022C32233D0D0501330E0EBC30D
:1010D300E7960809E7960809E7960809E7962220A4
:1010E300E0E4E6970809E6970809E6970809E69712
:1010F30022851983851882E0A3FEE0A3F5207808F2
:10110300E0A3F608DFFAE0A3FFE0A3C0E0E0A3C09A
:10111300E0E0A3C0E0E0A3C0E0E0A3C0E010AF08BC
:101123008582188583198008858218858319D2AF33
:10113300D083D0820213EAD083D082E9C0E0E49363
:10114300A3C386F0C5F095F0F908E493A386F0C530
:10115300F095F0700BE493A3C3994005E904800272
:10116300A3E475F002A42582F582E5F03583F583C7
:10117300D0E0F9E493A3C0E0E493C0E022C0E0C36D
:10118300E49396087401939618400FE493667008ED
:1011930008740193661870007019A3A3C3E49396AF
:1011A300087401939618A3A3400DD0E0D0E0D0E0DB
:1011B300021098A3A3A3A3A3A3D0E022C0E074F2D8
:1011C300120E59C2D990164CE0C39400A2D265D036
:1011D300334005E0F91221227F01020EB8C0E0740A
:1011E300F2120E59C2DC90164EE0F9C39400A2D25B
:1011F30065D033400312212280DE7404800474021C
:101203008000CCC0E0EDC0E0E518C39CCCAD195024
:10121300011D10AF068C188D1980068C188D19D2FC
:10122300AF121346D0E0FDD0E0FC2274028000CC64
:10123300C0E0EDC0E0E518C39CCCAD1950011D1012
:10124300AF068C188D1980068C188D19D2AF121326
:1012530002D0E0FDD0E0FC221216EC60251216FB52
:1012630060201217AA70030217A1080808E7667026
:10127300101819E766700A1819E76670041819E759
:101283006622F422C0E0C0F088F0E4936670080898
:1012930074019366187000A8F0A3A3700BD0F0D06C
:1012A300E0D0E0D0E0021098A3A3D0F0D0E022D0A9
:1012B30083D082CCC0E0E493A3600612138714703A
:1012C300FAE493A360061214EA1470FAD0E0FCE483
:1012D30093A3C0E0E493C0E022C008C3E096F508FE
:1012E30008A3E096420808A3E096420808A3E09604
:1012F3004208A2D265D033E5087001D3D00822CAD0
:10130300C0E0E493A3C582CCC582C583CDC583F079
:10131300A3C582CCC582C583CDC583DAE5D0E0CA37
:1013230022A2E792D65002F40430F70663F0FF05D9
:10133300F0B3400384800384F40430D60563F0FFE4
:1013430005F022CAC0E0E0A3C582CCC582C583CD27
:10135300C583F0A3C582CCC582C583CDC583DAE638
:10136300D0E0CA22C0E0C0D0C082C08375AF009075
:10137300075EE02401F0A3E03400F0D083D082D0F4
:10138300D0D0E032C0E0E493A3D39C5010E493A305
:10139300C39C400AD0E0D0E0D0E00212CFA3A3A3C5
:1013A300D0E0227009080808226016181818C6C36E
:1013B30033C608C633C608C633C608C633C6D5E027
:1013C300EA22C008C3E096F50808A3E0964208089D
:1013D300A3E096420808A3E09645087001D3D0081D
:1013E30022C09FF59FE473D09F22D083D082C09FF9
:1013F300E493C0E0740193C0E0740293F59F2274F8
:1014030004800A74038006740280027401C0E0F44D
:101413000412141DD0E0121737222518F58210AFDD
:1014230008F518400C15198008F51840021519D253
:10143300AF8519832200C0D0251810AF08F51850C6
:101443000C05198008F51850020519D2AFD0D02227
:10145300C0E0C0D0E8C0E0A8A8D2AFC2C7E8A2E706
:1014630092AFD0E0F8D0D0D0E032BB0102E722C087
:1014730082C08389828A83BB0003E08002E493D025
:1014830083D082226017080808C6A2E713C618C6CD
:1014930013C618C613C618C613C6D5E0E9226016CC
:1014A300080808C6C313C618C613C618C613C61839
:1014B300C613C6D5E0EA222518F8E43519F9222522
:1014C30018FAE43519FB222518FCE43519FD22C36B
:1014D300E0C696F608A3E0C696F608A3E0C696F61D
:1014E30008A3E0C696F622C0E0E493A36C7009D08B
:1014F300E0D0E0D0E00212CFA3A3D0E02225181061
:10150300AF08F518400C15198008F5184002151995
:10151300D2AF22C3E09608A3E09608A3E09608A3FF
:10152300E096A2D265D03322E76670100809E76619
:10153300700A0809E76670040809E76622E0667026
:101543001008A3E066700A08A3E066700408A3E02D
:101553006622181818E60846087009E6260870057A
:10156300E633F4220822C3E49396087401939608A1
:1015730074029396087403939622191919E709477D
:10158300097009E727097005E733F4220922C3E04C
:1015930096F008A3E096F008A3E096F008A3E0967F
:1015A300F022C3E697F60809E697F60809E697F6E8
:1015B3000809E697F622181818E4C396F608E49685
:1015C300F608E496F608E496F622E026F608A3E089
:1015D30036F608A3E036F608A3E036F622E627F649
:1015E3000809E637F60809E637F60809E637F6226A
:1015F300E493F608740193F608740293F6087403EF
:1016030093F622E657F60809E657F60809E657F671
:101613000809E657F622E056F008A3E056F008A3BF
:10162300E056F008A3E056F022E647F60809E6473D
:10163300F60809E647F60809E647F6227004226031
:101643000D18C6C333C608C633C6D5E0F41822E660
:1016530067F60809E667F60809E667F60809E66724
:10166300F622E026F008A3E036F008A3E036F008FF
:10167300A3E036F022E056F608A3E056F608A3E00E
:1016830056F608A3E056F622E4C397F709E497F762
:1016930009E497F709E497F722600D08C6A2E71358
:1016A300C618C613C6D5E0F322C6F4C608C6F4C6E8
:1016B30008C6F4C608C6F4C622C3E09608A3E0969B
:1016C30008A3E09608A3E09622C3E7960809E796E5
:1016D3000809E7960809E7962275D00075813F75DA
:1016E300183175190300020F67E6084608C313464D
:1016F30008336002E633F422E7094709C3134709B5
:10170300336002E733F422600C08C6C313C618C65D
:1017130013C6D5E0F422E6F008A3E6F008A3E6F04A
:1017230008A3E6F022E0F608A3E0F608A3E0F60833
:10173300A3E0F622CAC0E0E6F0A308DAFAD0E0FAA2
:1017430022E0FCA3E0FDA3E0FEA3E0FF22EAF0A376
:10175300EBF0A3ECF0A3EDF022E0FAA3E0FBA3E0AF
:10176300FCA3E0FD22E8F0A3E9F0A3EAF0A3EBF089
:1017730022ECF0A3EDF0A3EEF0A3EFF022E0F8A348
:10178300E0F9A3E0FAA3E0FB22E5C754F84401F52E
:10179300C77901222518F582E43519F58322E72755
:1017A30019471947194722E62618461846184622AC
:1017B300C2AF75D69F020000221213ED48D2041265
:1017C30013ED9CD3041213ED52D4041213ED51D52F
:1017D300041213ED84D6041213ED52A9061213ED6D
:1017E300D3A9061213ED0EAB061213ED24C606128F
:1017F30013ED35C6061213EDD3C6061213EDDEC67E
:10180300061213EDF3FF021213ED70CC061213ED63
:10181300ECC8061213EDFCC8061213ED11C906122B
:1018230013ED77C9061213ED27C3061213EDAAC3EE
:10183300061213ED10C4061213ED81B0061213ED58
:10184300BCB0061213ED1BB1061213ED73B10612F1
:1018530013ED08B2061213ED5BB2061213ED4ACC78
:10186300061213ED5ACC061213ED658C061213ED16
:10187300BB8C061213ED0A8D061213ED378D06127B
:1018830013ED8D8D061213EDE6CB061213EDE2ABCD
:10189300061213ED2CAC061213EDC2AC061213EDB7
:1018A30048AD061213ED79AD061213ED91AD061294
:1018B30013ED05AE061213ED1BAE061213ED2EAE9D
:1018C300061213ED38AE061213ED7DC1041213EDAB
:1018D3002EC6041213ED43C7041213ED6FC704128F
:1018E30013EDFEC7041213EDC5CA041213EDAFF5D1
:1018F300031213ED12F6031213EDC2F6031213EDE6
:101903008DF7031213EDE2F8031213EDC2F903127C
:1019130013EDBFFA031213ED97FC031213EDBEFC94
:10192300031213ED4AFD031213EDA4FE031213ED8C
:101933001AFF031213ED58FF031213ED6AFF03128C
:1019430013EDEA9A051213EDB89C051213EDE39D0E
:10195300051213EDA69F051213ED61DE051213EDBB
:101963008DDE051213EDFEE0051213ED3EE10512C7
:1019730013ED7EE1051213ED92E1051213EDABE1D8
:10198300051213ED9CE2051213ED41E3051213ED6D
:1019930055E3051213ED71BB061213ED95BB061249
:1019A30013EDAEBB061213EDE0BB061213ED10BC34
:1019B300061213ED3DBC061213ED9FBC061213ED88
:1019C300AEBC061213EDB8BC061213EDC5BC06126D
:1019D30013EDBCA6061213EDDCA6061213ED1BA72E
:1019E300061213ED36A7061213ED55A7061213EDD3
:1019F300BBA7061213EDC4A7061213ED21A8061206
:101A030013ED45A8061213ED06A9061213ED13A94B
:101A1300061213ED24A9061213ED08CA061213EDDC
:101A230020CA061213ED4CCA061213ED6DF205120D
:101A330013EDC1F3051213EDCFF3051213EDE2F32A
:101A4300051213EDF7F3051213ED0CF4051213ED64
:101A53001FF4051213ED93F4051213EDF8F40512B8
:101A630013ED9AF5051213ED5EF6051213ED6EF6FE
:101A7300051213ED7DF6051213ED53C8061213ED8F
:101A830077C8061213ED9FC8061213EDC7C80612D6
:101A930013EDAEB2061213EDD5B2061213EDF3B287
:101AA300061213ED66B3061213EDABA3061213ED84
:101AB300C4A3061213EDD0A3061213EDE4A306127A
:101AC30013ED02A4061213ED0CA4061213ED16A4D3
:101AD300061213ED29A4061213EDB3A4061213ED97
:101AE30028A5061213ED5CA5061213EDAAA506128E
:101AF30013EDF7A5061213ED12A6061213ED1CA69D
:101B0300061213ED42A6061213EDA7A6061213ED55
:101B1300F6C6061213ED18C7061213EDD5FF03120E
:101B230013ED6CF6041213ED96F6041213EDB3F6EF
:101B3300041213EDC6F6041213EDDCF6041213EDD2
:101B43003AF7041213ED72F7041213ED6AFB041251
:101B530013EDAFFC041213EDE2FC041213ED45FD8B
:101B6300041213EDC8FE041213EDF0FE041213ED7C
:101B730005FF041213ED15FF041213ED59FF0412B0
:101B830013EDB4FF041213EDC4FF041213EDF7C1F8
:101B9300061213ED11C2061213ED39C2061213ED2C
:101BA30052C2061213ED76C2061213ED94C2061248
:101BB30013EDABC2061213EDD9C2061213EDF4C234
:101BC300061213ED60CB061213ED4B90061213EDC4
:101BD3005B90061213ED6291061213ED96910612B5
:101BE30013EDB891061213EDDB91061213EDF99183
:101BF300061213ED3392061213ED9892061213EDAB
:101C0300DA92061213ED1993061213ED4A93061294
:101C130013ED8193061213ED9B92051213ED979327
:101C2300051213EDB593051213EDDC93051213EDB5
:101C3300A195051213EDCF95051213ED84960512A8
:101C430013ED4B97051213ED5A98051213ED8C996A
:101C5300051213ED4E84061213EDA384061213ED41
:101C63001D85061213ED3085061213ED57850612F6
:101C730013EDEA85061213EDC486061213ED0080F8
:101C8300051213ED2B80051213EDF680051213EDEB
:101C93003381051213EDC481051213ED548505122A
:101CA30013ED6787051213ED0080031213ED3A80DD
:101CB300031213ED3A82031213ED7B84031213ED27
:101CC300FB84031213EDF787031213ED69880312E4
:101CD30013ED0689031213ED2189031213EDCB894A
:101CE300031213ED1A8A031213ED568A031213ED2E
:101CF300708A031213ED9C8A031213ED9F8A031259
:101D030013EDF88A031213ED4B8B031213ED108CB2
:101D1300031213ED4D8D031213ED0390031213ED14
:101D23001C92031213ED4F92031213EDAF920312A1
:101D330013ED0193031213ED8493031213ED18941F
:101D4300031213ED2E96031213EDCD97031213ED29
:101D53000799031213EDA29A031213EDC39A031208
:101D630013ED29C5061213ED43C5061213ED85C500
:101D7300061213EDB3C5061213EDCDC5061213ED0E
:101D8300E6C5061213ED0AC6061213EDE9D30512D2
:101D930013ED3DD4051213ED0DD5051213ED3AD510
:101DA300051213ED67D5051213EDB9D5051213ED21
:101DB300E3D5051213ED07D6051213ED2FD6051241
:101DC30013ED6FD6051213EDF9D6051213ED2AD7CD
:101DD300051213ED51D7051213ED97D7051213ED25
:101DE300B5D7051213EDD9D7051213EDF9D705129F
:101DF30013ED2FD8051213ED8ED8051213EDFDD870
:101E0300051213ED3AB0051213ED74B0051213ED7C
:101E1300AFB1051213EDC7B2051213EDE7B6051204
:101E230013ED52CE051213ED8CCE051213ED40CFF8
:101E3300051213EDECFE021213ED5DFF021213ED1A
:101E4300BFFF021213ED0EB7051213ED21B80512F1
:101E530013ED47B9051213ED97BA051213EDEDBA59
:101E6300051213ED30BB051213ED3EBB051213ED46
:101E7300F3BC051213ED7F9D061213EDE19D0612CF
:101E830013EDDD9F061213ED6AE8051213EDABE8BF
:101E9300051213EDE1E8051213ED08EA051213ED3F
:101EA300A4EB051213ED44EC051213ED69E30512DF
:101EB30013EDBBE6051213ED3BE7051213ED09BA6B
:101EC300061213ED46BA061213ED7ABA061213ED93
:101ED3008DBA061213EDD993061213EDEC94061284
:101EE30013EDAE95061213ED5996061213ED859672
:101EF300061213EDFC96061213EDCFBC061213ED7A
:101F0300E1BC061213EDF4BD061213EDF7BD061284
:101F130013ED75BF061213EDABBF061213EDC5BF6C
:101F2300061213ED07C0061213ED17C0061213EDC8
:101F3300B1C0061213ED63A2051213ED6DA20512D3
:101F430013EDA7A2051213ED10A3051213ED2DA394
:101F5300051213EDCFA3051213EDD8A3051213ED4C
:101F63001DA4051213ED46A4051213ED53A4051287
:101F730013EDC4A4051213ED4FA5051213ED9DA592
:101F8300051213EDDBA5051213ED40A6051213EDA3
:101F930063A6051213EDDAA6051213ED31A7051298
:101FA30013ED6CA7051213EDA1A7051213EDB3A74B
:101FB300051213EDC5A7051213EDE4A7051213EDE2
:101FC300EDA7051213EDA8A8051213EDF4A8051249
:101FD30013ED32A9051213ED24BE061213ED64BFEF
:101FE300061213ED4BAE061213ED81AE061213ED7E
:101FF300C9AE061213ED22B0061213ED8DCA0612F6
:1020030013ED62B0031213ED86B1031213EDC0B1E9
:10201300031213ED6AB3031213ED94B3031213ED1A
:1020230009B6031213ED49B6031213EDDFB703121A
:1020330013ED7CB8031213EDCEB8031213ED71B98F
:10204300031213EDA9B9031213EDEBB9031213ED48
:102053005ABB031213EDA8BC031213EDD9BE03122E
:1020630013ED07BF031213ED2EBF031213ED37BF9A
:10207300031213ED87BF031213ED19C0031213EDFF
:1020830048C3031213EDCBC3031213EDEAFF01128E
:1020930013ED6188061213ED7788061213ED1B8981
:1020A300061213ED5A89061213ED7789061213ED02
:1020B300A889061213EDF589061213ED288A061274
:1020C30013ED638A061213ED588C061213EDE0C26A
:1020D300051213ED06C5051213ED38C6051213EDEF
:1020E30050C6051213ED62ED051213ED9DEE0512B8
:1020F30013ED2FF0051213ED5EA9051213ED62AA7D
:10210300051213ED7EAB051213ED99AC051213ED19
:102113006FAD051213EDB7B6061213ED2DB7061208
:1021230013EDF2E6031213EDB7E7031213EDC4E761
:10213300031213ED6DE8031213EDCCE8031213ED54
:102143003DEA031213EDB5EA031213ED77EC031224
:1021530013EDA3EC031213EDADEE031213EDD5EE65
:10216300031213ED36EF031213ED91EF031213ED88
:10217300E2F0031213ED35F1031213EDBAF103127A
:1021830013EDADC8051213EDD4C8051213ED28CB1A
:10219300051213ED4FCB051213EDA4CB051213ED6E
:1021A300D6CC051213ED52CD051213ED29C4061238
:1021B30013ED88C4061213EDC6C4061213ED07C54A
:1021C300061213ED929C041213EDFB9C041213ED03
:1021D300469D041213ED819D041213EDF69F041224
:1021E30013ED10A4041213ED30A6041213ED3EA751
:1021F300041213ED18A8041213ED8CF9011213ED58
:10220300C6F9011213EDFFFA011213EDA5FC011239
:1022130013EDD2FC011213ED75FD011213EDD8FD80
:10222300011213ED0FFF011213EDA6C7061213EDF2
:10223300F0C7061213EDFEBC051213ED5BBD0512CC
:1022430013ED39BE051213ED2ABF051213ED56BF68
:10225300051213ED32C0051213ED4EC0051213ED36
:10226300E7C0051213ED70C1051213EDBBC00612D2
:1022730013EDCAC0061213ED2AC1061213ED5DCC8D
:10228300061213ED40B6041213EDABB6041213EDB0
:10229300A9B7041213EDBFB8041213ED45B9041224
:1022A30013ED1EBA041213EDFEBA041213ED20BC93
:1022B300041213ED39BD041213EDC2BF041213ED62
:1022C3000080021213ED0C80021213ED6E800212D5
:1022D30013ED7880021213ED0B81021213ED478187
:1022E300021213ED0782021213ED1482021213ED90
:1022F3007782021213ED0C83021213ED4283021252
:1023030013EDBF83021213ED5F85021213ED3387C2
:10231300021213ED1488021213ED5E89021213EDFB
:10232300C08B021213ED258D021213EDBA8D02122A
:1023330013EDED8E021213EDE18F021213ED1A91DC
:10234300021213EDB095021213ED9D96021213EDD6
:102353003597021213ED5A97021213ED8697021264
:1023630013ED1E98021213ED3498021213ED5698D2
:10237300021213EDBC98021213EDDB98021213ED57
:102383000499021213ED249A021213EDFA9A02121F
:1023930013ED6F9C021213ED909C021213ED119D2D
:1023A300021213EDB79D021213EDFF9D021213EDFE
:1023B300709E021213EDFC9E021213ED609F021237
:1023C30013EDC09F021213ED6FA0021213EDDBA0F9
:1023D300021213ED0EA1021213ED8CA1021213EDE2
:1023E300E8A2021213ED58A3021213EDEAA302129C
:1023F30013ED4DA5021213EDD4A5021213ED39A668
:10240300021213ED67A8021213EDF3A9021213EDE2
:1024130003AA021213ED37AA021213EDA5AA0212A0
:1024230013EDE0AA021213ED42AB021213EDD7AB88
:10243300021213EDB2AD021213ED7DAF021213EDD2
:1024430087B0021213ED84B4021213ED51B50212D8
:1024530013ED69B6021213ED13B8021213ED3F7CAC
:10246300001213EDAF7C001213ED47F0041213EDCD
:10247300CB7D001213EDB88E041213ED6F8F04128F
:1024830013ED7690041213EDF490041213ED3692CB
:10249300041213ED5792041213ED0F93041213ED6C
:1024A300BA93041213ED9A97041213EDB69904121A
:1024B30013ED1D9B041213EDACFF051213ED7AE52A
:1024C300021213EDD2E5021213ED58E6021213EDD8
:1024D3006AE7021213EDB7E7021213ED9DE8021249
:1024E30013EDB4E8021213ED06E9021213ED3EE90F
:1024F300021213ED51E9021213EDA7E9021213EDD3
:1025030000EA021213ED66CF041213EDADEC0212D2
:1025130013ED44ED021213ED6EED021213EDA6ED71
:10252300021213EDCCEF021213ED12F0021213EDAF
:102533005CF0021213ED30F1021213ED71F102128D
:1025430013ED94F1021213EDDBF1021213EDFBF123
:10255300021213ED7CF2021213ED00F3021213EDDB
:102563005AF3021213EDA2F3021213EDABF40212AB
:1025730013ED6BF7021213ED97F8021213EDD4F873
:10258300021213ED9BF9021213EDDBF9021213EDA4
:10259300DEF9021213EDE8F9021213EDFBF9021250
:1025A30013ED80FA021213EDB6FA021213EDE2FAFA
:1025B300021213ED09FB021213ED2DFB021213EDB0
:1025C300C4FB021213EDDDFB021213ED10FC021229
:1025D30013ED30FC021213ED6DFC021213EDA4FC9B
:1025E300021213EDA3FD021213EDD6FE021213ED38
:1025F30081C9061213ED8DC9061213EDD3C9061254
:1026030013EDB6F6051213EDF4F6051213ED80F78C
:10261300051213ED8BF8051213EDA7FA051213ED4E
:1026230018C4031213ED3BC4031213ED12C50312B6
:1026330013ED5BC5031213EDB3C5031213ED0DC602
:10264300031213ED59C6031213EDCFC6031213ED94
:102653005DC7031213EDD5C7031213ED18C8031298
:1026630013EDE6CB031213ED2DCE031213ED67CE5C
:10267300031213EDF1CE031213ED70CF031213ED1A
:102683003DD0031213ED69D1031213ED54D203129B
:1026930013ED28D3031213EDACD4031213ED42D57B
:1026A300031213ED63D7031213ED03D8031213EDD3
:1026B3006DD8031213ED14D9031213ED78D9031255
:1026C30013EDABDA031213EDD1DB031213ED4ADC86
:1026D300031213ED22DE031213EDC2DE031213ED18
:1026E30065DF031213EDC4DF031213ED7FE0031262
:1026F30013ED45E2031213EDE8E3031213ED94E443
:10270300031213EDA9E5031213EDDC9B031213ED82
:10271300549C031213ED9C9C031213EDE09C0312D3
:1027230013ED299D031213ED739D031213EDA89D61
:10273300031213ED269E031213ED809E031213ED75
:10274300D99F031213ED62A0031213EDBEA003126F
:1027530013EDD8A0031213EDFFA0031213ED57A13D
:10276300031213EDC1A2031213EDE0A2031213ED42
:1027730008A4031213ED85A4031213EDF2A40312AC
:1027830013ED54A5031213ED04A6031213EDD6A7FC
:10279300031213EDC1A8031213EDBBA9031213ED2A
:1027A300C1AA031213EDDDAB031213EDEBAB03125E
:1027B30013EDC4AC031213ED64AD031213EDA8AD16
:1027C300031213EDBDAD031213EDCEAE031213EDE1
:1027D30071AF031213EDC9AF031213ED2497061261
:1027E30013EDCC98061213ED8999061213EDDE99B9
:1027F300061213ED5B9A061213ED769A061213ED89
:10280300BA9A061213EDE09A061213ED069B06120E
:1028130013ED1E9B061213ED819B061213ED969B7F
:10282300061213EDB89C061213EDC19C061213EDAC
:10283300CA9C061213EDD39C061213EDDD9C0612FF
:1028430013ED0080061213EDE083061213EDE5830A
:10285300061213EDE783061213ED44B5061213EDCA
:10286300FFCA061213ED1ECC061213ED7DB8061235
:1028730013EDE17F001213ED9DD5011213EDF4D595
:10288300011213ED60D6011213EDECD6011213ED14
:10289300A2D7011213EDEAD7011213ED03D80112E7
:1028A30013ED26D8011213ED48D8011213ED86D883
:1028B300011213EDD5D8011213ED00D9011213ED56
:1028C3005ED9011213ED05DA011213EDADDA01122F
:1028D30013ED29DB011213EDF6DB011213ED42DCDC
:1028E300011213EDCADC011213ED03DD011213ED26
:1028F30094DD011213EDA5DD011213ED17DE0112B4
:1029030013EDB0DE011213ED1ADF011213ED0AE02D
:10291300011213ED2FE0011213ED2CE1011213ED5F
:1029230039E1011213ED42E1011213ED2BE3011220
:1029330013ED47E4011213EDD8E4011213ED49E559
:10294300011213ED23E7011213EDEEEA011213ED69
:1029530002EB011213ED12EB011213ED1CEB01124A
:1029630013ED25EB011213ED2EEB011213ED38EBF2
:10297300011213ED67EB011213ED95EB011213ED49
:10298300A0EB011213EDC4EB011213EDE8EB0112FE
:1029930013ED5AEC011213EDA3EC011213EDBFEC8E
:1029A300011213ED30ED011213ED7CED011213ED65
:1029B300C5ED011213ED03EE011213ED84EE0112C6
:1029C30013ED4FF0011213EDEEF0011213EDB6F11A
:1029D300011213ED42F4011213ED97F4011213EDFA
:1029E300BFF4011213EDF2F5011213ED37F60112E4
:1029F30013ED8CF6011213ED3AF7011213EDDFF725
:102A0300011213ED14F8011213EDB4F8011213EDD2
:102A130030F9011213ED7484011213EDA68401122F
:102A230013EDDA84011213ED8E86011213ED628722
:102A3300011213EDC187011213EDD788011213EDB3
:102A43002389011213EDC08B011213ED358E011290
:102A530013ED818F011213ED1990011213ED2590DF
:102A6300011213ED6E90011213EDA190011213EDFB
:102A73002D91011213ED3F92011213ED8093011278
:102A830013ED7F94011213EDA994011213ED149524
:102A9300011213ED6D95011213EDE095011213ED83
:102AA3001698011213ED9C99011213ED879A0112E6
:102AB30013EDD59B011213ED0D9E011213ED04A12D
:102AC300011213ED13A1011213EDA7A1011213EDCE
:102AD30052A2011213ED95A2011213EDDEA201120F
:102AE30013ED2EA3011213ED9BA3011213ED07A403
:102AF300011213ED23A4011213ED52A4011213EDDD
:102B030091A4011213ED79A5011213ED28A6011268
:102B130013ED9FA8011213EDD1A9011213EDA0AA81
:102B2300011213ED22AB011213ED6EAF011213ED7F
:102B33009DAF011213EDF8AF011213ED2BB001128B
:102B430013ED86B0011213EDA2B0011213ED03B120
:102B5300011213ED53B1011213ED02B2011213ED81
:102B6300C5B2011213ED8DB3011213EDD9B50112E4
:102B730013ED65B7011213EDBCB8011213EDD8B90B
:102B8300011213EDDBB9011213ED0ABA011213EDB1
:102B9300F9BB011213EDC2BC011213ED03BD011207
:102BA30013ED59BE011213EDCFBE011213ED02BF97
:102BB300011213ED66BF011213ED87C1011213ED6C
:102BC300E6C1011213EDBCC2011213EDD0C2011212
:102BD30013EDE4C2011213ED11C3011213ED41C34E
:102BE300011213EDE5C4011213EDE2C5011213ED59
:102BF30030C6011213ED57C6011213ED32C701128D
:102C030013EDD8C7011213ED5EC9011213EDA5C967
:102C1300011213ED12CA011213ED67CB011213ED6A
:102C230010CC011213ED44CC011213ED5CCC011254
:102C330013EDFFCC011213ED7BCF011213ED23D162
:102C4300011213ED47D1011213ED65D1011213EDFA
:102C530031D2011213ED7FD5011213EDF53A0012B3
:102C630013ED273B001213EDA73F001213EDF63FC0
:102C7300001213ED3C40001213EDDF40001213ED80
:102C83004441001213ED8841001213EDEF4200128C
:102C930013ED1B44001213ED1848001213ED97486F
:102CA300001213EDBD49001213ED204A001213ED7B
:102CB3006C4B001213ED044E001213ED914E0012F3
:102CC30013ED9B4E001213EDC34E001213ED8B4F09
:102CD300001213ED2050001213ED4950001213EDB2
:102CE3007650001213EDCB52001213ED98530012DD
:102CF30013EDD753001213ED5954001213ED04557D
:102D0300001213ED3655001213ED8155001213ED29
:102D1300BA55001213ED0956001213ED6556001251
:102D230013EDE756001213ED4C57001213EDC45781
:102D3300001213ED6D59001213ED655A001213EDD5
:102D4300A65B001213EDFA5E001213ED566100123A
:102D530013ED0F62001213ED5762001213ED386486
:102D6300001213ED7364001213ED7C64001213ED73
:102D73008564001213ED9064001213EDAF6400122A
:102D830013ED6265001213EDBF65001213EDC96503
:102D9300001213EDD365001213ED1F66001213ED3D
:102DA3006766001213ED6B67001213ED04680012DF
:102DB30013EDCB68001213EDF569001213ED206BD0
:102DC300001213ED166C001213ED2E6C001213EDAE
:102DD300626C001213ED806C001213EDC86C0012CC
:102DE30013ED016D001213EDB86D001213ED796E42
:102DF300001213EDEC6E001213ED686F001213ED69
:102E03000470001213ED2A71001213EDE671001223
:102E130013ED8672001213ED7373001213EDCB736F
:102E2300001213ED9174001213EDB474001213ED3C
:102E3300C975001213ED1476001213ED70760012AB
:102E430013EDD876001213EDFC76001213ED247700
:102E5300001213ED6977001213ED8D77001213ED55
:102E63001178001213EDFA78001213ED3F79001276
:102E730013ED6879001213ED067A001213ED717ADF
:102E8300001213ED9D7A001213ED7E7B001213EDF9
:102E930035E2041213ED6DE2041213ED8EE2041217
:102EA30013EDD0E2041213ED34E3041213ED3EE309
:102EB300041213ED4EE3041213ED85E3041213ED34
:102EC3002EE7041213EDF6E8041213EDDAEA041206
:102ED30013ED7CEB041213ED06EC041213ED56BB59
:102EE300021213EDBABB021213ED18BC021213ED5A
:102EF30063BC021213ED7EBC021213EDA5BC0212D9
:102F030013EDC2BC021213EDCEBC021213ED5FBE71
:102F1300021213ED78BE021213EDF4BE021213ED8A
:102F230007BF021213ED17BF021213EDBBBF02124C
:102F330013ED27C1021213ED3AC2021213EDDAC2E6
:102F4300021213EDE4C2021213ED63C3021213ED76
:102F530074C3021213EDB3C3021213EDE1C30212E1
:102F630013EDAEC4021213ED05C5021213ED3EC5F7
:102F7300021213ED94C5021213EDB2C5021213ED42
:102F830000C6021213EDCBC6021213ED19C70212CB
:102F930013ED66C7021213EDE9C7021213ED13C84E
:102FA300021213ED49C8021213ED58C8021213EDB1
:102FB300B7C8021213ED2FC9021213ED70C9021222
:102FC30013EDC0C9021213EDEBC9021213ED05CACA
:102FD300021213ED1FCA021213EDF4CA021213ED0B
:102FE300FECA021213ED39CB021213ED49CB0212C2
:102FF30013ED52CB021213EDA3CB021213EDB7CB99
:10300300021213EDD9CC021213EDEECC021213ED22
:1030130081CD021213EDF5CD021213ED9ACE0212F9
:1030230013EDA5CE021213ED05D0021213ED21D03C
:10303300021213ED6DD0021213EDDBD0021213ED69
:103043000DD1021213ED27D1021213ED69D1021231
:1030530013EDBCD3021213ED54D4021213EDCBD4EF
:10306300021213ED28D7021213ED40D7021213ED0B
:1030730043D7021213ED4FD7021213ED63D7021297
:1030830013ED6BD7021213EDA2D7021213ED96D8EC
:10309300021213ED20D9021213EDA2D9021213ED7D
:1030A30022DA021213EDF9DA021213ED1BDB02121C
:1030B30013EDB4DB021213ED11DC021213ED14DC79
:1030C300021213ED83DC021213EDCFDD021213EDB6
:1030D300E2DE021213ED6DDF021213ED80E0021245
:1030E30013ED45E1021213ED76E1021213ED9CE1BB
:1030F300021213EDA5E1021213EDD4E1021213ED56
:1031030084E2021213ED34E3021213EDA7E3021279
:1031130013ED4AE4021213EDBDE4021213EDFCE4D5
:10312300021213ED45E5021213ED2AEF041213ED1B
:10313300DFEE041213ED44EE041213EDB5EC0412AA
:1031430013EDED8C041213ED728B041213ED708AE0
:10315300041213ED3188041213EDDB87041213ED0F
:103163001E86041213ED9583041213ED0F830412CC
:1031730013ED92CE041213ED92CD041213EDCB8115
:10318300041213ED8780041213EDB3CC041213ED74
:10319300F6DD051213ED0080041213ED98A106125B
:1031A30013ED70A1061213ED03A1061213EDA3A0F4
:1031B300061213ED67B5041213ED8DB4041213ED6B
:1031C300C3B3041213ED32B2041213EDFBB10412B4
:1031D30013EDCDB1041213ED81B1041213EDEAB076
:1031E300041213ED5AB0041213ED34B0041213EDAC
:1031F300E9AF041213EDB3AF041213ED36AF0412AB
:1032030013EDD1AE041213ED80AE041213EDA8AD8D
:10321300041213ED18AD041213EDCCAC041213ED2C
:1032230047AC041213ED02AC041213EDE6AB041227
:1032330013ED59DD051213ED8EAA041213ED11DA05
:10324300051213ED8ED9051213ED3BD9051213EDBB
:10325300BFCB061213EDA4CB061213ED0EF5041229
:1032630013EDB0F3041213ED47F3041213ED60AA48
:10327300041213ED2DAA041213EDB1A9041213EDD8
:1032830083FD051213EDDEF2041213ED74FC051237
:1032930013EDAEFB051213ED35FB051213EDEAE159
:1032A300041213EDBEF1041213ED91E1041213EDB8
:1032B30018EA021213ED5CE1041213ED27E1041284
:1032C30013EDF3E0041213ED86E0041213ED6EE048
:1032D300041213ED49E0041213ED22DD041213ED81
:1032E300F5DA041213EDFCD8041213ED88D8041296
:1032F30013ED39D8041213EDF3D7041213ED95D758
:10330300041213ED618F051213ED00F1041213ED96
:10331300CF8E051213EDE48D051213ED6C8C05129F
:1033230013ED278A051213ED6289051213EDBD7C97
:103333000000000080FBE4730000000020016F84A4
:103343000000010020016F8400000200200173844B
:1033530000000300200170840000040042016D801E
:103363000000050042017E80000006004201A080AB
:10337300000007002001AB80000000404201A08054
:103383000000100042018F80000011002001F407AB
:103393000000120010032D1606000000101100009B
:1033A30008000000203300000C00550039330000F2
:1033B3000C001C00423300001200550020010000E5
:1033C30014000E0042220000050B00002101000042
:1033D300050B010021010000050B00012301000082
:1033E300050B010123010000050B0201230100006D
:1033F300050B030123010000050B0401210100005B
:10340300050B050121010000050B06012101000048
:10341300050B070121010000050B08012101000034
:10342300050B090121010000050B0A012101000020
:10343300050B0B0121010000050B0C01210100000C
:10344300050B0D0121010000050B0E0121010000F8
:10345300050B0F0121010000050B100121010000E4
:10346300050B110121010000050B120121010000D0
:10347300050B130121010000050B140121010000BC
:10348300050B150121010000050B160121010000A8
:10349300050B170121010000050B18012101000094
:1034A300050B190121010000050B1A012101000080
:1034B300050B1B0121010000050B1C01200100006D
:1034C300050B1D01280100008F0001003014870047
:1034D30001009E16350004006316250002006716DE
:1034E300260002006916270002006B16280001005F
:1034F30075162900010076168400040077168600ED
:1035030001007B162A0001007C162B0001007D16AA
:103513002C00010081162D00080013142E00010059
:1035230082162F000100831630000100841631003B
:1035330001008516320001001B14330001001C1426
:10354300340001008616360001001D143800010006
:103553008716390001008016830002009C16630061
:1035630001002D14640001007E16650001007F1622
:103573006D0001002E14710008000B146600010099
:103583009B16430001008C16440002008D16450073
:1035930001008F164600020090164700080025140C
:1035A3004800010092164B0001009316040001002D
:1035B3009F16A1000100A21637000100A116880082
:1035C3000100A0163C0001001E143D0001008816F6
:1035D300490002009416670001002F144D000200F9
:1035E30096164E00010098164F00020099163E00F1
:1035F30001002414510001008916520001008A16AB
:10360300530001008B16540001001F14000000003A
:10361300000000013636010100010201000103012F
:103623000001040106060502000007010034080139
:10363300000F090401010D0100FF0E08000017022D
:103643000000190100FF1A0100011B0100FE1C010B
:1036530000081D0200001F010001200100012102DA
:1036630000002301000F24020000260100012701AE
:103673000008280200FF2A0100072B0102402C0149
:1036830000002D0100012E0100012F0100FF300178
:103693000B1D310800003A0100083B01000F3C01FB
:1036A30000013D0100FF3E04000042040000460407
:1036B30000004A0400004E040000520400005604B7
:1036C30000005A0400000000210100010021020053
:1036D3000001236600010123670002012368000340
:1036E300012369000401216A000501216B00060121
:1036F300212C010701212D010801212E010901219E
:103703002F010A012130010B012131010C0121C8D4
:10371300000D0121C9000E0121CA000F0121CB00B8
:10372300100121CC00110121CD00120121CE001383
:10373300012132011401213301150121CF001601AA
:10374300213401170121D000180121D100190121D1
:10375300D2001A0121D30001037103010301030104
:103763000301030103220302030103100300030007
:1037730003000300030003000300034203000324C8
:103783000306030003000304031203250323032595
:10379300032303040304030003000300034403009F
:1037A30003000323030003650321003503810300A2
:1037B30003050300030003000300032503230301A0
:1037C3000171010101010111010101310101010136
:1037D300018001100161013B001400630173017258
:1037E30001620143010001130106013D013500049B
:1037F3000112010001000100010001040104013371
:103803000133013C0144013201360000010001652E
:1038130001000135008101000105018201830100DE
:1038230001030271023001600211027002010202FF
:103833000202028002100261023A00410063027335
:103843000272026202430200021302380000020005
:103853000204021202000200020002000204020437
:1038630002370037003C0244020002390000020024
:103873000265020002350281020002050282028310
:10388300020002030071003001600011007000317A
:103893000220035004800010006100000014006344
:1038A3000073007200620043000000130006000072
:1038B30000000004001200000000000000000004EB
:1038C300000400370037003C024400000000000001
:1038D30000000065000000350081000000050000C5
:1038E300008300000036000100060000000F000006
:1038F300000000000000000000000003FFFF0000C4
:103903000403FFFF0000FFFF0FF4010005C40403DD
:1039130020000100000B0000000000000000030174
:103923000F00000000000000000000000000000085
:103933000000000000000000000000000000000084
:10394300000000D4232E24DA23DE22E0233424E0F3
:10395300234024E623DE22E0233424EC23DE22F278
:1039630023DE22F823DE22FE23DE220424DE220AC3
:1039730024DE22102446241624DE22000000000048
:10398300000000000000001C2458242224DE221C16
:103993002458242224DE22102446242824DE220A4A
:1039A30000000002000000040000000800000010F6
:1039B3000000002000000040000000800000000024
:1039C30001000000020000000400000008000000E5
:1039D30010000000200000004000000100BC26028F
:1039E300003E260300442604004A2605005026060E
:1039F300005C2630007426330080263400862611AE
:103A0300008C261400922615006E26FFFF00000787
:103A1300ECFDFDFDECDCDCCCBCACAC9C9C8C7C7C80
:103A23006C6C5C5C5C4C4C3C3C2C2C1C1C0ACE2C03
:103A3300029E2C05B02C07A42C0C862C0D922CFF77
:103A4300000000160F00000B150B020002220F33BB
:103A530000000E5A6967426565416C6C69616E636B
:103A630065303901030507090B0D0F000204060831
:103A73000A0C0D140AE5D5C5B5A5A595858575650B
:103A830000393D3F373C3C362C442D303016181955
:103A930020231A1C1E3000011916181616182303AA
:103AA3000000034A49434E181A25050230301718FF
:103AB3001921301B1D1F300C0E020B040B0A0708C3
:103AC300000F02040201010101090200BE040AE819
:103AD300030000FA06123AE803763A0E00041003D4
:103AE300030A0C0408280C050908321E00FF04FF12
:103AF300041E74F7120DEDE99014FBF09014B0E47A
:103B0300F0121EFA901504E4F0A3F09014FCF0A355
:103B1300F0122E30121F00901440E4F0A3F012288C
:103B23002402566074EC120DED74D7121500EAFEF0
:103B3300EBFF548060689014FBE0F9121F728A084F
:103B43008B09EA4509604F7C0080010CEC75F0039A
:103B5300A4F8A9F0743028F582743A39F583E49314
:103B6300F4602CE493F88508828B83E06870DCAA08
:103B730008EC75F003A4F8743128F582743A39F52A
:103B830083E493C0E0740193F583D082123339AA9E
:103B930008AB09121F60EEFAEF6480023F89EF540D
:103BA30020601E122D288A088B09EA4509600A1233
:103BB3002C92AA08AB09121F60EEFAEF6420023FB1
:103BC30089EEA2E0501F9014B5E0640F70117900E4
:103BD300122C68E9600990166312175C122C80EEB0
:103BE3006401023F5EEF5440604F901653E0640659
:103BF3007028740BF090167BE0F9750801750900C5
:103C0300750A00750B009014A3E078081213A6AA96
:103C130008AB09AC0AAD0B1229149014201211FD44
:103C23007A007B409014FBE0F91220B07404121464
:103C330038EEFAEF6440023F89EE54207003023FEE
:103C4300627A207B009014FBE0F91220BCEA4B4C13
:103C53004D701A901500121780E8494A4B700E7583
:103C63000C01750D00750E00750F008061750C0059
:103C7300750D00750E00750F001220C88A088B0998
:103C83008C0A8D0B901500121780E8494A4B602A65
:103C930090150078081213C5400E750CFF750DFFC3
:103CA300750EFF750FFF801285080C85090D8C0EAC
:103CB3008D0F901500780C1214D27401780C121425
:103CC300A1E50C450D450E450F7003023E8F7C00A8
:103CD30079047A007B00122D048A088B09023DB611
:103CE30085188285198374FFF0740112179774FF86
:103CF300F0740212179774FF124B4FFAA3E0FB7490
:103D0300031214CA126BFB12646C122D46E9640190
:103D13006003023D98E508125A5812529F4480F8F6
:103D2300A3E0F97424121797E8F0A3E91263D7A369
:103D3300A3A3E0C0E07426121797D0E01269EDA3A5
:103D4300E0540860167424121797A3E04401123F4D
:103D5300A1C0E07428121797D0E0F01277E6350976
:103D6300126CF960181277E612638DA3E0C8127A19
:103D7300FDE0F87412121797E8F0A3E4F090839B28
:103D83001211FD74041214CA74071214C2122944C6
:103D93007404121438850882850983A3A3A3A3A3FB
:103DA300A3A3A3A37406123FA1F9122CE6850A0864
:103DB300850B09E50845097003023E8F7C007904F1
:103DC300AA08AB09122D048A0A8B0B850882850980
:103DD30083A3A3A3A3E0F510A3E0F511E4F512F583
:103DE30013780C79101216CC4029E5082404F8E462
:103DF3003509F9850C10850D1188828983C3E095F7
:103E030010F0A3E095111242EAF8A3E0F9E8497033
:103E13009C800E850882850983A3A3A3A3E4F0A352
:103E2300F0850882850983A3A3A3A3A3A3A3A3A3C4
:103E3300A3E06401850882850983A3A3A3A3A3A3A5
:103E4300702BE054046003023CE3850882850983F8
:103E5300A3A3A3A3A3A3A3A3A37406F07AB785087C
:103E6300828509831240D6122C7A023DB0A3A3A304
:103E7300A3E06003023CE3850882850983A3A3A32F
:103E8300A3A3A3A3A3A37401F0023DB0122CD47C7B
:103E93000079017A007B00122D048B09EA45096041
:103EA3000C7A207B009014FBE0F9121F9C850C0A0E
:103EB300850D0B7C0079047A007B00122D04EA4BFC
:103EC300701580538A828B83A3A3A3A3127591E5F4
:103ED3000898E5099940078A828B831256CB7C00A8
:103EE3007904122D048B0DA90DEA4970D7C3E50A95
:103EF3009508E50B95095013C3E508950AF508E500
:103F030009950BF509E508450970167A207B0090A1
:103F130014FBE0F9121F9C901500123F9AA3F08046
:103F230037E50825E0F508E50933F509E4F50AF571
:103F33000B78081214027A207B009014FBE0F9122C
:103F430020AA74041214381220C8EAF8EBF9ECFA28
:103F5300EDFB901500121768EE6420FAEF8027EF4F
:103F63005402600A122E2AEEFAEF64028018EF540C
:103F73000460161268AE79019014AE12646E1229B1
:103F830056EEFAEF6404FB80047A007B0074291276
:103F930014387F0C0210F4E4F0A3F0A3F0221263B0
:103FA300DBA3E022C082C08374EA1215007C167D75
:103FB300007900AA18AB19121F48740812179774D6
:103FC30002F09014A4126C0C123FEA7409121797B2
:103FD300126B1A7413121797E41267FE12281874DF
:103FE3001612143802644EE8F0A3E9F09014AE12EE
:103FF3005EEB2274F7120DED74DA121500EAFEEB94
:10400300FFEE4F602DAC18AD19122D467406121732
:1040130097E0601E7417121797E0FD74011217974B
:10402300E0FCEEFAEFFB7900122C3EE9600479A480
:1040330080027900742602565D74F7120DEDEAFED4
:10404300EBFF8E828F83A3A3A3A3A3A3E0544060BB
:104053001712755512646E122DD6E960067AFF7B2E
:10406300FF801512755580039014A412646E74FEBC
:104073006A700374FF6B6047127555127124122D19
:10408300D6E98E828F83600E125B94125A5838F5EC
:1040930083E4F0A38003127B28F07C6E7D2C8E8258
:1040A3008F8312646E12281EE9F5087015EE4F60B7
:1040B300097901EEFAEFFB122CE0A90802566075AC
:1040C30008CDAA081240D2122C7AE960E080EB8E68
:1040D300828F83125B98127AE0E0F92274F6120D54
:1040E300EDE9FEEAFF7A0F7B00121F5AEA4B601FCD
:1040F3008A828B83740CF0EEA3A3F0EF8A828B8306
:1041030012543D9014FBE0F9121F667900802FEEE4
:10411300F9122D0A8A088B09A808A909E849601C25
:1041230088828983A3A3A3A3A3A3A3A3A37406122F
:1041330077EEE0F91229E6EEF9122CE67910026720
:10414300BC74F4120DED8A088B098C0A8D0B901444
:10415300B5E0640F702CEA4509450A450B602390CE
:1041630014B0E064086005E0640470167808121463
:10417300027A017B009014FBE0F91220AA74041266
:10418300143802441674F4120DED74FC121500EA8F
:10419300FEEBFF8E828F83A3A3E0F9122D0A8A0818
:1041A3008B09EA450970030242C58E828F83A3A857
:1041B30082A983E0C0E0EA240B12638AD0E01242B2
:1041C300EA64F160288E828F83A3E064CD601E8E43
:1041D300828F83A3E0641A60148E828F83A3E064CA
:1041E300E9600A8E828F83A3E064E170367900125E
:1041F3002CE0E9602EE5082404F50AE43509F50B03
:104203008508828509831242D6A3E0F9850A82854F
:104213000B8312646E121F0C850A82850B83127145
:1042230024806E8E828F83A3E0C0E07402121797FE
:10423300D0E0124DF8127B6A124DEAC0E07403120B
:104243001797D0E0F0E508240C12529CAA18AB197A
:10425300700512293E8003122DBE7402121797E0D7
:1042630064E9702D850882850983124B64750A0100
:10427300780A12140E750AE9780A12140E12529271
:10428300124DDA12569F12646E122D7C74021214B0
:1042930038850882850983A3A3A3A3A3A3A3A3A308
:1042A300E064027012850882850983A3A3A3A3A3F4
:1042B300A3A3A3A37406F08E828F83A3A3E0F912B2
:1042C3002CE6122CD4901669124806122C80740422
:1042D300024413A3A3A3A3A3A31242E022E0FCA3DB
:1042E300E0FD8E828F83221277FEE02274F4120D9A
:1042F300EDEAFEEBFF7508008E828F83A3A3A3A3D1
:10430300A3E060487508088E828F83A3A3A3A3A3A9
:10431300A3A3A3A312646E79FF122AD08B0BEA45E1
:104323000B601075082C8E828F83A3A3A3A3A3E035
:10433300D2E0F08E828F83A3A3A3A3A3E0540364EC
:1043430001600302440F43081102440FEE241812C4
:1043530059546038EE241A1259546003F47013123E
:10436300747B7003A3E069600302440F75082202A3
:10437300440FEE241B127363EE241A125954FAEEFF
:104383002419125954F91229D402440F8E828F83AF
:10439300A3A3A3A3A3A3A3A3A312646E122DD6E97D
:1043A3006402700375080112747B7003A3E06970E3
:1043B30006E508D2E1F508E50860158E828F83A330
:1043C300A3E07006E508D2E58004E508D2E6F50827
:1043D3008E828F83A3A3A3A3A3A3A3A3A312646E19
:1043E300122DD6E964017006E508D2E0F5088E8245
:1043F3008F83A3A3E06015EE241D1257B2F9122D8B
:10440300C4E964016006E508C2E0F508A908800371
:104413001214387F040210F474F0120DED74D712E5
:104423001500EAFEEBFF8E828F83A3A3A3A3E060B4
:1044330011901667126CFB600990166712480612FA
:104443002C8074031214CA8E828F83A3A3A3A31296
:104453004DCB12646E122D46E970030245B4780108
:104463007405121797E0C394024002780074071290
:104473001797E0C3940240027800740C121797E078
:1044830064F87003A3E0F470030245B4740C1217CC
:1044930097E064F97003A3E0F470030245B4740C6D
:1044A300121797E064FA7003A3E0F470030245B4B3
:1044B300740C121797E064FB7003A3E0F47003021B
:1044C30045B47406121797E0F990149EE0696003EF
:1044D3000245B4E8A2E040030245B47427121797DB
:1044E300E060030245B4EE2413125EE17422121756
:1044F300971269D5241C125EE17410121797126B80
:104503001A7409121797E0601F741A121797E0FDC7
:104513007404121797E0FC8E828F83A3A312646E38
:104523007901122C3EE9703D74031214C2122C8CD3
:10453300E9F5087409121797E0702E901498E0605B
:10454300287422550864226020744255086442701E
:10455300147420121797124812600E7420121797C2
:104563001247EF60047ACF804AE9A2E6504D7420E7
:104573001217971257B824FD600F14600C24FD60C6
:104583000824FD600424FE70287420121797124734
:10459300E8700E7420121797126766A3E0640D602B
:1045A3001A74031214C2122DEEE96401700D02474E
:1045B300DB7AD37B0012260E0247DBEE242DF58235
:1045C300E43FF583124B427003A3E069702275093F
:1045D30000780912140E780912140EEE242F1259C2
:1045E30054F91247F6126468122D7C7402121438BF
:1045F3007409121797E070030246971247F6126484
:1046030068122E548A0A8B0BEA450B700302473457
:104613007404121797E0F88E828F83A3A3E028F81F
:10462300A3E03400F9E8240D1247E0F88A828B8373
:10463300A3A3A3E068600EE88A828B83A3A3A312DB
:104643005436123F9B7904E9121797124DC2E02AA0
:10465300F8A3E034008882F583A3AA82AB83121FF8
:104663004E8A0C8B0D8C0E8D0F850A82850B83A3CE
:10467300A3A3A3780C1213C540030247DB9083FF67
:10468300780C1215CD850A82850B83A3A3A3A37887
:104693000C1217199014B0E064046008E064096018
:1046A300030247DBE508A2E5400302476EEE242F31
:1046B300125954851882851983F0EE243012595407
:1046C300C0E07401121797D0E0F0EE243112595470
:1046D300C0E07402121797D0E0F07414121797E039
:1046E3006401702C740E1217971252AC24131259D2
:1046F30054687003A3E0697017740C12179712645F
:104703006E122DD6E9640270077414121797E4F041
:10471300EE2425F582E43FF5831211FD740412148F
:10472300CA74071214C212294474041214380247BB
:10473300DB9014F5E06401600302469774201217BE
:10474300971248127009E508A2E6500302469774CF
:1047530010121797E0F47003A3E0F4607BEEFCEF14
:10476300FD74031214C2122C98806DA2E650697472
:1047730020121797126BE27016741A121797E064DF
:1047830002705574031214C27900122DB880497453
:10479300201217971247EF7014741A121797E064D8
:1047A30004703574031214C2122DAC802B742012C2
:1047B30017971247E8700C790074031214C2122D74
:1047C300FA80157420121797126766E0640C70085C
:1047D30074031214C2122E1274290252C3F582E416
:1047E30039F583E02212755FE064032212755FE0FE
:1047F300640722EE242BF582E43FF58312736DEEFA
:10480300241322E0F508A3E0AA08FBE4FCFD22122E
:1048130056BB64062274F4120DEDEAFEEBFF8C081E
:104823008D0990141BE0600F12747B7003A3E06981
:1048330070051229C2805A79008E828F83A3A3A3A5
:10484300A3A3A3A3A3A312646E1229F28A828B8368
:10485300E58245836033A3A3A3A3A3A3E054186015
:1048630028E508241C12638A121201E50824131296
:10487300638A121201EE2418125954F91264551264
:104883002A0474041214388008790012645512291A
:10489300C802441674F7120DED74F7121500EAFE00
:1048A300EBFF9014B0E06403600DE064016008E086
:1048B300640960030249AF8E828F83A3E060030221
:1048C30049757C007D007A027B00121F0612759BDE
:1048D3008A828B83125EE79014A1126B1A795312AA
:1048E30028069014B0E0640960099014AE12646E57
:1048F300122E4E85188285198374011267FE794240
:104903001228069014B07404F074011214C2794A88
:1049130012280074011214CA7AA67B141221BE90C5
:104923001653E0640B70057406F0800B7900901445
:10493300AE12646E1229569014A11273697A037B26
:1049430000121F069014A41273697A047B00121FCD
:104953000690149BE0A2E35004D2F08002C2F0124E
:1049630067F4795212280690166312175C122C8092
:104973008037FC7D007A037B10121F06901653E0EC
:10498300640B7003740AF0901689E4F0FA7B40908C
:1049930014FBE0F91220B68E828F831249B612649B
:1049A3006E1229569014B0E4F0122CC27409025608
:1049B3005DE0F8A3E0F99014AE22C082C0839014A6
:1049C30040126CFB701F9014B0E014600924FC606B
:1049D3000A14600C800F90144A8034901446802F80
:1049E300901448802AE8496008901441124DD4700D
:1049F3000C8A828B83A3E0F912294A801D9014400C
:104A0300126BE864027005122E1E800E90151F12A1
:104A13006CFB600612676712333902644E74F4123A
:104A23000DED74FE1215008A088B097A007B049041
:104A330014FBE0F91220B6AA18AB1979501228001A
:104A43007A0F7B00121F5A8A0A8B0BAE0AAF0BEE4A
:104A53004F6020850882850983A3E070169014AE09
:104A6300E0F47003A3E0F4603B124B3C7003A3E05B
:104A7300696031850882850983A374EA124DF012B7
:104A830028067AA47B14794B1228067AAE7B147914
:104A9300501228067AA37B1479E1122806EE4F7090
:104AA30003024B308E828F837402F09014AEE0F4D5
:104AB3007003A3E0F4600A124B3C7003A3E0697037
:104AC3004F8518828519831249B4E8F0A3E9124D82
:104AD300F01228009014A11252B1126B1A7AA47B1F
:104AE30014794B1228007AA37B1479E112280075FC
:104AF3000A00780A12140E780A12140E901648123D
:104B030049B712501112646E122D7C7402121438BC
:104B1300850882850983124B35A3F09014B0740382
:104B2300F0EEFAEFFB9014FBE0F9121F6674020239
:104B33004413A3E08E828F83228518828519831202
:104B43005EEB9014AEE06822E8F0A3E9124B532227
:104B5300F0850882850983E022F582E43BF583E052
:104B630022125EEBE8FAE9FB2274F5120DED74D123
:104B73001215008A088B098A828B831257AA741C28
:104B83001214CA8A828B83A3A3A3A3A3A3A3A312EE
:104B93004DDA12646E122CC8741C121797E0702C35
:104BA300850882850983A3A3A3A3A3A3A3A3E0C327
:104BB300940B40188E828F83A3A3A3A3A3A3A3A3C1
:104BC300E064027007126B06E0F46003024DBD90CF
:104BD30014B0E064027003024CA4E06406700302A4
:104BE3004CA4901440126CFB6008124DD470030265
:104BF3004CD49014B0E064086008E06404600302DD
:104C03004DBD741E121797124DC2A3A3A3A312572F
:104C1300AA901440E0F8496007126BEE64026077D3
:104C23009014AEE06E7003A3E06F6003024DBD7499
:104C3300016A60167423121797AC82AD837AC27B24
:104C4300141221B8E96003024DBD7A007B0290146F
:104C5300FBE0F91220BCEA4B4C4D6003024DBD90C2
:104C630014B112178085188285198312176890145E
:104C7300B7E0C0E07404121797D0E0F07405121780
:104C8300977401F0740612179774021267FE1229C3
:104C930008E96003024DBAEEFAEFFB122E18024D3B
:104CA300BD901440126CFB7028750800780812142C
:104CB3000E780812140EEE2410F582E43FF58312E9
:104CC3004DCBA31242D612646E122D7C74021214C1
:104CD300388E828F83125EE77407121797E8F0A36A
:104CE300E91252B7125EE774091217971269D512C7
:104CF3005E80C0E0740B121797D0E0124DEAF508FE
:104D0300A3E0F509740F780812170A740C121797A9
:104D1300E508F07420121797E0C0E0740D1217979E
:104D2300D0E0F07422121797E0C0E0740E121797C8
:104D3300D0E0F0741D121797E0C0E07410121797BB
:104D4300D0E0F0741E121797E0C0E0740F121797AB
:104D5300D0E0F0EE2410125954C0E07411121797EA
:104D6300D0E0F07421121797E0C0E0741212179785
:104D7300D0E0F0742E121797E0C0E0741312179767
:104D8300D0E0F07423121797A982AA8389088A09AD
:104D9300750A0078081214067C087D007417121730
:104DA30097AA82AB83121F3C740312143874071240
:104DB30014C2122950800312290E742F0257BCE02B
:104DC300FA8E828F83A3A322E0F98E828F83A3A31B
:104DD30022126BEF640122E0F98A828B83A3A3A3DF
:104DE300A3A3A3A3A3A322F0126B0AE022F07AA148
:104DF3007B14795322124DFC22F085188285198386
:104E03002274F2120DED74F8121500EAFEEBFF8C1A
:104E13000A8D0B890D908295AC18AD197408121385
:104E230046750C00EEFCEFFDAA18AB191221B8E988
:104E33007003750C019014FC801AEEFCEFFDE5087D
:104E4300240BFAE43509FB1221B8E97023E50824A1
:104E53001412638A124E896024E50CA2E040DB85BC
:104E63000882850983E0650A7004A3E0650B70DDA1
:104E7300850882850983A3A3E0650D70D0AA08ABDA
:104E83000974080254511256D3E508450922C08219
:104E9300C0839014FC02644B74F7120DED9014FC64
:104EA30012780C800C126F591257AD121FF6EEFADE
:104EB300EFFBEA4B70EF9014FCE4F0A3F0025660B2
:104EC30074F1120DEDEAFEEBFF890A8C088D098E51
:104ED300828F83E08C828D83125EAFAE82AF83E0DC
:104EE3001261F41263FBC41261F4124F82E0126187
:104EF300FB1263F9A2E2E4338C828D831263F8130D
:104F03001313541F1261F41263F7A2E7E4338C8284
:104F13008D83A3A3A3A3124F828E0C8F0D750E0056
:104F2300780C1214067C087D00E5082407FAE435A2
:104F330009FB121F3C7403121438EE2408FE5001BF
:104F43000F8E0C8F0D780C1214067C037D00E50880
:104F5300240FFAE43509FB121F3C7403121438E5DD
:104F63000AC3940F40118E828F83A3A3A3E0C0E0F2
:104F7300126386D0E08004126386E4F0027596A380
:104F8300A3125EB30EAF832274F5120DED8A088B64
:104F9300098A828B83A3AE82AF83E0F912296E8ED6
:104FA300828F83E064EB6024850882850983A3E014
:104FB30064E16018850882850983A3E064F1600CCD
:104FC300850882850983A3E0641A700985088285B0
:104FD3000983A3E4F090166312175C122C80750A00
:104FE30001780A12140E850882850983A3E0F50867
:104FF300780812140E79009014AE12501112646ED8
:10500300122D7C7402121438122CD40257BF12735F
:105013006D9014A422EAF0A3EBF002644E74F6122E
:105023000DED9014FFE0701B7C0079017A007B008A
:10503300122D04EA4B600C8A828B83126CFB600393
:10504300122C740267BCC082C0837904122CFEE95F
:10505300F8903AEAE493C398401079FF122CFEE9E2
:10506300F8903AE9E493C3985004790180027900F7
:1050730002644E74F0120DED8A088B09890B750CCE
:10508300008A828B83A3A3A3A3A3A3A3A3E0F91200
:105093002D0A8A0E8B0FAE0EAF0F750A01EE4F600D
:1050A30003025170850882850983A3A3A3A3A3A345
:1050B300127369850882850983A3A3A3A3A3A3A36A
:1050C300A3E0F985088285098312646E122CF28AA3
:1050D3000C8B0DAE0CAF0DEE4F700302528B8E8214
:1050E3008F83A3A3A3A3E4F0A3F0E508240CFAE4BD
:1050F3003509FB8A828B83E0C0E0125292D0E0F044
:10510300E508240D1252A5240D126B14122DDCEEAA
:10511300240F12711EE50824111252A52411126BDB
:1051230014E508241312529CC0E01269BED0E0F0CB
:10513300750C01EE2406125E74547FF0A3E054FC58
:105143001242EA540460030251E5901675E0F50833
:105153007509007407780812163F8E828F83A3A304
:10516300A3A3A3A3E04508F0A3E04509F08E828F33
:1051730083A3A31256CB7407780812170AE50854C1
:1051830007FCE50B606C8E828F83A3A3A3A3A3A369
:10519300A3A3A374021263FC125576600B90149CB4
:1051A3001252B1A3A3126B1AEC7003025259EE24EC
:1051B30006127AE9547FF508A3E054FCF509EC24C0
:1051C300FFF50EE434FFF50F7407780E12163FE572
:1051D30008450EF8E509450FF98A828B83126B1A8D
:1051E30080748E828F83A3A3A3A3A3A3E04480022E
:1051F300516FEC7005750A00805C8E828F83A3A3C8
:10520300A3A3A3A3E05420600C121F54EA547F7994
:1052130000245F80198E828F83A3A3A3A3A3A3E09B
:105223005410601A121F54EA540F7900240A5001D3
:10523300098E828F83A3A3A3A3F0A3E9800D8E829B
:105243008F83A3A3A3A37401F0A3E41252B774043E
:105253001254F9121F9CE50CA2E0502F8E828F830B
:10526300A3A3A3A3126EDFE0F9EEFAEFFB122CF86F
:10527300E96018126CF26009EE240F126468121FC1
:10528300F6EEFAEFFB121FF6750A00A90A8034EE58
:10529300240CF582E43FF58322F582E43509F58396
:1052A300E022F582E43509F583125EEBEE221275F6
:1052B300BFA3A3221252BB22126137A3A3A3A3222B
:1052C3001214387F080210F474F4120DED74F712FF
:1052D30015007E00122D0AEA4B70030253918A8255
:1052E3008B83A3A3A3A3A3A3A3A3A3E06406600345
:1052F3000253918A828B83A3A3A3A3A3A3A3E0FF57
:105303008A828B83127B0DE0C0E07408121797D05A
:10531300E01256B2F8A3E0F9851882851983126B5F
:105323001A122D1CEF5408606385188285198312A5
:1053330073697A007B00122CEC8B0BEA450B704CE3
:10534300127B5C1228307C007D007A007B00802871
:105353008E828F831257B8F47003A3E0F4602D900C
:1053630014AE1242DC12646E12282AE9641A601C1D
:105373007C007D00EEFAEFFB122CEC8A0A8B0BAE5D
:105383000AAF0BEE4F70C979001228367E01EEF991
:105393007409024413C082C083EA4B70059015045C
:1053A30080068A828B83A3A31255AE60208A828BE8
:1053B30083A3A3A3A3A3A3A3E0540860E5EC4D60D8
:1053C300101255B57003A3E06D70D780047A007B8B
:1053D3000002644E74F2120DEDEAFEEBFF890A8CB3
:1053E300088D097A147B00121FF0EA4B603A8A8217
:1053F3008B83A3A3A3A3A3A3A3A3A3E41256A7A34B
:10540300E50A127566A3127B681254361256C5124A
:10541300543D8A828B83127583EA1277E83BF583C6
:10542300E4F012542DF0A3F08027A3F08A828B833B
:10543300A3A32212757AE4F0A322A3F01254483BEB
:10544300F583E4F022EA1267E322A90A7403121433
:10545300387F060210F474F4120DEDEAFEEBFF89B7
:10546300088C0A8D0BEE4F70030254F47401650827
:1054730070127901122CFEE9F8903AECE493C39888
:10548300502280167404650870147904122CFEE906
:10549300F8903AEAE493C398500A7911805574025C
:1054A3006508704D8E828F83A3A3A3A3A3A3A3A395
:1054B300A3E508125EAFA31271BDE4F0A3F090154B
:1054C30004126CFB601A8003E0F8A3E0F988828978
:1054D30083A3A31255AE88828983A3A370EA8003B2
:1054E300901504EEF0A3EF1254F9121F9C7900807B
:1054F3000279C1024416F07A207B009014FBE0F994
:1055030022C082C083E9F87900901504801D8A8245
:105513008B83A3A3A3A3A3A3A3A3A3E0686005749E
:10552300FF687001098A828B83A3A31255AE70DED4
:1055330002644E74F7120DEDEA4B7005901504806A
:10554300068A828B83A3A31255AE60208A828B8343
:10555300A3A3A3A3A3A3A3A3A3E06970E4EC601094
:105563008A828B83E012557670D780047A007B00A1
:10557300025660F8A3E0C8127B34E0540422C082D0
:10558300C08390150480068A828B83A3A31255AE31
:1055930060128A828B83A3A3A3A3A3A3A3A3E0691B
:1055A30070E580047A007B0002644E12780CFBEAFB
:1055B3004B221256B76C2274F2120DED8A0A8B0B32
:1055C3008C0C8D0D750800750900EA450B60309051
:1055D300150480068E828F83A3A31257ADEE4F600E
:1055E3001EAC0CAD0DEEFAEFFB850A82850B831220
:1055F3003339E9640170DDEEF8EFF988088909AA07
:1056030008AB0902545474F7120DED901504125EA1
:10561300E77C007D00800DE8FCE9FD88828983A397
:10562300A3125EE7E8496030EA687002EB6970E74D
:1056330090150412646EE86A7002E96B88828983AC
:10564300A3A37008125EE79015048009125EE78C2D
:10565300828D83A3A3126B1A80031214387F010275
:1056630010F474F7120DEDEAFEEBFFEE4F602B1210
:105673002D161256DB12646C121FF68E828F831264
:10568300646E121FF6126CF26009EE240F12646846
:10569300121FF6EEFAEFFB121FF680C112736D8A2A
:1056A300828B83221256AB2212757EA3A3A322F010
:1056B3001256B7228A828B83E0F8A3E0F5838882AF
:1056C300E0221256ABA3A322A3A3A3A31256D32271
:1056D300E0F508A3E0F509228E828F83125B98120E
:1056E3005B8E3822C082C083EAFCEBFDEC4D601771
:1056F300EC24FBF582ED34FF126CF970071257416D
:10570300E0F46007121F60790580309014FBE0C05D
:10571300E0125741D0E0F0903AE4E493F97A067B43
:1057230015121F96E9640170107A007B209014FB18
:10573300E0F9121F9C79008002790402644EEC2484
:10574300FFF582ED34FFF5832274F4120DEDA2AF61
:10575300E433F508C2AF9015061257ADEE4F603A29
:10576300EE24FBF582EF34FF126CF97A007B209074
:1057730014FB6007E0F9121F9C8005E0F9121FA2D9
:10578300E4F50AF50B780A12140AEEFCEFFD7A062B
:105793007B15121F907402121438E508A2E092AF31
:1057A300EEFAEFFB024416A3A3A31271D5FF22F571
:1057B30082E43FF5831256BB221214387F03021092
:1057C300F474F2120DED74FA121500EAFEEBFF7594
:1057D3000AFE750BFF122CDAE96005791102594CA8
:1057E300EE24151259546035901693E0C43354E0F7
:1057F300F8E0333354FC48C0E01260FDD0E0127B84
:105803003DFAA3E0FB79FF122AD08B09EA45096030
:105813000C750AFF1269C21268A8D2E0F08E828F5B
:1058230083A3A312646E122DD6E96006EE2412122E
:1058330067CBEE2413125954700D903AEEE493C0E3
:10584300E01269BED0E0F08E828F83E0A2E75004BD
:1058530054038019EE2414125954701290148DE0DD
:10586300C0E0125E6AD0E0F090148DE004F01259AB
:10587300516401701690167EE0600D901498E070EC
:105883000A8E828F83E070031267C88E828F83E053
:1058930064017011EE240B1257B26402700712599F
:1058A30068E04440F0AC18AD19EEFAEFFB122D405E
:1058B3008A088B0974FE650A700374FFF4700D8EF9
:1058C300828F83A3A3E0F50AA3E0F50BEA45096001
:1058D300748E828F83E0C0E07401121797D0E0F0DA
:1058E3007404121797127583EE241E125EE174027C
:1058F300121797126B1A74011214BA880C890D7857
:105903000C12140AEE242012595C12140E12596858
:10591300121201EE240E12595C12140E9014A112ED
:1059230012017408121797E0F9AC0AAD0B122D3A65
:105933007408121438E9FE74106E700BAA08AB09D0
:10594300121FF680027E10EEF97406025451EE2403
:1059530011F582E43FF583E022F582E43FF583E02D
:10596300F50C780C22EE1269CA22C082C08374D768
:105973001215009081C974031214CA7426121346B7
:105983008A828B83A3A3A3A3125EE7740E121797D5
:10599300E8F0A3E912542E125EE7740C1217971263
:1059A3005A5E125A58124B5FC0E0741A121797D0FE
:1059B300E0F0126F63125EE57420121797125A5EBD
:1059C3002415124B5CC0E07408121797D0E0F0EA7C
:1059D300241CF582E43B125EE57412121797125AE7
:1059E3005E2411124B5CC0E07409121797D0E0F0EB
:1059F300EA2412124B5CC0E07407121797D0E0F050
:105A0300EA241EF582E43B125EE574241217971212
:105A13005A5E2420124B5CC0E07426121797D0E024
:105A2300124DF874FFF0740112179774FFF07402AB
:105A330012179774FFF090839B1211FD74041214D4
:105A4300CA74071214C21229447404121438790058
:105A53007429023FE4240DF582E422E8F0A3E9F07F
:105A6300EA2274F4120DED74EC121500EAFEEBFF5A
:105A73008C0A8D0B89097508107A217B00121FF09F
:105A830085188285198312712485188285198312DA
:105A93006CFB7003025B877C217D00790085188293
:105AA300851983E0FA121F489014AE12646E8518AC
:105AB30082851983125B942409F582E438127122DA
:105AC3007420121797125EE77411121797E8F0A368
:105AD300E9125B9E127AF7125B9E127B1474021218
:105AE3005EF1F8126766E50AF0A3E50B125B9E12FE
:105AF3007B04E509F07422121797E0F88518828574
:105B03001983E0F9A3E0C9240CF582E439F583E8AD
