:020000040000FA
:060000000216C4020A19F9
:03001300020A3BA3
:03002B0002145567
:03003300020C6359
:03003B00020A9026
:0300530002094E51
:03005B000211C7C8
:030063000211E89F
:03006B00020C097B
:03007B00020C3A3A
:100083000209AD010020FD0002012C050000000162
:10009300C01CCC1C0000D21CDE1C00000000E41CB1
:1000A300081D0E1D141D00000000000000000101CA
:1000B3000204081020408001FFFF090D0101040123
:1000C300FEFF0000000000000006FFFFFFFFFFFF30
:1000D300FF0101010400C419000000E8030000FF50
:1000E300FF901AE803000064006400B801A0BB0D90
:1000F30000A0BB0D00020200F8FF0705021E040169
:10010300051E02051E020A0A010108080103102741
:1001130002803E0102FEFFE8030A050001FFFF0122
:100123000A1401E0C503423F1A51123FF304B53FDD
:100133000000803E010105030101FF0F10FEFFB126
:100143003B00000000233A00000000FF000000FF16
:1001530000C082C083E9FA5407F8748A28F582E460
:10016300341DF583E0F87900EAC4540F54036008A2
:1001730014600914600D8012E5808002E5905870C8
:10018300078007E5A0586002790102025BC082C0C4
:10019300831202ED600814601214601C802BEA6065
:1001A30005EB42808023E85280801EEA6005EB4223
:1001B300908016E852908011EBC39420500BEA60B4
:1001C30005EB42A08003E852A002025BC082C08319
:1001D3001202ED600814602C146050807BE852F327
:1001E30074016A601274026A601574046A7003EB26
:1001F300428FEB42FD806153F7DFE8528F80F34378
:10020300F72080F6E852F474016A601274026A609F
:100213001574046A7003EB42F6EB42FE803A53F71F
:10022300BFE852F680F343F74080F6EBC3942050C7
:1002330027E852F574016A601274026A6015740447
:100243006A7003EB42F7EB42FF800D53F77FE852EE
:10025300F780F343F78080F6D083D08222C082C038
:10026300831202ED600814602B14604E806CE85218
:10027300F352FD74016A600F74026A600F74046ABA
:100283007058EB428F805353F7DF800343F720E826
:10029300528F8046E852F452FE74016A600F740272
:1002A3006A600F74046A7032EB42F6802D53F7BF15
:1002B300800343F740E852F68020EBC39420501AA2
:1002C300E844E0F852F552FF74016A601074026A60
:1002D300601374046A7003EB42F702025B53F77F07
:1002E300E852F780F543F78080F6E95407FC748AF7
:1002F3002CF582E4341DF583E0FBF4F8E9C4540FD4
:10030300540322C082C0831202ED600814601214E9
:10031300601C802DEA6005EB42FD8025E852FD80DC
:1003230020EA6005EB42FE8018E852FE8013EBC31F
:100333009420500DEA6005EB42FF800574E04852BB
:10034300FF02025BC082C0831202ED6008146015D5
:100353001460228034EA6005EB42808003E8528017
:10036300EB42FD8024EA6005EB42908003E8529063
:10037300EB42FE8014EBC39420500EEA6005EB427F
:10038300A08003E852A0EB42FF02025BE9C4540FD2
:1003930054036007146013146020227801E8F4FB0F
:1003A300EA602014602114601522740F59C3940469
:1003B3005004780280E7780480E3780880DFE58CD6
:1003C300586004EB528C22E8428C221216D4601D32
:1003D3001216E37005191919801A121565701F1288
:1003E300153DC37003E66733191919400718181828
:1003F3002208080874FFF618F618F618F6221215E4
:100403003D6017121789702192F0121792701950DC
:100413001720F014080808090909E7F61819E7F680
:100423001819E7F61819E7F62212179260E6E86939
:10043300701F0808E62480F608E436F618547FB4E3
:100443007F0CE654806007F6E418F618F6221818B5
:1004530022E9C6CC08C6CD08C6CE08C6CFC0E0E8A0
:10046300C0E0EAC0E0EBC0E009E9F809E7FA09E710
:10047300FBE6F918E6F8C3EC98ED99EE9AEBC2E7C0
:10048300F5F0EFC2E795F0500E600CEBCFFBEACE30
:10049300FAE9CDF9E8CCF8EAA2E7D2E7FAEB33FBC5
:1004A30013F5F0EEA2E7D2E7FEEF33FFC5F013A298
:1004B300E730E601B313C5F0C3C0E0C0F07F00C36B
:1004C3009BFB605E9418600F401D14601AD0E023FC
:1004D300F9D0E0F80205AF8AF0E9486003D2F0E40E
:1004E300AFF0FAF9F8803BEB30E40D89F0EA6003F2
:1004F300D2F0E4AFF0F9CAF8EB30E30D88F0EF6027
:1005030002D2F0AFF0E4CAC9F8EB54076014FBC39E
:10051300EA13FAE913F9E813F8EF135002D2E0FFF4
:10052300DBEDD0E0C0E030E739C3E49FFFF5F0EC4A
:1005330098FC42F0ED99FD42F0EE9AFE42F0D0E0D5
:10054300F9D0E0F8E5F0607AE923F9EE20E742D844
:10055300028067C3EF33FFEC33FCED33FDEE33FE74
:1005630080EAEC28FCED39FDEE3AFED0E023F9D029
:10057300E0F84002801BC3EE13FEED13FDEC13FC09
:10058300EF135002D2E0FF08B800067F7F74FF80AC
:100593002EEF3350178CF020F00260100CBC000CCF
:1005A3000DBD00080EBE000408E860DFE933E81360
:1005B300FFEE2313FE4F4D4C8008E95480FFE4FE09
:1005C300FDFCEE33EF33F47004FCFD7E80D0E0FBE2
:1005D300D0E0FAD0E0F8D0E0CFC618CEC618CDC62A
:1005E30018CCC6F9221216D4700418181822121641
:1005F300E3700D74FFF61819F61819F61819F62298
:10060300E7548066F6121792700F12178970F01470
:10061300F608F608F608F680D1121789700CF6086A
:10062300F608768008E6447F80EC121540700C12C1
:10063300156860BFE65480F6E480BB121568700548
:1006430019191980A5E869700C763F18768018F699
:1006530018F6E8F922E6CDC0E018ECC0E0E633CDA9
:1006630033CDD313F6E719FCE7191933CC33C3940D
:100673007F400ECD9D502408E65480F6E418F680A2
:100683000FF4043D14501408E6447FF6187680E412
:1006930018F618F6D0E0FCD0E0FD22CCD313CCFD45
:1006A30018E4C6CBC0E018E4C6CAC0E00808ED08E9
:1006B300C633E613F618E433C675F003C3CA97CA04
:1006C30009CB97CB199C40047D08802EBD00030203
:1006D300079116B6FF050606081618C3CA33CACB18
:1006E30033CB33CA27CA09CB37CB193CC37D088028
:1006F3003E187D0820E75CC633C6CA33CACB33CB6A
:1007030033DDF1D5F0EB30E77BCA97CA09CB974AC3
:10071300CB199C406F4B7025E620E0218066187D45
:1007230008C3CA97CA09CB97CB199CD3C633C6CA89
:1007330033CACB33CB3350C9DDE7D5F0E1D3E4C6BD
:1007430036C608C636C608C636C608C636C618181C
:10075300188031C3CA97CA09CB97CB199CB340976A
:10076300C633C6CA33CACB33CB33DD34D5F02EC63A
:10077300A2E0C640C8CA27CA09CB37194A70BECB04
:100783003CB480B90808E63308E633601F1818182C
:10079300D0E0FAD0E0FBD0E0FCD0E0FD22187D08E9
:1007A300CA27CA09CB37CB193CD3808013F618E488
:1007B300B67F11F618B6FF0EF618C60470D20808F5
:1007C300768080CAF618F618F680C5001216D46033
:1007D3004F1216E36012E7548066F6121565701126
:1007E300121789703B090909F4F618F618F618F67A
:1007F3002212153D701512179208080860EAE644A4
:100803007FF618768018E4F618F62212179260160F
:100813001217897012E4F608F608F608E65480F613
:1008230009090918181822EAC0E0EBC0E0ECC0E09F
:10083300EDC0E0E687F0A4FBACF008E687F0A42C5B
:10084300FCE435F0FA1809E687F0A42C4B60027437
:1008530001CA35F0FCE433FB09E687F0D2F7A42C98
:10086300CB35F0FC1908E687F0A42BCC35F0FBE47C
:1008730033FD0819E687F0D2E7A42C4ACB35F0CD37
:100883003400FC09E687F0D2E7A42DCC35F0FDE473
:1008930033FA0918E687F0D2F7A42CCD35F0CA3421
:1008A30000FC08E687F0D2E7D2F7A42ACC35F07A29
:1008B3007E20E70B0ACB33CBCD33CDCC33CC33CB3C
:1008C3003350147004ED30E00ED2F1E4CD3DCDCCC5
:1008D3003CCC3B5005DA05C2F1EB547FC63308E646
:1008E3003392F0FBE73309E733C39A502D2B70198A
:1008F3000C0D4C4D70151806E608C333700D20F12E
:100903000AA2F013F6E418800B4024E4F630F00258
:10091300768018F618F618F68024D33B145010741A
:10092300FFA2F013F6187680E418F618F6800FA2EB
:10093300F013F618E63303F618ECF618EDF6D0E0EC
:10094300FDD0E0FCD0E0FBD0E0FA22C0E074F1126D
:100953000E5FA2AFE433F509D2AF85A708AFA1EFCD
:100963005508FE74105E60061219AE75A1EF740887
:100973005E60081219B475A1F78024EFA2E092F02B
:10098300E508A2E082F05017906198E0F890049C8B
:10099300E0C398A2D265D0335002E8F075A1FEE51A
:1009A30009A2E092AF7F02020EBEC0E074F2120E03
:1009B3005FA2AFE433FED2AF9061A4E0F8759B0071
:1009C300E59158540860087591F71219FC8023E5E6
:1009D3009158541060087591EF121A028014E59132
:1009E300A2E092F0E8A2E082F05007E0C2E0F01249
:1009F3001B4C9061A3E0F8E5E9585404600E121B08
:100A03002275E9FB906193E0A2E640F2EEA2E09248
:100A1300AF7F01020EBEC0E074F2120E5FA2AFE41C
:100A230033FED2AF9061A5E0F8E5BF5854046006E9
:100A330075BFFB121B6480D4C0E0C0D0E8C0E0E9FE
:100A4300C0E0C082C083A8C1E8C0E0900409E0F818
:100A5300748828F582E43403F583D0E0F090040829
:100A6300E0F8A3E0687006E59590040BF0900409A4
:100A7300E004F0C394804002E4F0A374C6F0D08392
:100A8300D082D0E0F9D0E0F8D0D0D0E032C0E0C0DE
:100A9300D0E8C0E0E9C0E0C082C08390048CE0F8F5
:100AA300A3E0687008539AFBA374018022C2E99003
:100AB300048CE0F8740128F0740C28F582E4340403
:100AC300F583E0F5C190048CE0C394804002E4F028
:100AD30080AC120B2030F039120B658034120B20DE
:100AE30020F01430E72B74FFFCFBFA747F8022E4C0
:100AF300FCFBFA7480801AB48008BC00F2BB00EFE0
:100B0300800F50EBF9E4C39AFAE49BFBE49CFCE40A
:100B130099C6CC18C6CB18C6CA18C6F922E4C9C6EA
:100B230008CAC608CBC6D3330308CCC63392F0C376
:100B3300947F402E94184019C9B90704CACBCC221C
:100B43005025C309CA33CACB33CBCC33CC33D9F406
:100B530022F4600DC9CCC313CB13CBCA13CAD9F685
:100B6300CC22E4FCFBFA2214FCFBFA22C3E498F83F
:100B7300E499F9120BB08026C3E49AFAE49BFBE9EB
:100B830020E7E9120BB0E498F8E499F922C3E4985A
:100B9300F8E499F9120BB0E498F8E499F9C3E49AEC
:100BA300FAE49BFB22EB20E7CFE920E7E0B9001052
:100BB300BB0008E88AF084F8AAF022E4FBC8FA2212
:100BC300EB70227B10C833C8C933C9335007C39AAB
:100BD300C3DBF280069A50012ADBEAC833F4C8C9A2
:100BE30033F4C9FA2275F008E4C833C8C933C933EA
:100BF300C99AC99B5004C92AC93BD5F0ECFBC83339
:100C0300F4C8E4C9FA22C0E074F2120E5FA2AFE4A2
:100C130033FED2AF90062DE05589600FE589FA794E
:100C230000121E1090062DE0F45289C2C5EEA2E018
:100C330092AF7F01020EBEC0E074F2120E5FA2AF4C
:100C4300E433FED2AF90062EE0558A600FE58AFAB0
:100C53007901121E1090062EE0F4528AC2EB80CD69
:100C6300C0E074F2120E5FA2AFE433FED2AF90067F
:100C73002FE0558B600FE58BFA7902121E10900658
:100C83002FE0F4528BC2E880A4080808EAC0E0EB26
:100C9300C0E086F0E7A4FA180986F0E7A42AFA1858
:100CA3000986F0E7A42AFA180986F0E7A42AFA19B4
:100CB30086F0E7A4FBE5F02AFA190886F0E7A42BEF
:100CC300FBE5F03AFA190886F0E7A42BFBE5F03AC6
:100CD300FA18180986F0E7A4C5F02BFBE43AFA19D1
:100CE30008E7C5F0C6A426F6E5F03BFBE43AFA189C
:100CF30086F0E7A4F6E5F00826F6E43B08F6E43AC6
:100D030008F6D0E0FBD0E0FA22080808E630E71145
:100D13001215A1120D24080808C64480C618181815
:100D230022181818E9799EC608CAC608CBC608CC8B
:100D3300C6C370207996CACBCC7019798ECBCC7090
:100D4300137986CC700EF9802ACA33CACB33CBCC45
:100D530033CC331930E7F2CCCBCA3350147004EAE6
:100D630030E00DE4CA3ACACB3BCBCC3CCC500209B1
:100D7300C3E913C6CC182313C6CB18C6CA18C6F9C1
:100D830022E4CFC0E0E4CEC0E0E4CDC0E0E4CCC0D8
:100D9300E075F020E626F608E633F608E633F608B3
:100DA300E633F6181818EC33FCED33FDEE33FEEFA3
:100DB30033FFC3EC9709ED9709EE9709EF971919DC
:100DC30019400FFFEC97FC09ED97FD09EE97FE190B
:100DD3001906D5F0BFECF709EDF709EEF709EFF7C0
:100DE300191919D0E0FCD0E0FDD0E0FED0E0FF22DD
:100DF3002518C582C0E0E51934FFC583C0E0E518B6
:100E0300C3958224F810AF0885831985821880085A
:100E1300858319858218D2AFCEF0A3E520F0A3789D
:100E230008E608F0A3DEFAEFF0A3E58124FAF8E67A
:100E330008F0A3E608F0A3E608F0A30808E608F024
:100E4300A3E608F0A315811581D0E0FED0E0F815E4
:100E53008115811581E8C0E0EEC0E022C0D02518DD
:100E6300C582C0E0E51934FFC583C0E0E518C3952A
:100E73008224F310AF08858319858218800885833F
:100E830019858218D2AFC8F0A3E9F0A3EAF0A3EB67
:100E9300F0A37908E709F0A3D8FAECF0A3EDF0A3E7
:100EA300EEF0A3EFF0A3D0E0F0A3D0E0F0A3D0E006
:100EB300F0A3E520F0A3E5F0F0A3228519838518BC
:100EC30082E0C0E0A3E0F9A3E0FAA3E0FBA3780883
:100ED300E0F608A3DFFAE0FCA3E0FDA3E0FEA3E055
:100EE300FFA3E0C0E0A3E0C0E0A3E0F5D0A3E0F5FA
:100EF30020A3E0A3F5F010AF08858319858218803D
:100F030008858319858218D2AFD082D083D0E0F8C8
:100F1300D0E0321215A4181818120D841216731982
:100F2300191922121673191919080808E61818183E
:100F330020E7E0120D841215A418181822090909D4
:100F4300E719191920E7DC080808E618181820E73C
:100F530003020D841215A4181818120D841215A477
:100F630018181812167319191922121774B90003D5
:100F7300020FACE4900331782E791B8002F0A3D8E2
:100F8300FCD9FA7A5E7B1D90008678CF79018015B3
:100F9300E493A3AD82AE838A828B83F0A3AA82AB50
:100FA300838D828E83D8E9D9E77582C17583C9742D
:100FB300071213CC75829075833774001213CCE437
:100FC3007375F0108E1A8F1B85821F85831E8518FB
:100FD30082851983E0CEA3E0CF851F82851E83EB34
:100FE300C9EAC8EDCBECCAC3E833C8E933C9EA336D
:100FF300CAEB33CBC3EA9EF51DEB9FF51CB350043C
:10100300AB1CAA1DEC33CCED33CDD5F0DAAE1AAF61
:101013001B221216D4601C1216E36017121792706B
:10102300071217897001D322C0D01217897006D016
:10103300D0B322C32233D0D0501430E0F6C3E796A6
:101043000809E7960809E7960809E796B32220E01E
:10105300D5E6970809E6970809E6970809E697B3DE
:1010630022D083D082ECC0E0EDC0E0E493A3FCE4A3
:1010730093A3FDED4C600D121188EC24FFFCED34BD
:10108300FFFD80EFE493A3FCE493A3FDED4C600D1F
:1010930012128FEC24FFFCED34FFFD80EFD0E0FD56
:1010A300D0E0FCE493A3C0E0E493C0E0221216D4A2
:1010B300601B1216E36016121792700712178960ED
:1010C3000CB322C0D01217897005D0D022C32233AB
:1010D300D0D0501330E0EBC3E7960809E796080930
:1010E300E7960809E7962220E0E4E6970809E697E1
:1010F3000809E6970809E69722D083D082E9C0E081
:10110300E493A3C386F0C5F095F0F908E493A386AE
:10111300F0C5F095F0700BE493A3C3994005E9047F
:101123008002A3E475F002A42582F582E5F03583FD
:10113300F583D0E0F9E493A3C0E0E493C0E0228513
:101143001983851882E0A3FEE0A3F5207808E0A3C5
:10115300F608DFFAE0A3FFE0A3C0E0E0A3C0E0E00D
:10116300A3C0E0E0A3C0E0E0A3C0E010AF08858225
:10117300188583198008858218858319D2AFD08397
:10118300D0820213D2C0E0C3E4939608740193960D
:1011930018400FE493667008087401936618700092
:1011A3007019A3A3C3E49396087401939618A3A399
:1011B300400DD0E0D0E0D0E00210A0A3A3A3A3A3EE
:1011C300A3D0E022C0E074F2120E5FC2D9901DA733
:1011D300E0C39400A2D265D0334005E0F9122104A4
:1011E3007F01020EBEC0E074F2120E5FC2DC901DDE
:1011F300A9E0F9C39400A2D265D0334003122104BD
:1012030080DE7404800474028000CCC0E0EDC0E092
:10121300E518C39CCCAD1950011D10AF068C188D79
:101223001980068C188D19D2AF12134ED0E0FDD061
:10123300E0FC2274028000CCC0E0EDC0E0E518C3FE
:101243009CCCAD1950011D10AF068C188D1980066A
:101253008C188D19D2AF12130AD0E0FDD0E0FC2216
:101263001216D460251216E360201217927003023F
:101273001789080808E76670101819E766700A18D6
:1012830019E76670041819E76622F422C0E0C0F07B
:1012930088F0E4936670080874019366187000A8D8
:1012A300F0A3A3700BD0F0D0E0D0E0D0E00210A008
:1012B300A3A3D0F0D0E022D083D082CCC0E0E493CB
:1012C300A3600612136F1470FAE493A3600612145A
:1012D300D21470FAD0E0FCE493A3C0E0E493C0E03E
:1012E30022C008C3E096F50808A3E096420808A3C5
:1012F300E096420808A3E0964208A2D265D033E5FF
:10130300087001D3D00822CAC0E0E493A3C582CCFD
:10131300C582C583CDC583F0A3C582CCC582C583F1
:10132300CDC583DAE5D0E0CA22A2E792D65002F413
:101333000430F70663F0FF05F0B3400384800384B1
:10134300F40430D60563F0FF05F022CAC0E0E0A341
:10135300C582CCC582C583CDC583F0A3C582CCC568
:1013630082C583CDC583DAE6D0E0CA22C0E0E49328
:10137300A3D39C5010E493A3C39C400AD0E0D0E0D5
:10138300D0E00212D7A3A3A3D0E022700908080873
:10139300226016181818C6C333C608C633C608C653
:1013A30033C608C633C6D5E0EA22C008C3E096F5C3
:1013B3000808A3E096420808A3E096420808A3E0C1
:1013C3009645087001D3D00822C09FF59FE473D0DF
:1013D3009F22D083D082C09FE493C0E0740193C066
:1013E300E0740293F59F227404800A7403800674E8
:1013F3000280027401C0E0F404121420D0E012173A
:101403001F2200C0D0251810AF08F518500C05197D
:101413008008F51850020519D2AFD0D0222518F54F
:101423008210AF08F518400C15198008F518400212
:101433001519D2AF85198322BB0102E722C082C0EE
:101443008389828A83BB0003E08002E493D083D044
:101453008222C0E0C0D0E8C0E0A8A8D2AFC2C7E8EB
:10146300A2E792AFD0E0F8D0D0D0E03260170808FE
:1014730008C6A2E713C618C613C618C613C618C6ED
:1014830013C6D5E0E9226016080808C6C313C618B8
:10149300C613C618C613C618C613C6D5E0EA22C3B8
:1014A300E0C696F608A3E0C696F608A3E0C696F64D
:1014B30008A3E0C696F6222518F8E43519F9222583
:1014C30018FAE43519FB222518FCE43519FD22C06E
:1014D300E0E493A36C7009D0E0D0E0D0E00212D72F
:1014E300A3A3D0E022251810AF08F518400C151956
:1014F3008008F51840021519D2AF22E7667010086C
:1015030009E766700A0809E76670040809E76622B6
:10151300C3E09608A3E09608A3E09608A3E096A28A
:10152300D265D03322E066701008A3E066700A0823
:10153300A3E066700408A3E06622191919E70947B6
:10154300097009E727097005E733F4220922C3E08C
:1015530096F008A3E096F008A3E096F008A3E096BF
:10156300F022181818E60846087009E626087005E0
:10157300E633F4220822C3E4939608740193960891
:1015830074029396087403939622C3E697F60809A8
:10159300E697F60809E697F60809E697F62218187B
:1015A30018E4C396F608E496F608E496F608E4967B
:1015B300F622E056F008A3E056F008A3E056F00840
:1015C300A3E056F022E667F60809E667F60809E69F
:1015D30067F60809E667F622E493F608740193F6C2
:1015E30008740293F608740393F622E657F6080983
:1015F300E657F60809E657F60809E657F622E627FE
:10160300F60809E637F60809E637F60809E637F675
:1016130022E026F608A3E036F608A3E036F608A390
:10162300E036F622E026F008A3E036F008A3E03621
:10163300F008A3E036F022E647F60809E647F60885
:1016430009E647F60809E647F622700422600D18FA
:10165300C6C333C608C633C6D5E0F41822E056F62F
:1016630008A3E056F608A3E056F608A3E056F622D0
:10167300E4C397F709E497F709E497F709E497F7C1
:1016830022600D08C6A2E713C618C613C6D5E0F339
:1016930022C6F4C608C6F4C608C6F4C608C6F4C60D
:1016A30022C3E09608A3E09608A3E09608A3E09679
:1016B30022C3E7960809E7960809E7960809E7961B
:1016C3002275D00075813F75183175190300020F1B
:1016D3006DE6084608C3134608336002E633F42276
:1016E300E7094709C3134709336002E733F422606C
:1016F3000C08C6C313C618C613C6D5E0F422E6F019
:1017030008A3E6F008A3E6F008A3E6F022E0F60853
:10171300A3E0F608A3E0F608A3E0F622CAC0E0E6D9
:10172300F0A308DAFAD0E0FA22E0FCA3E0FDA3E09C
:10173300FEA3E0FF22EAF0A3EBF0A3ECF0A3EDF0AD
:1017430022E0FAA3E0FBA3E0FCA3E0FD22E8F0A380
:10175300E9F0A3EAF0A3EBF022ECF0A3EDF0A3EEA3
:10176300F0A3EFF022E0F8A3E0F9A3E0FAA3E0FB93
:1017730022E5C754F84401F5C77901222518F582FB
:10178300E43519F58322E72719471947194722E654
:101793002618461846184622C2AF75D69F02000087
:1017A300221213D57ADF051213D55CE2051213D585
:1017B300B0E3051213D566E4051213D565E50512EA
:1017C30013D598E6051213D571BE071213D5F2BED1
:1017D300071213D52DC0071213D5FED8071213D540
:1017E3000FD9071213D5ADD9071213D5B8D90712DC
:1017F30013D5F7FF011213D5E4FF011213D516DB3E
:10180300071213D526DB071213D53BDB071213D5BB
:10181300A1DB071213D501D6071213D584D60712FD
:1018230013D5EAD6071213D5C3C7071213D5FEC7BC
:10183300071213D559C8071213D5B1C8071213D508
:1018430037C9071213D573C9071213D5EDFF021257
:1018530013D5FDFF021213D521A8071213D577A8BC
:10186300071213D5C6A8071213D5F3A8071213D569
:1018730049A9071213D51FDE071213D501C1071299
:1018830013D54BC1071213D5E1C1071213D567C294
:10189300071213D598C2071213D5B0C2071213D576
:1018A30024C3071213D53AC3071213D54DC3071226
:1018B30013D557C3071213D591D1051213D542D6A9
:1018C300051213D557D7051213D583D7051213D590
:1018D30012D8051213D5D9DA051213D500800612D2
:1018E30013D56380061213D51381061213D5DE8137
:1018F300061213D53383061213D51384061213D598
:101903001085061213D5E886061213D50F87061223
:1019130013D59B87061213D5F588061213D56B8949
:10192300061213D5A989061213D5BB89061213D53E
:10193300E3AF061213D5B1B1061213D5DCB206120A
:1019430013D59FB4061213D570F9061213D59CF95B
:10195300061213D50DFC061213D54DFC061213D532
:101963008DFC061213D5A1FC061213D5BAFC061280
:1019730013D5ABFD061213D550FE061213D564FE24
:10198300061213D5CCCE071213D5F0CE071213D5FA
:1019930009CF071213D53BCF071213D56BCF07120D
:1019A30013D598CF071213D5FACF071213D509D041
:1019B300071213D513D0071213D520D0071213D54E
:1019C300DBBB071213D5FBBB071213D53ABC0712B7
:1019D30013D555BC071213D574BC071213D5DABC43
:1019E300071213D5E3BC071213D540BD071213D555
:1019F30064BD071213D525BE071213D532BE0712D5
:101A030013D543BE071213D5ABDB071213D5C3DBC4
:101A1300071213D5EFDB071213D5EC8E071213D57C
:101A23004890071213D55690071213D569900712E1
:101A330013D57E90071213D59390071213D5A69052
:101A4300071213D51A91071213D57F91071213D5D5
:101A53002192071213D5E592071213D5F5920712B7
:101A630013D50493071213D57DDA071213D5A1DA20
:101A7300071213D5C9DA071213D5F1DA071213D5F2
:101A8300A0C5071213D5C7C5071213D5E5C507129D
:101A930013D558C6071213D508B9071213D521B9A0
:101AA300071213D52DB9071213D541B9071213D550
:101AB3005FB9071213D569B9071213D573B90712A2
:101AC30013D586B9071213D50CBA071213D581BAE9
:101AD300071213D5B0BA071213D5FEBA071213D5DE
:101AE3004DBB071213D568BB071213D572BB071280
:101AF30013D583BB071213D5C6BB071213D508DD55
:101B0300071213D5DD93061213D50794061213D5C6
:101B13002494061213D53794061213D54D94061246
:101B230013D5AB94061213D5E394061213D5D798A5
:101B3300061213D51C9A061213D54F9A061213D503
:101B4300B29A061213D51C9C061213D5449C061296
:101B530013D5599C061213D5699C061213D5AD9C57
:101B6300061213D5089D061213D5189D061213D518
:101B7300C1D2071213D5DBD2071213D503D3071231
:101B830013D51CD3071213D540D3071213D55ED335
:101B9300071213D575D3071213D5A3D3071213D581
:101BA300BED3071213D553DD071213D507AC0712A3
:101BB30013D517AC071213D51EAD071213D552ADAB
:101BC300071213D574AD071213D597AD071213D5AA
:101BD300B5AD071213D5EFAD071213D554AE0712E7
:101BE30013D596AE071213D5D5AE071213D506AF8C
:101BF300071213D53DAF071213D59EF7021213D563
:101C03009AF8021213D5B8F8021213D5DFF80212AC
:101C130013D5A4FA021213D5D2FA021213D587FBF5
:101C2300021213D54EFC021213D55DFD021213D519
:101C33008FFE021213D50E9C071213D5639C071255
:101C430013D5DD9C071213D5F09C071213D5179DEE
:101C5300071213D5AA9D071213D5849E071213D515
:101C6300489D061213D5739D061213D53E9E061288
:101C730013D57B9E061213D50C9F061213D59CA277
:101C8300061213D5AFA4061213D509BA041213D53D
:101C930043BA041213D543BC041213D588BE0412ED
:101CA30013D575C1041213D5E7C1041213D584C229
:101CB300041213D59AC2041213D54DC3041213D5BB
:101CC3009CC3041213D5DBC3041213D5F5C304124A
:101CD30013D521C4041213D524C4041213D57DC40F
:101CE300041213D5D0C4041213D588C5041213D516
:101CF300C5C6041213D552C9041213D56BCB0412F3
:101D030013D59ECB041213D5FECB041213D550CC9E
:101D1300041213D5D3CC041213D567CD041213D5F3
:101D23007DCF041213D51CD1041213D556D204123D
:101D330013D5F5D3041213D516D4041213D503D82F
:101D4300071213D51DD8071213D55FD8071213D561
:101D53008DD8071213D5A7D8071213D5C0D80712E9
:101D630013D5E4D8071213D5F8EE061213D54CEFAA
:101D7300061213D51CF0061213D549F0061213D51B
:101D830076F0061213D5C8F0061213D5F2F0061238
:101D930013D516F1061213D53EF1061213D57EF1B3
:101DA300061213D508F2061213D539F2061213D50B
:101DB30060F2061213D5A6F2061213D5C4F2061268
:101DC30013D5E8F2061213D508F3061213D53EF322
:101DD300061213D59DF3061213D50CF4061213D570
:101DE30033C5061213D56DC5061213D5A8C6061240
:101DF30013D5C0C7061213D5DACB061213D561E982
:101E0300061213D59BE9061213D54FEA061213D512
:101E1300FAD4071213D56BD5071213D5CDD50712F4
:101E230013D50EDE061213D51FDF061213D530E0CD
:101E3300061213D57EE1061213D5D4E1061213D58B
:101E430012E2061213D520E2061213D5B1E30612ED
:101E530013D5E0B2071213D542B3071213D53EB51B
:101E6300071213D50080071213D54180071213D52B
:101E73007780071213D59E81071213D53A83071271
:101E830013D5DA83071213D5F884071213D53288D2
:101E9300071213D5B288071213D578FE061213D58D
:101EA300B5FE061213D5E9FE061213D5FCFE061283
:101EB30013D595AF071213D5A8B0071213D56AB17E
:101EC300071213D515B2071213D541B2071213D552
:101ED300B8B2071213D569CD071213D589CD0712EE
:101EE30013D59CCE071213D59FCE071213D57BD1E2
:101EF300071213D5B1D1071213D5CBD1071213D5BE
:101F03000DD2071213D51DD2071213D5B7D207125C
:101F130013D55CB7061213D566B7061213D5A0B74F
:101F2300061213D509B8061213D526B8061213D50F
:101F3300C8B8061213D5D1B8061213D516B90612AE
:101F430013D53FB9061213D54CB9061213D5BDB933
:101F5300061213D548BA061213D596BA061213D52C
:101F6300D4BA061213D539BB061213D55CBB0612BD
:101F730013D5D3BB061213D52ABC061213D565BCE1
:101F8300061213D59ABC061213D5ACBC061213D590
:101F9300BEBC061213D5DDBC061213D5E6BC061271
:101FA30013D5A1BD061213D5EDBD061213D52BBE55
:101FB300061213D52AD0071213D56AD1071213D5E7
:101FC3006AC3071213D5A0C3071213D5E8C30712B8
:101FD30013D541C5071213D530DC071213D57795F6
:101FE300051213D59B96051213D5D596051213D555
:101FF3007F98051213D5A998051213D51E9B0512B8
:1020030013D55E9B051213D5F49C051213D5919D30
:10201300051213D5E39D051213D5869E051213D51C
:10202300BE9E051213D5009F051213D56FA005128E
:1020330013D5BDA1051213D5EEA3051213D51CA408
:10204300051213D543A4051213D54CA4051213D5B9
:102053009CA4051213D52EA5051213D55DA8051250
:1020630013D5E0A8051213D5E0FF061213D5F6FF2A
:10207300061213D521A0071213D537A0071213D5C3
:10208300DBA0071213D51AA1071213D537A1071224
:1020930013D568A1071213D5B5A1071213D5E8A16B
:1020A300071213D523A2071213D518A4071213D5A9
:1020B30041D8061213D567DA061213D599DB061237
:1020C30013D5B1DB061213D5E189071213D51C8B87
:1020D300071213D5AE8C071213D557BE061213D5AC
:1020E3005BBF061213D577C0061213D592C1061231
:1020F30013D568C2061213D5A3CB071213D519CC77
:10210300071213D52DA9051213D5F2A9051213D55C
:10211300FFA9051213D5A8AA051213D507AB0512FB
:1021230013D578AC051213D5F0AC051213D5B2AEA6
:10213300051213D5DEAE051213D5E1B0051213D582
:1021430009B1051213D56AB1051213D5C5B105122C
:1021530013D516B3051213D569B3051213D5EEB310
:10216300051213D5BCE3061213D5E3E3061213D508
:1021730037E6061213D55EE6061213D5B3E606124A
:1021830013D5E5E7061213D561E8061213D503D775
:10219300071213D562D7071213D5A0D7071213D589
:1021A300E1D7071213D5E3B7051213D54CB80512BF
:1021B30013D597B8051213D5D2B8051213D547BB5B
:1021C300051213D561BF051213D581C1051213D5AD
:1021D3008FC2051213D569C3051213D501CC06129C
:1021E30013D53BCC061213D574CD061213D51ACFD3
:1021F300061213D547CF061213D5EACF061213D50D
:102203004DD0061213D584D1061213D5D0D9071297
:1022130013D51ADA071213D55FD2061213D5BCD21F
:10222300061213D59AD3061213D58BD4061213D5DF
:10223300B7D4061213D593D5061213D5AFD506120C
:1022430013D548D6061213D5D1D6061213D5C0FE20
:10225300031213D5CFFE031213D52FFF031213D589
:10226300ED7F001213D583F3031213D5EEF303129C
:1022730013D5ECF4031213D502F6031213D588F623
:10228300031213D561F7031213D541F8031213D5C3
:1022930063F9031213D57CFA031213D505FD031258
:1022A30013D5653E001213D5713E001213D5D33EEC
:1022B300001213D5DD3E001213D5703F001213D563
:1022C300AC3F001213D56C40001213D579400012B5
:1022D30013D5DC40001213D57141001213D5A74169
:1022E300001213D52442001213D5C443001213D590
:1022F3009845001213D57946001213D5C34700122F
:1023030013D5254A001213D58A4B001213D51F4C3F
:10231300001213D5524D001213D5464E001213D599
:102323007F4F001213D51554001213D50255001216
:1023330013D59A55001213D5BF55001213D5EB557B
:10234300001213D58356001213D59956001213D5D4
:10235300BB56001213D52157001213D54057001254
:1023630013D56957001213D58958001213D55F5935
:10237300001213D5D45A001213D5F55A001213D5EF
:10238300765B001213D51C5C001213D5645C00123B
:1023930013D5D55C001213D5615D001213D5C55D4D
:1023A300001213D5255E001213D5D45E001213D587
:1023B300405F001213D5735F001213D5F15F001253
:1023C30013D54D61001213D5BD61001213D54F62B1
:1023D300001213D5B263001213D53964001213D55A
:1023E3009E64001213D5CC66001213D558680012F0
:1023F30013D56868001213D59C68001213D50A69B7
:10240300001213D54569001213D5A769001213D51D
:102413003C6A001213D5176C001213D5E26D00123B
:1024230013D5EC6E001213D5E972001213D5B673EF
:10243300001213D5CE74001213D57876001213D57B
:102443000AF2011213D5C1F2011213D5C8F3011216
:1024530013D546F4011213D588F5011213D5A9F546
:10246300011213D561F6011213D50CF7011213D51E
:10247300ECFA011213D508FD011213D56FFE0112F8
:1024830013D599DD071213D5BDD6031213D518D76B
:10249300031213D5A2D7031213D513D9031213D5DD
:1024A300EBD9031213D5D4DA031213D5EBDA0312E3
:1024B30013D53DDB031213D5A1DB031213D5E2DBE6
:1024C300031213D5F5DB031213D54BDC031213D51B
:1024D300A4DC031213D5BCDC031213D56CDF031287
:1024E30013D501E0031213D52BE0031213D574E0C7
:1024F300031213D564E2031213D5CEE2031213D5EC
:10250300A2E3031213D5E5E3031213D5FFE303128A
:1025130013D546E4031213D566E4031213D510E56D
:10252300031213D50EE6031213D568E6031213D56F
:10253300B9E6031213D5C4E7031213D568EA0312ED
:1025430013D595EA031213D5FEEA031213D523EB31
:10255300031213D59DEB031213D566EC031213D5A7
:10256300A3EC031213D505ED031213D5C6ED031225
:1025730013D5C9ED031213D5D3ED031213D5DDED36
:10258300031213D5F0ED031213D56CEE031213D51A
:1025930095EE031213D5A8EE031213D5D4EE03124E
:1025A30013D5FBEE031213D51FEF031213D55AEF06
:1025B300031213D5CCEF031213D5F4EF031213D583
:1025C30035F0031213D56AF0031213D58AF0031200
:1025D30013D5C7F0031213D5FEF0031213D508F277
:1025E300031213D53BF3031213D551F3031213D57F
:1025F300A8DC071213D5C0DC071213D5F1D30712D9
:1026030013D58C78001213D5DB78001213D57B7A9F
:10261300001213D5367C001213D5787C001213D523
:10262300617D001213D56B7E001213D58D7E0012CF
:1026330013D5D77E001213D5587F001213D52ED889
:10264300021213D551D8021213D544D9021213D54D
:102653008DD9021213D5E5D9021213D541DA02122C
:1026630013D58DDA021213D503DB021213D58FDBD8
:10267300021213D504DC021213D547DC021213D560
:1026830018E0021213D567E2021213D5A1E2021277
:1026930013D59B8C061213D556E6021213D5CBE63F
:1026A300021213D55BE8021213D563E9021213D5A4
:1026B30079EA021213D5EFEA021213D5B6EB02122E
:1026C30013D51FEC021213D522EC021213D5F6EC2C
:1026D300021213D532EE021213D5F2EF021213D502
:1026E300EDF1021213D5F8F2021213D594F302128C
:1026F30013D5DFF4021213D5E5F5021213D548F60C
:10270300021213D5E5F6021213D50080051213D574
:10271300A080051213D50A81051213D5B1810512C4
:1027230013D51082051213D5A6DE051213D56585C0
:10273300051213D58B86051213D50F87051213D5F2
:10274300EC88051213D59189051213D5348A051225
:1027530013D5938A051213D54C8B051213D5CB8C45
:10276300051213D5888E051213D50990051213D5BA
:102773006391051213D57392051213D5199305129C
:1027830013D53894051213D52FD5041213D5A7D515
:10279300041213D5EFD5041213D533D6041213D56F
:1027A3007CD6041213D5C6D6041213D5FBD6041255
:1027B30013D579D7041213D5D3D7041213D52CD933
:1027C300041213D5ABD9041213D5C2DA041213D5EC
:1027D300E4DA041213D5F0DB041213D501DC04127E
:1027E30013D519DC041213D539DD041213D556DDC4
:1027F300041213D529DE041213D54DDE041213D5AA
:1028030064DE041213D585DE041213D5A7DE041289
:1028130013D599DF041213D5F1DF041213D567E141
:10282300041213D5C5E1041213D5E4E1041213D540
:1028330016E3041213D593E3041213D500E4041230
:1028430013D540E4041213D5A2E4041213D552E5C0
:10285300041213D524E7041213D50FE8041213D579
:1028630009E9041213D50FEA041213D52BEB041252
:1028730013D539EB041213D512EC041213D5B2ECB1
:10288300041213D5F6EC041213D50BED041213D571
:102893001CEE041213D5BFEE041213D517EF041266
:1028A30013D5C9FC051213D571FE051213D52EFFDE
:1028B300051213D583FF051213D525A4071213D5CB
:1028C30043A4071213D587A4071213D5ADA4071287
:1028D30013D5D3A4071213D5EBA4071213D503A55D
:1028E300071213D51BA5071213D57EA5071213D5FF
:1028F300C0A5071213D5E2A6071213D5EBA607123C
:1029030013D5F4A6071213D5FDA6071213D507A7EF
:10291300071213D528A7071213D5B497071213D597
:10292300949B071213D5A29B071213D5A79B0712DB
:1029330013D530CA071213D58C7F001213D557DE77
:10294300071213D568FE041213D583DE071213D5BD
:102953000080021213D55780021213D5C3800212CE
:1029630013D54F81021213D50582021213D54D825E
:10297300021213D56682021213D58982021213D56D
:10298300AB82021213D5E982021213D538830212E5
:1029930013D56383021213D5C183021213D568843E
:1029A300021213D51085021213D58C85021213D58A
:1029B3005986021213D5A086021213D5EC86021291
:1029C30013D57487021213D5AD87021213D503886A
:1029D300021213D51F88021213D54E88021213D583
:1029E3005A8A021213D5888B021213D5B48B0212A2
:1029F30013D5E88B021213D5098C021213D5188C48
:102A0300021213D5238C021213D5D28C021213D5C2
:102A1300428D021213D5CD8D021213D5D58D02121C
:102A230013D5428E021213D57E8E021213D5448F14
:102A3300021213D51790021213D56C90021213D5FC
:102A43000B91021213D56591021213D5AA910212AA
:102A530013D54394021213D58695021213D5709899
:102A6300021213D55499021213D5389A021213D5B0
:102A7300499A021213D5BB9A021213D5529B021222
:102A830013D5B79B021213D5A79C021213D5CC9C66
:102A9300021213D5EA9C021213D5069D021213D516
:102AA300799D021213D5889D021213D5109E02122E
:102AB30013D50D9F021213D51A9F021213D5239F0C
:102AC300021213D505A1021213D527A2021213D5A0
:102AD30037A2021213D565A3021213D5E4A302127F
:102AE30013D5FFA4021213D53BA5021213D515A7C4
:102AF300021213D5D2AA021213D5E6AA021213D5D3
:102B0300F0AA021213D5FAAA021213D504AB0212C9
:102B130013D51DAB021213D527AB021213D594ABF9
:102B2300021213D59FAB021213D5C7AB021213D5F2
:102B3300D2AB021213D537AC021213D542AC021238
:102B430013D566AC021213D58AAC021213D5FCACB2
:102B5300021213D545AD021213D561AD021213D57E
:102B6300D2AD021213D51EAE021213D567AE0212F6
:102B730013D5A5AE021213D526AF021213D5CDAFCE
:102B8300021213D59CB1021213D501B2021213D54E
:102B93002FB3021213D555B3021213D59DB40212EB
:102BA30013D5D7B7021213D5D5B9021213D5A0BBCB
:102BB300021213D539BC021213D53ABE021213D531
:102BC300EFBE021213D528BF021213D58EBF021215
:102BD30013D598BF021213D5C1C1021213D500C376
:102BE300021213D557C3021213D502C4021213D50E
:102BF300B2C5021213D5FFC6021213D51FC70212A4
:102C030013D574C7021213D575C8021213D59DC804
:102C1300021213D5FCC8021213D5F4C9021213D53C
:102C23006BCA021213D57ECB021213D5ECCB021260
:102C330013D5EBCC021213D545CF021213D56ECFA9
:102C4300021213D5D4D0021213D556D2021213D5C1
:102C5300ADD2021213D55BD3021213D500D40212E4
:102C630013D559D4021213D517D5021213D5A9D5EA
:102C7300021213D508D6021213D54AD6021213D55F
:102C83007BD6021213D5D2D7021213D500800312BA
:102C930013D53280031213D56B80031213D5298207
:102CA300031213D5FF82031213D55E83031213D5C8
:102CB3007484031213D5C084031213D54E870312F1
:102CC30013D5288A031213D56F8B031213D5078CE0
:102CD300031213D5138C031213D55C8C031213D573
:102CE3009E8D031213D5948E031213D5BE8E031239
:102CF30013D5148F031213D56D8F031213D5E08FE1
:102D0300031213D51692031213D59893031213D5F6
:102D13008394031213D5CD95031213D5059803128B
:102D230013D5029B031213D5119B031213D5A59B35
:102D3300031213D5509C031213D5939C031213D57E
:102D4300DC9C031213D52C9D031213D5909D031203
:102D530013D5029E031213D51E9E031213D54D9E47
:102D6300031213D58C9E031213D5879F031213D519
:102D730036A0031213D5B3A2031213D5E5A303128E
:102D830013D5BDA4031213D53FA5031213D574A9FC
:102D9300031213D5A3A9031213D5FEA9031213D546
:102DA30031AA031213D5A9AA031213D5DCAA03125D
:102DB30013D53DAB031213D58DAB031213D55AAC08
:102DC300031213D513AD031213D5D7AD031213D5C5
:102DD30051B0031213D5B3B1031213D504B30312C5
:102DE30013D528B4031213D52BB4031213D55AB435
:102DF300031213D552B6031213D511B7031213D509
:102E030040B7031213D55EB8031213D526B90312C4
:102E130013D5E4BA031213D516BB031213D558BB4B
:102E2300031213D557BC031213D5CABC031213D50F
:102E3300F3BE031213D552BF031213D5A6BF031259
:102E430013D5D5C1031213D5B8C2031213D574C356
:102E5300031213D588C3031213D59CC3031213D5CE
:102E6300C9C3031213D5F9C3031213D5B4C503128F
:102E730013D5C6C6031213D51BC7031213D564C7D4
:102E8300031213D58BC7031213D553C8031213D5DB
:102E9300F9C8031213D57FCA031213D5C6CA031286
:102EA30013D538CB031213D58DCC031213D536CDDE
:102EB300031213D56ACD031213D582CD031213D592
:102EC30025CE031213D5A1D0031213D549D2031271
:102ED30013D567D2031213D585D2031213D551D359
:102EE300031213D59FD6031213D58684011213D56B
:102EF300BE84011213D5BE89011213D5048A0112AF
:102F030013D53A8B011213D59F8B011213D5148D50
:102F1300011213D51E90011213D54791011213D537
:102F23005A9B011213D5EA9B011213D5D49E0112A9
:102F330013D5E19F011213D544A0011213D58CA11F
:102F4300011213D5FAA3011213D58CA5011213D5BF
:102F530019A6011213D538A7011213D5C5A701125B
:102F630013D5CFA7011213D5F7A7011213D597A82D
:102F7300011213D582A9011213D54FAA011213D539
:102F83006CAA011213D595AA011213D5C2AA011274
:102F930013D509AD011213D5D8AD011213D517AE50
:102FA300011213D599AE011213D53AAF011213D5FD
:102FB3006CAF011213D5B3AF011213D5E6AF0112F3
:102FC30013D52AB0011213D579B0011213D57EB0EF
:102FD300011213D5DAB0011213D51EB1011213D5A4
:102FE300F8B1011213D55DB2011213D5C3B20112A8
:102FF30013D53EB3011213D5A6B6011213D5A9B743
:10300300011213D527B9011213D53DBC011213D5F3
:10301300DFBC011213D528BF011213D5E3BF011280
:1030230013D522C0011213D5FAC1011213D517C249
:10303300011213D520C2011213D529C2011213D5CF
:1030430034C2011213D553C2011213D5F7C30112AF
:1030530013D554C4011213D55EC4011213D568C429
:10306300011213D5C7C4011213D511C5011213D50B
:1030730012C6011213D569C6011213D57AC70112FC
:1030830013D5C3C7011213D57DC8011213D594C933
:10309300011213D569CA011213D5B0CB011213D58E
:1030A300B4CC011213D5ADCD011213D5C5CD011288
:1030B30013D5FCCD011213D506CE011213D510CEB4
:1030C300011213D51BCE011213D539CE011213D51C
:1030D30081CE011213D5DFCE011213D506CF011213
:1030E30013D518CF011213D5CDCF011213D506D0A6
:1030F300011213D528D1011213D57BD1011213D597
:1031030061D2011213D588D2011213D5F8D201125C
:1031130013D574D3011213D5D0D4011213D5F7D517
:10312300011213D5B9D6011213D587D7011213D5BE
:1031330045D8011213D52DD9011213D5D7D90112B0
:1031430013D53FDA011213D5F4DA011213D550DB8C
:10315300011213D5A8DB011213D56EDC011213D5AE
:1031630091DC011213D54CDD011213D56EDD011272
:1031730013D5CFDD011213D5FFDF011213D5F8E00C
:10318300011213D5A4E1011213D5C5E3011213D51E
:103193000EE4011213D559E4011213D5B5E401125B
:1031A30013D513E5011213D537E5011213D55BE5EA
:1031B300011213D590E5011213D5B8E5011213D509
:1031C300FDE5011213D551E6011213D5AAE601124A
:1031D30013D5A4E7011213D542E9011213D587E9E8
:1031E300011213D5B0E9011213D539EA011213D52F
:1031F300ACEA011213D5BAEA011213D5DEEA0112C1
:1032030013D534EB011213D54FEB011213D50AEC8E
:10321300011213D536EC011213D579EC011213D533
:10322300DCEC011213D5EAEE011213D516EF0112ED
:1032330013D5D1EF011213D5B5F0011213D549F10E
:10324300011213D549F2051213D581F2051213D5D4
:10325300A2F2051213D5E4F2051213D548F30512B1
:1032630013D552F3051213D562F3051213D599F34F
:10327300051213D542F7051213D50AF9051213D512
:10328300EEFA051213D590FB051213D51AFC05129D
:1032930013D55080041213D5F980041213D5D881A5
:1032A300041213D5E482041213D50483041213D534
:1032B3002684041213D5D685041213D5438604122B
:1032C30013D51487041213D51A88041213D59288C0
:1032D300041213D5CD88041213D52689041213D5ED
:1032E3006189041213D5AA89041213D53E8A0412E4
:1032F30013D5D48A041213D5A98B041213D57C8C4D
:10330300041213D50A8D041213D5308D041213D56C
:103313005D8D041213D58E8D041213D55B8E0412AA
:1033230013D56B8E041213D5BE8E041213D5CB8E18
:10333300041213D5D88E041213D5E18E041213D5BB
:10334300458F041213D5A38F041213D5EE8F0412E5
:1033530013D50990041213D53090041213D54D9050
:10336300041213D55990041213D5EA91041213D5FC
:103373000392041213D57F92041213D5929204126E
:1033830013D5A292041213D54693041213D5B29403
:10339300041213D5C595041213D56596041213D5DB
:1033A3006F96041213D5EE96041213D5FF960412EA
:1033B30013D53E97041213D56C97041213D539987D
:1033C300041213D59098041213D5C998041213D577
:1033D3001F99041213D53D99041213D58B99041226
:1033E30013D5569A041213D5A49A041213D5F19A3D
:1033F300041213D5749B041213D59E9B041213D588
:10340300D49B041213D5E39B041213D5429C0412DC
:1034130013D5BA9C041213D5FB9C041213D54B9DF0
:10342300041213D5769D041213D5909D041213D55F
:10343300AA9D041213D57F9E041213D5899E0412EC
:1034430013D5C49E041213D5D49E041213D5259FFD
:10345300041213D5399F041213D55BA0041213D59C
:1034630070A0041213D503A1041213D577A104127B
:1034730013D51CA2041213D527A2041213D58AA3B1
:10348300041213D5A6A3041213D5F2A3041213D561
:1034930060A4041213D592A4041213D5ACA404128D
:1034A30013D50CA5041213D5ABA5041213D5F6A599
:1034B300041213D549A8041213D5E1A8041213D595
:1034C30058A9041213D5B5AB041213D5CDAB04120E
:1034D30013D5D0AB041213D5DCAB041213D5F0AB68
:1034E300041213D5F8AB041213D52FAC041213D561
:1034F30023AD041213D5ADAD041213D52FAE0412B0
:1035030013D5AFAE041213D586AF041213D5A8AFEB
:10351300041213D541B0041213D59EB0041213D56F
:10352300A1B0041213D510B1041213D55CB2041266
:1035330013D56FB3041213D5FAB3041213D50DB513
:10354300041213D5D4B5041213D505B6041213D53A
:103553002BB6041213D534B6041213D563B6041272
:1035630013D513B7041213D5C3B7041213D536B842
:10357300041213D5D9B8041213D54CB9041213D5B8
:103583008BB9041213D5D4B9041213D5508C061277
:1035930013D5B58B061213D5268A061213D59DFCB7
:1035A300041213D522FB041213D520FA041213D5E7
:1035B300E1F7041213D58BF7041213D5CEF50412D9
:1035C30013D545F3041213D5BFF2041213D57BF1BF
:1035D300041213D5A6DD051213D5C7DC051213D5C6
:1035E30037F0041213D5B0EF041213D505F9061200
:1035F30013D568F8061213D5F9B6071213D5D1B649
:10360300071213D564B6071213D504B6071213D5E0
:10361300B8D0051213D5DECF051213D514CF05127A
:1036230013D583CD051213D54CCD051213D51ECD5D
:10363300051213D5D2CC051213D53BCC051213D5E5
:10364300ABCB051213D585CB051213D53ACB051297
:1036530013D504CB051213D587CA051213D522CA75
:10366300051213D5D1C9051213D5F9C8051213D5FF
:1036730069C8051213D51DC8051213D598C70512BD
:1036830013D553C7051213D537C7051213D5DFC595
:10369300051213D520F5061213D5B1C5051213D59E
:1036A3009DF4061213D54AF4061213D5F8DD07125A
:1036B30013D5DDDD071213D57F92061213D52191A1
:1036C300061213D5B890061213D54F90061213D5D0
:1036D3007EC5051213D502C5051213D58B950712A6
:1036E30013D57C94071213D52F8F061213D5B693D7
:1036F300071213D53D93071213D5FEF1051213D507
:10370300A5F1051213D5718E061213D570F10512AA
:1037130013D5BC82051213D53BF1051213D507F15E
:10372300051213D59AF0051213D582F0051213D59D
:103733005DF0051213D536ED051213D509EB05120D
:1037430013D510E9051213D59CE8051213D54DE8DE
:10375300051213D507E8051213D5A9E7051213D5EA
:10376300A9AC061213D517AC061213D5B88D0612E1
:1037730013D52CAB061213D5B4A9061213D56FA714
:10378300061213D5AAA6061213D525E302000000DC
:1037930080FB8F0001002A1B87000100FA1D350002
:1037A3000400BE1D25000200C21D26000200C41D28
:1037B30027000200C61D28000100D01D29000100BA
:1037C300D11D84000400D21D86000100D61D2A00ED
:1037D3000100D71D2B000100D81D2C000100DC1DAA
:1037E3002D000800121B2E000100DD1D2F0001001B
:1037F300DE1D30000100DF1D31000100E01D32003D
:1038030001001A1B330001001B1B34000100E11DE2
:10381300360001001C1B38000100E21D39000100C5
:10382300DB1D83000200F81D63000100271B6400F9
:103833000100D91D65000100DA1D6D000100281B80
:10384300710008000A1B66000100F71D4300010018
:10385300E81D44000200E91D45000100EB1D460080
:103863000200EC1D470008001F1B48000100EE1D6D
:103873004B000100EF1D04000100FB1DA10001002E
:10388300FE1D37000100FD1D88000100FC1D3C00EA
:1038930001001D1B3D000100E31D49000200F01D56
:1038A30067000100291B4D000200F21D4E000100BC
:1038B300F41D4F000200F51D3E000100E71D5100FD
:1038C3000100E41D52000100E51D53000100E61D47
:1038D300540001001E1B00000000000000013636EA
:1038E30001010001020100010301000104010606B8
:1038F30005020000070100340801000F090401015B
:103903000D0100FF0E08000017020000190100FF5F
:103913001A0100011B0100FE1C0100081D0200002A
:103923001F01000120010001210200002301000FFB
:10393300240200002601000127010008280200FFDD
:103943002A0100072B0102402C0100002D01000178
:103953002E0100012F0100FF30010B1D3108000073
:103963003A0100083B01000F3C0100013D0100FF4B
:103973003E04000042040000460400004A04000024
:103983004E04000052040000560400005A040000D4
:1039930000000000200182840000010020018284D5
:1039A30000000200200184840000030020018384BE
:1039B3000000040042016D800000050042017E808A
:1039C300000006004201A080000007002001AB8038
:1039D300000000404201A0800000100042018F80DF
:1039E300000011002001FF06000012001003891DD2
:1039F3000600000010110000080000002033000042
:103A03000C005500393300000C001C004233000049
:103A1300120055002001000014000E004222000095
:103A230001037103010301030103010301032203E2
:103A33000203010310030003000300030003000358
:103A430000030003420300032403060300030003EF
:103A5300040312032503230325032303040304039D
:103A630000030003000344030003000323030003D4
:103A730065032100350381030003050300030003ED
:103A83000003000325032303010171010101010167
:103A930011010101310101010101800110016101E5
:103AA3003B001400630173017201620143010001D1
:103AB300130106013D01350004011201000100015B
:103AC3000001000104010401330133013C014401FD
:103AD300320136000001000165010001350081015A
:103AE3000001050182018301000103047104020442
:103AF30060041104700402040204010402041004AB
:103B03006104000414046304730472046204430430
:103B13000004130406040004000404041204000453
:103B230000040004000451046400000400040004C1
:103B33004404000400040004000465040004350484
:103B43008104640005040004830400040302710279
:103B530030016002110270020102020202028002BD
:103B6300100261023A0041006302730272026202B0
:103B73004302000213023800000200020402120290
:103B830000020002000200020402040237003700B0
:103B93003C024402000239000002000265020002F6
:103BA3003502810200020502820283020002030041
:103BB30071003001600011007000310220035004D5
:103BC30080001000610000001400630073007200A5
:103BD3006200430000001300060000000000040020
:103BE3001200000000000000000004000400370081
:103BF30037003C02440000000000000000006500A4
:103C03000000350081000000050000008300000073
:103C130036000100060000000F0000000000000055
:103C230000000000000003FFFF00000403FFFF008B
:103C330000FFFF0FF4010005C4040320000100008E
:103C43000B000000000000000003010F0000000053
:103C53000000000000000000000000000000000061
:103C63000000000000000000000000000000B62378
:103C73001024BC23C022C2231624C2232224C82317
:103C8300C022C2231624CE23C022D423C022DA2387
:103C9300C022E023C022E623C022EC23C022F22369
:103CA3002824F823C02200000000000000000000C8
:103CB3000000FE233A240424C022FE233A240424D1
:103CC300C022F22328240A24C02200001237130042
:103CD300D4261F00DA261F80E026010012370200D7
:103CE3005C26030062260400682605006E26060093
:103CF3007A263000982631008A373200A426330012
:103D0300AA263500B0263400B6263600BC2611009C
:103D1300C8261400CE2615008C26FFFF00000A00DB
:103D23000000020000000400000008000000100072
:103D3300000020000000400000008000000000019F
:103D43000000000200000004000000080000001052
:103D53000000002000000040000001262F06502F25
:103D6300084A2F0B682F103E2C022C2F053E2F07DD
:103D7300322F0C0E2F0D1A2F643A2AFF000007EC86
:103D8300FDFDFDECDCDCCCBCACAC9C9C8C7C7C6C8D
:103D93006C5C5C5C4C4C3C3C2C2C1C1C03EAF5E539
:103DA300D5D5C5B5A5959585857575656555554570
:103DB300453535252515150500160F00000B150B88
:103DC300020002220F3300000E5A69674265654103
:103DD3006C6C69616E6365303901030507090B0D6E
:103DE3000F00020406080A0C0D0001191618161616
:103DF30018230300303017181921301B1D1F3030D2
:103E03003016181920231A1C1E3000034A49434E4A
:103E1300181A25050200393D3F373C3C362C442D0A
:103E23000C0E020B040B0A0708000F020402010127
:103E33000101090200BE040AE803000000000E00AD
:103E4300E80300007F001E1E050300030400100AA0
:103E53000C10080C280904040903010C05081512A9
:103E630008FFC082C083E990197AF002416A74F4B2
:103E7300120DF38A088B09EB5480604D800EEEFA25
:103E8300EFFB122320EEFAEFFB121F3C90197AE0AE
:103E9300F9121F4E8A0A8B0BAE0AAF0BEE4F60204E
:103EA3008E828F83E0641A60D5EEFAEFFB1222BA9A
:103EB300E9F974FF6960CEEEFAEFFB121F4280CC82
:103EC300AA08E5096480FB80047A007B0002415262
:103ED30074F7120DF37AFF02559274F6120DF3E99B
:103EE300FEEAFF7A047B00124565A808A909EA499E
:103EF3006034EF8A828B83A3A3A3F0EE8A828B8341
:103F0300A3123F61E4F0A3F090198912458570096B
:103F1300901989E8F0A3E9803FE0FB8A828B83A3B1
:103F2300A3A3E06F700479008031EAFCEBFD8A8281
:103F33008B8312458570E474FF6F700C8C828D83C4
:103F4300123F68E4F0A38010901989125EB99019AA
:103F530089123F68EAF0A3EBF0790102573BA3F023
:103F63008A828B8322126DD08882898322C082C089
:103F730083EA126ED23BF583E0FA901989800488B4
:103F8300828983125D5B601C88828983A3A3A3E07B
:103F9300FBEA6B600574FF6B70E588828983A3A3DA
:103FA300E0F9800279FF02416A74F4120DF3EAFE2C
:103FB300EBFF8A82F583125EB91222BAE9F508741F
:103FC300FF69700302405D7A197B00121F36EA4BCA
:103FD300700302405D8A828B83743412693AA3EAC8
:103FE3002402FCE43BFD740612134E8E828F83126F
:103FF30072228882F583126EE48A828B83A3A3A341
:10400300A3A3A3A3A3124062A3A3A3A3A3A3EA24EA
:104013000AFCE43BFD740C12134E8E828F83125FF5
:10402300ECC8126ED238F583E0C0E0EA2416F582BC
:10403300E43BF583D0E0F0EE240CF8E43FF988820A
:10404300F583126EE8EA2417F582E43BF583124008
:1040530062E4F0A3F0A908121F427901024152EC75
:10406300F0A3EDF08882898322C082C083901987F0
:10407300125EB902416A74F4120DF38A088B09ECDB
:10408300FEEDFF7A081240CC70047910803812419B
:104093003612415E740C12177F125EB988828983CF
:1040A300A3A3A3A312787C90197F12458590197F4F
:1040B30060111241598003EAFCEB12458070F88CC1
:1040C300828D831241300241527B00121FCC8A0A37
:1040D3008B0BA80AA90BEA492274F4120DF3890881
:1040E3008A09ECFEEDFF7A0A1240CC700479108045
:1040F3003A1241368A828B83A3A3A3E4F0A312412D
:1041030049E509124149A3EEF0A3EFF09019831298
:10411300458590198360111241598003EAFCEB1223
:10412300458070F88C828D831241308022126DD0CD
:1041330079002212413A228A828B83E4F0123F6192
:10414300A3A3E508F022125583A3A3221214057F2B
:10415300040211428F83E0FCA3E022A3E509125578
:1041630088EEF0A3EFF022D083D0820213D274F250
:10417300120DF3EAFEEBFF8C088D091223388B0D29
:10418300A90DEA4960198A828B83A3A3A3EEF0A346
:10419300EF12557FE508F0A3E509F0790080027975
:1041A30001025F3B74F4120DF374F71214E8E9FE95
:1041B3008518828519837401F0EC7006EDC39406AB
:1041C300404D74036A4B604774011214BA880A891C
:1041D3000B780A1213F27C127D007A007B00EE1238
:1041E300421D121405E9601CE4F50AF50B780A1266
:1041F30013F274031214CA74021214C212238C74BD
:1042030002121405851882851983E064017004790C
:104213000180027900740902414FF912233E7402AE
:104223002274E8120DF374FA1214E889128A168BB9
:10423300178C088D0912372A8A148B15EA4B7005DF
:1042430079020243B3AA08AB09A912122356E9F56E
:104253000FA2E6401C901987125D5B6014E82419D5
:10426300F582E439F583E064017006E50FD2E6F5E3
:104273000F7C067D007900AA18AB19121F24741F46
:1042830012177F1243B86009E054FCF0E044018048
:1042930003E054FC1272CA125D5B602B741E12178A
:1042A3007FE0FE88828983A3121209EEFD74021255
:1042B300177FE05403FCAA08AB09A9121222DE748B
:1042C30002121405E9700579010243B3742212172F
:1042D3007F125D5B6012851882851983E04404F0C8
:1042E300740212177F126DCC742012177F1243B819
:1042F3006005E044088003E054F7F0742112177F4F
:104303001243B86005E044108003E054EFF07424D6
:1043130012177FE0C0E0740412177FD0E0F0740539
:1043230012177FEEF07803851882851983E0540411
:1043330060027805742512177F1249ACE82510FE38
:10434300E43511FF12464A6063AC0AAD0BAA18AB01
:104353001912232C742712177F125ECB1213EEACA3
:1043630010AD1112613A121405750C1E780C12135C
:10437300F6750C7D750D19780C1213F2780A121369
:10438300F28E0C8F0D780C1213F278081213F2A927
:104393000FAC14AD15AA16AB1712373674091214E5
:1043A30005E9FEAA0AAB0B121FD280027E10EEF9BA
:1043B3007406026DDA1243BC22E0851882851983E4
:1043C3002274EA120DF374FE1214E8890B8A148B1B
:1043D300158C0E8D0F7E007F00750A00741812175E
:1043E3007F1249AC80111245761223988B09EE2A6D
:1043F300FEEF3509FF050A126BE5502EE50A75F04D
:10440300061249632403FEE43FFFA3A3E070E60E14
:10441300EE70010F88828983A3A3A3A31245858825
:1044230082898360C1125CCC80C2EEFAEFFB124535
:10443300658A0C8B0DEA4B7003024559750A00809F
:1044430030A818A9198812891378121213F2780860
:104453001213F28A828B8312457612239E740412FE
:10446300140512721CE50828F508E50939F5090554
:104473000A126BE5507CE50A75F006A4F8A9F0E58D
:104483001028F582E511126BCC12456D8A828B835D
:10449300A31254F3F01255671254EEF0E508240307
:1044A300F5085002050988828983E070C2EA240373
:1044B30008E43BF98882F58312456DA3858208855C
:1044C30083098A828B83A3A3A3A31241598C82F508
:1044D30083E58245837003024444AC08AD09AA8294
:1044E300AB8388828983E0F912236E8A088B0902E1
:1044F3004472780C1213F28E088F0978081213F2A3
:10450300742012177F1249A21213F6E4F508F50975
:1045130078081213F2742212177F1249A21213F6AB
:10452300742212177F1249A21213F6750800780835
:104533001213F675080178081213F6AC0EAD0FAA24
:1045430014AB15A90B124E40121405E9FEAA0CABCD
:104553000D121FD280027E10EEF9740212140502AE
:104563004593121FCC8A088B0922E08508828509AE
:1045730083F0221272B8AA0EAB0FA90B22FD8C8214
:104583008D83125EC1EA4B22EEF98004AA12AB13AB
:104593007F0E02114274EC120DF3890A8A108B11FB
:1045A300ECFEEDFF741412177F12479E7003024650
:1045B3003BA808A9097C00800D12478150010B120A
:1045C30047B15001090C850C82850D83E0FAECC3D9
:1045D3009A40E674016A700AA3E07006750E0175CD
:1045E3000F0078081213F2780E1213F2741C1217CC
:1045F3007F12477B1213F6E4F50CF50D780C1213BA
:10460300F2741E12177F12477B1213F6741E1217D1
:104613007F12477B1213F6750B00780B1213F67596
:104623000B04780B1213F6124E36121405E9FEAA88
:1046330008AB09121FD280027E10024764740A126B
:1046430014057F0C021142EEFAEFFB121FCC8A0A0B
:104653008B0BEA4B22F58312588322F8E4350DF9CC
:104663008882F583124992A322851082851183E003
:10467300F8E508C3982274EC120DF3890A8A108BAB
:1046830011ECFEEDFF741412177F124769F50875DC
:1046930009007402780812164D85080E85090FAAC1
:1046A3000EAB0F12748770030247627900803EE9F4
:1046B300F5127513007402781212164DE50C2512CB
:1046C300FCE50D3513FD8C82F583A312465A124F78
:1046D3006CA312465AA3F0EC2403FC50010DF5829F
:1046E3008D83E0124F66124F4050010B09850C82F7
:1046F300850D83E0F8E9C39840B5740168700AA397
:10470300E07006750E01750F0078081213F2780E2B
:104713001213F2741C12177F12477B1213F6E4F57F
:104723000CF50D780C1213F2741E12177F12477BCF
:104733001213F6741E12177F12477B1213F6750BB2
:1047430000780B1213F6750B07780B1213F6124E43
:1047530036121405E9FEAA08AB09121FD280027EA5
:1047630010EEF902464512476D22E0F50CA3E0F581
:104773000D850C82F583E022E0F50B780B22EC75B6
:10478300F003A4FAABF0E50C2AFAE50D3BFB8A82B1
:10479300F5831249BFF0EA2402FA2212476D75F03D
:1047A30003A4F50EE5F0F50FAA0E12727522F58239
:1047B3008B83124B761249B8A3A3F0E82403F822A3
:1047C30074E8120DF374FE1214E8124A0A12177FEA
:1047D3001249AC8009EE2402FEE43FFF05081246AD
:1047E3006C5037E50875F00D1249632404FEE43F6D
:1047F300FFE070E8A3E070DDEE2405FEE43FFFE890
:104803002404F50AE43912497E60D1850A82850BB6
:1048130083E0F9122380EE2980BE12464A70030218
:10482300495E8A0E8B0F7508008018E50C2409FA7F
:10483300E4350DFB8A8212498C1249B4F08C0E8D3B
:104843000F050812466C40030248FBE50875F00D9E
:104853001249C6AA82AB83124667F0E50C24021202
:10486300465E1249DBA3F0E50E2404F50E50020563
:104873000F850C82850D83E070C7E50E2402FCE4EE
:10488300350FFD850E82850F83A3A882A9838A82B3
:104893008B83E07096E50C2404F512E4350DF513D3
:1048A30085128212498CF0E50C2405F516E4350DCA
:1048B300F51785168212748B1249ED2407F8E43537
:1048C3000DF9888212498C124A02F0E50E2405F58F
:1048D3000E5002050F8512828513831249857003DA
:1048E300024844AC0EAD0FE50C240BF582E4350D04
:1048F300F58312499A024844780A1213F28E0C8FF8
:104903000D780C1213F2742212177F1249A212139C
:10491300F6E4F50CF50D780C1213F2742412177FDC
:104923001249A21213F6742412177F1249A212130A
:10493300F675080078081213F6750809780812133B
:10494300F6AC14AD15740B12177F124973121405CC
:10495300E9FEAA0AAB0B121FD280027E10026DD6AB
:10496300A4F8A9F0E51028F582E511124B11EE2207
:10497300125EC1A9091222E4740B22F50B850A8287
:10498300F583E0F9122374E922F58312499222E0B8
:10499300850E82850F8322124B7B8A0E8B0F22E0BA
:1049A300F5087808228E828F83E0F510A3E0F511D5
:1049B300221249B822123F621249BF22A3E0888221
:1049C300898322126D9A85820C85830D124992F098
:1049D300850C82850D83A3221249DF22A3124C1872
:1049E300E0850E82850F83A3A322F08516828517A7
:1049F300831249FBF0E50C22A3E08C828D8322A372
:104A0300A31249DFA3A322851882851983EAF0A3A1
:104A1300EBF089098C148D157E007F0075080074F6
:104A23001A2274EA120DF3890B8A108B118C0E8DE6
:104A33000F7E007F00750A00741612177F1253AEA3
:104A43008003124ADE850C82850D83126BEB40F2E4
:104A5300EEFAEF127486607EA808A909750A008031
:104A630003124B1A850C82850D83E0FAE50AC39A7B
:104A730040EF78081213F28E0C8F0D780C1213F29C
:104A8300741E12177F126C111213F6E4F50CF50D58
:104A9300780C1213F2742012177F126C111213F692
:104AA300742012177F126C111213F6750A00780A1C
:104AB3001213F6750A0A780A1213F6AC0EAD0FAA92
:104AC30010AB11A90B124E40121405E9FEAA08AB54
:104AD30009121FD280027E1002458BE50A75F0058C
:104AE300A4F8A9F0E50C28F582E50D124B11A3A358
:104AF300A3127884A3A3E0F91223868B09EA240383
:104B0300F8E43509F9EE28FEEF39FF050A2239F5F5
:104B130083A3A882A98322E50A75F005A4FAABF062
:104B2300124B6A8582148583151249C0124F61881E
:104B3300828983A3F0E5141275C735158A12F5131C
:104B43008A82F583124B76A3F0E82403FCE439FD53
:104B5300851482851583A3A3A3124B7B8A128B131F
:104B6300A812A913050A22E50C2AF582E50D3BF5E7
:104B730083A3221249C0A322125EC5851282851324
:104B830083E0F912236E2274F6120DF374FE1214ED
:104B9300E8E9FE740C12177F124C09C0E07401128D
:104BA300177FD0E0F0A818A9198808890978081296
:104BB30013F275080275090078081213F2741612BD
:104BC300177F1249A21213F6741512177F121209D6
:104BD300741612177F1249A21213F6741612177F56
:104BE3001249A21213F675080078081213F6750815
:104BF3000B78081213F6EEF9124E401214057402E4
:104C030012140502573B1272E48882F5831243BCE7
:104C1300124C18E022F088828983A32274EA120DD1
:104C2300F389138A108B11ECFEEDFF741612177FB4
:104C33001275E5E50A2402F50CE4350BF50D850C38
:104C430082F583E004751200F50E750F00FAAB0FC1
:104C53001274877003024D4A850A82850B83124EB4
:104C63002A801EEAFC850A82850B83A3A3A3E02C7A
:104C7300FBA3E034008B8212748BF0A3A882A98378
:104C83000A850C82850D83E0FBEAC39B40D5850A28
:104C930082850B83A3E0F8741812177FE0F9741967
:104CA30012177FE0FA741A12177FE0FB7411687011
:104CB3003978081213F2780E1213F2EBF50A780A18
:104CC3001213F6E4F50AF50B780A1213F2EAF50A61
:104CD300780A1213F6E9F50A780A1213F6750A0030
:104CE300780A1213F6750A12803C741368704F78B1
:104CF300081213F2780E1213F2EBF50A780A121364
:104D0300F6E4F50AF50B780A1213F2EAF50A780AC3
:104D13001213F6E9F50A780A1213F6750A00780AEF
:104D23001213F6750A14780A1213F6EEFCEFFDAAB5
:104D330010AB11A913124E40121405E9F512AA087B
:104D4300AB09121FD28003751210A9120245937486
:104D5300E8120DF389108A128B13ECFEEDFF741821
:104D630012177F124F4C75F003A4A9F02401F50E1E
:104D7300E4391274827003024E23850C82850D83FD
:104D8300124E2A802EEA75F003A4FCADF0E50C2C3C
:104D9300FCE50D3D124F3212748B124F5D888289F0
:104DA30083124F7388828983A3A3F0E82403F85006
:104DB30001090A850A82850B83E0FBEAC39B40C590
:104DC30078081213F2780E1213F2742012177F125E
:104DD3006C111213F6E4F50AF50B780A1213F27448
:104DE3002212177F126C111213F6742212177F12FC
:104DF3006C111213F6750A00780A1213F6750A0D70
:104E0300780A1213F6EEFCEFFDAA12AB13A91012E7
:104E13004E40121405E9FEAA08AB09121FD2800204
:104E23007E10EEF9026DDD125883F0A3A882A983E8
:104E33007A0022EEFCEFFDAA10AB11A90A1222E4BC
:104E4300740B2274E8120DF389128A108B11ECFE95
:104E5300EDFF741812177F124F4CF5087509007493
:104E630002780812164DE5082401F50EE4350912FF
:104E730074827003024F2D850C82850D8312587A3C
:104E8300A3AA82AB8379008034E9F5147515007405
:104E930002781412164DE50C2514FCE50D35151298
:104EA3004F32124658124F5D8A828B83124F731210
:104EB3004F66A3A3A3A3124F4050010B09850A8297
:104EC300850B83E0F8E9C39840BF78081213F278A2
:104ED3000E1213F2742012177F126C111213F6E4E0
:104EE300F50AF50B780A1213F2742212177F126C6B
:104EF300111213F6742212177F126C111213F67526
:104F03000A00780A1213F6750A16780A1213F6EED7
:104F1300FCEFFDAA10AB11A912124E40121405E9C1
:104F2300FEAA08AB09121FD280027E10024E25FD95
:104F3300EC2402F514E43DF51585148222125883FE
:104F4300A3A3A3F0EA2404FA221253B2850C82F538
:104F530083A385820A85830BE022124F612212729A
:104F6300D0E0228A828B83A3A3F08C828D83A32239
:104F7300A3F08C828D83A3A3A3A3E02274F1120D6B
:104F8300F374EB1214E8EAFEEBFFC200EA2420F804
:104F9300E43F8808F5098882F583C3E09403A3E01E
:104FA3009400500579010253A690198712787E74F4
:104FB3000212177F12787E740E12177FE4F0A3F0AB
:104FC300740A12177FE4F0A3F0740C12177FE4F055
:104FD300A3F0EA2422F8E43F880AF50B8882F583DC
:104FE300126EE8740412177FAA82AB831223268AF7
:104FF3000C8B0DA80CA90D740A12177F12787E85ED
:105003000882850983125EB9EAC398F8EB99F9859A
:105013000A82850B83E028F8A3E039F9740C121790
:105023007F126DCC740812177FE090197EF0EE2486
:1050330014F508E43FF509850882F583E0F9123792
:105043002A8A828B83E5824583700C901987E4F06A
:10505300A3F079020253A61253F4602BEE2404F555
:105063000AE43FF50BA3121209740B12177FE0FD3C
:10507300740612177FE05403FC1254031222DE74E9
:1050830002121405E9700C901987E4F0A3F0790378
:105093000253A6125403122356E9F50E850A82859C
:1050A3000B83125EB9EAFCEBFD90197F80048882C2
:1050B3008983125D5B70030251A288828983A3A353
:1050C3001253AEC3EA950CEB950D40E288828983B7
:1050D300A3A3A3A3C3E09CA3E09D40D2E8FCE9FD06
:1050E300740412177FE05407700D740912177FE0E0
:1050F300640B70030251A6E50EA2E640030251A61B
:10510300EE2419F582E43FF583E060030251A674AF
:105113000212177F1253CC707A740212177F125D3A
:105123005670707C00850882850983E0F912235C40
:10513300740112177F7401F0740912177F1253BAA6
:1051430012177FE0F50C780C1213F6740712177F11
:10515300121209750C01780C1213F6740812177FDA
:105163001274971213F674051214BA880C890D7809
:105173000C1213F2740912177F1253EB12177F12DA
:1051830053C012177F1253DA1214057C0112540311
:1051930012235C901987E4F0A3F079050253A67CEF
:1051A300007D00740412177FE0F854036003025279
:1051B300C1E8540460057E84025300740912177F0A
:1051C300E0F8C3941740030252BDE8F50A750B00DB
:1051D3007402780A12164D7471250AF582743C35EF
:1051E3000B125862E84970030252BD850882850993
:1051F30083E0C0E0741012177FD0E0F0740C121734
:105203007F125EB9741112177F12787E740A121717
:105213007F125EB9741312177F12787E7410121402
:10522300C288828983120FC28B09A909740E1217CF
:105233007F12787EEA496048740912177FE0F50807
:105243007509007402780812164D74732508F582E7
:10525300743C3509F583E493F87401938882F583EC
:10526300E5824583601274021214C2120FC2740ED7
:1052730012177F125D5B6008740E12177F12782D70
:10528300740912177FE0F86054740268604F740366
:1052930068604A74066860457408686040740C6806
:1052A300603B74116860367413686031741568600C
:1052B3002C740B6860277E0080437E82803FEC4D18
:1052C300602B8C828D83A3A3A31253F4601F7402FB
:1052D3001214C2120FC2E9FE74FF6E700B9019878D
:1052E300E4F0A3F0F90253A674016E701074041273
:1052F300177FE0540460047E8380027E817402126F
:10530300177F1253CC7075740212177F125D56709B
:105313006B740412177FE0FA541070607401121753
:105323007FEEF0740912177F1253BA12177F1249D6
:10533300A21213F6740712177F1212097508017867
:10534300081213F6EA131313541F64015401F508EA
:1053530078081213F674051214BA880889097808B4
:105363001213F2740912177F1253EB12177F1253A1
:10537300C012177F1253DA121405D200901987E472
:10538300F0A3F0EE70047900801974846EA20070AB
:105393000A50047907800C79068008500479098043
:1053A3000279087415121405025CC61253B222E086
:1053B300F50CA3E0F50D22127828740822E02406E8
:1053C300FAA3E03400FB740922125FECC82415F53C
:1053D30082E438F583E022A3E0C8126ED638F58361
:1053E300E0F91223087407221271C81272B4740907
:1053F30022A3A3A3125FEC8882F583E5824583226F
:10540300850A82850B83125EC1850882850983E044
:10541300F92274F4120DF38A088B09ECFEEDFF7C7C
:10542300067D007900121F24850882850983E054D4
:10543300FCF8A3E0F98E828F83E05403FAE84A85EF
:105443000882850983F0A3E9127874A2E25004D29A
:10545300F08002C2F0850882850983E054FBF0A244
:10546300F0E433F50A750B007402780A12164DE066
:10547300450A127874A2E3850882850983E0500403
:105483004408800254F7127874A2E45004D2F080E6
:1054930002C2F0850882850983E054EFF0A2F0E4AC
:1054A30033F50A7404780A12164DE0450A12614076
:1054B300850882850983E0540460108E828F83E01F
:1054C300FAA3E0F9EA12669150010F8E828F8312DC
:1054D30054EEA31254FC850882850983A3A3A3A3D6
:1054E300A3F0EE1275C73FFB0241521254F3A322FD
:1054F300E0850882850983A322A312693AE0227416
:10550300F7120DF38A828B83E054038C828D83120E
:10551300557A540412557354081255735410F88C69
:10552300828D83E048F0A3AC82AD838A828B83E0D3
:10553300540460161255671249FC124C138C828D69
:1055430083A3F0EC2402FC50010D8A828B83A3A376
:10555300A31249FB12557F1249FCA3F0EC1275C745
:105563003DFB802EEA2402F8E43BF98882F583228E
:10557300F88C828D83E048123F62E0221255832229
:10558300125588A322F08A828B83A3A3A3A322129A
:1055930022B47F01021142C082C08390198180042A
:1055A3008A828B83124585600C8A828B83A3A3E056
:1055B3006970ED80047A007B0002416AC082C08377
:1055C30090198380048A828B8312458560138A82B3
:1055D3008B83A3A3E0F8E968600B74FF6870E6802F
:1055E300047A007B0002416A74F0120DF38A088B7F
:1055F30009ECFEEDFF1223388A0C8B0DEA4B606237
:105603007C0080010C850C82850D83A3A3A3A3A337
:10561300A3A3125FD2504BECF50E750F0074037801
:105623000E12164D850C82850D83A3A3A3A31258D6
:105633006C8882F583E493FA740193FBE5086A703E
:1056430003E5096B70BEA3A31256697002EF6B707A
:10565300B3741012177F125673740812130A790168
:10566300800279008015E493FA740193FBEE6A22B9
:105673001272B889838882221214057F08021142AC
:1056830074F6120DF31256AF6005125EB680047AFB
:10569300007B0002573B74F6120DF31256AF600500
:1056A300125EB480047A007B0002573B1223388ACF
:1056B300828B83E58245832274F7120DF3E9FFEAB7
:1056C300FCEBFD901985800488828983125D5B6001
:1056D3004688828983A3A3E06F70ED7E0080010E6C
:1056E30088828983A3A3A3E0FAEEC39A50DAEE7506
:1056F300F003A4FA85F008AB0888828983A3A3A3E7
:10570300A3E02AFAA3E03BFB8A82F583E06C7003F3
:10571300A3E06D70CA80047A007B0002559574F68D
:10572300120DF31223508A828B83E5824583600630
:10573300A3A3E0F9800279007F0202114274F612FA
:105743000DF3ECFF1223508B09A909EA496015EA0E
:105753002402F582E439F583EF6005E0D2E68003A5
:10576300E0C2E6F080D274F0120DF3EAFEEBFF8C98
:10577300098D0A1223328A0C8B0DEA4B70030258EF
:1057830057750B00741012177F126BE0FAE9FB8058
:10579300128C828D83A3A3A3E493A2E35003025844
:1057A3003D050B850C82850D83A3A3A3E0F8E50BD0
:1057B300C3984003025857E50BF50E750F007402AA
:1057C300780E12164D850C82850D8312586C125873
:1057D3005CEE687002EF6970C88A828B83E0F88C94
:1057E300828D83A3A3E493C39840B67411650970B3
:1057F300197401650A609AE50A70A68C828D83A3E9
:10580300A3A3E493A2E24032809774136509704422
:10581300E50A700D8C828D83A3A3A3E493A2E08099
:10582300E57401650A60030257A48C828D83A3A3E8
:10583300A3E493A2E140030257A4741212177F1248
:105843005953740412130A88828983A3A312587AC2
:1058530079018002790002567EE8FCE9FD8882F531
:1058630083E493F8740193F922A3A3A3A3E0250E81
:10587300F8A3E0350FF922125883F0228E828F832A
:10588300E08A828B832274F0120DF38A088B098CD1
:105893000B1223388A0E8B0FEA4B70030259407A9E
:1058A300007B00741012177F125FDF80050AEA7015
:1058B300010B850E82850F83A3A3A3A3A3A3A3E058
:1058C300F8C3EA98EB940050748A0C8B0D74037838
:1058D3000C12164D850E82850F83A3A3A3A3125921
:1058E3004512585CE508687003E5096970BFA3A316
:1058F300E493F50C740193F50D8E828F831272225B
:10590300C3E50C98E50D9940A48C828D83A3A3A3D2
:10591300A3A3E493A2E7E433650B70917412121707
:105923007F125953740812130A88828983A3A3121E
:1059330072228E828F83126DCC79018002790002EC
:10594300567EA3A3A3A3E0250CF8A3E0350DF9220B
:105953001272E48C828D83E8FCE9FD2274F1120D4E
:10596300F3EAFEEBFFECFAEDFBEE4F7003025AD1C4
:10597300EC2402F50CE43BF50D8C828D83A3AC8201
:10598300AD838E088F09750A00E91212BA044142E9
:105993009E5A4344B05AE0E2695AE8E9155A21088D
:1059A300075A09155A0A2B5A0B695A10075A18072E
:1059B3005A19155A1A2B5A1B695A20075A21155A74
:1059C300222B5A23695A247A5A25835A268C5A271A
:1059D300955A28075A29155A2A2B5A2B695A2C7A71
:1059E3005A2D835A2E8C5A2F955A30075A31155AED
:1059F30038155A39695A3A955AEA695AF0955AF15B
:105A0300C25AD15A8E828F8312587AECFAEDFB0276
:105A13005AD18E828F8312465A1254FD8C828D8303
:105A2300F00A0AAB0D025AD18E828F8378081217BF
:105A3300108A828B83E50812693F7808121710E5F4
:105A4300098C828D8312693F7808121710741078BD
:105A530008121489850C82850D83E508F0EA240376
:105A6300FA506B0B80688E828F83121205121FA26D
:105A73007404121405805778081213EE7C058046CF
:105A830078081213EE7C06803D78081213EE7C072B
:105A9300803478081213EE7C08802B78081213EEFA
:105AA3008E828F83E02401FCE43400800F78081297
:105AB30013EE8E828F83125C5BFCE439FD800978E0
:105AC300081213EE7C107D0012613A121405025C79
:105AD300C6C082C083E91212BA03202FEC5A383AA7
:105AE300EC5AE0E2EC5A00F05A79018002790002A4
:105AF300416A74F2120DF374FE1214E8EAFEEBFF2E
:105B03008C088D091223868518828519837401F008
