:1000000000400120ED78030039FB021039FB02109B
:1000100039FB021039FB021039FB021039FB0210C8
:1000200039FB021039FB021039FB021039FB0210B8
:0C00300039FB021039FB021011FB02101A
:1010000001000000000000000000000000000000DF
:10101000FFFFFFFF482A002004000000000000003E
:1010200000000000140000000C1600001800000072
:1010300078140000C0100000B42900200400000053
:10104000000000000000000024000000F814000070
:10105000180000002142030008000000B011000049
:1010600074100000C1C8021001BB021091EB021005
:10107000DDE5021081E00210B9E5021071E5021011
:1010800031000000010000000100000024160000F3
:1010900000000000FFFFFFFF202A002004000000E6
:1010A000000000000000000028000000E41500001F
:1010B000240000001E0000001800000000000000D6
:1010C00028130000D41000009BEC021025E202104F
:1010D00005EB021025DE0210FDE10210E1E4021032
:1010E0002F00000034000000240028000000000051
:1010F00094290020FFFFFFFF682A00200400000061
:1011000000000000000000003800000098160000F9
:101110002800000001000000100000000000000096
:1011200000000000F7F1021000001A00100000009B
:1011300004000000FC1600006E7F010008000000A3
:1011400036000000282A0020702A002009001D0017
:1011500087740000BC29002001000000000012007C
:10116000FFFFFFFF582A00200400000000000000DD
:1011700000000000100000005C16000018000000D5
:101180000000000000001300FFFFFFFFD02A002036
:1011900004000000000000000000000054000000F7
:1011A000C01600003C000000000001002D000000FF
:1011B00004100000B7EA000030000000000000004A
:1011C000B0110000D8110000A1680300D9DB0210A3
:1011D00059EC0210CDD6021085DE02104DE502104A
:1011E00029E5021030000000000016000000000099
:1011F00000000000FF7F0000D82A0020FFFFFFFF53
:10120000502A002004000000000000000000000040
:1012100058000000281600003400000039FB0210BE
:1012200001002F0006000000000000002000000068
:10123000010000001BF80210280000002813000025
:101240005012000093EC02106DEB02104DEC0210F6
:1012500029E00210BDE4021099E402102D00000004
:1012600000000000FC290020040000000000000035
:101270000000000010000000101500002C0000000D
:10128000000000000000030000000F003C00000010
:1012900000000000000000002FF902101000000004
:1012A000080000000C170000FFFFFFFF602A00206D
:1012B0000400000000000000000000001C0000000E
:1012C00074160000240000003C120000AC2900202D
:1012D0000400000000000000000000000C000000FE
:1012E0008014000018000000DF440100000000002E
:1012F00000000000080000000100000004000000E1
:10130000000000000000140000000000EC2A0000B3
:101310000000190000001800240000007F7903007D
:101320000040000000020000041000000000100057
:1013300055F002100C0000005742030000000000AE
:101340008C290020040000000000000000000000C4
:10135000200000004814000030000000042B0000B2
:101360000100000017430300D7C100000000000087
:101370000000170000020000310000000000230000
:101380000000150001000000C0110000182A002014
:101390000400000000000000000000002000000029
:1013A000C015000024000000FC4403000C2A0020AB
:0813B0002000000020170000DE
:1013C00099410300AB430300AF430300B343030061
:1013D000B7430300BB430300BF430300756703002B
:1013E00025680300316703001B790300FD780300C3
:1013F000FD670300096803004D7903005968030085
:10140000D9690300ED690300012800000000000015
:10141000000000000001003000000000000000009B
:101420000003FF186400000000000000000000003E
:101430007856341200000000BAAB00000000000132
:10144000000000000000000030000000000000006C
:101450000000000070140000040000000000000004
:1014600001000000FFFFFFFFFF000000010000007F
:101470000800000000000000000000000000000064
:1014800018000000000000000000000090140000A0
:1014900008000000000000001000000028130000F9
:1014A000B01400007779030045460300CD450300E2
:1014B000E143030035440300C54303002E00000050
:1014C0009C140000F429002004000000000000002B
:1014D0000000000020000000E014000018000000E0
:1014E000180000000000000000000000F0140000E0
:1014F00008000000000000001800000000000000CC
:1015000000000000081500000800000000000000B6
:101510002C00000000000000000000003415000056
:10152000040000000000000001000000FFFFFFFFBA
:10153000FFFFFFFF0800000000000000B0110000E6
:1015400054150000A1690300B1690300CD690300CF
:10155000C169030077440300A1440300554403001C
:10156000320000003C150000042A002004000000A6
:1015700000000000000000001400000084150000BE
:101580001C0000001C000000000000000000000023
:101590009815000000000000080000000000000096
:1015A00001000000234800007B790300676D000004
:1015B000274800002B48000017480000354800006D
:1015C000240000000000000000000000DC15000006
:1015D0000000000000000000000000000800000003
:1015E00000000000240000000000000000000000D7
:1015F00000160000000000000000000000000000D5
:1016000008000000000000000A00000018000000B0
:1016100000000000000000001C1600000800000090
:1016200000000000395600003400000000000000F7
:101630000000000054160000000000000000000040
:101640000100000000000000010000000000000098
:10165000000000000800000000000000180000006A
:1016600000000000000000006C16000008000000F0
:101670000000000024000000000000000000000046
:1016800090160000000000000100000000000000B3
:10169000080000000000000028000000000000001A
:1016A00000000000B816000000000000000000006C
:1016B000FFFFFFFF00000000080000000000000026
:1016C0003C0000000000000000000000F4160000D4
:1016D0000000000000000000010000000000000009
:1016E00000000000000000000000000001000000F9
:1016F000000000000800000000000000914303000B
:1017000025DD021031C8021075DF02100100000053
:1017100000000000000000000000010000000100C7
:1017200015F9021001E602102DDA021045E7021049
:1017300041D10210C9D30210A5DF02102DE402101E
:1017400061EA02105D690300050006000800090057
:101750001600020102020302000301030105020553
:1017600000060106040B14061506170600070107FC
:10177000020703070009040907000A000C000D0016
:101780000E000F00100011001200130014001B00C7
:10179000000101010002010202040004010403042B
:1017A00004040504060400050206030604060506F3
:1017B00006060706080609060A060B060C060D06AD
:1017C0000E060F061006110612061306040700097E
:1017D000000B010B020B030B0097B92EE5725CCBDB
:1017E0005DCAE473B82F0196BA2D03945FC8E67101
:1017F000E7705EC90295BB2CE3745ACD0691BF28F1
:10180000BE2907905BCCE27559CEE077BC2B0592E0
:101810000493BD2AE17658CF51C6E87FB4230D9AD0
:101820000C9BB522E97E50C7EB7C52C50E99B720C0
:10183000B6210F9853C4EA7DB2250B9C57C0EE79B0
:10184000EF7856C10A9DB324089FB126ED7A54C3A0
:1018500055C2EC7BB027099EA2351B8C47D0FE6990
:10186000FF6846D11A8DA334188FA136FD6A44D380
:1018700045D2FC6BA037198E41D6F86FA4331D8A70
:101880001C8BA532F96E40D7FB6C42D51E89A73060
:10189000A6311F8843D4FA6DF3644ADD1681AF3850
:1018A000AE3917804BDCF26549DEF067AC3B158240
:1018B0001483AD3AF16648DF1087A93EF5624CDB30
:1018C0004DDAF463A83F1186AA3D13844FD8F66120
:1018D000F7604ED91285AB3C21000000100020813A
:1018E0008A2D00202100000011004381000000002B
:1018F00021000000120020838B2D00202100000019
:10190000130020838C2D0020210000001400208370
:101910008D2D002021000000150043811838002083
:101920002100000016001A815C190020210000002F
:1019300017001A81601900202100000020001843C0
:101940008E2D0020210000002100F14364190020A9
:10195000210000002200F143741900202100000042
:10196000FDFF2141782D0020E05C0020E85C002094
:10197000245D0020345D002000000000685D002030
:10198000885D0020905D0020AC5D0020BC5D0020E3
:10199000D42B00000C2C00001C2C0000282C000074
:1019A000382C0000E85D0020F85D0020FC5D002080
:1019B000005E00200C2D0020045E0020085E002048
:1019C0000C5E0020105E0020145E0020185E0020D7
:1019D000285E0020605E0020745E0020482C00001D
:1019E000BC2C0000302D0000A42D0000182E00009B
:1019F0008C2E0000A42E0000B02E00008264002077
:101A0000A05E0020102D0020AC5E0020C85E0020EB
:101A10008364002084640020EC5E00201C5F0020B2
:101A2000305F002085640020082000009020000026
:101A30000000000000000000BC2E00009C5F0020A1
:101A40002460002028600020242D0020282D002064
:101A50002C600020CC2E0000306000204860002068
:101A600000000000000000009819002000000000A5
:101A70000000000000000000000000009C6000204A
:101A8000D06000205C440020014A03104948031044
:101A9000D549031015470310EF5703005D490310A4
:101AA00081470310A14603109548031045450310D4
:101AB000254A031021440310ED47031099490310F0
:101AC000E1480310214903105553031089520310B4
:101AD000CD520310655003108D4E0310194F0300B3
:101AE000D74F0300FD5103000000000059510310BF
:101AF000ED50031065530300CD4B03102952031022
:101B000011530310A95503107555031069530310A1
:101B1000DD55031035550310215E030021540310D9
:101B2000855C03100D5603104D5D0310A96403106E
:101B3000B55B03106D570310E5610310095E0310D8
:101B4000C55803108560031071610310B162031062
:101B50009963031055630310FD600310B15E031019
:101B600037570300D55A0310D559031009630310E2
:101B7000D963031019640310555F0310C564031083
:101B80004D620310716403108D64031055640310DB
:101B9000E16403102975031079720310A16B03101F
:101BA000F57203109D740310797403102D740310E3
:101BB00061730310FD730310557403101575031042
:101BC000D96C0310FD740310055D0300E17403106C
:101BD0003D75031079700310F9640310CD6803108C
:101BE0002D710310C1740310F56E0310B973031047
:101BF00029670310056E0310C56F0310E95E03002B
:101C0000A1770310797D03103D7E03104975031001
:101C1000157E0310357D031099760310997C03100F
:101C2000257B031071780310B57D0310ED7C031044
:101C3000857E03102D790310B97A0310917B031070
:101C4000B1790310ED7B0310E97D0310617E031071
:101C5000357A0310D57E0310457C0310A57E031052
:101C6000BD7E03103D4E0300D9800310E97E0310B2
:101C700049830310898403108D8103107D82031032
:101C8000E58403102B840310C58303109187031090
:101C90006188031045880310F1850310B188031093
:101CA0007D880310C98803101D870310A1860310C7
:101CB00001850310E188031099880310F987031048
:101CC0001B5C0300359C0310819D0310E99A0310EF
:101CD000359B0310C19B0310419A0310F188031038
:101CE0001D8C0310618F0310F1940310919E03105B
:101CF000C19E03103D9E0310699E0310259E031094
:101D0000619D03100D9E0310819B0310ED93031042
:101D100055990310C9970310D9980310BD95031066
:101D2000959C0310C19D0310A59E03107D9E03107A
:101D3000C99103108F5B0300699C0310DD9D0310A4
:101D400095900310FD9B0310CD990310158E031081
:101D5000019D0310E19C0310219D0310419D031080
:101D6000BD9C0310F59D0310A19D03105598031011
:101D7000E1920310999A0310B99E0310559E031027
:101D8000B94C0300E74C030039A20310014D0300D6
:101D900069A1031075A20310C59E0310B9A1031019
:101DA000F9A1031015A103109DA20310955F030074
:101DB0009D5F03009F5F0300CB5F0300DD5F0300B7
:101DC000E35F030031A90310ADA20310DB5503004C
:101DD000B9A8031099A503104B51030039A80310AB
:101DE0006DA90310855003006DAC031099B1031069
:101DF00009AF031059B1031001B103109DA90310DD
:101E0000AB5803007950030081500300AF58030022
:101E1000B35803007D500300B7580300BB580300BC
:101E2000BF580300C3580300C7580300F1B903109B
:101E300075BA031081BB031099610300CF610300E1
:101E40001B620300BD6203007F630300B9630300EC
:101E50001F6403004B6403009D640300CD64030012
:101E6000F16403000B6503006B650300B5650300B7
:101E7000B9650300EF6503005B6603006F6603004E
:101E8000E16603005F500300A3580300A758030056
:101E9000CB580300455A0300E9C603109F580300BE
:101EA000C1490300554C03004D3E0100E73E0100CF
:101EB000813E010047F602000DEB0100514C03008A
:101EC0001F4D0300234D0300254D0300894D0300E2
:101ED000354D00004B4D0000314D0000334D0000EA
:101EE000014D0000837903008F79030067480000EB
:101EF0008F480000DD4A0000754A00009F4A00003C
:101F0000754B00005D4B000051490000AD480000DA
:101F1000A14B0000A3490000DBFD0210F185020087
:101F2000D9550000114C0000F34C000079C10000AD
:101F30009FC10000D1C10000B3C10000BA2D002034
:101F4000896400208A640020886400208B6400205B
:101F50008C640020BB2D002039F001005DFD0100E4
:101F6000ED3A0200EBF301004DF40100ED3B0200FD
:101F7000233C0200ABF401000DF40100D1F3010099
:101F800071F40100973A0200933A02007DB7010014
:101F90005DB7010041450200733A0200B73A020002
:101FA000C53A0200D33A0200B7B50100BBB3010045
:101FB00081B6010033B70100216103006B3B0200D1
:101FC000E5440200F3440200000000002B3E020042
:101FD000913A0200833D0200FD3D02000000000036
:101FE0009DF001000BFD0100A5FF0100A9B5010056
:101FF0000000000000000000530202005D390200F2
:1020000031B601000545020036000100060000005F
:1020100000000000000F00000000000000000000B1
:102020000000000000000300FFFF00000403FFFFAA
:102030000000FFFF0F00E8030005401F0310000130
:1020400000000000FF3F0F000800050B000000002B
:10205000000000000300010F00000000000000006D
:102060000000000000000000000000000000000070
:102070000000000000000000000000000000000060
:102080000000000000000000AD00000200000000A1
:1020900000013636010100010201000103010001C7
:1020A00004010606080400000C0100340D01000FB5
:1020B00010040101140100FF1608000020020000B6
:1020C000220100FF23010001240100FE2501000878
:1020D0002602000028010001290100012A02000057
:1020E0002C01000F2E020000300100013101000818
:1020F000320200FF34010007350102FF3601000003
:102100003701000138010001390100FF3A01000FD9
:102110003C0200FF3E01010F3F0100014001041F8E
:1021200041010001420100FF43010080440800001A
:102130004E0100084F01000F50010001510100FF46
:102140005201000053010000540100015804000036
:102150005C040000600400006404000068040000E7
:102160006C04000070040000740400007804000097
:102170007C040000800100FF810100018201000158
:1021800083010202840100015F2A02006B2C02001D
:1021900000000000000000000000000049320200C2
:1021A00067320200A731020081320200B132020020
:1021B000B732020085340200000000007B340200C8
:1021C00091350200C12D0200BD320200DD32020055
:1021D000693302000D360200472E02000D3802005E
:1021E000E937020000000000893802002D2E0200AD
:1021F0003137020065B0010083AF0100BFB00100BC
:1022000071AF010091AF010027B201002BB20100B4
:1022100095B90100F1B80100F3B90100D1B801008E
:10222000E3B8010011BB010015BB010045720000BD
:102230005172000034280020C027002050270000E1
:10224000702700008827000008140000A027000065
:10225000C0270000000000005054564F5349474E1D
:10226000310000000000000000000000000000003D
:10227000000000000000000000000000000000005E
:10228000000000000000000000000000000000004E
:10229000000000000000000000000000000000003E
:1022A000000000000000000000000000000000002E
:1022B0003C001001030507090B0D0F00020406087E
:1022C0000A0C0DBFFB097074766F2E696E666F2065
:1022D0002020202020200B7074766F2E7377697475
:1022E0006368202020202000202020202020202083
:1022F00020202020202020200A323032312D313180
:102300002D32360100000000000000000000000037
:1023100000000000000000000000000000000000BD
:1023200000000000000000000000000000000000AD
:10233000000000000000000000000000000000009D
:10234000000000000000000000000000000000008D
:10235000000000000000000000000000000000007D
:10236000000000000000000000000000000000006D
:10237000000000000000000000000000000000005D
:10238000000000000000000000000000000000004D
:10239000000000000000000000000000000000003D
:1023A000000000000000000000000000000000002D
:1023B000000000000000000000000000000000001D
:1023C000000000000000000000000000000000000D
:1023D00000000000000000000000000000000000FD
:1023E00000000000000000000000000000000000ED
:1023F00000000000000000000000000000000000DD
:1024000000000000000000000000000000000000CC
:1024100000000000000000005054564F5349474E42
:10242000320000000257680002487A00027066001D
:10243000026C78000370706D056D63706D30000084
:10244000056E63706D300000057073697A65000079
:10245000034552520000000000002001B2F30100C9
:102460000000000001002001B2F3010000000000A4
:1024700002002001B3F3010000000000030020016E
:10248000E39001000000000004004201C5220000AA
:102490000000000005004201D622000000000000FC
:1024A00006004201F82200000000000007002001A1
:1024B000032300000000000000404201F822000059
:1024C0000000000010004201E722000000000000B0
:1024D000110020015C6400200000000012001003C5
:1024E0008F2D002003000000000021034464002021
:1024F00006000000000010110000000008000000AD
:1025000000002033000000000C00000055003933AB
:10251000000000000C0000001C004233000000001E
:10252000120000005500200100000000140000000F
:102530000E004222000000000A000000020000001D
:10254000040000000800000010000000200000004F
:1025500040000000800000000001000000020000B8
:10256000000400000008000000100000002000002F
:1025700000400000E8030000D0D1D2D3D4D5D6D794
:10258000D8D9DADBDCDDDEDF00000000000000006F
:1025900000000000000000005A6967426565416C58
:1025A0006C69616E63653039402F0000E0450020A2
:1025B0000C270020402F0000F445002018270020A1
:1025C000402F00000846002024270020402F000054
:1025D0001C46002030270020402F000030460020FD
:1025E0003C270020402F00004446002048270020C0
:1025F000402F00005846002054270020402F0000A4
:102600006C46002060270020402F000080460020FC
:102610006C27002094460020E7DB0200AC46002037
:102620005EDF0200000002400A29FF00C4460020CD
:102630002426000000200500004000005C2F000060
:102640006164002034260000FF000000000000004C
:10265000842F0000E446002078270020842F00000B
:10266000044700207A270020842F00002447002000
:102670007C270020842F0000444700207E27002074
:10268000842F000064470020802700200000000005
:102690007D640000435C00000101010000000000B7
:1026A000FF00010055FB020007000000FF000000D2
:1026B0000000000080A9030098470020AC2600001D
:1026C0001C48002084270020000001401FFF00005C
:1026D000170000000010014021FF01001900000058
:1026E0000020014023FF02001B00000000300140D9
:1026F00025FF03001D0000000000014020FF000036
:10270000180000006C4A0020C826000000000000ED
:10271000B84A0020D426000000000000044B00202E
:10272000E026000000000000504B0020EC260000D6
:10273000000000009C4B0020F82600000100000073
:102740001C0880801D0880801E088080FE0000001C
:10275000020800000000000000000000000101006D
:102760000800FFFF44280020502800206C2800208B
:1027700003080000000000000000000000016509DF
:102780000000000000000000012C0000000000001C
:10279000000000000001001E00000000000000001A
:1027A000022C0000000000000000000000000000FB
:1027B0000000000000000000000000000000000019
:1027C000032C0000000000000000000000000000DA
:1027D00000000000000000000000000000000000F9
:1027E00000000000000000000100000000C2010025
:1027F0000300000000000000370A0100C30E0100C2
:10280000770A010055420000250B0100A10F0100CD
:10281000250B0100EF100100CF0B01005542000015
:10282000250B0100A10F0100330C010055420000EF
:1028300000000000000000006D0D01005542000086
:102840000000000000000000000000000000000088
:10285000B90D010055420000BD0D0100ED1201004F
:10286000D90D0100554200000000000000000000EA
:102870000000000000000000000000000000000058
:102880001D0E010045140100330E010055420000E9
:102890001D0E010045140100330E010055420000D9
:1028A000BD0D0100ED120100630E01005542000054
:1028B0001300000065E000001F000000EBE10000D5
:1028C0001F800000CBE2000000000000AB1F0100F1
:1028D00001000000AB1F01000200000029D8000029
:1028E0000280000027D800000300000047D8000045
:1028F000040000008DD8000004800000F1D8000022
:1029000005000000F3D80000060000006BD90000AD
:1029100031000000E1DC000033000000DFDE0000D9
:102920003400000085DF000036000000F7DF000003
:10293000FFFF0000000000008F000100B22D00200A
:10294000870001005829002035002800705B002016
:1029500028000100952D002029000100962D00205F
:10296000840004004C4D002086000100CD1800209A
:102970002A000100972D00202B000100982D002037
:102980002C0001009C2D00202D0008005C29002057
:102990002E0001009D2D00202F0001009E2D002003
:1029A000300001009F2D0020320001006B640020E8
:1029B000330001006C64002034000100A02D0020D1
:1029C000360001006D64002038000100A12D0020B8
:1029D000390001009B2D002083000200862D00207D
:1029E000630001007064002065000100992D002043
:1029F0006D0001007164002071000800504D00203E
:102A000066000100B02D002043000100AB2D002026
:102A1000440002007C2D002045000100AC2D002068
:102A2000460002007E2D002047000800584D00207F
:102A300048000100AD2D00204B000100AE2D00200C
:102A400004000100B12D0020A1000100B72D0020DD
:102A500037000100B62D002088000100B32D0020B2
:102A60003C000100A22D00203D000100A32D00200C
:102A700049000200802D00206700010072640020E0
:102A80004D000200822D00204E000100AF2D0020DD
:102A90004F000200842D00203E000100A92D0020DF
:102AA00051000100A52D002052000100A62D00209C
:102AB00053000100A82D0020540001006E64002086
:102AC0000000000000000000FD3E0100115A01005E
:102AD000FFDC010095960100F50F0300BB7F0100AC
:102AE00003140300B9F30000A11803007B737461A1
:102AF0007469632D696E7374616E63652D6E616DAB
:102B0000657D00007B656D7074792D696E737461ED
:102B10006E63652D6E616D657D0000000C2A0020DE
:102B2000010000007D6F010006000000B776010083
:102B300008000000457601000B0000002F7701001F
:102B400010000000C1BC000002000000777101000D
:102B5000050000000174010007000000357201004B
:102B60000C000000496501000D000000ED66010049
:102B70006400000077360100FF0000000000000044
:102B80008F0000008F0001008F0002008F00030003
:102B9000900000018F0001019000000290000003EE
:102BA0008F0001048F0000058F0008048F000004CF
:102BB0008A000006510000007F0001003F00040071
:102BC0003F0002003F0001007F0002008F0002046E
:102BD0008F0001020000000002000000020000005F
:102BE0000A000000020000000200010000000000D6
:102BF00000000000000000000000000000000000D5
:102C000000000000000000000E00000000A6AAACBA
:102C1000A4A9A9A399B19ABCB6A800000204020114
:102C20000101010902000000313117191A21241B8A
:102C30001D1F313133310000313118191A22311C76
:102C40001E2031313431000003007100300160007A
:102C500011007000310220035004800007001000B2
:102C60006100000014006300730072006200430002
:102C70000000130006000000000004001200000025
:102C800000000000000004000400370037003C0290
:102C90004400000000000000000065000000350056
:102CA00081000000050000008300000066000000B5
:102CB0000000080009000A000B000000010171017A
:102CC0000101010111010101310101010101800135
:102CD0000001100161013B001400630173017201E6
:102CE000620143010001130106013D0135000401A9
:102CF000120100010001000100010401040133017F
:102D000033013C014401320136000001000165013C
:102D100000013500810100010501820183010001EC
:102D2000660100010001080109010A010B01000010
:102D300003027102300160021102700201020202FC
:102D4000020280020002100261023A0041006302A6
:102D50007302720262024302000213023800000290
:102D60000002040212020002000200020002040239
:102D70000402370037003C0244020002390000021E
:102D80000002650200023502810200020502820291
:102D900083020002660200020002080209020A021F
:102DA0000B0200000103710301030103010301038E
:102DB00001032203020301030003100300030003C5
:102DC0000003000300030003000342030003240385
:102DD0000603000300030403120325032303250352
:102DE000230304030403000300030003440300035C
:102DF000000323030003650321003503810300035F
:102E00000503000300030003000325032303080355
:102E100009030A030B0300000304710402046004A5
:102E200011047004020402040104020400041004EA
:102E30006104000414046304730472046204430410
:102E40000004130406040004000404041204000433
:102E500000040004000451046400000400040004A1
:102E60004404000400040004000465040004350464
:102E70008104640005040004830400046604000463
:102E80000004080409040A040B0400000000050003
:102E9000BD00B700B100BC001C00300038000800C5
:102EA00038010200000120181A18182C34041E00E2
:102EB0000C0E020B040B0A070800110F88B2240045
:102EC000881300001000000000000001C003000093
:102ED00080070000000F0000001E0000003C000002
:102EE0000078000000F0000000E0010000C00300D6
:102EF0000080070000000F0000001E0000003C00E2
:102F0000000078000000F0000000F0000000000069
:102F100000000000000000000000000000000000B1
:102F200000000000000000000000000030313233DB
:102F300034353637383961626364656600000000F5
:102F4000396A0300776A03007D6A0300596B030046
:102F5000456C03009F6C0300A76C03005D6D0300CC
:102F6000656D03006B6D03009B6D0300B56D030081
:102F7000036E03001B6E03008F6E0300CD6E030013
:102F8000D56E03007F740300B974030091710300D0
:102F900093710300BB72030063720300FF720300AE
:102FA0004F740300237403005D4000218940002119
:102FB000954000213B410021074C657900F009F85C
:102FC00061796940490703D50121044A89031160E9
:102FD00070BD70B502490847800300210811044004
:102FE0002D59000000F00AF800480047577F000004
:102FF00000F00AF8004800471B880000806B0C496D
:103000000007000F48717047094A0A491823507990
:10301000CB56497EC018814201DD084602E00F28E8
:1030200000DD0F20D189090909010143D1817047D1
:10303000E0020021880000210122274B02212548BF
:10304000184710B5254880472548406A00280DD10B
:1030500024490A200856002809DA401C07D00846EF
:103060002038406A2049884200D1804710BDFFF7D0
:10307000E3FF10BD00211E4B1C4A084618470120E3
:103080001C49400208601C48FB2201781140017075
:103090001248EC38004710B51849884711492039C3
:1030A000012807D0020404D500200885144848628E
:1030B000012010BD4A6A094BEC3B9A4201D1114AEA
:1030C00005E007494A6A104B9A42F2D10F4A4A6218
:1030D00010BD0000060800009F060000A19202003B
:1030E000080100215401002163920200E740002101
:1030F000B5B4020080E100E080030021F7960200F1
:10310000DD40002123410021699502001941002181
:1031100001020003020001037CB505468020EE7821
:1031200000F084FA002100910A240321304600F0C7
:10313000AEFA00990818641E0090F6D100980A2192
:10314000B0FBF1F1687A698140F0040068726A4668
:10315000688900900421687800F024FC73BD0000A9
:103160002DE9F04704462DED028B257805F07F050B
:103170000E2D7AD1607A010710D5DFF81C24118852
:103180000009C140CB0709D4DFF81014085C28B14E
:103190002046FFF7C1FF9FED920AB9E0B4F80C900A
:1031A00094F80380802000F041FA607A94F80EC011
:1031B0000025002681074CBF00274FF4806700EEF2
:1031C00010CA4007B8EE400A48BFB4F90A7010EEC2
:1031D000100A00F0F3FBDFF8C823DFF8C83300F073
:1031E00011FC00F0E5FC08EE100A00F099F800F080
:1031F00097F800F03CFD824612E0381A00B2002831
:103200000BD5404200B208E000F08AF8617A8A07E4
:1032100000B2F2D5B842B8BF002010FB0055761CB2
:1032200000F025FDA0EB0A004845EDD3002E9FEDF0
:103230006C0A6DD0B5FBF6F000F048FD41EC100BC8
:1032400000F052FD53EC102B4FF06630DFF85813AE
:1032500000F0D8FB04460D4618EE100A00F0AEFB55
:1032600002460B46204629462BE0032DE6781CBF7C
:10327000042D012D01D1002000E0802000F0D6F9BE
:103280000F2D14BF012200220321304600F0CFF998
:103290000F2D04D100EE100AB8EE400A38E000F01D
:1032A00015FD042D41EC100B0ED153EC102BBF4833
:1032B000BF4900F0A7FB00F099FD00F0B3FD00222C
:1032C000BC4B00F0C1FD0EE000F090FD00F0AAFD47
:1032D000012D06D100F020F800F06AFC00EE100A83
:1032E0000EE0032D04D100F063FC00EE100A0FE0A5
:1032F00000F012F800F05CFC022D00EE100A07D17D
:10330000607AC10704D56069D0ED000A20EE200A7A
:10331000BDEC028BBDE8F0870022A74B00F094BD06
:103320000321404600F0B3B93EB50C2A014631D125
:103330002C20069AA14D41436818022A02D1FFF7BA
:10334000EBFE25E0079C552B0AD10AB3FFF708FFD7
:103350008DED000A04226946204600F09AFF17E02E
:103360001C2B17D11AB908980221018010E0012006
:10337000207056226270685C00F07F01032908BF4C
:10338000432004D000F07F000E2801D1412060705E
:1033900001203EBD00203EBD70B50546012000F075
:1033A0007AFA040001D1002070BD2C204543834EE1
:1033B0007019FFF7D5FE01202072562184ED010A15
:1033C0006172705D00F07F02032A08BF432004D0C1
:1033D00000F07F000E2801D141206072204670BDB0
:1033E000000000002DE9FC410D468046744911F8AB
:1033F0000860304600F0F2F8044600F0F8F80020CB
:1034000000F014F96F496D4B0A7817462C2047439A
:10341000521C1F440A7001206B49796287F828000A
:103420000021032D796108BF092402D0042D08BFB3
:10343000082400F0A480032087F8280004213046E7
:1034400001F020F80C2010FB04F060490E54012D0F
:1034500003D108445E4B43606EE00E2D6AD15D4897
:1034600000906A460121404600F0C9F9009800F03A
:10347000FF000A282DD8DFE800F006162C191B1FC4
:10348000212426282A00B921B9730020797A01F075
:10349000FD01084378720098000A0090010614BFED
:1034A0003C20322017E06420B873EEE72021EBE7E0
:1034B0003020B8730220E9E71020F5E72021B97326
:1034C000F8E70B20F0E71721F9E70820ECE71021D7
:1034D000F5E73620E8E738724FF47A70397A90FBD6
:1034E000F1F1B9816A460221404600F088F90028CE
:1034F0001CBF009800280AD0787A40F00800787243
:1035000000F00F0000994A1E40EA02107872002075
:1035100000906A460421404600F02CFA78B30099E6
:103520007981009800B10420797A01F0FB01084309
:10353000787224E0022D22D1002000906A460121F9
:10354000404600F076F99DED000AF7EE000AB4EE71
:10355000600AF1EE10FA1CBFB5EE400AF1EE10FA67
:103560000DD0787A40F001007872042001F0E0FB81
:103570007861042101F03CFC78690099016087F8CA
:103580000180BE70FC7045F08005002012493D703E
:10359000B871F961BDE8F381406400206122000048
:1035A00038842A357BA0453F66665A3F9A99999997
:1035B0009999B93F0000594000408F405038002091
:1035C0004038002057640020293300000C270020D9
:1035D000308C11000132E60099330000A0F1170190
:1035E000082902D21738C0B27047FF2070470C4834
:1035F0000178CA0700D5704710B541F0010101708C
:103600000020084905E0C3B20C246343FF22CA54DA
:10361000401C054B1C78C2B2A242F4D310BD00007E
:103620005E6400200C270020E6DB020070473EB5F8
:1036300009280446154605D101F0A5FC01F0D2FC8D
:1036400080B23EBD01F0F7FC01A801F02FFD01A9F9
:10365000204601F00BFD040001D100203EBD69466B
:1036600001F0E3FC08B1002009E055B1BDF80010FD
:10367000204601F0DDFC4FF47A71B0FBF1F0ADF8BB
:103680000000204601F0CEFCBDF800003EBD002247
:10369000CDE72100F0B5AF4BAF4C1B5C245C02467C
:1036A00000E0491CAD4D2E78C8B2B04217D25FFA87
:1036B00081FC2C25AA4F15FB0CFC07EB0C05287888
:1036C000C0090CD06878904202BF2F7807F07F07BE
:1036D0009F4204BFA878A042E3D148B2F0BD4FF0AA
:1036E000FF30F0BDF0B50346002400200EE0E4B248
:1036F00066440E5507F00F076C1C0A2FACBF372627
:103700003026EDB2F6194E55401CC0B29E79B0423B
:10371000E5B212DAEF1CBA420FDB10B12D264E557E
:10372000641C1D182F7AC7F30316651C0A2EB4BF3C
:103730004FF0300C4FF0370CD9E7E0B290423CBF6D
:1037400000204855E0B2F0BD10B500F00CF8854CF3
:1037500003E010B500F007F8834C81B22078BDE893
:10376000104001F0ADBC012303FA00F000F0FF00AF
:1037700000EB0120704770B500F006F87A4E00F0BB
:103780000AF800B90FE070BD0446012000FA04F405
:1037900004F0FF047047307804EB0124A4B215460E
:1037A000214601F0BDBC30782A462146BDE8704074
:1037B00001F086BC012202FA00F000F0FF0000EBED
:1037C0000120684B07E0012202FA00F000F0FF0040
:1037D00000EB0120644B81B2187801F075BC012325
:1037E00003FA01F101F0FF0101EB0221002819BFEA
:1037F0005C4800785C4A107889B201F091BC1CB535
:1038000000F032F80CBF02F1FC0102F1AC01684695
:10381000052201F055FD9DF80000032818BF062879
:1038200005D10DF1010108682060012016BD0020BE
:1038300016BD1CB500F018F80CBF02F1FC0102F136
:10384000AC016846052201F03BFD9DF80000072809
:1038500008D10DF10100016800EE101A84ED000A94
:10386000012016BD002016BD1446404A00EB800022
:103870000229024470470A78521C001D01F04EBA1A
:10388000BDEEC00A10EE100A3949884201D101206C
:1038900070470020704770B510260228054604DBEB
:1038A0000C2110FB01F6361DB6B2304601F040FA8D
:1038B000040003D0314601F09BFA2570204670BD0C
:1038C000420602D5491E8941C90F00F0B0BD2C2225
:1038D000234B504318440079002818BFFFF7F0BF6E
:1038E000704738B500241D4D03E00021FFF7EFFFBE
:1038F000641C2978E0B28842F7D331BD70B52C261C
:1039000006E0D5B2164C75432C44521C20716171EF
:10391000D4B29C42F5D370BD70B52C22104B044636
:10392000191D54430C5D00E0401C0C4D2E78C1B2B3
:10393000B1420CD251435D18297900291CBFA978E6
:103940000029F1D02979A142EED1012070BD0020DB
:1039500070BD000038380020403800205764002037
:103960005038002053260020542600205822000002
:1039700019FCFFFF7CB5C4000D46164610343346D3
:103980002A46A1B2102001F0EFFC48B900962B4660
:103990000022A1B2102001F04CFD08B9012076BD33
:1039A000002076BD1346C00080B50A46103081B2B3
:1039B000102001F01CFD012002BD0143C0F3C751DE
:1039C00081B1FF2906D0C110400721F0E04101F18B
:1039D0006051704741020CBF40F4E0016FF00041BC
:1039E0000020704700F0004100020AD0B0FA80FCCD
:1039F00000FA0CF001F16051A1EB0C5101EBD02168
:103A00004005704730B540F2FF7C1CEA11541DBFE1
:103A10001CEA1355644565453FE0641981EA030CCF
:103A20006FF35F530CF0004C43F48013C90241F074
:103A3000004141EA505EC5021100A5FB02020028C8
:103A40004FF00000EEFB01204FF00001E3FB0521E9
:103A500018BF42F00102401800214941E3FB0E016A
:103A6000A4F580640D0302D292184041494154F1FB
:103A7000010470DD450872F1004250F1000051EB85
:103A80000451A1F5801102D441EA0C0130BD40F28D
:103A9000FF7E4CEA0E51002030BD0CEA1355644500
:103AA00018BF654581EA030C0CF0004C41D050EA88
:103AB000410E1CBF52EA430E02E06146002030BDB9
:103AC00024422C441BD15FEA050EF6D0090302BF45
:103AD00001460020AEF1140EB1FA81F5AEEB0504FB
:103AE00001FA05FE0C35C5F1200100FA05F5C840C4
:103AF0004EEA000E6FF35F5343F480139CE733F0FC
:103B00000043B3FA83F504BFB2FA82FE75440B3D5D
:103B1000641BB5F1200E2FBF02FA0EF3AB40C5F1C6
:103B2000200E22FA0EFE38BF43EA0E03AA40641CA0
:103B30007CE750EA410E14BF52EA430E6FF00001D9
:103B40004FF4001515EB430F8EBF194615EB410FCF
:103B50009DE7B4D830BDD4F10104B4F120050FDAEB
:103B6000C4F12005520828BF42F0010210FA05FEF8
:103B700001FA05F57244E2BFE0402843E1400FE05E
:103B8000352C9ADCC5F1200452EA400220FA05F2F5
:103B900018BF42F0010231FA05F0A1400A430021AA
:103BA00072F1004250F1000051EB0C0130BD0156A2
:103BB00001F000428B1AA3F16051B1F5801F0ADBBE
:103BC000B1F17F6F1FD242EAC102C10071F1004121
:103BD00042EB507070470B15C3F10903212B10D233
:103BE000890241EA905180020128494141F0004197
:103BF00021FA03F0C3F12003994071F100415041D3
:103C00007047100070476FF0000013EB103F5CBF6F
:103C1000000E42EAC0507047DFF800F0DBFD0210F2
:103C200038B50C46010048BF494200220A250A2344
:103C300091FBF3F305FB13113031A154521C1946CB
:103C40000029F4DC002802D52D20A054521C0021AC
:103C5000A1542046FFF7E0FF002504E0615D225CEF
:103C6000625521546D1C401E8542F7DB31BD10B5F5
:103C700001F0B2FC4FF47A71B0FBF1F401F0A9FC51
:103C8000604310BD38B5044601F054F805460E48AF
:103C90000178220008D10A0710D441F00801017010
:103CA000022001F011FE09E0012C07D10A0705D519
:103CB00001F0F7010170022001F09BFD2846BDE8EC
:103CC000324001F042B800005E64002050B1B0FA0A
:103CD00080F18840C91CC1F58461090501EBD02140
:103CE000400570470146704751EC100B00B500F0DD
:103CF00003F841EC100B00BD40F2FF7C0B0D4DD0E2
:103D0000634566D230B421EA035141F4801103F2D5
:103D1000FD3C5FEA5C0C01D300184941890041EA8F
:103D2000907180004FF440140023E202D50AB1F5EF
:103D3000100107D46D081DD2091B641900184941F0
:103D4000491BF7D56D080AD20919641B00184941AF
:103D5000491BEFD56D08F7D301E0520817D0C01802
:103D600061419B1AAC4100184941801AA941F4D421
:103D700052080AD0C01AA1419B186C410018494151
:103D8000801AA941E9D45208F4D15B1C6C41610846
:103D90004FEA330001EB0C5130BC704750EA01038D
:103DA000FBD030B4B1FA81F311B9B0FA80F41B1929
:103DB0000B3BB3F120042FBF00FA04F19940C3F18B
:103DC000200420FA04F438BF21439840D3F10103C2
:103DD0009DE7634514BF50EA410CDEE711F5801FF3
:103DE000DBD8D943AFF3008070470141C1F30A53D8
:103DF00040F21E42D31A0CDDCA0283F3070342EAE3
:103E0000505242F00042DA4002EBE17282EAE17085
:103E100070476FEAE17203F2E13008B182F00040CE
:103E20007047015710F0004160B148BF4042B0FAFE
:103E300080F29040D21CC2F5846241EA025202EB49
:103E4000D021400570470125F0B540F2FF7581EAA9
:103E5000030C0CF0004C15EA11541DBF15EA135762
:103E6000AC42AF42E5E0BC41C1F31301C3F313031D
:103E7000801A994143F4801304D2641E001849410A
:103E800080185941C90241EA5051B1FBF3F603FBD6
:103E90001611A2FB0675D7EBC020A94102D2761EEF
:103EA00080185941C90241EA5051B1FBF3FE03FBAE
:103EB0001E11A2FB0E75D7EBC020A94103D2AEF1B3
:103EC000010E80185941890241EA9051760546EA6F
:103ED0008E2EB1FBF3F603FB1611A2FB0675D7EB92
:103EE0008020A94102D2761E80185941C90241EAB8
:103EF00050514EEA060EB1FBF3F603FB1611A2FB7E
:103F00000675D7EBC020A94102D2761E8018594110
:103F1000C90241EA5051B1FBF3F703FB1711A2FBB1
:103F20000735D3EBC020A94167F100070CBF004261
:103F300047F0010766F3D5274FEA1E31B80814F59C
:103F4000806412DDBD0775F1004250EB0E5051EB5D
:103F5000045111F5801F5CBF41EA0C01F0BD4CF02B
:103F60007F6141F0E0410020F0BDBD076D0840EAEF
:103F70000E5041F48011D4F10104B4F120060ADAA4
:103F8000C4F120060200E04001FA06F3E1401843C4
:103F9000B24015430EE0342C13DCC6F1200445EA90
:103FA00040056D0820FA06F2154321FA06F0A140FB
:103FB0000D43002175F1004250F1000051EB0C015E
:103FC000F0BD00205FEA0C01F0BDCFB992185B4153
:103FD000B3FA83F704BFB2FA82F6BF190B3FB7F109
:103FE00020062FBF02FA06F3BB40C7F1200622FAD3
:103FF00006F638BF3343BA401CB1E419641E33E7F8
:104000007F4231F00041B1FA81F404BFB0FA80F68A
:10401000A4190B3CB4F120062FBF00FA06F1A14011
:10402000C4F1200620FA06F638BF3143A0403C1BFD
:104030001AE7AC421ABF05EA1357AF4212E050EA42
:1040400041061CBF52EA4306BFE750EA410730462B
:1040500061461CBF41EA0551F0BD52EA430C08BF5E
:10406000C143F0BD00204FF4001616EB410F98BF7E
:1040700016EB430F08BF16EB410F24BFC14305E009
:1040800016EB430F0CBF61464CEA0551F0BD000032
:10409000F8B50D4688B00446287800F051F900289C
:1040A0003ED1DFF86C230021131D53F8310018B105
:1040B000491C0829F9DB33E005A800230026002766
:1040C00080E8C80002F83140121D42F831502878CB
:1040D0008DF80000A8684188ADF802108188ADF81D
:1040E0000410807900F00F008DF80600A868C179EF
:1040F0008DF80710A86881680291007B8DF80C008C
:10410000A8680169049105A928788DF814008DF834
:104110001C30CDF818D0204601F098FF012000E0B7
:10412000002009B0F0BDDFF8EC12086070472DE9FF
:10413000F041DFF8E4522C6880460F4600F000F9A9
:10414000002630B90020BDE8F081206800B926467D
:1041500004462CB120794045F7D1A7600120F2E751
:104160000C2000F0E5FD0028ECD00022026080F871
:10417000048087602968002914BF30602860EDE75B
:10418000FEB5DFF890621D4633681446002B1CBF55
:104190009A68002A17D000F03AF800271A6A1AB174
:1041A000DDE9000190470746A74201D10020FEBD8E
:1041B000224634682B46DDE90001A568A84701289E
:1041C00001D10A20FEBD0920FEBDFEB5DFF8447214
:1041D0001D463B6800261446002B1CBFDA69002AE6
:1041E00013D000F014F81A6A72B1DDE900019047AB
:1041F00050B122463C682B46DDE90001E569A8473D
:10420000012802D10A2600E009263046FEBD072219
:104210008DF80020ADF80200ADF804107047FEB52F
:10422000DFF8F04124680025002C1CBF6469002CD5
:104230000ED00727ADF80600ADF808108DF8047011
:10424000DDE90101089E0096A047012808BF0A2564
:104250002846FEBD10B570490A6800E0126852B1E8
:10426000036811791C7DA142F8D191680029F5D02D
:10427000BDE810400847012010BD00F059BD10B541
:10428000044610460A460146204601F057FF2046E4
:1042900010BD03E011F8013B00F8013B13465A1E24
:1042A000002BF7D1704710B513465A1E3BB110F8DA
:1042B000013B11F8014BA342F6D0002010BD0120B4
:1042C00010BD0822E5E7002818BF00F032BD704796
:1042D00001700A0A0B0C090E42708370C170001D38
:1042E000704702460229107803D1517800EB012073
:1042F0007047032906D15178927800EB012000EB3A
:1043000002407047042908D15178937800EB0120CE
:10431000D17800EB034000EB0160704700223C4B7A
:1043200003EBC201496811B10978884203D0521CDD
:10433000082AF5DB02E013F83200704700207047CE
:1043400010B501460022324800EBC203586810B194
:104350000478A14203D0521C082AF4DB00E010BD0F
:10436000002010BDF0B58BB007460C4615461E4622
:104370002C21684601F0ECFE397A8DF800100329F3
:1043800006D1082239460DF1020000F0C7FC03E017
:1043900011B13988ADF80210797A12988DF80A10A7
:1043A0007989ADF80C10810744BF01228DF81C20DB
:1043B000C10644BF01228DF81D20010744BF012220
:1043C0008DF81E20810644BF01228DF81F20410672
:1043D00044BF01228DF82020000644BF01218DF842
:1043E00021101398119B109A27788DF822008DF8D0
:1043F0001470ADF816500693ADF824600A92207838
:10440000FFF78CFF694601F025FE0BB0F0BD000000
:10441000344C0020304C0020744C002001465D4894
:10442000006801F03F01C84000F001007047012220
:1044300000F03F0002FA00F0574A09B110607047DF
:1044400010617047F8B500F053F81043086024F08D
:10445000005401F0BEFE00F03DF8504902202A0051
:104460001CBF032D042D086002D144F4C04408E0B1
:10447000012D08BF44F4804403D0022D08BF44F44A
:1044800000541FE0F8B500F033F822EA000008609D
:1044900044F0005401F09DFE00F01CF83F4902205A
:1044A0002A001CBF032D042D086002D144F4C0442F
:1044B00008E0012D08BF44F4804403D0022D08BF5A
:1044C00044F4005401F085FE240A3C70BDE8F2403B
:1044D00001F0ACBE00213170220AB11C3A70230CED
:1044E0000B70210E06F8031F24F4C04401F09EBE99
:1044F0000D462B498600012300F03F0006F0FC0624
:1045000003FA00F006F1804606F50126771C3468B0
:104510000A68704770B500F026F8012200F03F00ED
:10452000266802FA00F01E4A21B1116826F00056F2
:10453000084304E0136846F0005623EA00001060C8
:10454000350C01F046FE0021631C2170320AA11CCB
:104550001A700D70360E04F8036F01F067FE0F49F4
:104560000220086070BD840004F0FC0404F1804463
:1045700004F501247047012200F03F0002FA00F028
:10458000054A136C0343136409B11060704710614E
:1045900070470000C020024090200240E0200260EE
:1045A000D020024038B5FFF7DEFF0329206820F451
:1045B000E02545F4C02245F4A0230ED8DFE801F041
:1045C0000C0A050245F4E02507E000F4E020B0F510
:1045D000C02F01D11D4600E0154601F0FAFD2D0C5B
:1045E00004F8025FBDE8324001F020BEF8B5044691
:1045F0000D4601260027344203D02946F8B2FFF7C2
:10460000D1FF7F1C7600F8B22028F4DBF1BD00005A
:10461000DFF800F021CD0210DFF800F0C5E2021053
:10462000DFF800F0E7E90210DFF800F09DEB021080
:10463000DFF800F025DB0210DFF800F0F5EA0210E9
:10464000DFF800F0B1BF0210DFF800F0C3EC021099
:10465000DFF800F0BBEC0210DFF800F04DEA0210CA
:10466000DFF800F045DF021038B5DFF82C4620787F
:1046700001282DD0DFF82406DFF8242680088000EA
:10468000121AE261024602E0002342F8043BE369A9
:104690001D18AA42F8D39B0800EB8302002142F8C0
:1046A000041CE8230360E16989088900EC39C0F83B
:1046B000E810A06100F1E801A160002000F009F815
:1046C000E060A069E169A060091F012021612070FC
:1046D00031BDF8B500260027051D15F003001CBFED
:1046E000291D0D1A00F026FBDFF8AC25112D34BF73
:1046F0009468D46801462068002803D580F0004003
:1047000000271AE03B0014D03368D4F800C063449B
:10471000AB42336011D334461846ECB1401B042839
:1047200011D3605145F00040206013695D1B156195
:1047300011E0A842F1D2012726460444206800284F
:10474000DAD1002408E0136920681B1A1361256878
:1047500045F000452560241D51600846F4E010B581
:1047600004001BD000F0E6FADFF82C15486054F87E
:10477000042C002A03D44A69521C4A610BE022F03F
:10478000004244F8042C0B69D2180A61221F8B687E
:104790009A4238BF8A60BDE81040D6E210BD2DE9CC
:1047A000F04100F0C7FADFF8F024D36800240025B8
:1047B0000026002709E00E4601251C4604E011D51D
:1047C00081F00041002547460B441968B046BE42BF
:1047D00038BFB8460029F2D1506000F0B6FA404622
:1047E000BDE8F081002DE6D0D4F800C08C44C4F8B8
:1047F00000C08E19E8E710B50446DFF89C04C169D3
:10480000216000696060FFF7CAFF09282CBF0838E3
:104810000020A06010BD80B5FFF726FF4BF6BE203C
:1048200002BD084655E7084699E702B56846FFF716
:10483000E2FF01BD01207047F0B5DFF8684425783C
:104840002E460F2E0BDA1823DFF85C745E43BB197B
:10485000586000201D70D960986018745A616D1CF2
:104860002570681EF0BD38B504460025200001D132
:10487000002032BD04F10C0000F05AFA28B10560A6
:10488000FF220481827200F10C05284632BD80B5FA
:1048900008B9052002BD10F8021CFF2901D0042030
:1048A00002BD0C3800F045FA002002BD2DE9F041B0
:1048B0000C00064602D10520BDE8F0810020DFF89B
:1048C000E85300E0401CDFF8DC231378C1B29942C2
:1048D00017D2C7B218214F43EA5DB242F2D100F0BD
:1048E00029FA8046E8192146083000F0C3F84FF451
:1048F0000041304600F055F8404600F026FA00200E
:10490000DAE70320D8E7F8B505460E4600F012FABC
:1049100000240021DFF8902300E0491CDFF88473B5
:104920003F78CBB2BB420FD2182717FB03F3D75CFB
:10493000AF42F2D1D1188C6801E054F80C4C002C35
:104940001CBF2178B142F8D100F0FFF92046F2BD3A
:104950002DE9F84380464FF000090026DFF8484370
:10496000DFF8405316E000F01CF812E01822504324
:10497000215C41450DD1271807F1080000F0AEF881
:104980008146B86800284FF40041F0B2EBD100F046
:1049900049F8761C2978F0B28842E7D34846BDE84A
:1049A000F2832DE9F04781468A4603260025BD4C57
:1049B00017E000F032F847183A784A450FD100F076
:1049C000B9F98046786901684AEA01010160F8682E
:1049D00008B1FFF71DFE404600F0B7F900266D1C38
:1049E000EDB220788542E4DB3046BDE8F08770B553
:1049F00004460025AB4E0CE000F00FF80844426876
:104A0000A24204D1C0684FF0FF31FFF719FE6D1CC0
:104A1000EDB230788542EFDB70BD1821A24811FB62
:104A200005F170472DE9F04180460C4600279D4E68
:104A300004E02878404511D07F1CFFB230788742CF
:104A400016DA1822984912FB07F28D18B8F1FF0FF9
:104A5000EFD1FFF7F1FD69688142EDD100F06AF90D
:104A600069690A6822EA04040C60BDE8F0416CE15F
:104A7000BDE8F08138B505460C4600F05BF96CB135
:104A8000002144F80C1C2A6812B92C6006E00A4682
:104A900052F80C1C0029FAD142F80C4C67E02DE9C1
:104AA000F84304460D46904600F044F981462068DC
:104AB0000027002628B100E07F1C50F80C0C0028CD
:104AC000FAD1474504D229462046FFF7D3FF0126F5
:104AD000484600F03AF93046BDE8F28338B504465E
:104AE00000F028F92168002541B10D46A5F10C011F
:104AF00000230A682260FF240B608C7200F025F905
:104B0000284632BDF8B507460E4600F013F90024DA
:104B100000250021644A00E0491C624B1B78994241
:104B20001BDA18234B4312F803E0BE45F4D1D11829
:104B30008C6801E0254614467CB1237854F80C2C8F
:104B4000B342F7D1002D0CBF8A6045F80C2C002130
:104B5000FF2244F80C1C04F8022CF5E638B5044694
:104B60000D4600F0E7F8216845F80C1C2560BDE80B
:104B70003240EAE070B504460D46164600F0DAF819
:104B8000A5F10C0123680A689D420CBF226046F81B
:104B90000C2C0022FF230A608B72BDE87040D4E029
:104BA000F8B5404C404B62780025002611E01827EC
:104BB000774303EB070CDF5D874204D10F0018BF7A
:104BC00001278CF810709CF810703D4318BF012528
:104BD000761C2778BE42EADB280009D1012A10465C
:104BE0000FD100F006FE022000F003FE002208E0D4
:104BF000100006D1012000F067FE022000F064FEE4
:104C0000012262702846F2BD01468868496808475B
:104C10002DE9F84180461D0089B00F46164608BFB1
:104C2000022034D02C68ECB90C20FFF752FD0400B0
:104C300014D00823242200216846FFF7F5FC002049
:104C40000590ADF81000069400236A4641461748C7
:104C5000FFF7EEFC20606760A66008B9082016E048
:104C60002C600CE000F066F80546206801F0E0FAE0
:104C700010B12068FFF7D0FC284600F066F82068E5
:104C80004146FFF7E1FC2068FFF7CAFC00200AB0AC
:104C9000BDE8F08100000000604400209B6400201B
:104CA000FF3B01205F640020F4420020094C00001B
:104CB00070B505001CBF2C68002C01D0206808B915
:104CC000022070BD00F036F80646206801F0B0FA08
:104CD00010B12068FFF7A0FC2046FFF7B9FC204682
:104CE00000F027F800202860304600F02EF8002061
:104CF00070BD20B10068002818BFFFF78DBC704759
:104D000010B513465A1E3BB110F8013B11F8014B88
:104D1000A342F6D0002010BD012010BD03E011F821
:104D2000013B00F8013B13465A1E002BF7D1704798
:104D3000CFE414E580B5FFF78FFCADF8000001F07B
:104D400048FAADF80200009802BD01B5BDF80200B6
:104D500001F06CFABDF80000BDE80240FFF780BC2E
:104D600080B5022100F002F880B202BD012901D114
:104D700000787047022904D10178407801EB0020C7
:104D80007047032907D102784378807802EB03212A
:104D900001EB0040704704290AD10278437802EB06
:104DA00003218278C07801EB024101EB006070477B
:104DB0004FF0FE30704701700A0A0B0C090E42706A
:104DC0008370C170001D704710B540B1002300E032
:104DD0005B1CDCB2944204D2045D8C42F8D000200B
:104DE00010BD012010BD80B501F04EFA80B202BDA9
:104DF000002201F0A3B9E80370B501F0EAF9064614
:104E00007D484068FA246FF0F90560B1B0F90C10E4
:104E10008C42C8BF0C46B0F90E1000688D42B8BF76
:104E20000D460028F2D12946204600F005F830460C
:104E3000BDE8704001F0FAB9F0B46F4BB3F900402F
:104E4000A0421ADA6D4D6E4C2E782568A5F5407596
:104E500076B2821C7543D7052D1105EBE735803DF1
:104E600012F1F90F2ADA4FF4803505F47F452563F6
:104E70001880206A40F004002062B3F902008842E2
:104E80001ADA5E4C5E4A25781468A4F540746DB257
:104E9000881E6C43C605241104EBE634803C10F1F7
:104EA000F90F15DA4FF4803404F47F4454635980C9
:104EB000106A40F008001062F0BC7047FA2AA8BFE0
:104EC0004FF47F45D1DA002DCFD54E4A1540CEE7BD
:104ED000FA28A8BF4FF47F44E6DA002CE4D549480D
:104EE0000440E3E72DE9F0474448454D01782A683E
:104EF000414E454F4FF47F432B63FA2131802A6A9C
:104F000022F004022A620022007829686A636FF0A6
:104F1000F9007080296A21F008012962F86B746831
:104F2000D0F8001088470FFA80FAE4B1B4F90E9077
:104F3000D4F80080D145BCBFB4F90C108A450FDB12
:104F4000D145B8BFB4F90C902146301D01F020FACC
:104F50000020226920752346A46849465046A04790
:104F60005FEA0804E2D1FFF747FF686A00F00C002F
:104F70006862686A10F00C0FF7D139680A6ABDE8F8
:104F8000F0473520104770B584B001F022F91F4D6D
:104F90000446287808BB684601F040F91C490A78A5
:104FA000019201218DF808106B461A4A3521281DFF
:104FB00001F0ECF81848194B816C21F00401816470
:104FC0000322816C21F008018164026009211A68C2
:104FD00016680220B04701202870204601F026F90B
:104FE00004B070BD00B50E4881B001680A689047F2
:104FF00000B201B000BD0000902B00200C13005047
:105000002850094000FF0100B0010010B45C0020EE
:105010006BE20200E54E00000050094084010010E0
:10502000EC01001001680A6810470268936818478D
:1050300002681369184770B501F0CBF818490546A6
:10504000087860B9012217480A7004783CB1164EFE
:10505000304656F80C1B4A699047641EF8D1284622
:10506000BDE8704001F0E2B80000000030B50C4C23
:10507000237881B000227BB10A4C2578A8420BD25C
:1050800009B900BF0CA100EB40029200064B981832
:105090009B589A6990470246104601B030BD000007
:1050A0007F640020E6DB0200A825000002A1D1E910
:1050B0000023C0E900237047000000000100000049
:1050C000002387E0012385E070B504460E46FFF714
:1050D00031FE05463146204600F0DEF804001AD0C5
:1050E0002068FFF799FA2046FFF7B2FA7148816805
:1050F0008C4203D12169816005E001460869A04224
:10510000FBD1206908612046FFF713FE2846FFF710
:105110001CFE002070BD2846FFF717FE022070BD60
:10512000F8B505460E46FFF705FE0446314628460B
:1051300000F0B2F8002750B1006801F040F95E4A73
:1051400013684FF47A71B1FBF3F3B0FBF3F7204629
:10515000FFF7FBFD3846F2BD70B5564DEC6854B113
:1051600026692046FFF774FA2046FFF7E2FD340077
:10517000F6D10020E86070BD4E4A10705160704753
:1051800010B50446A1682079FFF70BFC207B00BB1B
:105190002068FFF741FA474A9068844203D12069AA
:1051A000906005E008460169A142FBD121690161D7
:1051B0000020D168206111B9D46004E0014608697B
:1051C0000028FBD10C61BDE8104051681078FFF752
:1051D000E8BB10BD2DE9F8471F46374B80468A468D
:1051E00018684FF47A71B1FBF0F0424389B015466C
:1051F000FFF7A0FD81465146404600F04DF80826D5
:1052000004000AD02068FFF707FA20682946FFF754
:105210001BFA2068FFF704FA37E01420FFF788FD37
:10522000040032D00823242200216846FFF7FCF94D
:10523000002F14BF059505970121ADF810100694B5
:1052400000236A4629461D48FFF7F2F92060C8B1DD
:1052500084F80480C4F808A0277300202061154852
:10526000816811B9846004E0014608690028FBD117
:105270000C6120682946FFF7E7F92068FFF7D0F9AD
:10528000002602E02046FFF754FD4846FFF75DFD8B
:1052900030460AB0BDE8F08720B502460548806870
:1052A00000E0006928B10379934204BF85688D420C
:1052B000F7D120BD80440020081600008151000075
:1052C00062B38B0708D0521E11F8013B00F8013B76
:1052D00000F024808B07F6D1830740F0208000BFC8
:1052E000103A07D330B4B1E83810103AA0E83810BB
:1052F000F9D230BC530724BFB1E80810A0E8081069
:1053000044BF51F8043B40F8043BD20724BF31F8B6
:10531000022B20F8022B44BF0B7803707047121F3A
:1053200017D35B0009D151F8043B20F8023B1B0C5A
:10533000121F20F8023BF6D20BE051F8043B00F8B4
:10534000013B1B0A20F8023B1B0C121F00F8013B1B
:10535000F3D238BF121D521E24BF11F8013B00F8D2
:10536000013BF8D870477F00FEB5684E1D46336894
:105370001446002B1CBF1A69002A1AD001228DF88E
:10538000002000F04CF800279A6A1AB1DDE900010C
:1053900090470746A74201D10020FEBD224634684F
:1053A0002B46DDE900012569A847012801D10A2023
:1053B000FEBD0920FEBD13460A4601460020D3E784
:1053C0001CB5524B1B680022002B1CBF9B6A002B94
:1053D00008D0012400F023F88DF80040DDE9000139
:1053E0009847024690B216BD01460020E8E7BCB5DA
:1053F000464C24680025002C1CBF6469002C0CD08E
:10540000012700F00CF88DF80070DDE90001A047DD
:1054100018B10A280CBF09250A252846B6BDADF8E3
:105420000200ADF80410704713460A4601460020FA
:10543000DDE77FB5354C2468002C1CBFE469002CE7
:105440000FD00126ADF80600ADF808108DF8046005
:10545000DDE90101089D0095A047012818BF002043
:1054600000D10A2004B070BD78B5284C246887B0FC
:10547000002C1CBF246A002C16D00491ADF8160035
:1054800001260F99BDF838000C9D03918DF814602A
:105490000026BDF8341002900191ADF81860DDE9E6
:1054A00005010095A04700B10A2008B070BD80B585
:1054B000009313460A4601460020FFF7BAFF02BDDB
:1054C000FEB5124E336800251446002B1CBF9A69A6
:1054D000002A18D001278DF80070FFF7A0FF9A6A04
:1054E0001AB1DDE90001904708B909250BE0A04297
:1054F00018BF0C2507D132689369DDE90001984790
:10550000012808BF0A252846FEBD0000A84D00203E
:10551000DFF800F08DDD0210DFF800F049E6021040
:10552000DFF800F0FDE90210DFF800F011DC0210F6
:10553000F0B51C0089B005460E46174605D100237C
:10554000FFF7E6FF284609B0F0BD0823242200211A
:105550006846FFF769F8A16806916B462278ADF8B6
:1055600010203A466068059031462846FFF7D0FF84
:10557000284609B0F0BDF0B5140089B005460E46C6
:10558000224F05D13B460022FFF752F809B0F0BD8B
:105590000823242200216846FFF746F8A1680691F7
:1055A0003B462278ADF810206A4660680590314687
:1055B0002846FFF73DF809B0F0BD00B581B0009076
:1055C0006846FFF745F801B000BDFFF7A5BFFFF73C
:1055D000A7BF0F4800687047FFF7A6BF00F0EFBEF7
:1055E00000B581B000F024FE401E8041C043C00FD2
:1055F00001B000BD00218160017041607047FFF77C
:1056000023B8FFF70DB8FFF707B800006C2900209A
:1056100008160000DFF8680980687047024600201D
:10562000022904D1012A06D140F2EE207047012A56
:1056300008BF4FF47A707047DFF8441991F84101C0
:1056400020B1D1F86C01002818BF004770472DE940
:10565000F041DFF82C4994F84201002884B040F072
:10566000AE800121DFF81C69DFF81C5984F8421173
:10567000307B84F841017168C4F86C11A868C0F3EC
:105680008140B8B93069A8B12F68FFF7A2FFC7F30E
:105690000662642111FB02F2B2FBF0F200230FF666
:1056A000C90104F19400FFF743FFDFF8E0184FF061
:1056B0000040086001A8FFF79DFF002002908DF8D0
:1056C00004000022039201AB0FF2E961DFF8C07819
:1056D00004F10C00FFF72CFF01A8FFF78BFF00205F
:1056E00002908DF80400039001AB0822DFF8A418A3
:1056F00004F15000FFF71CFF00230FF2FD5232218E
:1057000004F1D80000F042FD002038600023DFF8EB
:1057100088282C2104F1F40000F038FDDFF87C0823
:105720000178A968707BC1F3815128B1032903D1A5
:10573000012084F8390121E0032918BF02291DD076
:1057400001291AD1DFF85868DFF858780320009053
:105750001C23D6F800C0DCF804804FF04052002132
:105760003846C047012000903846366877680923DC
:105770004FF400720021B84711E081B9386840F059
:105780004000386000F025FDA16841F00401A160EF
:1057900094F84511491C84F8451100F047FD6868EC
:1057A00040070CD400F015FDA16841F00101A16093
:1057B00094F84311491C84F8431100F037FD002090
:1057C00004B0BDE8F08130B581B0002408B1150007
:1057D00004D16FF00204204601B030BD8160C26088
:1057E00003610146DFF8980700F0A8FD204601B0EC
:1057F00030BD10B5044600F0ECFCDFF884170A1940
:1058000092F843315B1E82F84331DBB233B98A68C8
:10581000012303FA04F422EA04048C6000F006FD7C
:10582000002010BDF0B581B0054600F0D2FC044662
:10583000DFF84C17481990F84A21521E80F84A2187
:10584000D2B232BBDFF8600700EB850210F82550BA
:105850005688280623D5DFF8547739680A6A304617
:10586000904739688A6A3046904739680A6B3046F3
:105870009047DFF83C1701200860DFF8380701681F
:105880008907FCD505F03F05152DBCBF2846FFF75D
:10589000C9FF204600F0CAFC002001B0F0BD680638
:1058A00006D501EB86010020D1F860219047E9E799
:1058B000DFF8F8160B689A6930469047304600F0DA
:1058C00097FD0228FAD1DDE710B5044600F081FC0F
:1058D000DFF8AC168A680123A3401A438A6021448A
:1058E00091F84321521C81F8432100F09FFC0020D5
:1058F00010BD2DE9F041064600F06BFC0446DFF8D0
:105900008056A81990F84A114A1C80F84A2139BBE0
:10591000DFF8948618F8260000F03F001428D8BF5E
:10592000FFF7E7FF08EB8600478818F82600010616
:105930001CD5DFF878562A68D169384688472A6826
:10594000516A384688472A68D16A38468847DFF85E
:10595000602601201060DFF85C0601688907FCD52D
:10596000204600F063FC0020BDE8F081400606D52B
:1059700005EB87010120D1F860219047F0E7DFF8BF
:105980002C160B685A6938469047384600F04DFD92
:105990000128FAD1E4E72DE9F04F0025012881B074
:1059A000AA46A94618BF6FF0010840F03581DFF81C
:1059B000D075D7F83401012844D10221C7F8341139
:1059C00000F0B6FD012000F0F8F95FEA00083FD1D1
:1059D00097F85B0108B14FF0010A97F85A0108B136
:1059E0004AF0020A97F8590108B14AF0040ADFF8B0
:1059F000BC45A16A0A680120904701281CBF97F89E
:105A00003801012851D100F003FEDFF87CB5DBF846
:105A100008000125C0F3814040BBDFF8680501693B
:105A20000091080022D007F19400FFF7ECFDDBF8AD
:105A30000000DFF88815C00F14BF4FF441504FF439
:105A400082500EE06FF00408404601B0BDE8F08FD0
:105A50000120C7F8340100F074FD404601B0BDE8F4
:105A6000F08FC1F8800000200099884797F838012E
:105A7000D8B1DFF84C05D0F8841221F08001C0F8CD
:105A800084128022C0F88C2200F0A3FB97F8461104
:105A9000491E87F84611C9B219B9B96821F0080141
:105AA000B96000F0C3FB87F83891387AC10748BF66
:105AB0004FF0010907D4216ADFF808058A6890478A
:105AC0000646042EF7D04FF0FF320021484600F082
:105AD000FBFDB9F1000F0FD1012E05D1226ADFF8CD
:105AE000E404536801219847DFF8D404D0F8181271
:105AF00041F00301C0F81812504621684A699047E6
:105B000097F8550120B12168CA6A4FF48060904728
:105B100097F8540120B12168CA6A4FF48160904718
:105B2000DFF88C14DFF89894012008600022C9F88F
:105B300000200320C7F83401504600F076FC01280D
:105B4000FAD1DFF874643068042000F036F9824638
:105B5000DFF8741401200860002D32684DD0A16A6E
:105B60000A689047012848D097F83801002844D1A6
:105B7000DFF81444A068C0F38140C0B9DFF8040422
:105B80000569A5B12068DFF83414C00F19BF4FF4C0
:105B9000405008604FF480520A60502000F04AFEE6
:105BA0000120A84707F19400FFF72BFD01E000F06A
:105BB000F5FC012087F83801A068C0F3814018B9CE
:105BC000DFF8C013086958B9387A810608D48020F4
:105BD000C9F88C02D9F8841241F08001C9F8841206
:105BE00000F0F7FAB96841F00801B96097F846117A
:105BF000491C87F8461100F019FB00F017FE082039
:105C000000F0DBF840EA0A040120C7F8340100F094
:105C100098FC0CB14FF0FF38404601B0BDE8F08F62
:105C200030B581B0044600F0D4FA05462146DFF8CD
:105C3000500300F0ADFB284601B0BDE8304000F055
:105C4000F5BA10B50024022802D0032805D008E0D8
:105C500000F0F4FD0446204610BD00F079FF204618
:105C600010BDFEE70000F0B581B000F0B2FAC44903
:105C7000054691F83801012460B1DFF82463DFF8AC
:105C800024033768D7F80CC0002301223C21E047E9
:105C900000B90024284600F0C9FA204601B0F0BD42
:105CA00030B581B000F095FA044600F086FCB44DA2
:105CB000002085F8380100F08CFA95F84611491E4D
:105CC00085F84611C9B219B9A96821F00801A9607F
:105CD00000F0ACFA204600F0A9FAAA488468022035
:105CE000A0470546102000F068F8012D04BF0320EE
:105CF000A04701B030BD00002DE9F041A44C82B0B6
:105D00006568206820EA050105406A06216049D5DA
:105D1000A34EF16B0A6804209047022818BF03289D
:105D200019D001283ED1032000901C23D6F800C0D2
:105D30009C4FDCF804804FF0405200213846C047A9
:105D40000120009038463668776809234FF40072C6
:105D50000021B84726E0032000901C23D6F800C09D
:105D6000904FDCF804804FF0405200213846C04785
:105D70000120009038463668776809234FF4007296
:105D80000021B84700F025FA7D4991F84521521EBF
:105D900081F84521D2B21AB98A6822F004028A60D9
:105DA00000F044FA280648BF00F022F8A56002B0CF
:105DB000BDE8F08170470020704730B50546704857
:105DC000046881B05CB1A068284205D02269E3680C
:105DD00000212846984728B92468002CF3D10020D8
:105DE00001B030BD4FF0FF3001B030BD0020704732
:105DF00030B581B000F0EDF94FEA000400F0DDFBB2
:105E00000028FBD000F0E5F95D4D95F84611491EDC
:105E100085F84611C9B219B9A96821F00801A9602D
:105E200000F004FA002085F83801204600F0FEF961
:105E3000544884680220A04705461020FFF7BDFFA4
:105E4000012D04BF0320A04701B030BD70B501286B
:105E50004CD15E490A6813689847012800F0818098
:105E6000474D95F8380100287BD1474EB068C0F304
:105E70008140B0B9434804699CB130684F49C00FB4
:105E800019BF4FF4405008604FF480520A60502010
:105E900000F0D0FC0120A04705F19400FFF7B1FB12
:105EA00001E000F07BFB012085F83801B068C0F309
:105EB000814010B93349086948B9287A810606D467
:105EC000334880228260016841F08001016000F067
:105ED00080F9A96841F00801A96095F84611491CAC
:105EE00085F8461100F0A2F9002070BD002838D1D5
:105EF00000F08EFB244E224DB068C0F38140A0B963
:105F0000204804698CB105F19400FFF77CFB3068F0
:105F10002A49C00F19BF4FF44150C1F880004FF417
:105F20008252C1F880200020A04795F83801C0B106
:105F30001748016821F0800101608021816000F034
:105F400048F995F84611491E85F84611C9B219B9A4
:105F5000A96821F00801A96000F068F9002085F81F
:105F60003801002070BD000000B5144981B0402008
:105F7000086000F013FB01B05DF804EB38E70000A7
:105F80009C2B00208C260000AC4F005000A10C4040
:105F900090220840BD6C0000AD68000093640020B2
:105FA000A401001000A00C40802B0000B8010010DC
:105FB00028200860282008402C200940A8A00C4078
:105FC0000C200840004003400C400940E001001054
:105FD0002DE9F0411027082B054638BF08230E464F
:105FE000904698B2FEF73FFC040010D0267000F0F7
:105FF00011F800F015F840B9FEF71EFBFEF7F7FCAC
:1060000000F016F80028F7D0477800F015F8384669
:10601000BDE8F08100206070A570C4F8048070476E
:10602000214607480078FEF741BC054908707047D3
:1060300021782846FEF766BD2046FEF728BC000002
:10604000766400200A4608231421C1E70A46082383
:106050002021BDE70A4608232221B9E70A46082382
:10606000B021B5E70A460823B621B1E70A4608235E
:10607000C121ADE703230022CD21A9E70A46082369
:10608000E421A5E70A460823E621A1E738B504463E
:1060900001252078801F46D0423848D018383ED09D
:1060A000401E3CD0401E012841D9801E2FD0401EEA
:1060B00033D0401E31D0801E2FD0801E032836D909
:1060C000001F2AD0401E28D0401E26D0401E24D0BB
:1060D000401E02282BD9C01E21D0401E23D0401EB6
:1060E00025D0C01E23D0801E21D015381FD0401EC1
:1060F00017D0C01E012884BF3038062817D91B3896
:1061000015D0801E012812D9093810D012E060691C
:1061100008B1FEF70EFEE06906E0E06804E06069A1
:1061200002E0E06A00E0A06808B1FEF702FEFFF7B7
:1061300083FF00E00025284632BD0E004018491CB0
:106140001CBFB1F1010100F8012DF9D17047030026
:10615000002200F0EFBD0100DFF800F049EB021073
:10616000DFF800F075E40210DFF800F055EB0210E4
:10617000DFF800F01DD90210DFF800F047EC021044
:10618000DFF800F019E9021000F0EEBDF0B51C00D8
:106190008DB005460E46174604D1002300F0FAFDE7
:1061A0000DB0F0BD0823302200216846FFF7D4FF70
:1061B000206805906B46606808903A46207AADF8F2
:1061C00018003146284600F0E5FD0DB0F0BDFFF7A0
:1061D000C7BFFFF7C9BFFFF7CBBF10B5FFF7C4FFBD
:1061E0000446FFF7C9FF601E8041C00F10BD00F0DC
:1061F000F1BDF0B581B004460D461646FFF7B4FF79
:10620000074632462946204600F0EEFD384601B0EA
:10621000BDE8F040FFF7B0BFFFF7B2BF002101605B
:106220004FF0FF320123426003727047FFF7A4BFB3
:10623000808A704730B5ADB00BA88421FFF788FF86
:1062400004210BAC21A58DF818100094019500F0E5
:10625000BAFE06A9684600F0F7FE05000DD014222C
:10626000184902A800F0F4FF02A9284600F036FF02
:106270000446284600F028FF1CB14FF0FF302DB037
:1062800030BD00202DB030BD10B5FFF7A2FF0D4A84
:1062900091685368D468D160936084EA940411686B
:1062A000516081EA440383EA01135C4013690649A3
:1062B0001460CB1813611C19FFF7B8FF204610BDFE
:1062C00000000000A05C0020C5870500FF00000062
:1062D000000000000001000010B50446FFF779FF40
:1062E000002161602160BDE81040FFF79FBF30B51D
:1062F00081B00546FFF76DFF2C683CB1216829602D
:10630000216800291ABF00224A606960FFF78EFFEA
:10631000204601B030BD70B504460D461646FFF765
:1063200058FF2E60716869607168002914BF0D60A4
:1063300025607560BDE87040FFF778BF30B581B06B
:1063400004460D46FFF745FF0021296062686A6038
:106350006168002914BF0D602560656001B0BDE86B
:106360003040FFF763BF30B581B004460D46FFF7FC
:1063700030FF2168296000226A602168002914BF6B
:106380004D606560256001B0BDE83040FFF74EBF4D
:1063900030B581B004460D46FFF71BFF29686A68D7
:1063A00000290CBF62604A6069682A6800290CBF36
:1063B00022600A6001B0BDE83040FFF737BF70B51A
:1063C000044600F04FFF0646A08A002501280AD1A6
:1063D000FFF7AAF80546E068A168451BA9423EBF41
:1063E0002069A8420025304600F03DFF284670BDD8
:1063F00030B51C4B1A685B6D0021C50704D5D40766
:1064000001D45B0700D50121830703D5540804F0AC
:1064100001042143400703D5920802F00102114311
:1064200009B1012030BD022030BD30B50D4B1A68D6
:106430005B6D0121C50704D5D40702D45B0758BFA3
:106440000021830703D5540804F0010421404007CC
:1064500003D5920802F00102114009B1012030BDBC
:10646000022030BD40210840DFF800F025EA02108C
:10647000DFF800F061DB021030BF704770B500F04C
:10648000D1F9354C206941688847FFF7C3F80546C4
:1064900005F00C000C2804D1AFF30080FFF7ECFFEF
:1064A00040E0680725D400F017FF064601210120CF
:1064B000FFF7B4F82949096801FB06F2904218D2A7
:1064C000F020B0FBF1F0264C311A04F10C00FEF77D
:1064D000BBF804F10C00FEF7A3F8AFF30080012035
:1064E000FFF759FAAFF3008004F10C00FEF794F8BF
:1064F0001AE0AFF30080280712D4216819488A688F
:1065000090470428F9D0E90600D408B9012000E03A
:10651000002000F0C5F8144801210160006801E086
:10652000FFF7AAFFAFF30080BDE8704000F07EB92E
:1065300010B50E4CFEF790F82060FFF795FF6060F5
:1065400010BD10B5094C6068FFF792FF2068BDE8E8
:106550001040FEF785B80000D801001008160000B2
:106560009C2B0020004003402C2009404063002069
:1065700038B5DFF80801DFF80851048814F0010489
:1065800003D14FF0012129600088DFF8F82011685D
:10659000884714B14FF08070286031BD10B5DFF826
:1065A000F82013685C6801210120A047DFF8DC00B7
:1065B000DFF8DC100068886010BD38B5DFF8C8402F
:1065C000E16B0A680120904701281FD02468DFF89A
:1065D000AC00E568002301223C21A847B8B1FFF7D1
:1065E000C7FFDFF8A800DFF8A83002689968DFF875
:1065F000A4001C68DA60A4EB9404521A4243120C03
:106600001A6019688C4238BF0C461C60012032BDEC
:1066100038B5DFF88440226853680021012098478C
:1066200021680A680120904708B1FFF7A1FFDFF851
:106630005C00DFF85C5000686860E06801688847CB
:10664000286131BD70B5154CA268E5681B3800FBA8
:1066500000F100FB01F681FB0223C6FB0523656800
:10666000C0FB05232068120942EA0372C117101803
:1066700041EB2311000C40EA014070BD00A00C402A
:1066800004A40C4080000010A40100103020094038
:106690005C63002040420F00E001001070630020A6
:1066A00010B55049504C08605048026842F003024F
:1066B0000260202021688A6990474D48016822685D
:1066C000906BBDE8104000472DE9F8430546884629
:1066D0009146002000F057F84648454F424C464E40
:1066E0000021016027203A6821688A699047316B50
:1066F0004248014031634FF48060B16F21F48071F2
:10670000B16721680A6B904721680A6B4FF481607A
:10671000904721680A6B4FF4C06090473849314A6E
:1067200001200860C2F800803060364801688A079E
:1067300007D419F1010F06BF4FF04041C160C0F806
:106740000C903868F0698007FCD50720FFF750FEF1
:106750000228FAD195B9216A2B4D8A6828469047BC
:106760000428F8D0012804D1226A5368032128465E
:1067700098471E4801688908890001602068816B7C
:10678000BDE8F143084710B51E4801688A0702D5E5
:106790001E49C16010BD1E480468A10220D41D48D6
:1067A00001680A6890472417C0F13E00641CC010BD
:1067B000194909680728C8BF0720A042B8BF20466A
:1067C000C1F30321081A0F28C8BF0F2002DC0128DB
:1067D000B8BF0120114940F0F0000870104802785D
:1067E00010BD00008C210840B80100102422084090
:1067F0002C2009400C4009400C200840FFFFFEFE01
:10680000282008601000094000400340FD000040BF
:10681000B44F0050EC0100100C1300505A620840B5
:106820000D620840EFF3108072B67047EFF31080EE
:1068300062B670470138FDD17047704730B5DFF858
:10684000AC5495F83901002481B0002802BFDFF86C
:10685000A014887B00280CD0FFF7BBFC95F83B11F7
:10686000002906BF012285F83B210124FFF7DEFC49
:1068700014B1002001B030BD0220FFF725F80E2032
:10688000FFF737F8DFF86C14086810B1012001B089
:1068900030BDDFF864044022026042600120C8611C
:1068A000002185F83A11002001B030BD2DE9F041FA
:1068B000DFF8481482B000200860DFF8304494F814
:1068C0003A01002800F0408101283FD1DFF8301460
:1068D0000D68DFF830140A684BF2F52045432D0AA5
:1068E00002F44022B2F5802F13D1DFF81C040168B6
:1068F0008A030ED4DFF81464B06C01688847FFF790
:10690000A1FEF16BCA6890472F09C010474305EB01
:10691000E73594F8400118B1002184F8401106E0F1
:10692000DFF8EC03006820F07F402D186D08DFF8D9
:10693000E403DFF8BC23056001212D0C4560816074
:10694000907B002800F0B8800221FBE0022840F094
:10695000B980DFF8AC030568DFF8BC03C16AC1F396
:106960000721C4F814110168C1F38441C4F8181157
:10697000B5F5C061C069C4F81011C0F38120C4F836
:10698000280103D1002084F8300191E094F830010F
:1069900068B9D4F81801D4F81421C4F82001C4F857
:1069A0001C21C4F82C11D4F82801C4F82401D4F80F
:1069B0002C0100284CBF6FF00101022100EB4000C8
:1069C0000818D4F82011421000EB9270D4F814216A
:1069D000C4F81C2101EBA0010029C4F8201115DC2A
:1069E000D4F82401032805D11531D8BF0121C4F8FA
:1069F000201124E00B31D8BF0121521E48BF0022D4
:106A0000C4F82011C4F81C21032019E01E2919DD47
:106A1000D4F8240138B915391E29C8BF1E21C4F87D
:106A2000201103200CE00B391E29C8BF1E21521C67
:106A30003F2AC8BF3F22C4F82011C4F81C210020FF
:106A4000C4F824010823B14ED4F81C01B34F80B21E
:106A500000904FF47F42D6F800C0DCF8048030216B
:106A60003846C047012000901123D6F800C0DCF85A
:106A700004804FF4003204213846C047D4F8200186
:106A800080B200901223D6F800C0DCF804804FF4E6
:106A9000F80204213846C047D4F8240180B200909F
:106AA0003846366877680A234FF440622021B84799
