:020000040000FA
:060000000216DC020A13E7
:03001300020ACF0F
:03002B0002145369
:03003300020C5D5F
:03003B00020B2491
:03004B0002136736
:0300530002094857
:03005B000211BFD0
:030063000211E0A7
:03006B00020C0381
:03007B00020C3440
:100083000209A7010020FD0002012C050000000168
:10009300D21CDE1C0000E41CF01C00000000F61C57
:1000A3001A1D201D261D0000000000000000010194
:1000B3000204081020408001FFFF090D0101040123
:1000C300FEFF000000000000000612FFFFFFFFFF1D
:1000D300FFFF0101010400F811000000E803000024
:1000E300FFFFA012E803000064006400B801A0BB96
:1000F3000D00A0BB0D00020200F8FF0705021E045D
:1001030001051E02051E020A0A0101080803102741
:1001130002803E0102FEFFE8030A050001FFFF0221
:100123000A1401E0C503423F1A51123FF304B53FDD
:100133000000803E05030101FF1238000000004863
:100143003700000000FF000000FF00C082C083E909
:10015300FA5407F8743B28F582E43415F583E0F884
:100163007900EAC4540F5403600814600914600D45
:100173008012E5808002E5905870078007E5A0585B
:1001830060027901020255C082C0831202E760084F
:1001930014601214601C802BEA6005EB42808023FC
:1001A300E85280801EEA6005EB42908016E8529088
:1001B3008011EBC39420500BEA6005EB42A080034F
:1001C300E852A0020255C082C0831202E7600814FD
:1001D300602C146050807BE852F374016A601274DF
:1001E300026A601574046A7003EB428FEB42FD8070
:1001F3006153F7DFE8528F80F343F72080F6E8522C
:10020300F474016A601274026A601574046A7003FC
:10021300EB42F6EB42FE803A53F7BFE852F680F327
:1002230043F74080F6EBC394205027E852F574015E
:100233006A601274026A601574046A7003EB42F711
:10024300EB42FF800D53F77FE852F780F343F780CB
:1002530080F6D083D08222C082C0831202E7600876
:1002630014602B14604E806CE852F352FD74016AE3
:10027300600F74026A600F74046A7058EB428F80D7
:100283005353F7DF800343F720E8528F8046E85249
:10029300F452FE74016A600F74026A600F74046A98
:1002A3007032EB42F6802D53F7BF800343F740E8EB
:1002B30052F68020EBC39420501AE844E0F852F53C
:1002C30052FF74016A601074026A601374046A70E6
:1002D30003EB42F702025553F77FE852F780F543E9
:1002E300F78080F6E95407FC743B2CF582E434155F
:1002F300F583E0FBF4F8E9C4540F540322C082C031
:10030300831202E7600814601214601C802DEA60F7
:1003130005EB42FD8025E852FD8020EA6005EB42B3
:10032300FE8018E852FE8013EBC39420500DEA6060
:1003330005EB42FF800574E04852FF020255C0827C
:10034300C0831202E760081460151460228034EA47
:100353006005EB42808003E85280EB42FD8024EA93
:100363006005EB42908003E85290EB42FE8014EB71
:10037300C39420500EEA6005EB42A08003E852A02C
:10038300EB42FF020255E9C4540F540360071460A3
:1003930013146020227801E8F4FBEA602014602142
:1003A30014601522740F59C394045004780280E733
:1003B300780480E3780880DFE58C586004EB528C86
:1003C30022E8428C221216EC601D1216FB700519EE
:1003D3001919801A121555701F12157DC37003E683
:1003E300673319191940071818182208080874FFE9
:1003F300F618F618F618F62212157D60171217A1D3
:10040300702192F01217AA7019501720F0140808DF
:1004130008090909E7F61819E7F61819E7F618198C
:10042300E7F6221217AA60E6E869701F0808E624B7
:1004330080F608E436F618547FB47F0CE6548060E7
:1004430007F6E418F618F622181822E9C6CC08C6EF
:10045300CD08C6CE08C6CFC0E0E8C0E0EAC0E0EBF6
:10046300C0E009E9F809E7FA09E7FBE6F918E6F855
:10047300C3EC98ED99EE9AEBC2E7F5F0EFC2E7957E
:10048300F0500E600CEBCFFBEACEFAE9CDF9E8CCE5
:10049300F8EAA2E7D2E7FAEB33FB13F5F0EEA2E7B3
:1004A300D2E7FEEF33FFC5F013A2E730E601B31343
:1004B300C5F0C3C0E0C0F07F00C39BFB605E94182F
:1004C300600F401D14601AD0E023F9D0E0F8020554
:1004D300A98AF0E9486003D2F0E4AFF0FAF9F880B2
:1004E3003BEB30E40D89F0EA6003D2F0E4AFF0F9BE
:1004F300CAF8EB30E30D88F0EF6002D2F0AFF0E41E
:10050300CAC9F8EB54076014FBC3EA13FAE913F9F9
:10051300E813F8EF135002D2E0FFDBEDD0E0C0E0C8
:1005230030E739C3E49FFFF5F0EC98FC42F0ED9916
:10053300FD42F0EE9AFE42F0D0E0F9D0E0F8E5F0AB
:10054300607AE923F9EE20E742D8028067C3EF33EC
:10055300FFEC33FCED33FDEE33FE80EAEC28FCEDDB
:1005630039FDEE3AFED0E023F9D0E0F84002801BDB
:10057300C3EE13FEED13FDEC13FCEF135002D2E0B8
:10058300FF08B800067F7F74FF802EEF3350178C6F
:10059300F020F00260100CBC000C0DBD00080EBE74
:1005A300000408E860DFE933E813FFEE2313FE4F8E
:1005B3004D4C8008E95480FFE4FEFDFCEE33EF333D
:1005C300F47004FCFD7E80D0E0FBD0E0FAD0E0F8CC
:1005D300D0E0CFC618CEC618CDC618CCC6F92212A5
:1005E30016EC7004181818221216FB700D74FFF61F
:1005F3001819F61819F61819F622E7548066F61238
:1006030017AA700F1217A170F014F608F608F6086F
:10061300F680D11217A1700CF608F608768008E66A
:10062300447F80EC121580700C12155860BFE6549D
:1006330080F6E480BB121558700519191980A5E8D6
:1006430069700C763F18768018F618F6E8F922E6FA
:10065300CDC0E018ECC0E0E633CD33CDD313F6E7DD
:1006630019FCE7191933CC33C3947F400ECD9D5049
:100673002408E65480F6E418F6800FF4043D145081
:100683001408E6447FF6187680E418F618F6D0E0EE
:10069300FCD0E0FD22CCD313CCFD18E4C6CBC0E0E4
:1006A30018E4C6CAC0E00808ED08C633E613F61816
:1006B300E433C675F003C3CA97CA09CB97CB199C19
:1006C30040047D08802EBD000302078B16B6FF058C
:1006D3000606081618C3CA33CACB33CB33CA27CA94
:1006E30009CB37CB193CC37D08803E187D0820E732
:1006F3005CC633C6CA33CACB33CB33DDF1D5F0EB9B
:1007030030E77BCA97CA09CB974ACB199C406F4BFA
:100713007025E620E0218066187D08C3CA97CA09C0
:10072300CB97CB199CD3C633C6CA33CACB33CB338F
:1007330050C9DDE7D5F0E1D3E4C636C608C636C6F0
:1007430008C636C608C636C61818188031C3CA97F5
:10075300CA09CB97CB199CB34097C633C6CA33CAD1
:10076300CB33CB33DD34D5F02EC6A2E0C640C8CAA6
:1007730027CA09CB37194A70BECB3CB480B90808E5
:10078300E63308E633601F181818D0E0FAD0E0FB10
:10079300D0E0FCD0E0FD22187D08CA27CA09CB3778
:1007A300CB193CD3808013F618E4B67F11F618B644
:1007B300FF0EF618C60470D20808768080CAF618B1
:1007C300F618F680C5001216EC604F1216FB601285
:1007D300E7548066F612155570111217A1703B0984
:1007E3000909F4F618F618F618F62212157D701595
:1007F3001217AA08080860EAE6447FF618768018FC
:10080300E4F618F6221217AA60161217A17012E462
:10081300F608F608F608E65480F6090909181818C8
:1008230022EAC0E0EBC0E0ECC0E0EDC0E0E687F018
:10083300A4FBACF008E687F0A42CFCE435F0FA182E
:1008430009E687F0A42C4B60027401CA35F0FCE47E
:1008530033FB09E687F0D2F7A42CCB35F0FC19085B
:10086300E687F0A42BCC35F0FBE433FD0819E687CB
:10087300F0D2E7A42C4ACB35F0CD3400FC09E6874F
:10088300F0D2E7A42DCC35F0FDE433FA0918E6875E
:10089300F0D2F7A42CCD35F0CA3400FC08E687F07B
:1008A300D2E7D2F7A42ACC35F07A7E20E70B0ACB25
:1008B30033CBCD33CDCC33CC33CB3350147004EDA9
:1008C30030E00ED2F1E4CD3DCDCC3CCC3B5005DA4B
:1008D30005C2F1EB547FC63308E63392F0FBE733EE
:1008E30009E733C39A502D2B70190C0D4C4D70151D
:1008F3001806E608C333700D20F10AA2F013F6E4DC
:1009030018800B4024E4F630F002768018F618F6CF
:1009130018F68024D33B14501074FFA2F013F6187A
:100923007680E418F618F6800FA2F013F618E63373
:1009330003F618ECF618EDF6D0E0FDD0E0FCD0E0BD
:10094300FBD0E0FA22C0E074F1120E59A2AFE433F7
:10095300F509D2AF85A708AFA1EF5508FE74105E65
:1009630060061219C075A1EF74085E60081219C6FB
:1009730075A1F78024EFA2E092F0E508A2E082F0EF
:100983005017906198E0F890049CE0C398A2D26558
:10099300D0335002E8F075A1FEE509A2E092AF7FE3
:1009A30002020EB8C0E074F2120E59A2AFE433FE95
:1009B300D2AF9061A4E0F8759B00E59158540860AC
:1009C300087591F7121A0E8023E5915854106008A8
:1009D3007591EF121A148014E591A2E092F0E8A247
:1009E300E082F05007E0C2E0F0121B5E9061A3E0EA
:1009F300F8E5E9585404600E121B3475E9FB906165
:100A030093E0A2E640F2EEA2E092AF7F01020EB8BD
:100A1300C0E074F2120E59A2AFE433FED2AF90617C
:100A2300A5E0F8E5BF585404600675BFFB121B76BA
:100A330080D4C3E498F8E499F9120A768026C3E4D3
:100A43009AFAE49BFBE920E7E9120A76E498F8E4D2
:100A530099F922C3E498F8E499F9120A76E498F82C
:100A6300E499F9C3E49AFAE49BFB22EB20E7CFE98C
:100A730020E7E0B90010BB0008E88AF084F8AAF088
:100A830022E4FBC8FA22EB70227B10C833C8C933B7
:100A9300C9335007C39AC3DBF280069A50012ADB9D
:100AA300EAC833F4C8C933F4C9FA2275F008E4C8B4
:100AB30033C8C933C933C99AC99B5004C92AC93B2E
:100AC300D5F0ECFBC833F4C8E4C9FA22C0E0C0D0C7
:100AD300E8C0E0E9C0E0C082C083A8C1E8C0E090FC
:100AE3000409E0F8748828F582E43403F583D0E040
:100AF300F0900408E0F8A3E0687006E59590040B15
:100B0300F0900409E004F0C394804002E4F0A3747D
:100B1300C6F0D083D082D0E0F9D0E0F8D0D0D0E0D6
:100B230032C0E0C0D0E8C0E0E9C0E0C082C083903A
:100B3300048CE0F8A3E0687008539AFBA374018067
:100B430022C2E990048CE0F8740128F0740C28F5B3
:100B530082E43404F583E0F5C190048CE0C394800F
:100B63004002E4F080AC120BB430F039120BF98080
:100B730034120BB420F01430E72B74FFFCFBFA742F
:100B83007F8022E4FCFBFA7480801AB48008BC00E6
:100B9300F2BB00EF800F50EBF9E4C39AFAE49BFB3E
:100BA300E49CFCE499C6CC18C6CB18C6CA18C6F98F
:100BB30022E4C9C608CAC608CBC6D3330308CCC6C9
:100BC3003392F0C3947F402E94184019C9B9070497
:100BD300CACBCC225025C309CA33CACB33CBCC33BF
:100BE300CC33D9F422F4600DC9CCC313CB13CBCAD5
:100BF30013CAD9F6CC22E4FCFBFA2214FCFBFA223A
:100C0300C0E074F2120E59A2AFE433FED2AF9006E5
:100C13002DE05589600FE589FA7900121E229006AE
:100C23002DE0F45289C2C5EEA2E092AF7F01020E1D
:100C3300B8C0E074F2120E59A2AFE433FED2AF9003
:100C4300062EE0558A600FE58AFA7901121E22907A
:100C5300062EE0F4528AC2EB80CDC0E074F2120E8D
:100C630059A2AFE433FED2AF90062FE0558B600F4D
:100C7300E58BFA7902121E2290062FE0F4528BC202
:100C8300E880A4080808EAC0E0EBC0E086F0E7A427
:100C9300FA180986F0E7A42AFA180986F0E7A42AC5
:100CA300FA180986F0E7A42AFA1986F0E7A4FBE507
:100CB300F02AFA190886F0E7A42BFBE5F03AFA19B3
:100CC3000886F0E7A42BFBE5F03AFA18180986F03A
:100CD300E7A4C5F02BFBE43AFA1908E7C5F0C6A46C
:100CE30026F6E5F03BFBE43AFA1886F0E7A4F6E5CE
:100CF300F00826F6E43B08F6E43A08F6D0E0FBD029
:100D0300E0FA22080808E630E7111215B9120D1EA1
:100D1300080808C64480C618181822181818E97954
:100D23009EC608CAC608CBC608CCC6C3702079962F
:100D3300CACBCC7019798ECBCC70137986CC700E5C
:100D4300F9802ACA33CACB33CBCC33CC331930E73F
:100D5300F2CCCBCA3350147004EA30E00DE4CA3A43
:100D6300CACB3BCBCC3CCC500209C3E913C6CC184D
:100D73002313C6CB18C6CA18C6F922E4CFC0E0E4D1
:100D8300CEC0E0E4CDC0E0E4CCC0E075F020E626C0
:100D9300F608E633F608E633F608E633F6181818CD
:100DA300EC33FCED33FDEE33FEEF33FFC3EC970979
:100DB300ED9709EE9709EF97191919400FFFEC9773
:100DC300FC09ED97FD09EE97FE191906D5F0BFEC66
:100DD300F709EDF709EEF709EFF7191919D0E0FC58
:100DE300D0E0FDD0E0FED0E0FF222518C582C0E0B0
:100DF300E51934FFC583C0E0E518C3958224F810D4
:100E0300AF08858319858218800885831985821820
:100E1300D2AFCEF0A3E520F0A37808E608F0A3DE76
:100E2300FAEFF0A3E58124FAF8E608F0A3E608F068
:100E3300A3E608F0A30808E608F0A3E608F0A31564
:100E4300811581D0E0FED0E0F8158115811581E888
:100E5300C0E0EEC0E022C0D02518C582C0E0E5198D
:100E630034FFC583C0E0E518C3958224F310AF08AF
:100E73008583198582188008858319858218D2AFE6
:100E8300C8F0A3E9F0A3EAF0A3EBF0A37908E7091C
:100E9300F0A3D8FAECF0A3EDF0A3EEF0A3EFF0A3E8
:100EA300D0E0F0A3D0E0F0A3D0E0F0A3E520F0A3DE
:100EB300E5F0F0A322851983851882E0C0E0A3E062
:100EC300F9A3E0FAA3E0FBA37808E0F608A3DFFAAE
:100ED300E0FCA3E0FDA3E0FEA3E0FFA3E0C0E0A3EA
:100EE300E0C0E0A3E0F5D0A3E0F520A3E0A3F5F094
:100EF30010AF088583198582188008858319858238
:100F030018D2AFD082D083D0E0F8D0E0321215BC33
:100F1300181818120D7E12168B1919192212168B16
:100F2300191919080808E618181820E7E0120D7EA9
:100F33001215BC18181822090909E719191920E70D
:100F4300DC080808E618181820E703020D7E1215BE
:100F5300BC181818120D7E1215BC18181812168B0F
:100F63001919192212178CB90003020FA6E4900372
:100F73003178DF79128002F0A3D8FCD9FA7A0F7B9B
:100F83001590008678C979018015E493A3AD82AEEC
:100F9300838A828B83F0A3AA82AB838D828E83D8CC
:100FA300E9D9E77582607583B474061213E4758218
:100FB3002275833374001213E475F0108E1A8F1B9D
:100FC30085821F85831E851882851983E0CEA3E061
:100FD300CF851F82851E83EBC9EAC8EDCBECCAC35C
:100FE300E833C8E933C9EA33CAEB33CBC3EA9EF526
:100FF3001DEB9FF51CB35004AB1CAA1DEC33CCEDC9
:1010030033CDD5F0DAAE1AAF1B221216EC601C12E8
:1010130016FB60171217AA70071217A17001D322CB
:10102300C0D01217A17006D0D0B322C32233D0D0C0
:10103300501430E0F6C3E7960809E7960809E796E7
:101043000809E796B32220E0D5E6970809E6970852
:1010530009E6970809E697B322D083D082ECC0E073
:10106300EDC0E0E493A3FCE493A3FDED4C600D120B
:101073001180EC24FFFCED34FFFD80EFE493A3FC2F
:10108300E493A3FDED4C600D121287EC24FFFCEDFD
:1010930034FFFD80EFD0E0FDD0E0FCE493A3C0E09B
:1010A300E493C0E0221216EC601B1216FB601612CA
:1010B30017AA70071217A1600CB322C0D01217A190
:1010C3007005D0D022C32233D0D0501330E0EBC30D
:1010D300E7960809E7960809E7960809E7962220A4
:1010E300E0E4E6970809E6970809E6970809E69712
:1010F30022851983851882E0A3FEE0A3F5207808F2
:10110300E0A3F608DFFAE0A3FFE0A3C0E0E0A3C09A
:10111300E0E0A3C0E0E0A3C0E0E0A3C0E010AF08BC
:101123008582188583198008858218858319D2AF33
:10113300D083D0820213EAD083D082E9C0E0E49363
:10114300A3C386F0C5F095F0F908E493A386F0C530
:10115300F095F0700BE493A3C3994005E904800272
:10116300A3E475F002A42582F582E5F03583F583C7
:10117300D0E0F9E493A3C0E0E493C0E022C0E0C36D
:10118300E49396087401939618400FE493667008ED
:1011930008740193661870007019A3A3C3E49396AF
:1011A300087401939618A3A3400DD0E0D0E0D0E0DB
:1011B300021098A3A3A3A3A3A3D0E022C0E074F2D8
:1011C300120E59C2D9901559E0C39400A2D265D02A
:1011D300334005E0F91221107F01020EB8C0E0741C
:1011E300F2120E59C2DC90155BE0F9C39400A2D24F
:1011F30065D033400312211080DE7404800474022E
:101203008000CCC0E0EDC0E0E518C39CCCAD195024
:10121300011D10AF068C188D1980068C188D19D2FC
:10122300AF121346D0E0FDD0E0FC2274028000CC64
:10123300C0E0EDC0E0E518C39CCCAD1950011D1012
:10124300AF068C188D1980068C188D19D2AF121326
:1012530002D0E0FDD0E0FC221216EC60251216FB52
:1012630060201217AA70030217A1080808E7667026
:10127300101819E766700A1819E76670041819E759
:101283006622F422C0E0C0F088F0E4936670080898
:1012930074019366187000A8F0A3A3700BD0F0D06C
:1012A300E0D0E0D0E0021098A3A3D0F0D0E022D0A9
:1012B30083D082CCC0E0E493A3600612138714703A
:1012C300FAE493A360061214EA1470FAD0E0FCE483
:1012D30093A3C0E0E493C0E022C008C3E096F508FE
:1012E30008A3E096420808A3E096420808A3E09604
:1012F3004208A2D265D033E5087001D3D00822CAD0
:10130300C0E0E493A3C582CCC582C583CDC583F079
:10131300A3C582CCC582C583CDC583DAE5D0E0CA37
:1013230022A2E792D65002F40430F70663F0FF05D9
:10133300F0B3400384800384F40430D60563F0FFE4
:1013430005F022CAC0E0E0A3C582CCC582C583CD27
:10135300C583F0A3C582CCC582C583CDC583DAE638
:10136300D0E0CA22C0E0C0D0C082C08375AF009075
:10137300066BE02401F0A3E03400F0D083D082D0E8
:10138300D0D0E032C0E0E493A3D39C5010E493A305
:10139300C39C400AD0E0D0E0D0E00212CFA3A3A3C5
:1013A300D0E0227009080808226016181818C6C36E
:1013B30033C608C633C608C633C608C633C6D5E027
:1013C300EA22C008C3E096F50808A3E0964208089D
:1013D300A3E096420808A3E09645087001D3D0081D
:1013E30022C09FF59FE473D09F22D083D082C09FF9
:1013F300E493C0E0740193C0E0740293F59F2274F8
:1014030004800A74038006740280027401C0E0F44D
:101413000412141DD0E0121737222518F58210AFDD
:1014230008F518400C15198008F51840021519D253
:10143300AF8519832200C0D0251810AF08F51850C6
:101443000C05198008F51850020519D2AFD0D02227
:10145300C0E0C0D0E8C0E0A8A8D2AFC2C7E8A2E706
:1014630092AFD0E0F8D0D0D0E032BB0102E722C087
:1014730082C08389828A83BB0003E08002E493D025
:1014830083D082226017080808C6A2E713C618C6CD
:1014930013C618C613C618C613C6D5E0E9226016CC
:1014A300080808C6C313C618C613C618C613C61839
:1014B300C613C6D5E0EA222518F8E43519F9222522
:1014C30018FAE43519FB222518FCE43519FD22C36B
:1014D300E0C696F608A3E0C696F608A3E0C696F61D
:1014E30008A3E0C696F622C0E0E493A36C7009D08B
:1014F300E0D0E0D0E00212CFA3A3D0E02225181061
:10150300AF08F518400C15198008F5184002151995
:10151300D2AF22C3E09608A3E09608A3E09608A3FF
:10152300E096A2D265D03322E76670100809E76619
:10153300700A0809E76670040809E76622E0667026
:101543001008A3E066700A08A3E066700408A3E02D
:101553006622181818E60846087009E6260870057A
:10156300E633F4220822C3E49396087401939608A1
:1015730074029396087403939622191919E709477D
:10158300097009E727097005E733F4220922C3E04C
:1015930096F008A3E096F008A3E096F008A3E0967F
:1015A300F022C3E697F60809E697F60809E697F6E8
:1015B3000809E697F622181818E4C396F608E49685
:1015C300F608E496F608E496F622E026F608A3E089
:1015D30036F608A3E036F608A3E036F622E627F649
:1015E3000809E637F60809E637F60809E637F6226A
:1015F300E493F608740193F608740293F6087403EF
:1016030093F622E657F60809E657F60809E657F671
:101613000809E657F622E056F008A3E056F008A3BF
:10162300E056F008A3E056F022E647F60809E6473D
:10163300F60809E647F60809E647F6227004226031
:101643000D18C6C333C608C633C6D5E0F41822E660
:1016530067F60809E667F60809E667F60809E66724
:10166300F622E026F008A3E036F008A3E036F008FF
:10167300A3E036F022E056F608A3E056F608A3E00E
:1016830056F608A3E056F622E4C397F709E497F762
:1016930009E497F709E497F722600D08C6A2E71358
:1016A300C618C613C6D5E0F322C6F4C608C6F4C6E8
:1016B30008C6F4C608C6F4C622C3E09608A3E0969B
:1016C30008A3E09608A3E09622C3E7960809E796E5
:1016D3000809E7960809E7962275D00075813F75DA
:1016E300183175190300020F67E6084608C313464D
:1016F30008336002E633F422E7094709C3134709B5
:10170300336002E733F422600C08C6C313C618C65D
:1017130013C6D5E0F422E6F008A3E6F008A3E6F04A
:1017230008A3E6F022E0F608A3E0F608A3E0F60833
:10173300A3E0F622CAC0E0E6F0A308DAFAD0E0FAA2
:1017430022E0FCA3E0FDA3E0FEA3E0FF22EAF0A376
:10175300EBF0A3ECF0A3EDF022E0FAA3E0FBA3E0AF
:10176300FCA3E0FD22E8F0A3E9F0A3EAF0A3EBF089
:1017730022ECF0A3EDF0A3EEF0A3EFF022E0F8A348
:10178300E0F9A3E0FAA3E0FB22E5C754F84401F52E
:10179300C77901222518F582E43519F58322E72755
:1017A30019471947194722E62618461846184622AC
:1017B300C2AF75D69F020000221213EDA6FA0312E0
:1017C30013EDFAFB031213EDB0FC031213EDAFFD9F
:1017D300031213EDE2FE031213ED10A9061213ED2B
:1017E30091A9061213EDCCAA061213ED19FF0412E8
:1017F30013ED2AFF041213EDC8FF041213EDD3FFF8
:10180300041213EDF47F001213ED65CA061213EDF3
:10181300F5C6061213ED05C7061213ED1AC7061215
:1018230013ED80C7061213EDB2C2061213ED35C3D2
:10183300061213ED9BC3061213ED62B2061213EDEB
:101843009DB2061213EDF8B2061213ED50B3061251
:1018530013EDD6B3061213ED12B4061213ED78CAC4
:10186300061213ED88CA061213ED658C061213EDEA
:10187300BB8C061213ED0A8D061213ED378D06127B
:1018830013ED8D8D061213ED01CA061213EDA0ABF5
:10189300061213EDEAAB061213ED80AC061213ED3C
:1018A30006AD061213ED37AD061213ED4FAD06125A
:1018B30013EDC3AD061213EDD9AD061213EDECAD66
:1018C300061213EDF6AD061213ED7BC1041213EDF0
:1018D3002CC6041213ED41C7041213ED6DC7041295
:1018E30013EDFCC7041213EDC3CA041213EDD1E1C7
:1018F300041213ED34E2041213EDE4E2041213EDC7
:10190300AFE3041213ED04E5041213EDE4E504124E
:1019130013EDE1E6041213EDB9E8041213EDE0E868
:10192300041213ED6CE9041213EDC6EA041213ED6D
:101933003CEB041213ED7AEB041213ED8CEB04125F
:1019430013EDEA9A051213EDB89C051213EDE39D0E
:10195300051213EDA69F051213ED25DE051213EDF7
:1019630051DE051213EDC2E0051213ED02E105127B
:1019730013ED42E1051213ED56E1051213ED6FE18C
:10198300051213ED60E2051213ED05E3051213EDE5
:1019930019E3051213EDFCBA061213ED20BB061270
:1019A30013ED39BB061213ED6BBB061213ED9BBB94
:1019B300061213EDC8BB061213ED2ABC061213ED73
:1019C30039BC061213ED43BC061213ED50BC0612CC
:1019D30013ED7AA6061213ED9AA6061213EDD9A6F5
:1019E300061213EDF4A6061213ED13A7061213ED58
:1019F30079A7061213ED82A7061213EDDFA70612CD
:101A030013ED03A8061213EDC4A8061213EDD1A813
:101A1300061213EDE2A8061213ED8AC7061213EDA0
:101A2300A2C7061213EDCEC7061213ED31F205124B
:101A330013ED8DF3051213ED9BF3051213EDAEF3C6
:101A4300051213EDC3F3051213EDD8F3051213EDCD
:101A5300EBF3051213ED5FF4051213EDC4F4051255
:101A630013ED66F5051213ED2AF6051213ED3AF69A
:101A7300051213ED49F6051213ED5CC6061213EDBC
:101A830080C6061213EDA8C6061213EDD0C60612C1
:101A930013ED3FB0061213ED66B0061213ED84B0DA
:101AA300061213EDF7B0061213EDA7A3061213EDFA
:101AB300C0A3061213EDCCA3061213EDE0A3061286
:101AC30013EDFEA3061213ED08A4061213ED12A4E0
:101AD300061213ED25A4061213EDABA4061213EDA3
:101AE30020A5061213ED4FA5061213ED9DA50612B0
:101AF30013EDECA5061213ED07A6061213ED11A6BE
:101B0300061213ED22A6061213ED65A6061213EDB7
:101B1300EAC8061213EDAEF5041213EDD8F504125C
:101B230013EDF5F5041213ED08F6041213ED1EF68A
:101B3300041213ED7CF6041213EDB4F6041213ED44
:101B4300A8FA041213EDEDFB041213ED20FC0412AA
:101B530013ED83FC041213EDEDFD041213ED15FEDA
:101B6300041213ED2AFE041213ED3AFE041213EDD0
:101B73007EFE041213EDD9FE041213EDE9FE0412E6
:101B830013ED82C1061213ED9CC1061213EDC4C1FD
:101B9300061213EDDDC1061213ED01C2061213ED99
:101BA3001FC2061213ED36C2061213ED64C20612EB
:101BB30013ED7FC2061213ED35C9061213ED4B90D8
:101BC300061213ED5B90061213ED6291061213EDEC
:101BD3009691061213EDB891061213EDDB910612DE
:101BE30013EDF991061213ED3392061213ED989249
:101BF300061213EDDA92061213ED1993061213ED82
:101C03004A93061213ED8193061213ED9B9205126C
:101C130013ED9793051213EDB593051213EDDC93B2
:101C2300051213EDA195051213EDCF95051213EDD2
:101C33008496051213ED4B97051213ED5A9805126E
:101C430013ED8C99051213ED4E84061213EDA38444
:101C5300061213ED1D85061213ED3085061213EDE2
:101C63005785061213EDEA85061213EDC486061294
:101C730013ED0080051213ED2B80051213EDF68092
:101C8300051213ED3381051213EDC481051213ED13
:101C93005485051213ED6787051213ED00800312B7
:101CA30013ED3A80031213ED3A82031213ED73849A
:101CB300031213ED6087031213EDD287031213EDA2
:101CC3006F88031213ED8588031213ED3C89031209
:101CD30013ED8B89031213EDCA89031213EDE48903
:101CE300031213ED108A031213ED138A031213ED7B
:101CF3006C8A031213EDBF8A031213ED778B031261
:101D030013EDB48C031213ED6A8F031213ED839159
:101D1300031213EDB691031213ED1692031213ED92
:101D23006892031213EDEB92031213ED7F930312E8
:101D330013ED9595031213ED3497031213ED6E987B
:101D4300031213ED099A031213ED2A9A031213EDEA
:101D5300B4C4061213EDCEC4061213ED10C5061259
:101D630013ED3EC5061213ED58C5061213ED71C5EA
:101D7300061213ED95C5061213EDADD3051213ED3F
:101D830001D4051213EDD1D4051213EDFED40512BF
:101D930013ED2BD5051213ED7DD5051213EDA7D544
:101DA300051213EDCBD5051213EDF3D5051213ED83
:101DB30033D6051213EDBDD6051213EDEED605127B
:101DC30013ED15D7051213ED5BD7051213ED79D774
:101DD300051213ED9DD7051213EDBDD7051213EDB3
:101DE300F3D7051213ED52D8051213EDC1D805121E
:101DF30013ED3AB0051213ED74B0051213EDAFB144
:101E0300051213EDC7B2051213EDEDB6051213ED6E
:101E130016CE051213ED50CE051213ED04CF0512A5
:101E230013EDECFE021213ED5DFF021213EDBFFF83
:101E3300021213EDC3C2051213EDD4C3051213ED41
:101E4300E5C4051213ED33C6051213ED89C6051259
:101E530013EDC7C6051213EDD5C6051213ED66C8FB
:101E6300051213ED5B9A061213EDBD9A061213EDDC
:101E7300B99C061213ED2EE8051213ED6FE8051257
:101E830013EDA5E8051213EDCCE9051213ED68EB8C
:101E9300051213ED08EC051213ED2DE3051213EDF6
:101EA3007FE6051213EDFFE6051213ED94B9061252
:101EB30013EDD1B9061213ED05BA061213ED18BAD4
:101EC300061213EDD993061213EDEC94061213EDDB
:101ED300AE95061213ED5996061213ED859606126A
:101EE30013EDFC96061213ED5ABC061213ED6CBCEF
:101EF300061213ED7FBD061213ED82BD061213ED1C
:101F030000BF061213ED36BF061213ED50BF0612C3
:101F130013ED92BF061213EDA2BF061213ED3CC0E0
:101F2300061213ED63A2051213ED6DA2051213ED54
:101F3300A7A2051213ED10A3051213ED2DA305128D
:101F430013EDCFA3051213EDD8A3051213ED1DA4B2
:101F5300051213ED46A4051213ED53A4051213ED58
:101F6300C4A4051213ED4FA5051213ED9DA505128B
:101F730013EDDBA5051213ED40A6051213ED63A6C1
:101F8300051213EDDAA6051213ED31A7051213EDB1
:101F93006CA7051213EDA1A7051213EDB3A7051244
:101FA30013EDC5A7051213EDE4A7051213EDEDA775
:101FB300051213EDA8A8051213EDF4A8051213EDED
:101FC30032A9051213EDAFBD061213EDEFBE0612D3
:101FD30013ED09AE061213ED3FAE061213ED87AEF5
:101FE300061213EDE0AF061213ED0FC8061213ED40
:101FF300C9AF031213EDEDB0031213ED27B10312B2
:1020030013EDD1B2031213EDFBB2031213ED70B54E
:10201300031213EDB0B5031213ED46B7031213ED1C
:10202300E3B7031213ED35B8031213EDD8B8031257
:1020330013ED10B9031213ED52B9031213EDC1BA24
:10204300031213ED0FBC031213ED40BE031213ED85
:102053006EBE031213ED95BE031213ED9EBE031263
:1020630013EDEEBE031213ED80BF031213EDAFC2E7
:10207300031213ED32C3031213EDEAFF011213ED42
:102083006188061213ED7788061213ED1B89061279
:1020930013ED5A89061213ED7789061213EDA889F9
:1020A300061213EDF589061213ED288A061213EDB5
:1020B300638A061213ED588C061213EDF6BC051253
:1020C30013ED1CBF051213ED4EC0051213ED66C0D0
:1020D300051213ED26ED051213ED61EE051213ED56
:1020E300F3EF051213ED5EA9051213ED62AA0512B3
:1020F30013ED7EAB051213ED99AC051213ED6FAD25
:10210300051213ED42B6061213EDB8B6061213ED1F
:102113000080041213EDC580041213EDD280041263
:1021230013ED7B81041213EDDA81041213ED4B835B
:10213300041213EDC383041213ED8585041213ED0A
:10214300B185041213EDB487041213EDDC87041276
:1021530013ED3D88041213ED9888041213EDE989F9
:10216300041213ED3C8A041213EDC18A041213ED19
:1021730071C8051213ED98C8051213EDECCA0512C8
:1021830013ED13CB051213ED68CB051213ED9ACCA7
:10219300051213ED16CD051213EDB4C3061213ED9C
:1021A30013C4061213ED51C4061213ED92C40612A2
:1021B30013ED909C041213EDF99C041213ED449D4E
:1021C300041213ED7F9D041213EDF49F041213ED1B
:1021D3000EA4041213ED2EA6041213ED3CA7041251
:1021E30013ED16A8041213ED8CF9011213EDC6F9C1
:1021F300011213EDFFFA011213EDA5FC011213ED09
:10220300D2FC011213ED75FD011213EDD8FD01127D
:1022130013ED0FFF011213EDAFC5061213EDF9C550
:10222300061213ED14B7051213ED71B7051213ED72
:102233004FB8051213ED40B9051213ED6CB9051231
:1022430013ED48BA051213ED64BA051213EDFDBA86
:10225300051213ED86BB051213ED46C0061213EDEE
:1022630055C0061213EDB5C0061213EDEBFF0412B1
:1022730013ED3EB6041213EDA9B6041213EDA7B77E
:10228300041213EDBDB8041213ED43B9041213ED98
:102293001CBA041213EDFCBA041213ED1EBC041293
:1022A30013ED37BD041213EDC0BF041213ED00800C
:1022B300021213ED0C80021213ED6E80021213ED65
:1022C3007880021213ED0B81021213ED4781021283
:1022D30013ED0782021213ED1482021213ED7782BB
:1022E300021213ED0C83021213ED4283021213ED5B
:1022F300BF83021213ED5F85021213ED33870212BF
:1023030013ED1488021213ED5E89021213EDC08BD4
:10231300021213ED258D021213EDBA8D021213ED85
:10232300ED8E021213EDE18F021213ED1A910212D8
:1023330013EDB095021213ED9D96021213ED35972E
:10234300021213ED5A97021213ED8697021213ED40
:102353001E98021213ED3498021213ED56980212CE
:1023630013EDBC98021213EDDB98021213ED0499DE
:10237300021213ED249A021213EDFA9A021213EDCC
:102383006F9C021213ED909C021213ED119D021229
:1023930013EDB79D021213EDFF9D021213ED709E14
:1023A300021213EDFC9E021213ED609F021213ED55
:1023B300C09F021213ED6FA0021213EDDBA00212F5
:1023C30013ED0EA1021213ED8CA1021213EDE8A27C
:1023D300021213ED58A3021213EDEAA3021213ED36
:1023E3004DA5021213EDD4A5021213ED39A6021264
:1023F30013ED67A8021213EDF3A9021213ED03AA5A
:10240300021213ED37AA021213EDA5AA021213ED5D
:10241300E0AA021213ED42AB021213EDD7AB021284
:1024230013EDB2AD021213ED7DAF021213ED87B0BF
:10243300021213ED84B4021213ED51B5021213ED1F
:1024430069B6021213ED13B8021213ED347C0012B5
:1024530013EDA47C001213EDB27C001213EDC07DCA
:10246300001213ED89EF041213ED6D8F041213EDB7
:102473007490041213EDF290041213ED34920412CB
:1024830013ED5592041213ED0D93041213EDB8934B
:10249300041213ED9897041213EDB499041213ED7B
:1024A3001B9B041213ED7BC9061213ED7AE502128E
:1024B30013EDD2E5021213ED58E6021213ED6AE7AB
:1024C300021213EDB7E7021213ED9DE8021213EDAA
:1024D300B4E8021213ED06E9021213ED3EE902120B
:1024E30013ED51E9021213EDA7E9021213ED00EA0D
:1024F300021213ED18EA021213EDC4F7031213EDDF
:1025030044ED021213ED6EED021213EDA6ED02126D
:1025130013EDCCEF021213ED12F0021213ED5CF087
:10252300021213ED30F1021213ED71F1021213EDE9
:1025330094F1021213EDDBF1021213EDFBF102121F
:1025430013ED7CF2021213ED00F3021213ED5AF3B2
:10255300021213EDA2F3021213EDABF4021213ED08
:102563006BF7021213ED97F8021213EDD4F802126F
:1025730013ED9BF9021213EDDBF9021213EDDEF9F1
:10258300021213EDE8F9021213EDFBF9021213ED37
:1025930080FA021213EDB6FA021213EDE2FA0212F6
:1025A30013ED09FB021213ED2DFB021213EDC4FB15
:1025B300021213EDDDFB021213ED10FC021213EDF8
:1025C30030FC021213ED6DFC021213EDA4FC021297
:1025D30013EDA3FD021213EDD6FE021213ED78FFE5
:1025E300051213ED84FF051213EDCAFF051213ED57
:1025F30082F6051213EDC0F6051213ED4CF7051222
:1026030013ED57F8051213ED73FA051213ED7FC39B
:10261300031213EDA2C3031213ED79C4031213EDD6
:10262300C2C4031213ED1AC5031213ED74C50312CA
:1026330013EDC0C5031213ED36C6031213EDC4C662
:10264300031213ED3CC7031213ED7FC7031213EDFF
:102653004DCB031213ED94CD031213EDCECD031224
:1026630013ED58CE031213EDD7CE031213EDA4CFFF
:10267300031213EDD0D0031213EDBBD1031213EDEC
:102683008FD2031213ED13D4031213EDA9D4031243
:1026930013EDCAD6031213ED6AD7031213EDD4D781
:1026A300031213ED7BD8031213EDDFD8031213EDDE
:1026B30012DA031213ED38DB031213EDB1DB03124D
:1026C30013ED89DD031213ED29DE031213EDCCDEC6
:1026D300031213ED2BDF031213EDE6DF031213EDE9
:1026E300ACE1031213ED4FE3031213EDFBE303120B
:1026F30013ED10E5031213ED439B031213EDBB9B84
:10270300031213ED039C031213ED479C031213ED05
:10271300909C031213EDDA9C031213ED0F9D031229
:1027230013ED8D9D031213EDE79D031213ED409FEF
:10273300031213EDC99F031213ED25A0031213ED2A
:102743003FA0031213ED66A0031213EDBEA0031204
:1027530013ED28A2031213ED47A2031213ED6FA387
:10276300031213EDECA3031213ED59A4031213ED9B
:10277300BBA4031213ED6BA5031213ED3DA70312C4
:1027830013ED28A8031213ED22A9031213ED28AAAF
:10279300031213ED44AB031213ED52AB031213ED0B
:1027A3002BAC031213EDCBAC031213ED0FAD0312DD
:1027B30013ED24AD031213ED35AE031213EDD8AEB2
:1027C300031213ED30AF031213ED2497061213ED2A
:1027D300CC98061213ED8999061213EDDE990612B1
:1027E30013ED7F9D061213ED9A9D061213EDDE9DE8
:1027F300061213ED049E061213ED2A9E061213ED24
:10280300429E061213EDA59E061213EDBA9E061202
:1028130013EDDC9F061213EDE59F061213EDEE9FF9
:10282300061213EDF79F061213ED01A0061213ED26
:102833000080061213EDE083061213EDE583061202
:1028430013EDE783061213EDCFB4061213ED81C81F
:10285300061213ED39CA061213ED08B8061213ED6A
:10286300D67F001213ED9DD5011213EDF4D501129D
:1028730013ED60D6011213EDECD6011213EDA2D7BE
:10288300011213EDEAD7011213ED03D8011213ED70
:1028930026D8011213ED48D8011213ED86D8011280
:1028A30013EDD5D8011213ED00D9011213ED5ED942
:1028B300011213ED05DA011213EDADDA011213ED76
:1028C30029DB011213EDF6DB011213ED42DC0112D9
:1028D30013EDCADC011213ED03DD011213ED94DDD8
:1028E300011213EDA5DD011213ED17DE011213ED35
:1028F300B0DE011213ED1ADF011213ED0AE001122B
:1029030013ED2FE0011213ED2CE1011213ED39E168
:10291300011213ED42E1011213ED2BE3011213ED4A
:1029230047E4011213EDD8E4011213ED49E5011256
:1029330013ED23E7011213EDEEEA011213ED02EB9F
:10294300011213ED12EB011213ED1CEB011213ED47
:1029530025EB011213ED2EEB011213ED38EB0112EF
:1029630013ED67EB011213ED95EB011213EDA0EBE1
:10297300011213EDC4EB011213EDE8EB011213ED99
:102983005AEC011213EDA3EC011213EDBFEC01128B
:1029930013ED30ED011213ED7CED011213EDC5EDD6
:1029A300011213ED03EE011213ED84EE011213ED88
:1029B3004FF0011213EDEEF0011213EDB6F1011217
:1029C30013ED42F4011213ED97F4011213EDBFF46A
:1029D300011213EDF2F5011213ED37F6011213EDA7
:1029E3008CF6011213ED3AF7011213EDDFF7011222
:1029F30013ED14F8011213EDB4F8011213ED30F9CD
:102A0300011213ED7484011213EDA684011213ED68
:102A1300DA84011213ED8E86011213ED628701121F
:102A230013EDC187011213EDD788011213ED23892A
:102A3300011213EDC08B011213ED358E011213ED4C
:102A4300818F011213ED1990011213ED25900112DC
:102A530013ED6E90011213EDA190011213ED2D9160
:102A6300011213ED3F92011213ED8093011213ED46
:102A73007F94011213EDA994011213ED1495011221
:102A830013ED6D95011213EDE095011213ED1698F8
:102A9300011213ED9C99011213ED879A011213EDA4
:102AA300D59B011213ED0D9E011213ED04A101122A
:102AB30013ED13A1011213EDA7A1011213ED52A2FD
:102AC300011213ED95A2011213EDDEA2011213ED13
:102AD3002EA3011213ED9BA3011213ED07A4011200
:102AE30013ED23A4011213ED52A4011213ED91A4CB
:102AF300011213ED79A5011213ED28A6011213EDAE
:102B03009FA8011213EDD1A9011213EDA0AA01127E
:102B130013ED22AB011213ED6EAF011213ED9DAF56
:102B2300011213EDF8AF011213ED2BB0011213EDE7
:102B330086B0011213EDA2B0011213ED03B101121D
:102B430013ED53B1011213ED02B2011213EDC5B22D
:102B5300011213ED8DB3011213EDD9B5011213ED6B
:102B630065B7011213EDBCB8011213EDD8B9011208
:102B730013EDDBB9011213ED0ABA011213EDF9BB20
:102B8300011213EDC2BC011213ED03BD011213EDCB
:102B930059BE011213EDCFBE011213ED02BF011294
:102BA30013ED66BF011213ED87C1011213EDE6C1E8
:102BB300011213EDBCC2011213EDD0C2011213EDC9
:102BC300E4C2011213ED11C3011213ED41C301124B
:102BD30013EDE5C4011213EDE2C5011213ED30C686
:102BE300011213ED57C6011213ED32C7011213ED93
:102BF300D8C7011213ED5EC9011213EDA5C9011265
:102C030013ED12CA011213ED67CB011213ED10CCB1
:102C1300011213ED44CC011213ED5CCC011213ED40
:102C2300FFCC011213ED7BCF011213ED23D101125F
:102C330013ED47D1011213ED65D1011213ED31D21A
:102C4300011213ED7FD5011213EDEA3A001213EDD1
:102C53001C3B001213ED9C3F001213EDEB3F0012DF
:102C630013ED3140001213EDD440001213ED39413E
:102C7300001213ED7D41001213EDE442001213ED37
:102C83001044001213ED0D48001213ED8C4800128E
:102C930013EDB249001213ED154A001213ED614B07
:102CA300001213EDF94D001213ED864E001213EDD1
:102CB300904E001213EDB84E001213ED804F001228
:102CC30013ED1550001213ED3E50001213ED6B502F
:102CD300001213EDC052001213ED8D53001213EDC9
:102CE300CC53001213ED4E54001213EDF95400129D
:102CF30013ED2B55001213ED7655001213EDAF555E
:102D0300001213EDFE55001213ED5A56001213ED87
:102D1300DC56001213ED4157001213EDB9570012A0
:102D230013ED6259001213ED5A5A001213ED9B5B17
:102D3300001213EDEF5E001213ED4B61001213ED61
:102D43000462001213ED4C62001213ED2D640012A5
:102D530013ED6864001213ED7164001213ED7A64CD
:102D6300001213ED8564001213EDA464001213ED39
:102D73005765001213EDB465001213EDBE65001222
:102D830013EDC865001213ED1466001213ED5C66B3
:102D9300001213ED6067001213EDF967001213EDD3
:102DA300C068001213EDEA69001213ED156B0012EF
:102DB30013ED0B6C001213ED236C001213ED576C23
:102DC300001213ED756C001213EDBD6C001213EDC0
:102DD300F66C001213EDAD6D001213ED6E6E001262
:102DE30013EDE16E001213ED5D6F001213EDF96F39
:102DF300001213ED1F71001213EDDB71001213EDBE
:102E03007B72001213ED6873001213EDC07300128E
:102E130013ED8674001213EDA974001213EDBE7541
:102E2300001213ED0976001213ED6576001213ED0F
:102E3300CD76001213EDF176001213ED197700121F
:102E430013ED5E77001213ED8277001213ED06780F
:102E5300001213EDEF78001213ED3479001213ED25
:102E63005D79001213EDFB79001213ED667A0012FF
:102E730013ED927A001213ED737B001213ED51D709
:102E8300041213ED89D7041213EDAAD7041213ED1C
:102E9300ECD7041213ED50D8041213ED5AD80412D0
:102EA30013ED6AD8041213EDA1D8041213ED4ADC12
:102EB300041213ED12DE041213EDF6DF041213ED08
:102EC30098E0041213ED22E1041213ED56BB021233
:102ED30013EDBABB021213ED18BC021213ED63BC5F
:102EE300021213ED7EBC021213EDA5BC021213ED08
:102EF300C2BC021213EDCEBC021213ED5FBE02126E
:102F030013ED78BE021213EDF4BE021213ED07BFE8
:102F1300021213ED17BF021213EDBBBF021213ED22
:102F230027C1021213ED3AC2021213EDDAC20212E2
:102F330013EDE4C2021213ED63C3021213ED74C363
:102F4300021213EDB3C3021213EDE1C3021213ED28
:102F5300AEC4021213ED05C5021213ED3EC50212F3
:102F630013ED94C5021213EDB2C5021213ED00C6A0
:102F7300021213EDCBC6021213ED19C7021213EDA1
:102F830066C7021213EDE9C7021213ED13C802124A
:102F930013ED49C8021213ED58C8021213EDB7C856
:102FA300021213ED2FC9021213ED70C9021213EDB1
:102FB300C0C9021213EDEBC9021213ED05CA0212C6
:102FC30013ED1FCA021213EDF4CA021213EDFECA67
:102FD300021213ED39CB021213ED49CB021213ED9A
:102FE30052CB021213EDA3CB021213EDB7CB021295
:102FF30013EDD9CC021213EDEECC021213ED81CDF9
:10300300021213EDF5CD021213ED9ACE021213ED57
:10301300A5CE021213ED05D0021213ED21D0021238
:1030230013ED6DD0021213EDDBD0021213ED0DD1AF
:10303300021213ED27D1021213ED69D1021213ED1F
:10304300BCD3021213ED54D4021213EDCBD40212EB
:1030530013ED28D7021213ED40D7021213ED43D715
:10306300021213ED4FD7021213ED63D7021213EDC1
:103073006BD7021213EDA2D7021213ED96D80212E8
:1030830013ED20D9021213EDA2D9021213ED22DAA5
:10309300021213EDF9DA021213ED1BDB021213ED28
:1030A300B4DB021213ED11DC021213ED14DC021275
:1030B30013ED83DC021213EDCFDD021213EDE2DE1A
:1030C300021213ED6DDF021213ED80E0021213ED15
:1030D30045E1021213ED76E1021213ED9CE10212B7
:1030E30013EDA5E1021213EDD4E1021213ED84E214
:1030F300021213ED34E3021213EDA7E3021213EDF0
:103103004AE4021213EDBDE4021213EDFCE40212D1
:1031130013ED45E5021213ED6CEE041213ED21EEEF
:10312300041213ED86ED041213EDF7EB041213ED05
:1031330046F3031213EDCBF1031213EDC9F003129F
:1031430013ED8AEE031213ED34EE031213ED77EC55
:10315300031213EDEEE9031213ED68E9031213ED05
:10316300F0F6031213EDF0F5031213ED24E8031246
:1031730013EDE0E6031213ED11F5031213EDBADDBF
:10318300051213ED59E6031213ED98A1061213ED80
:1031930070A1061213ED03A1061213EDA3A00612EC
:1031A30013ED65B5041213ED8BB4041213EDC1B323
:1031B300041213ED30B2041213EDF9B1041213ED3E
:1031C300CBB1041213ED7FB1041213EDE8B0041276
:1031D30013ED58B0041213ED32B0041213EDE7AF40
:1031E300041213EDB1AF041213ED34AF041213ED57
:1031F300CFAE041213ED7EAE041213EDA6AD04128E
:1032030013ED16AD041213EDCAAC041213ED45AC65
:10321300041213ED00AC041213EDE4AB041213ED2E
:103223001DDD051213ED8CAA041213EDD5D9051279
:1032330013ED52D9051213EDFFD8051213EDDAC9B8
:10324300061213EDBFC9061213ED50F4041213ED69
:10325300F2F2041213ED89F2041213ED5EAA0412C2
:1032630013ED2BAA041213EDAFA9041213ED4FFDB6
:10327300051213ED20F2041213ED40FC051213EDB9
:103283007AFB051213ED01FB051213ED06D70412A9
:1032930013ED00F1041213EDADD6041213EDADECF2
:1032A300021213ED78D6041213ED43D6041213ED74
:1032B3000FD6041213EDA2D5041213ED8AD504120E
:1032C30013ED65D5041213ED3ED2041213ED11D0A4
:1032D300041213ED18CE041213EDA4CD041213ED52
:1032E30055CD041213ED0FCD041213EDB1CC04121E
:1032F30013ED618F051213ED42F0041213EDCF8E1F
:10330300051213EDE48D051213ED6C8C051213ED0C
:10331300278A051213ED6289051213EDB68E040098
:10332300000080FBE4730000000020016F840000B4
:10333300010020016F84000002002001738400005B
:103343000300200170840000040042016D8000002E
:10335300050042017E80000006004201A0800000BB
:1033630007002001AB80000000404201A080000064
:10337300100042018F8000001100200101070000AE
:10338300120010033A150600000010110000080097
:103393000000203300000C005500393300000C00FE
:1033A3001C004233000012005500200100001400ED
:1033B3000E0042220000050B000021010000050B56
:1033C300010021010000050B000123010000050B92
:1033D300010123010000050B020123010000050B7D
:1033E300030123010000050B040121010000050B6B
:1033F300050121010000050B060121010000050B59
:10340300070121010000050B080121010000050B44
:10341300090121010000050B0A0121010000050B30
:103423000B0121010000050B0C0121010000050B1C
:103433000D0121010000050B0E0121010000050B08
:103443000F0121010000050B100121010000050BF4
:10345300110121010000050B120121010000050BE0
:10346300130121010000050B140121010000050BCC
:10347300150121010000050B160121010000050BB8
:10348300170121010000050B180121010000050BA4
:10349300190121010000050B1A0121010000050B90
:1034A3001B0121010000050B1C0120010000050B7D
:1034B3001D01280100008F0001003D13870001005A
:1034C300AB153500040070152500020074152600A5
:1034D30002007615270002007815280001008215E6
:1034E300290001008315840004008415860001006F
:1034F30088152A00010089152B0001008A152C006C
:1035030001008E152D00080020132E0001008F15D9
:103513002F000100901530000100911531000100CA
:1035230092153200010028133300010029133400DF
:1035330001009315360001002A1338000100941589
:10354300390001008D1583000200A91563000100F5
:103553003A13640001008B15650001008C156D00A2
:1035630001003B1371000800181366000100A81541
:10357300430001009915440002009A15450001001B
:103583009C15460002009D154700080032134800B1
:1035930001009F154B000100A01504000100AC15AC
:1035A300A1000100AF1537000100AE15880001002E
:1035B300AD153C0001002B133D000100951549009A
:1035C3000200A115670001003C134D000200A31582
:1035D3004E000100A5154F000200A6153E00010094
:1035E3003113510001009615520001009715530045
:1035F30001009815540001002C1300000000000086
:10360300000136360101000102010001030100013E
:103613000401060605020000070100340801000F3B
:10362300090401010D0100FF0E080000170200004C
:10363300190100FF1A0100011B0100FE1C01000813
:103643001D0200001F0100012001000121020000F2
:103653002301000F240200002601000127010008B6
:10366300280200FF2A0100072B0102402C01000061
:103673002D0100012E0100012F0100FF30010B1D60
:10368300310800003A0100083B01000F3C01000132
:103693003D0100FF3E040000420400004604000018
:1036A3004A0400004E0400005204000056040000C7
:1036B3005A04000000002101000100210200000162
:1036C300236600010123670002012368000301232D
:1036D30069000401216A000501216B000601212C08
:1036E300010701212D010801212E010901212F01CB
:1036F3000A012130010B012131010C0121C8000D08
:103703000121C9000E0121CA000F0121CB001001C4
:1037130021CC00110121CD00120121CE0013012182
:1037230032011401213301150121CF001601213487
:1037330001170121D000180121D100190121D20064
:103743001A0121D3000103710301030103010301E2
:103753000301032203020301031003000300030018
:1037630003000300030003000342030003240306D2
:103773000300030003040312032503230325032388
:1037830003040304030003000300034403000300D2
:1037930003230300036503210035038103000305AD
:1037A3000300030003000300032503230303027143
:1037B3000230016002110270020102020202028061
:1037C30002100261023A0041006302730272026254
:1037D3000243020002130238000002000204021234
:1037E3000200020002000200020402040237003752
:1037F300003C02440200023900000200026502009C
:1038030002350281020002050282028302000203E2
:10381300007100300160001100700031022003507C
:103823000480001000610000001400630073007244
:1038330000620043000000130006000000000004C3
:103843000012000000000000000000040004003724
:103853000037003C02440000000000000000006547
:103863000000003500810000000500000083000017
:103873000001017101010101011101010131010186
:103883000101018001100161013B00140063017318
:10389300017201620143010001130106013D01357B
:1038A30000040112010001000100010001040104F0
:1038B30001330133013C01440132013600000100B0
:1038C30001650100013500810100010501820183C9
:1038D30001000136000100060000000F0000000097
:1038E30000000000000000000003FFFF00000403CD
:1038F300FFFF0000FFFF0FF4010005C404032000D5
:103903000100000B000000000000000003010F0095
:1039130000000000000000000000000000000000A4
:103923000000000000000000000000000000000094
:1039330000C2231C24C823CC22CE232224CE232E30
:1039430024D423CC22CE232224DA23CC22E023CC7A
:1039530022E623CC22EC23CC22F223CC22F823CC64
:1039630022FE2334240424CC2200000000000000A3
:1039730000000000000A2446241024CC220A244616
:10398300241024CC22FE2334241624CC220A000043
:103993000002000000040000000800000010000006
:1039A3000020000000400000008000000000010033
:1039B30000000200000004000000080000001000E6
:1039C3000000200000004000000100AA2602002C95
:1039D30026030032260400382605003E2606004A48
:1039E300263000622633006E263400742611007AD6
:1039F300261400802615005C26FFFF000007ECFD5F
:103A0300FDFDECDCDCCCBCACAC9C9C8C7C7C6C6CA1
:103A13005C5C5C4C4C3C3C2C2C1C1C03EAF5E5D553
:103A2300D5C5B5A595958585757565655555454583
:103A3300353525251515050ABC2C028C2C059E2C25
:103A430007922C0C742C0D802CFF000000160F0025
:103A5300000B150B020002220F3300000E010305B9
:103A630007090B0D0F00020406080A0C0D5A6967BB
:103A7300426565416C6C69616E6365303900393D3F
:103A83003F373C3C362C442D00034A49434E181A19
:103A930025050200011916181616182303003030E5
:103AA30017181921301B1D1F300C0E020B040B0AB3
:103AB3000708000F303016181920231A1C1E300275
:103AC3000402010101010902E803000000BE040A27
:103AD300E8030E00FF1E10040903040A0C04040883
:103AE300280C050832031E74F7120DEDE990140833
:103AF300F09013BDE4F0121EE8901411E4F0A3F06B
:103B0300901409F0A3F0122E1E121EEE90134DE432
:103B1300F0A3F012281202565574EC120DED74D76F
:103B2300121500EAFEEBFF54806068901408E0F978
:103B3300121F608A088B09EA4509604F7C008001E7
:103B43000CEC75F003A4F8A9F0743A28F582743AE2
:103B530039F583E493F4602CE493F88508828B832E
:103B6300E06870DCAA08EC75F003A4F8743B28F550
:103B730082743A39F583E493C0E0740193F583D0FA
:103B830082123327AA08AB09121F4EEEFAEF6480A4
:103B9300023F7EEF5420601E122D168A088B09EA1D
:103BA3004509600A122C80AA08AB09121F4EEEFACF
:103BB300EF6420023F7EEEA2E0501F9013C2E06448
:103BC3000F70117900122C56E960099015701217C5
:103BD3005C122C6EEE6401023F53EF5440604F9031
:103BE3001560E064067028740BF0901588E0F97591
:103BF3000801750900750A00750B009013B0E07891
:103C0300081213A6AA08AB09AC0AAD0B122902903D
:103C1300132D1211FD7A007B40901408E0F9122055
:103C23009E7404121438EEFAEF6440023F7EEE54A1
:103C3300207003023F577A207B00901408E0F912AA
:103C430020AAEA4B4C4D701A90140D121780E849C4
:103C53004A4B700E750C01750D00750E00750F0043
:103C63008061750C00750D00750E00750F00122034
:103C7300B68A088B098C0A8D0B90140D121780E8F5
:103C8300494A4B602A90140D78081213C5400E75EB
:103C93000CFF750DFF750EFF750FFF801285080C65
:103CA30085090D8C0E8D0F90140D780C1214D2749F
:103CB30001780C1214A1E50C450D450E450F700358
:103CC300023E847C0079047A007B00122CF28A087D
:103CD3008B09023DAB85188285198374FFF074014B
:103CE30012179774FFF0740212179774FF124B4464
:103CF300FAA3E0FB74031214CA126BF0126461128C
:103D03002D34E964016003023D8DE508125A4D121A
:103D130052944480F8A3E0F97424121797E8F0A3AF
:103D2300E91263CCA3A3A3E0C0E07426121797D0D3
:103D3300E01269E2A3E0540860167424121797A3F3
:103D4300E04401123F96C0E07428121797D0E0F0C8
:103D53001277DB3509126CEE60181277DB1263827F
:103D6300A3E0C8127AF2E0F87412121797E8F0A3EE
:103D7300E4F090839B1211FD74041214CA740712A9
:103D830014C21229327404121438850882850983F7
:103D9300A3A3A3A3A3A3A3A3A37406123F96F912F9
:103DA3002CD4850A08850B09E50845097003023EF2
:103DB300847C007904AA08AB09122CF28A0A8B0BC3
:103DC300850882850983A3A3A3A3E0F510A3E0F5E7
:103DD30011E4F512F513780C79101216CC4029E58D
:103DE300082404F8E43509F9850C10850D1188823F
:103DF3008983C3E09510F0A3E095111242DFF8A385
:103E0300E0F9E849709C800E850882850983A3A3A5
:103E1300A3A3E4F0A3F0850882850983A3A3A3A346
:103E2300A3A3A3A3A3A3E06401850882850983A3B5
:103E3300A3A3A3A3A3702BE054046003023CD8857F
:103E43000882850983A3A3A3A3A3A3A3A3A374069F
:103E5300F07AB78508828509831240CB122C680259
:103E63003DA5A3A3A3A3E06003023CD885088285F4
:103E73000983A3A3A3A3A3A3A3A3A37401F0023D54
:103E8300A5122CC27C0079017A007B00122CF28BE4
:103E930009EA4509600C7A207B00901408E0F912C6
:103EA3001F8A850C0A850D0B7C0079047A007B0040
:103EB300122CF2EA4B701580538A828B83A3A3A33F
:103EC300A3127586E50898E5099940078A828B83D2
:103ED3001256C07C007904122CF28B0DA90DEA490D
:103EE30070D7C3E50A9508E50B95095013C3E50898
:103EF300950AF508E509950BF509E50845097016D6
:103F03007A207B00901408E0F9121F8A90140D1296
:103F13003F8FA3F08037E50825E0F508E50933F581
:103F230009E4F50AF50B78081214027A207B009055
:103F33001408E0F912209874041214381220B6EA17
:103F4300F8EBF9ECFAEDFB90140D121768EE642010
:103F5300FAEF8027EF5402600A122E18EEFAEF648C
:103F6300028018EF540460161268A379019013BB02
:103F7300126463122944EEFAEF6404FB80047A00AE
:103F83007B0074291214387F0C0210F4E4F0A3F0C0
:103F9300A3F0221263D0A3E022C082C08374EA128A
:103FA30015007C167D007900AA18AB19121F367410
:103FB300081217977402F09013B1126C01123FDFCD
:103FC3007409121797126B0F7413121797E4126781
:103FD300F31228067416121438026443E8F0A3E9B6
:103FE300F09013BB125EE02274F7120DED74DA1237
:103FF3001500EAFEEBFFEE4F602DAC18AD19122D44
:10400300347406121797E0601E7417121797E0FDB9
:104013007401121797E0FCEEFAEFFB7900122C2CD7
:10402300E9600479A480027900742602565274F779
:10403300120DEDEAFEEBFF8E828F83A3A3A3A3A34E
:10404300A3E05440601712754A126463122DC4E949
:1040530060067AFF7BFF801512754A80039013B1C7
:1040630012646374FE6A700374FF6B604712754ACF
:10407300127119122DC4E98E828F83600E125B892F
:10408300125A4D38F583E4F0A38003127B1DF07CB4
:104093005C7D2C8E828F8312646312280CE9F508F1
:1040A3007015EE4F60097901EEFAEFFB122CCEA9E1
:1040B300080256557508CDAA081240C7122C68E9A4
:1040C30060E080EB8E828F83125B8D127AD5E0F9EC
:1040D3002274F6120DEDE9FEEAFF7A0F7B00121F40
:1040E30048EA4B601F8A828B83740CF0EEA3A3F023
:1040F300EF8A828B83125432901408E0F9121F5412
:104103007900802FEEF9122CF88A088B09A808A9E8
:1041130009E849601C88828983A3A3A3A3A3A3A35B
:10412300A3A374061277E3E0F91229D4EEF9122C53
:10413300D479100267B174F4120DED8A088B098CDF
:104143000A8D0B9013C2E0640F702CEA4509450AEF
:10415300450B60239013BDE064086005E0640470C0
:104163001678081214027A017B00901408E0F91201
:104173002098740412143802440B74F4120DED7475
:10418300FC121500EAFEEBFF8E828F83A3A3E0F9F6
:10419300122CF88A088B09EA450970030242BA8E89
:1041A300828F83A3A882A983E0C0E0EA240B126371
:1041B3007FD0E01242DF64F160288E828F83A3E018
:1041C30064CD601E8E828F83A3E0641A60148E8296
:1041D3008F83A3E064E9600A8E828F83A3E064E1A6
:1041E30070367900122CCEE9602EE5082404F50A16
:1041F300E43509F50B8508828509831242CBA3E0D8
:10420300F9850A82850B83126463121EFA850A827A
:10421300850B83127119806E8E828F83A3E0C0E0B9
:104223007402121797D0E0124DED127B5F124DDF2F
:10423300C0E07403121797D0E0F0E508240C125283
:1042430091AA18AB19700512292C8003122DAC7496
:1042530002121797E064E9702D850882850983129D
:104263004B59750A01780A12140E750AE9780A1275
:10427300140E125287124DCF125694126463122DEC
:104283006A7402121438850882850983A3A3A3A341
:10429300A3A3A3A3A3E06402701285088285098304
:1042A300A3A3A3A3A3A3A3A3A37406F08E828F83C4
:1042B300A3A3E0F9122CD4122CC29015761247FB5B
:1042C300122C6E7404024408A3A3A3A3A3A3124253
:1042D300D522E0FCA3E0FD8E828F83221277F3E0E8
:1042E3002274F4120DEDEAFEEBFF7508008E828F47
:1042F30083A3A3A3A3A3E060487508088E828F83DA
:10430300A3A3A3A3A3A3A3A3A312646379FF122A62
:10431300BE8B0BEA450B601075082C8E828F83A32E
:10432300A3A3A3A3E0D2E0F08E828F83A3A3A3A3CE
:10433300A3E05403640160030244044308110244EC
:1043430004EE24181259496038EE241A12594960B0
:1043530003F470131274707003A3E06960030244E2
:1043630004750822024404EE241B127358EE241A27
:10437300125949FAEE2419125949F91229C2024471
:10438300048E828F83A3A3A3A3A3A3A3A3A31264D3
:1043930063122DC4E964027003750801127470700E
:1043A30003A3E0697006E508D2E1F508E5086015A6
:1043B3008E828F83A3A3E07006E508D2E58004E52F
:1043C30008D2E6F5088E828F83A3A3A3A3A3A3A396
:1043D300A3A3126463122DC4E964017006E508D235
:1043E300E0F5088E828F83A3A3E06015EE241D12EF
:1043F30057A7F9122DB2E964016006E508C2E0F59A
:1044030008A90880031214387F040210F474F01210
:104413000DED74D7121500EAFEEBFF8E828F83A396
:10442300A3A3A3E06011901574126CF060099015BA
:10443300741247FB122C6E74031214CA8E828F837C
:10444300A3A3A3A3124DC0126463122D34E9700316
:104453000245A978017405121797E0C3940240023C
:1044630078007407121797E0C3940240027800742F
:104473000C121797E064F87003A3E0F4700302458D
:10448300A9740C121797E064F97003A3E0F47003A6
:104493000245A9740C121797E064FA7003A3E0F4C1
:1044A30070030245A9740C121797E064FB7003A311
:1044B300E0F470030245A97406121797E0F990130C
:1044C300ABE06960030245A9E8A2E040030245A905
:1044D3007427121797E060030245A9EE2413125EB6
:1044E300D674221217971269CA241C125ED674104E
:1044F300121797126B0F7409121797E0601F741A43
:10450300121797E0FD7404121797E0FC8E828F83D5
:10451300A3A31264637901122C2CE9703D74031276
:1045230014C2122C7AE9F5087409121797E0702E59
:104533009013A5E060287422550864226020744219
:104543005508644270147420121797124807600EBE
:1045530074201217971247E460047ACF804AE9A2C5
:10456300E6504D74201217971257AD24FD600F14B7
:10457300600C24FD600824FD600424FE7028742070
:104583001217971247DD700E742012179712675B8C
:10459300A3E0640D601A74031214C2122DDCE964E3
:1045A30001700D0247D07AD37B001225FC0247D05D
:1045B300EE242DF582E43FF583124B377003A3E01D
:1045C300697022750900780912140E780912140E05
:1045D300EE242F125949F91247EB12645D122D6A2A
:1045E30074021214387409121797E0700302468C90
:1045F3001247EB12645D122E428A0A8B0BEA450BBB
:1046030070030247297404121797E0F88E828F8390
:10461300A3A3E028F8A3E03400F9E8240D1247D55A
:10462300F88A828B83A3A3A3E068600EE88A828B57
:1046330083A3A3A312542B123F907904E912179773
:10464300124DB7E02AF8A3E034008882F583A3AAC9
:1046530082AB83121F3C8A0C8B0D8C0E8D0F850A47
:1046630082850B83A3A3A3A3780C1213C540030273
:1046730047D09083FF780C1215CD850A82850B8372
:10468300A3A3A3A3780C1217199013BDE0640460CD
:1046930008E0640960030247D0E508A2E54003028D
:1046A3004763EE242F125949851882851983F0EE4A
:1046B3002430125949C0E07401121797D0E0F0EE8C
:1046C3002431125949C0E07402121797D0E0F074F4
:1046D30014121797E06401702C740E12179712527C
:1046E300A12413125949687003A3E0697017740C6D
:1046F300121797126463122DC4E9640270077414CD
:10470300121797E4F0EE2425F582E43FF5831211A6
:10471300FD74041214CA74071214C21229327404E9
:104723001214380247D0901402E064016003024679
:104733008C74201217971248077009E508A2E650F7
:104743000302468C7410121797E0F47003A3E0F48D
:10475300607BEEFCEFFD74031214C2122C86806D95
:10476300A2E650697420121797126BD77016741A49
:10477300121797E06402705574031214C279001281
:104783002DA6804974201217971247E47014741AE7
:10479300121797E06404703574031214C2122D9A31
:1047A300802B74201217971247DD700C7900740365
:1047B3001214C2122DE88015742012179712675B2A
:1047C300E0640C700874031214C2122E00742902E0
:1047D30052B8F582E439F583E022127554E064039C
:1047E30022127554E0640722EE242BF582E43FF590
:1047F30083127362EE241322E0F508A3E0AA08FBF8
:10480300E4FCFD221256B064062274F4120DEDEAA4
:10481300FEEBFF8C088D09901328E0600F12747073
:104823007003A3E06970051229B0805A79008E8263
:104833008F83A3A3A3A3A3A3A3A3A3126463122994
:10484300E08A828B83E58245836033A3A3A3A3A37A
:10485300A3E054186028E508241C12637F12120198
:10486300E508241312637F121201EE24181259492A
:10487300F912644A1229F274041214388008790078
:1048830012644A1229B602440B74F7120DED74F741
:10489300121500EAFEEBFF9013BDE06403600DE028
:1048A30064016008E0640960030249A48E828F8377
:1048B300A3E0600302496A7C007D007A027B001258
:1048C3001EF41275908A828B83125EDC9013AE12F3
:1048D3006B0F79531227F49013BDE06409600990BC
:1048E30013BB126463122E3C8518828519837401ED
:1048F3001267F379421227F49013BD7404F0740124
:104903001214C2794A1227EE74011214CA7AB37BC5
:10491300131221AC901560E0640B70057406F080EF
:104923000B79009013BB1264631229449013AE12E7
:10493300735E7A037B00121EF49013B112735E7AD6
:10494300047B00121EF49013A8E0A2E35004D2F0FB
:104953008002C2F01267E979521227F4901570129F
:10496300175C122C6E8037FC7D007A037B10121EBD
:10497300F4901560E0640B7003740AF0901596E4EC
:10498300F0FA7B40901408E0F91220A48E828F8302
:104993001249AB1264631229449013BDE4F0122C44
:1049A300B07409025652E0F8A3E0F99013BB22C099
:1049B30082C08390134D126CF0701F9013BDE014EE
:1049C300600924FC600A14600C800F901357803434
:1049D300901353802F901355802AE8496008901351
:1049E3004E124DC9700C8A828B83A3E0F9122938C9
:1049F300801D90134D126BDD64027005122E0C8026
:104A03000E90142C126CF0600612675C12332702AE
:104A1300644374F4120DED74FE1215008A088B09B9
:104A23007A007B04901408E0F91220A4AA18AB19A9
:104A330079501227EE7A0F7B00121F488A0A8B0BDC
:104A4300AE0AAF0BEE4F6020850882850983A3E091
:104A530070169013BBE0F47003A3E0F4603B124BB9
:104A6300317003A3E0696031850882850983A374EB
:104A7300EA124DE51227F47AB17B13794B1227F42E
:104A83007ABB7B1379501227F47AB07B1379E11246
:104A930027F4EE4F7003024B258E828F837402F04E
:104AA3009013BBE0F47003A3E0F4600A124B31707F
:104AB30003A3E069704F8518828519831249A9E819
:104AC300F0A3E9124DE51227EE9013AE1252A6128F
:104AD3006B0F7AB17B13794B1227EE7AB07B137984
:104AE300E11227EE750A00780A12140E780A1214DE
:104AF3000E9015551249AC125006126463122D6ABA
:104B03007402121438850882850983124B2AA3F094
:104B13009013BD7403F0EEFAEFFB901408E0F91262
:104B23001F547402024408A3E08E828F83228518E7
:104B330082851983125EE09013BBE06822E8F0A33C
:104B4300E9124B4822F0850882850983E022F58229
:104B5300E43BF583E022125EE0E8FAE9FB2274F518
:104B6300120DED74D11215008A088B098A828B838A
:104B730012579F741C1214CA8A828B83A3A3A3A304
:104B8300A3A3A3A3124DCF126463122CB6741C12F9
:104B93001797E0702C850882850983A3A3A3A3A399
:104BA300A3A3A3E0C3940B40188E828F83A3A3A374
:104BB300A3A3A3A3A3E064027007126AFBE0F4605B
:104BC30003024DB29013BDE064027003024C99E0FE
:104BD30064067003024C9990134D126CF060081236
:104BE3004DC97003024CC99013BDE064086008E02E
:104BF30064046003024DB2741E121797124DB7A3DB
:104C0300A3A3A312579F90134DE0F8496007126BBB
:104C1300E3640260779013BBE06E7003A3E06F6000
:104C230003024DB274016A60167423121797AC82A3
:104C3300AD837ACF7B131221A6E96003024DB27ACA
:104C4300007B02901408E0F91220AAEA4B4C4D6055
:104C530003024DB29013BE12178085188285198303
:104C63001217689013C4E0C0E07404121797D0E0E1
:104C7300F074051217977401F074061217977402F3
:104C83001267F31228F6E96003024DAFEEFAEFFB69
:104C9300122E06024DB290134D126CF07028750857
:104CA30000780812140E780812140EEE2410F58200
:104CB300E43FF583124DC0A31242CB126463122D5D
:104CC3006A74021214388E828F83125EDC740712A8
:104CD3001797E8F0A3E91252AC125EDC74091217BD
:104CE300971269CA125E75C0E0740B121797D0E071
:104CF300124DDFF508A3E0F509740F780812170ABF
:104D0300740C121797E508F07420121797E0C0E0AF
:104D1300740D121797D0E0F07422121797E0C0E0D9
:104D2300740E121797D0E0F0741D121797E0C0E0CD
:104D33007410121797D0E0F0741E121797E0C0E0BA
:104D4300740F121797D0E0F0EE2410125949C0E007
:104D53007411121797D0E0F07421121797E0C0E096
:104D63007412121797D0E0F0742E121797E0C0E078
:104D73007413121797D0E0F07423121797A982AA1D
:104D83008389088A09750A0078081214067C087D4D
:104D9300007417121797AA82AB83121F2A74031287
:104DA300143874071214C212293E80031228FC74AB
:104DB3002F0257B1E0FA8E828F83A3A322E0F98EEC
:104DC300828F83A3A322126BE4640122E0F98A8217
:104DD3008B83A3A3A3A3A3A3A3A3A322F0126AFF7A
:104DE300E022F07AAE7B13795322124DF122F08543
:104DF30018828519832274F2120DED74F8121500CE
:104E0300EAFEEBFF8C0A8D0B890D908295AC18ADF1
:104E1300197408121346750C00EEFCEFFDAA18ABCB
:104E2300191221A6E97003750C01901409801AEE7A
:104E3300FCEFFDE508240BFAE43509FB1221A6E992
:104E43007023E508241412637F124E7E6024E50C60
:104E5300A2E040DB850882850983E0650A7004A32C
:104E6300E0650B70DD850882850983A3A3E0650DEA
:104E730070D0AA08AB0974080254461256C8E50854
:104E8300450922C082C08390140902644074F7125A
:104E93000DED901409127801800C126F4E1257A277
:104EA300121FE4EEFAEFFBEA4B70EF901409E4F003
:104EB300A3F002565574F1120DEDEAFEEBFF890AD9
:104EC3008C088D098E828F83E08C828D83125EA481
:104ED300AE82AF83E01261E91263F0C41261E9129A
:104EE3004F77E01261F01263EEA2E2E4338C828D1D
:104EF300831263ED131313541F1261E91263ECA2BF
:104F0300E7E4338C828D83A3A3A3A3124F778E0C84
:104F13008F0D750E00780C1214067C087D00E508D1
:104F23002407FAE43509FB121F2A7403121438EE1E
:104F33002408FE50010F8E0C8F0D780C1214067C82
:104F4300037D00E508240FFAE43509FB121F2A74D8
:104F530003121438E50AC3940F40118E828F83A382
:104F6300A3A3E0C0E012637BD0E0800412637BE480
:104F7300F002758BA3A3125EA80EAF832274F51201
:104F83000DED8A088B098A828B83A3AE82AF83E0FF
:104F9300F912295C8E828F83E064EB60248508829A
:104FA300850983A3E064E16018850882850983A3EA
:104FB300E064F1600C850882850983A3E0641A70BC
:104FC30009850882850983A3E4F090157012175CA4
:104FD300122C6E750A01780A12140E85088285094F
:104FE30083A3E0F508780812140E79009013BB121E
:104FF3005006126463122D6A7402121438122CC202
:105003000257B41273629013B122EAF0A3EBF002D9
:10501300644374F6120DED90140CE0701B7C007960
:10502300017A007B00122CF2EA4B600C8A828B839C
:10503300126CF06003122C620267B1C082C08379E4
:1050430004122CECE9F8903AE5E493C39840107904
:10505300FF122CECE9F8903AE4E493C398500479F6
:10506300018002790002644374F0120DED8A088B0B
:1050730009890B750C008A828B83A3A3A3A3A3A323
:10508300A3A3E0F9122CF88A0E8B0FAE0EAF0F75A7
:105093000A01EE4F6003025165850882850983A3E7
:1050A300A3A3A3A3A312735E850882850983A3A385
:1050B300A3A3A3A3A3A3E0F98508828509831264AC
:1050C30063122CE08A0C8B0DAE0CAF0DEE4F700308
:1050D3000252808E828F83A3A3A3A3E4F0A3F0E5FF
:1050E30008240CFAE43509FB8A828B83E0C0E012C2
:1050F3005287D0E0F0E508240D12529A240D126B6A
:1051030009122DCAEE240F127113E508241112524D
:105113009A2411126B09E5082413125291C0E0126C
:1051230069B3D0E0F0750C01EE2406125E69547F7A
:10513300F0A3E054FC1242DF540460030251DA90FE
:105143001582E0F5087509007407780812163F8E7A
:10515300828F83A3A3A3A3A3A3E04508F0A3E04501
:1051630009F08E828F83A3A31256C07407780812A6
:10517300170AE5085407FCE50B606C8E828F83A346
:10518300A3A3A3A3A3A3A3A374021263F112556B56
:10519300600B9013A91252A6A3A3126B0FEC70031A
:1051A30002524EEE2406127ADE547FF508A3E05431
:1051B300FCF509EC24FFF50EE434FFF50F740778D2
:1051C3000E12163FE508450EF8E509450FF98A82E8
:1051D3008B83126B0F80748E828F83A3A3A3A3A3ED
:1051E300A3E04480025164EC7005750A00805C8E74
:1051F300828F83A3A3A3A3A3A3E05420600C121F55
:1052030042EA547F7900245F80198E828F83A3A39F
:10521300A3A3A3A3E05410601A121F42EA540F7908
:1052230000240A5001098E828F83A3A3A3A3F0A3B2
:10523300E9800D8E828F83A3A3A3A37401F0A3E45B
:105243001252AC74041254EE121F8AE50CA2E05001
:105253002F8E828F83A3A3A3A3126ED4E0F9EEFA59
:10526300EFFB122CE6E96018126CE76009EE240FDD
:1052730012645D121FE4EEFAEFFB121FE4750A00DD
:10528300A90A8034EE240CF582E43FF58322F582EB
:10529300E43509F583E022F582E43509F583125EEE
:1052A300E0EE221275B4A3A3221252B02212612C93
:1052B300A3A3A3A3221214387F080210F474F412D8
:1052C3000DED74F71215007E00122CF8EA4B7003F3
:1052D3000253868A828B83A3A3A3A3A3A3A3A3A31B
:1052E300E0640660030253868A828B83A3A3A3A38D
:1052F300A3A3A3E0FF8A828B83127B02E0C0E07446
:1053030008121797D0E01256A7F8A3E0F985188280
:10531300851983126B0F122D0AEF540860638518E9
:105323008285198312735E7A007B00122CDA8B0B51
:10533300EA450B704C127B5112281E7C007D007ACB
:10534300007B0080288E828F831257ADF47003A3F5
:10535300E0F4602D9013BB1242D11264631228183B
:10536300E9641A601C7C007D00EEFAEFFB122CDA74
:105373008A0A8B0BAE0AAF0BEE4F70C97900122865
:10538300247E01EEF97409024408C082C083EA4B0B
:10539300700590141180068A828B83A3A31255A3F0
:1053A30060208A828B83A3A3A3A3A3A3A3E05408AF
:1053B30060E5EC4D60101255AA7003A3E06D70D741
:1053C30080047A007B0002644374F2120DEDEAFE5E
:1053D300EBFF890A8C088D097A147B00121FDEEA21
:1053E3004B603A8A828B83A3A3A3A3A3A3A3A3A300
:1053F300E412569CA3E50A12755BA3127B5D12545B
:105403002B1256BA1254328A828B83127578EA129F
:1054130077DD3BF583E4F0125422F0A3F08027A359
:10542300F08A828B83A3A32212756FE4F0A322A3D5
:10543300F012543D3BF583E4F022EA1267D822A927
:105443000A74031214387F060210F474F4120DED7B
:10545300EAFEEBFF89088C0A8D0BEE4F70030254B2
:10546300E97401650870127901122CECE9F8903A9D
:10547300E6E493C398502280167404650870147987
:1054830004122CECE9F8903AE5E493C398500A79B6
:1054930011805574026508704D8E828F83A3A3A378
:1054A300A3A3A3A3A3A3E508125EA4A31271B2E46A
:1054B300F0A3F0901411126CF0601A8003E0F8A3CB
:1054C300E0F988828983A3A31255A388828983A3E1
:1054D300A370EA8003901411EEF0A3EF1254EE12BE
:1054E3001F8A7900800279C102440BF07A207B0085
:1054F300901408E0F922C082C083E9F8790090147F
:1055030011801D8A828B83A3A3A3A3A3A3A3A3A315
:10551300E068600574FF687001098A828B83A3A326
:105523001255A370DE02644374F7120DEDEA4B705B
:105533000590141180068A828B83A3A31255A3605E
:10554300208A828B83A3A3A3A3A3A3A3A3A3E0691A
:1055530070E4EC60108A828B83E012556B70D78005
:10556300047A007B00025655F8A3E0C8127B29E0B9
:10557300540422C082C08390141180068A828B83D4
:10558300A3A31255A360128A828B83A3A3A3A3A30D
:10559300A3A3A3E06970E580047A007B000264435F
:1055A300127801FBEA4B221256AC6C2274F2120DF4
:1055B300ED8A0A8B0B8C0C8D0D750800750900EABA
:1055C300450B603090141180068E828F83A3A31243
:1055D30057A2EE4F601EAC0CAD0DEEFAEFFB850A41
:1055E30082850B83123327E9640170DDEEF8EFF94E
:1055F30088088909AA08AB0902544974F7120DED0A
:10560300901411125EDC7C007D00800DE8FCE9FD46
:1056130088828983A3A3125EDCE8496030EA68705C
:1056230002EB6970E7901411126463E86A7002E98F
:105633006B88828983A3A37008125EDC90141180A7
:1056430009125EDC8C828D83A3A3126B0F8003127D
:1056530014387F010210F474F7120DEDEAFEEBFF2C
:10566300EE4F602B122D041256D0126461121FE408
:105673008E828F83126463121FE4126CE76009EE5B
:10568300240F12645D121FE4EEFAEFFB121FE48095
:10569300C11273628A828B83221256A022127573FF
:1056A300A3A3A322F01256AC228A828B83E0F8A331
:1056B300E0F5838882E0221256A0A3A322A3A3A32A
:1056C300A31256C822E0F508A3E0F509228E828FC3
:1056D30083125B8D125B833822C082C083EAFCEBAA
:1056E300FDEC4D6017EC24FBF582ED34FF126CEEFC
:1056F3007007125736E0F46007121F4E79058030A9
:10570300901408E0C0E0125736D0E0F0903ADEE49F
:1057130093F97A137B14121F84E9640170107A00E1
:105723007B20901408E0F9121F8A79008002790423
:10573300026443EC24FFF582ED34FFF5832274F415
:10574300120DEDA2AFE433F508C2AF901413125754
:10575300A2EE4F603AEE24FBF582EF34FF126CEEBB
:105763007A007B209014086007E0F9121F8A8005F5
:10577300E0F9121F90E4F50AF50B780A12140AEE09
:10578300FCEFFD7A137B14121F7E7402121438E5AA
:1057930008A2E092AFEEFAEFFB02440BA3A3A3121D
:1057A30071CAFF22F582E43FF5831256B022121428
:1057B300387F030210F474F2120DED74FA1215001F
:1057C300EAFEEBFF750AFE750BFF122CC8E96005B4
:1057D3007911025941EE241512594960359015A0EB
:1057E300E0C43354E0F8E0333354FC48C0E01260C3
:1057F300F2D0E0127B32FAA3E0FB79FF122ABE8BD0
:1058030009EA4509600C750AFF1269B712689DD24F
:10581300E0F08E828F83A3A3126463122DC4E96028
:1058230006EE24121267C0EE2413125949700D902C
:105833003AE9E493C0E01269B3D0E0F08E828F833B
:10584300E0A2E7500454038019EE2414125949705E
:105853001290139AE0C0E0125E5FD0E0F090139ACA
:10586300E004F01259466401701690158BE0600D48
:105873009013A5E0700A8E828F83E070031267BDD8
:105883008E828F83E064017011EE240B1257A7649C
:1058930002700712595DE04440F0AC18AD19EEFAFE
:1058A300EFFB122D2E8A088B0974FE650A700374B0
:1058B300FFF4700D8E828F83A3A3E0F50AA3E0F5B6
:1058C3000BEA450960748E828F83E0C0E074011295
:1058D3001797D0E0F07404121797127578EE241E10
:1058E300125ED67402121797126B0F74011214BA58
:1058F300880C890D780C12140AEE242012595112C7
:10590300140E12595D121201EE240E125951121483
:105913000E9013AE1212017408121797E0F9AC0A35
:10592300AD0B122D287408121438E9FE74106E7032
:105933000BAA08AB09121FE480027E10EEF974066D
:10594300025446EE2411F582E43FF583E022F5820A
:10595300E43FF583E0F50C780C22EE1269BF22C018
:1059630082C08374D71215009081C974031214CABC
:1059730074261213468A828B83A3A3A3A3125EDC2D
:10598300740E121797E8F0A3E9125423125EDC7425
:105993000C121797125A53125A4D124B54C0E074FB
:1059A3001A121797D0E0F0126F58125EDA742012B1
:1059B3001797125A532415124B51C0E0740812174B
:1059C30097D0E0F0EA241CF582E43B125EDA74120D
:1059D300121797125A532411124B51C0E074091233
:1059E3001797D0E0F0EA2412124B51C0E07407126B
:1059F3001797D0E0F0EA241EF582E43B125EDA74D6
:105A030024121797125A532420124B51C0E07426C4
:105A1300121797D0E0124DED74FFF074011217972F
:105A230074FFF0740212179774FFF090839B1211A6
:105A3300FD74041214CA74071214C21229327404B6
:105A430012143879007429023FD9240DF582E42217
:105A5300E8F0A3E9F0EA2274F4120DED74EC1215E8
:105A630000EAFEEBFF8C0A8D0B89097508107A2179
:105A73007B00121FDE851882851983127119851820
:105A830082851983126CF07003025B7C7C217D009C
:105A93007900851882851983E0FA121F369013BBAB
:105AA300126463851882851983125B892409F58240
:105AB300E4381271177420121797125EDC741112F6
:105AC3001797E8F0A3E9125B93127AEC125B931237
:105AD3007B097402125EE6F812675BE50AF0A3E540
:105AE3000B125B93127AF9E509F07422121797E00F
:105AF300F8851882851983E0F9A3E0C9240CF5829F
:105B0300E439F583E8125EE6F9A3E0C9125B833951
