:10000000004001202102030039FB021039FB0210DD
:1000100039FB021039FB021039FB021039FB0210C8
:1000200039FB021039FB021039FB021039FB0210B8
:0C00300039FB021039FB021011FB02101A
:1010000001000000000000000000000000000000DF
:10101000FFFFFFFFF829002004000000000000008F
:1010200000000000140000000C1600001800000072
:1010300078140000C01000006429002004000000A3
:10104000000000000000000024000000F814000070
:101050001800000079CB020008000000B011000069
:1010600074100000C1C8021001BB021091EB021005
:10107000DDE5021081E00210B9E5021071E5021011
:1010800031000000010000000100000024160000F3
:1010900000000000FFFFFFFFD02900200400000037
:1010A000000000000000000028000000E41500001F
:1010B000240000001E0000001800000000000000D6
:1010C00028130000D41000009BEC021025E202104F
:1010D00005EB021025DE0210FDE10210E1E4021032
:1010E0002F00000034000000240028000000000051
:1010F00044290020FFFFFFFF182A00200400000001
:1011000000000000000000003800000098160000F9
:101110002800000001000000100000000000000096
:1011200000000000F7F1021000001A00100000009B
:1011300004000000FC160000D65B0100080000005F
:1011400036000000D8290020202A002009001D00B8
:10115000BF8B00006C29002001000000000012007D
:10116000FFFFFFFF082A002004000000000000002D
:1011700000000000100000005C16000018000000D5
:101180000000000000001300FFFFFFFF802A002086
:1011900004000000000000000000000054000000F7
:1011A000C01600003C000000000001002D000000FF
:1011B00004100000C73901003000000000000000EA
:1011C000B0110000D8110000D5F10200D9DB0210E7
:1011D00059EC0210CDD6021085DE02104DE502104A
:1011E00029E5021030000000000016000000000099
:1011F00000000000FF7F0000882A0020FFFFFFFFA3
:10120000002A002004000000000000000000000090
:1012100058000000281600003400000039FB0210BE
:1012200001002F0006000000000000002000000068
:10123000010000001BF80210280000002813000025
:101240005012000093EC02106DEB02104DEC0210F6
:1012500029E00210BDE4021099E402102D00000004
:1012600000000000AC290020040000000000000085
:101270000000000010000000101500002C0000000D
:10128000000000000000030000000F003C00000010
:1012900000000000000000002FF902101000000004
:1012A000080000000C170000FFFFFFFF102A0020BD
:1012B0000400000000000000000000001C0000000E
:1012C00074160000240000003C1200005C2900207D
:1012D0000400000000000000000000000C000000FE
:1012E00080140000180000009B3B0100000000007B
:1012F00000000000080000000100000004000000E1
:10130000000000000000140000000000282A000077
:10131000000019000000180024000000B3020300C0
:101320000040000000020000041000000000100057
:1013300055F002100C000000AFCB020000000000CE
:101340003C29002004000000000000000000000014
:10135000200000004814000030000000402A000077
:10136000010000006FCC0200C78B000000000000ED
:101370000000170000020000310000000000230000
:101380000000150001000000C0110000C829002065
:101390000400000000000000000000002000000029
:1013A000C01500002400000054CE0200BC2900201B
:0813B0002000000020170000DE
:1013C000F1CA020003CD020007CD02000BCD0200DE
:1013D0000FCD020013CD020017CD0200A9F00200CC
:1013E00059F1020065F002004F02030031020300D0
:1013F00031F102003DF10200810203008DF1020093
:101400000DF3020021F3020001280000000000009B
:10141000000000000001003000000000000000009B
:101420000003FF186400000000000000000000003E
:101430007856341200000000BAAB00000000000132
:10144000000000000000000030000000000000006C
:101450000000000070140000040000000000000004
:1014600001000000FFFFFFFFFF000000010000007F
:101470000800000000000000000000000000000064
:1014800018000000000000000000000090140000A0
:1014900008000000000000001000000028130000F9
:1014A000B0140000AB0203009DCF020025CF020064
:1014B00039CD02008DCD02001DCD02002E000000AE
:1014C0009C140000A429002004000000000000007B
:1014D0000000000020000000E014000018000000E0
:1014E000180000000000000000000000F0140000E0
:1014F00008000000000000001800000000000000CC
:1015000000000000081500000800000000000000B6
:101510002C00000000000000000000003415000056
:10152000040000000000000001000000FFFFFFFFBA
:10153000FFFFFFFF0800000000000000B0110000E6
:1015400054150000D5F20200E5F2020001F302009A
:10155000F5F20200CFCD0200F9CD0200ADCD0200C0
:10156000320000003C150000B429002004000000F7
:1015700000000000000000001400000084150000BE
:101580001C0000001C000000000000000000000023
:101590009815000000000000080000000000000096
:1015A00001000000F7460000AF0203003B520000BC
:1015B000FB460000FF460000EB4600000947000024
:1015C000240000000000000000000000DC15000006
:1015D0000000000000000000000000000800000003
:1015E00000000000240000000000000000000000D7
:1015F00000160000000000000000000000000000D5
:1016000008000000000000000A00000018000000B0
:1016100000000000000000001C1600000800000090
:10162000000000000D550000340000000000000024
:101630000000000054160000000000000000000040
:101640000100000000000000010000000000000098
:10165000000000000800000000000000180000006A
:1016600000000000000000006C16000008000000F0
:101670000000000024000000000000000000000046
:1016800090160000000000000100000000000000B3
:10169000080000000000000028000000000000001A
:1016A00000000000B816000000000000000000006C
:1016B000FFFFFFFF00000000080000000000000026
:1016C0003C0000000000000000000000F4160000D4
:1016D0000000000000000000010000000000000009
:1016E00000000000000000000000000001000000F9
:1016F000000000000800000000000000E9CC02002B
:1017000025DD021031C8021075DF02100100000053
:1017100000000000000000000000010000000100C7
:1017200015F9021001E602102DDA021045E7021049
:1017300041D10210C9D30210A5DF02102DE402101E
:1017400061EA021091F2020005000600080009009B
:101750001600020102020302000301030105020553
:1017600000060106040B14061506170600070107FC
:10177000020703070009040907000A000C000D0016
:101780000E000F00100011001200130014001B00C7
:10179000000101010002010202040004010403042B
:1017A00004040504060400050206030604060506F3
:1017B00006060706080609060A060B060C060D06AD
:1017C0000E060F061006110612061306040700097E
:1017D000000B010B020B030B0097B92EE5725CCBDB
:1017E0005DCAE473B82F0196BA2D03945FC8E67101
:1017F000E7705EC90295BB2CE3745ACD0691BF28F1
:10180000BE2907905BCCE27559CEE077BC2B0592E0
:101810000493BD2AE17658CF51C6E87FB4230D9AD0
:101820000C9BB522E97E50C7EB7C52C50E99B720C0
:10183000B6210F9853C4EA7DB2250B9C57C0EE79B0
:10184000EF7856C10A9DB324089FB126ED7A54C3A0
:1018500055C2EC7BB027099EA2351B8C47D0FE6990
:10186000FF6846D11A8DA334188FA136FD6A44D380
:1018700045D2FC6BA037198E41D6F86FA4331D8A70
:101880001C8BA532F96E40D7FB6C42D51E89A73060
:10189000A6311F8843D4FA6DF3644ADD1681AF3850
:1018A000AE3917804BDCF26549DEF067AC3B158240
:1018B0001483AD3AF16648DF1087A93EF5624CDB30
:1018C0004DDAF463A83F1186AA3D13844FD8F66120
:1018D000F7604ED91285AB3C545A00205C5A002068
:1018E000985A0020A85A002000000000DC5A00206E
:1018F000FC5A0020045B0020205B0020305B0020AD
:10190000E82A0000202B0000302B00003C2B0000B8
:101910004C2B00005C5B00206C5B0020705B0020A7
:10192000745B0020B82C0020785B00207C5B0020DA
:10193000805B0020845B0020885B00208C5B0020A3
:101940009C5B0020D45B0020E85B00205C2B000047
:10195000D02B0000442C0000B82C00002C2D0000DF
:10196000A02D0000B82D0000C42D0000F061002063
:10197000145C0020BC2C0020205C00203C5C00207B
:10198000F1610020F2610020605C0020905C00208A
:10199000A45C0020F3610020781F000000200000FC
:1019A0000000000000000000D02D0000105D0020AD
:1019B000985D00209C5D0020D02C0020D42C0020BD
:1019C000A05D0020E02D0000A45D0020BC5D002093
:1019D00000000000000000002819002000000000A6
:1019E000000000000000000000000000105E002069
:1019F000445E002024420020014A0310494803109D
:101A0000D54903101547031023E102005D49031077
:101A100081470310A1460310954803104545031064
:101A2000254A031021440310ED4703109949031080
:101A3000E148031021490310555303108952031044
:101A4000CD520310655003108D4E03104DD8020087
:101A50000BD9020031DB02000000000059510310D5
:101A6000ED50031099DC0200CD4B031029520310F6
:101A700011530310A9550310755503106953031032
:101A8000DD5503103555031055E7020021540310AE
:101A9000855C03100D5603104D5D0310A9640310FF
:101AA000B55B03106D570310E5610310095E031069
:101AB000C55803108560031071610310B1620310F3
:101AC0009963031055630310FD600310B15E0310AA
:101AD0006BE00200D55A0310D559031009630310B7
:101AE000D963031019640310555F0310C564031014
:101AF0004D620310716403108D640310556403106C
:101B0000E16403102975031079720310A16B0310AF
:101B1000F57203109D740310797403102D74031073
:101B200061730310FD7303105574031015750310D2
:101B3000D96C0310FD74031039E60200E174031040
:101B40003D75031079700310F9640310CD6803101C
:101B50002D710310C1740310F56E0310B9730310D7
:101B600029670310056E0310C56F03101DE80200FE
:101B7000A1770310797D03103D7E03104975031092
:101B8000157E0310357D031099760310997C0310A0
:101B9000257B031071780310B57D0310ED7C0310D5
:101BA000857E03102D790310B97A0310917B031001
:101BB000B1790310ED7B0310E97D0310617E031002
:101BC000357A0310D57E0310457C0310A57E0310E3
:101BD000BD7E031071D70200D9800310E97E031087
:101BE00049830310898403108D8103107D820310C3
:101BF000E58403102B840310C58303109187031021
:101C00006188031045880310F1850310B188031023
:101C10007D880310C98803101D870310A186031057
:101C200001850310E188031099880310F9870310D8
:101C30004FE50200359C0310819D0310E99A0310C3
:101C4000359B0310C19B0310419A0310F1880310C8
:101C50001D8C0310618F0310F1940310919E0310EB
:101C6000C19E03103D9E0310699E0310259E031024
:101C7000619D03100D9E0310819B0310ED930310D3
:101C800055990310C9970310D9980310BD950310F7
:101C9000959C0310C19D0310A59E03107D9E03100B
:101CA000C9910310C3E40200699C0310DD9D031079
:101CB00095900310FD9B0310CD990310158E031012
:101CC000019D0310E19C0310219D0310419D031011
:101CD000BD9C0310F59D0310A19D031055980310A2
:101CE000E1920310999A0310B99E0310559E0310B8
:101CF000EDD502001BD6020039A2031035D6020032
:101D000069A1031075A20310C59E0310B9A10310A9
:101D1000F9A1031015A103109DA20310C9E8020048
:101D2000D1E80200D3E80200FFE8020011E9020056
:101D300017E9020031A90310ADA203100FDF020062
:101D4000B9A8031099A503107FDA020039A803107F
:101D50006DA90310B9D902006DAC031099B103103D
:101D600009AF031059B1031001B103109DA903106D
:101D7000DFE10200ADD90200B5D90200E3E10200C3
:101D8000E7E10200B1D90200EBE10200EFE102005D
:101D9000F3E10200F7E10200FBE10200F1B90310F8
:101DA00075BA031081BB0310CDEA020003EB0200F9
:101DB0004FEB0200F1EB0200B3EC0200EDEC02008D
:101DC00053ED02007FED0200D1ED020001EE0200B2
:101DD00025EE02003FEE02009FEE0200E9EE020057
:101DE000EDEE020023EF02008FEF0200A3EF0200EE
:101DF00015F0020093D90200D7E10200DBE10200F6
:101E0000FFE1020079E30200E9C60310D3E102001A
:101E100019D302008DD502002D340100C734010012
:101E2000613401000B83020071CD010089D50200ED
:101E300053D6020057D6020059D60200BDD6020082
:101E4000094C00001F4C0000054C0000074C00002E
:101E5000D54B0000B7020300C30203003B4700005C
:101E600063470000B1490000494900007349000080
:101E7000494A0000314A000025480000814700001F
:101E8000754A000077480000DBFD021075A60100CE
:101E9000AD540000E54A0000C74B00003D3B010087
:101EA000633B0100953B0100773B0100572D00206B
:101EB000F7610020F8610020F6610020F961002040
:101EC000FA610020582D00201964000095A100003F
:101ED000F1E200002398000085980000F1E3000083
:101EE00027E40000E39800004598000009980000EE
:101EF000A99800009BE2000097E20000D1C6010013
:101F0000B1C6010029CE010077E20000BBE200006B
:101F1000C9E20000D7E20000E7E00000EBDE0000CD
:101F2000D5C5010087C6010055EA02006FE3000035
:101F3000CDCD0100DBCD0100000000002FE6000048
:101F400095E2000087E5000001E6000000000000C7
:101F50007D64000043A10000DDA30000D9E0000083
:101F600000000000000000008BA6000061E10000FE
:101F700085C50100EDCD010036000100060000001E
:101F800000000000000F0000000000000000000042
:101F90000000000000000300FFFF00000403FFFF3B
:101FA0000000FFFF0F00E8030005401F03100001C1
:101FB00000000000FF3F0F000800050B00000000BC
:101FC000000000000300010F0000000000000000FE
:101FD0000000000000000000000000000000000001
:101FE00000000000000000000000000000000000F1
:101FF0000000000000000000AD0000020000000032
:102000000001363601010001020100010301000157
:1020100004010606080400000C0100340D01000F45
:1020200010040101140100FF160800002002000046
:10203000220100FF23010001240100FE2501000808
:102040002602000028010001290100012A020000E7
:102050002C01000F2E0200003001000131010008A8
:10206000320200FF34010007350102FF3601000093
:102070003701000138010001390100FF3A01000F6A
:102080003C0200FF3E01010F3F0100014001041F1F
:1020900041010001420100FF4301008044080000AB
:1020A0004E0100084F01000F50010001510100FFD7
:1020B00052010000530100005401000158040000C7
:1020C0005C04000060040000640400006804000078
:1020D0006C04000070040000740400007804000028
:1020E0007C040000800100FF8101000182010001E9
:1020F000830102028401000197CE0000A3D00000FA
:1021000000000000000000000000000081D6000078
:102110009FD60000DFD50000B9D60000E9D6000048
:10212000EFD60000BDD8000000000000B3D80000CA
:10213000C9D90000F9D10000F5D6000015D700007C
:10214000A1D7000045DA00007FD2000045DC000086
:1021500021DC000000000000C1DC000065D20000AE
:1021600069DB000059FC010077FB0100B3FC0100B2
:1021700065FB010085FB01001BFE01001FFE010045
:1021800099630200F5620200F7630200D562020063
:10219000E7620200156502001965020035C50100FD
:1021A00041C50100E827002074270020C826000050
:1021B000E82600000027000008140000182700008F
:1021C00038270000000000005054564F5349474E36
:1021D00031000000000000000000000000000000CE
:1021E00000000000000000000000000000000000EF
:1021F00000000000000000000000000000000000DF
:1022000000000000000000000000000000000000CE
:1022100000000000000000000000000000000000BE
:102220003C001001030507090B0D0F00020406080E
:102230000A0C0DBFFB097074766F2E696E666F20F5
:102240002020202020200B7074766F2E7377697405
:102250006368202020202000202020202020202013
:1022600020202020202020200A323032312D313110
:102270002D323601000000000000000000000000C8
:10228000000000000000000000000000000000004E
:10229000000000000000000000000000000000003E
:1022A000000000000000000000000000000000002E
:1022B000000000000000000000000000000000001E
:1022C000000000000000000000000000000000000E
:1022D00000000000000000000000000000000000FE
:1022E00000000000000000000000000000000000EE
:1022F00000000000000000000000000000000000DE
:1023000000000000000000000000000000000000CD
:1023100000000000000000000000000000000000BD
:1023200000000000000000000000000000000000AD
:10233000000000000000000000000000000000009D
:10234000000000000000000000000000000000008D
:10235000000000000000000000000000000000007D
:10236000000000000000000000000000000000006D
:10237000000000000000000000000000000000005D
:1023800000000000000000005054564F5349474ED3
:10239000320000000257680002487A0002706600AE
:1023A000026C78000370706D056D63706D30000015
:1023B000056E63706D300000057073697A6500000A
:1023C0000345525200000000000020111E61010070
:1023D00000000000010020111E610100000000004B
:1023E000020020111F610100000000000300201105
:1023F000D75B0100000000000400421135220000FC
:10240000000000000500421146220000000000000C
:1024100006004211682200000000000007002011A1
:1024200073220000000000000040421168220000FA
:1024300000000000100042115722000000000000C0
:1024400011002011CF6100200000000012001013C5
:102450002C2D002001000000200020112A2D00203A
:1024600001000000210020112B2D0020030000009E
:1024700000002103B86100200600000000001011D8
:1024800000000000080000000000203300000000F1
:102490000C00000055003933000000000C00000063
:1024A0001C00423300000000120000005500200113
:1024B00000000000140000000E0042220000000096
:1024C0000A000000020000000400000008000000F4
:1024D000100000002000000040000000800000000C
:1024E00000010000000200000004000000080000DD
:1024F000001000000020000000400000E803000081
:10250000D0D1D2D3D4D5D6D7D8D9DADBDCDDDEDF53
:102510005A6967426565416C6C69616E6365303903
:10252000542E0000A8430020C0260020542E000096
:10253000BC430020CC260020542E0000D0430020B5
:10254000D8260020542E0000E4430020E42600207A
:10255000542E0000F8430020F0260020542E0000E6
:102560000C440020FC260020542E000020440020B3
:1025700008270020542E0000344400201427002097
:10258000542E000048440020202700205C440020F6
:10259000FF25020074440020A54102000000024013
:1025A0000A29FF008C4400209C2500000020050023
:1025B00000400000702E0000D4610020AC25000017
:1025C000FF00000000000000982E0000AC44002036
:1025D0002C270020982E0000CC4400202E2700201D
:1025E000982E0000EC44002030270020982E000098
:1025F0000C45002032270020982E00002C4500209A
:102600003427002000000000C19000006F5B000034
:102610000101010000000000FF0001001988020014
:1026200007000000FF0000000000000080A9030078
:102630006045002024260000E445002038270020C3
:10264000000001401FFF00001700000000100140C3
:1026500021FF0100190000000020014023FF0200BB
:102660001B0000000030014025FF03001D0000009A
:102670000000014020FF0000180000003448002046
:102680004026000000000000804800204C2600008A
:1026900000000000CC480020582600000000000088
:1026A0001849002064260000000000006449002052
:1026B00070260000010000001C0880801D0880803A
:1026C0001E088080FE0000000208000000000000DC
:1026D00000000000000101000800FFFFF8270020B3
:1026E000042800202028002003080000000000002B
:1026F000000000000001650900000000000000006B
:10270000012C000000000000000000000001001E7D
:102710000000000000000000022C0000000000008B
:1027200000000000000000000000000000000000A9
:102730000000000000000000032C0000000000006A
:102740000000000000000000000000000000000089
:102750000000000000000000000000000000000079
:102760000100000000C201000300000000000000A2
:10277000838B010013900100C38B010069410000AD
:10278000718C0100F1900100718C01003F920100F9
:10279000738C010069410000718C0100F19001000F
:1027A000D78C01006941000000000000000000001B
:1027B000118E0100694100000000000000000000CF
:1027C0005D8E010069410000098F01006941000030
:1027D0000D8F01003D940100298F01006941000027
:1027E00000000000000000000000000000000000E9
:1027F00000000000000000006D8F010095950100B1
:10280000838F0100694100006D8F010095950100E3
:10281000838F0100694100000D8F01003D9401008C
:10282000B38F010069410000130000007908010026
:10283000000000008F3E0100010000008F3E0100FB
:10284000020000009B0001000280000099000100CE
:1028500003000000B900010004000000FF000100B7
:10286000048000005701010005000000590101002B
:1028700006000000D1010100310000002D0501001B
:10288000330000002B07010034000000D1070100D5
:10289000FFFF0000000000008F000100502D00200D
:1028A000870001004E2D002035002800245900200B
:1028B00028000100332D002029000100342D0020C4
:1028C00084000400044B002086000100CD18002085
:1028D0002A000100352D00202B000100362D00209C
:1028E0002C0001003A2D00202D0008000C290020AA
:1028F0002E0001003B2D00202F0001003C2D002068
:10290000300001003D2D002032000100D96100207F
:1029100033000100DA610020340001003E2D002068
:1029200036000100DB610020380001003F2D00204F
:1029300039000100392D002083000200282D0020DD
:1029400063000100DF61002065000100372D0020D9
:102950006D000100E061002071000800084B0020BC
:10296000660001004D2D002043000100482D00208D
:10297000440002001E2D002045000100492D0020CA
:1029800046000200202D002047000800104B0020C8
:10299000480001004A2D00204B0001004B2D002073
:1029A000040001004F2D0020A1000100552D002042
:1029B00037000100542D002088000100512D002017
:1029C0003C000100402D00203D000100412D002071
:1029D00049000200222D002067000100E161002073
:1029E0004D000200242D00204E0001004C2D00203F
:1029F0004F000200262D00203E000100462D002041
:102A000051000100DC61002052000100432D002034
:102A100053000100452D002054000100DD6100201D
:102A200000000000000000007B7374617469632D76
:102A3000696E7374616E63652D6E616D657D0000F6
:102A40007B656D7074792D696E7374616E63652D2D
:102A50006E616D657D000000BC2900200A00000049
:102A6000AD55010002000000E95101000500000021
:102A70003B53010007000000E15201000C00000080
:102A8000774D01000D000000314E0100FF000000F5
:102A9000000000008F0000008F0001008F00020086
:102AA0008F000300900000018F00010190000002E0
:102AB000900000038F0001048F0000058F000804C0
:102AC0008F0000048A000006510000007F00010012
:102AD0003F0004003F0002003F0001007F000200B1
:102AE0008F0002048F0001020000000002000000BD
:102AF000020000000A0000000200000002000100C5
:102B000000000000000000000000000000000000C5
:102B10000000000000000000000000000E000000A7
:102B200000A6AAACA4A9A9A399B19ABCB6A8000012
:102B300002040201010101090200000031311719EC
:102B40001A21241B1D1F3131333100003131181976
:102B50001A22311C1E203131343100000300710073
:102B60003001600011007000310220035004800029
:102B70000700100061000000140063007300720081
:102B80006200430000001300060000000000040083
:102B900012000000000000000000040004003700E4
:102BA00037003C0244000000000000000000650007
:102BB00000003500810000000500000083000000D7
:102BC000660000000000080009000A000B00000079
:102BD0000101710101010101110101013101010135
:102BE000010180010001100161013B00140063013B
:102BF00073017201620143010001130106013D01ED
:102C0000350004011201000100010001000104016E
:102C10000401330133013C0144013201360000015B
:102C200000016501000135008101000105018201FB
:102C300083010001660100010001080109010A0188
:102C40000B010000030271023001600211027002E8
:102C500001020202020280020002100261023A0036
:102C60004100630273027202620243020002130215
:102C700038000002000204021202000200020002F8
:102C8000000204020402370037003C024402000242
:102C900039000002000265020002350281020002D2
:102CA000050282028302000266020002000208029C
:102CB00009020A020B020000010371030103010370
:102CC00001030103010322030203010300031003B4
:102CD000000300030003000300030003000342039A
:102CE0000003240306030003000304031203250367
:102CF0002303250323030403040300030003000349
:102D0000440300030003230300036503210035038C
:102D100081030003050300030003000300032503F0
:102D20002303080309030A030B03000003047104CF
:102D30000204600411047004020402040104020489
:102D40000004100461040004140463047304720496
:102D50006204430400041304060400040004040491
:102D60001204000400040004000451046400000480
:102D7000000400044404000400040004000465048A
:102D80000004350481046400050400048304000485
:102D9000660400040004080409040A040B0400008B
:102DA00000000500BD00B700B100BC001C003000F1
:102DB0003800080038010200000120181A18182CE9
:102DC00034041E000C0E020B040B0A070800110F3E
:102DD00088B22400881300001000000000000001E9
:102DE000C003000080070000000F0000001E00006C
:102DF000003C00000078000000F0000000E001004E
:102E000000C003000080070000000F0000001E004B
:102E100000003C00000078000000F0000000F0001E
:102E200000000000000000000000000000000000A2
:102E30000000000000000000000000000000000092
:102E40003031323334353637383961626364656620
:102E5000000000006DF30200ABF30200B1F30200CA
:102E60008DF4020079F50200D3F50200DBF50200D3
:102E700091F6020099F602009FF60200CFF60200DA
:102E8000E9F6020037F702004FF70200C3F702002D
:102E900001F8020009F80200B3FD0200EDFD020096
:102EA000C5FA0200C7FA0200EFFB020097FB02001E
:102EB00033FC020083FD020057FD02005D4000214B
:102EC00089400021954000213B410021074C657954
:102ED00000F009F861796940490703D50121044AE6
:102EE0008903116070BD70B5024908478003002155
:102EF000081104402D59000000F00AF8004800476E
:102F0000577F000000F00AF8004800471B880000C7
:102F1000806B0C490007000F48717047094A0A4945
:102F200018235079CB56497EC018814201DD0846EE
:102F300002E00F2800DD0F20D189090909010143B2
:102F4000D1817047E0020021880000210122274B37
:102F500002212548184710B5254880472548406A72
:102F600000280DD124490A200856002809DA401CFF
:102F700007D008462038406A2049884200D180475F
:102F800010BDFFF7E3FF10BD00211E4B1C4A084691
:102F9000184701201C49400208601C48FB220178A8
:102FA000114001701248EC38004710B518498847A5
:102FB00011492039012807D0020404D500200885D2
:102FC00014484862012010BD4A6A094BEC3B9A4202
:102FD00001D1114A05E007494A6A104B9A42F2D1E1
:102FE0000F4A4A6210BD0000060800009F0600005C
:102FF000A192020008010021540100216392020005
:10300000E7400021B5B4020080E100E08003002128
:10301000F7960200DD40002123410021699502005E
:103020001941002101020003020001037CB505469D
:103030008020EE7800F084FA002100910A24032118
:10304000304600F0AEFA00990818641E0090F6D1E0
:1030500000980A21B0FBF1F1687A698140F0040020
:1030600068726A46688900900421687800F024FC40
:1030700073BD00002DE9F04704462DED028B257845
:1030800005F07F050E2D7AD1607A010710D5DFF8A3
:103090001C2411880009C140CB0709D4DFF81014A3
:1030A000085C28B12046FFF7C1FF9FED920AB9E006
:1030B000B4F80C9094F80380802000F041FA607A14
:1030C00094F80EC00025002681074CBF00274FF45E
:1030D000806700EE10CA4007B8EE400A48BFB4F956
:1030E0000A7010EE100A00F0F3FBDFF8C823DFF8D7
:1030F000C83300F011FC00F0E5FC08EE100A00F007
:1031000099F800F097F800F040FD824612E0381A76
:1031100000B200280BD5404200B208E000F08AF867
:10312000617A8A0700B2F2D5B842B8BF002010FB1E
:103130000055761C00F029FDA0EB0A004845EDD3B0
:10314000002E9FED6C0A6DD0B5FBF6F000F0B2FDDD
:1031500041EC100B00F0BCFD53EC102B4FF066302F
:10316000DFF8581300F0D8FB04460D4618EE100A9D
:1031700000F0AEFB02460B46204629462BE0032D0D
:10318000E6781CBF042D012D01D1002000E0802035
:1031900000F0D6F90F2D14BF012200220321304682
:1031A00000F0CFF90F2D04D100EE100AB8EE400A5E
:1031B00038E000F07FFD042D41EC100B0ED153ECF4
:1031C000102BBF48BF4900F0A7FB00F003FE00F042
:1031D0001DFE0022BC4B00F02BFE0EE000F0FAFDBD
:1031E00000F014FE012D06D100F020F800F06AFC7A
:1031F00000EE100A0EE0032D04D100F063FC00EE97
:10320000100A0FE000F012F800F05CFC022D00EE56
:10321000100A07D1607AC10704D56069D0ED000AB1
:1032200020EE200ABDEC028BBDE8F0870022A74B00
:1032300000F0FEBD0321404600F0B3B93EB50C2AB4
:10324000014631D12C20069AA14D41436818022A2B
:1032500002D1FFF7EBFE25E0079C552B0AD10AB3FC
:10326000FFF708FF8DED000A04226946204600F0B2
:103270009AFF17E01C2B17D11AB908980221018078
:1032800010E00120207056226270685C00F07F011F
:10329000032908BF432004D000F07F000E2801D18D
:1032A0004120607001203EBD00203EBD70B5054646
:1032B000012000F07AFA040001D1002070BD2C201A
:1032C0004543834E7019FFF7D5FE01202072562129
:1032D00084ED010A6172705D00F07F02032A08BF6D
:1032E000432004D000F07F000E2801D141206072FD
:1032F000204670BD000000002DE9FC410D468046CF
:10330000744911F80860304600F0F2F8044600F005
:10331000F8F8002000F014F96F496D4B0A78174651
:103320002C204743521C1F440A7001206B497962CC
:1033300087F828000021032D796108BF092402D0F5
:10334000042D08BF082400F0A480032087F828007B
:103350000421304600F0F2FF0C2010FB04F060491D
:103360000E54012D03D108445E4B43606EE00E2DD8
:103370006AD15D4800906A460121404600F0C9F9D3
:10338000009800F0FF000A282DD8DFE800F00616AC
:103390002C191B1F212426282A00B921B9730020CB
:1033A000797A01F0FD01084378720098000A0090D4
:1033B000010614BF3C20322017E06420B873EEE70A
:1033C0002021EBE73020B8730220E9E71020F5E771
:1033D0002021B973F8E70B20F0E71721F9E708205F
:1033E000ECE71021F5E73620E8E738724FF47A7001
:1033F000397A90FBF1F1B9816A460221404600F02A
:1034000088F900281CBF009800280AD0787A40F07C
:103410000800787200F00F0000994A1E40EA02107E
:103420007872002000906A460421404600F02CFA91
:1034300078B300997981009800B10420797A01F07D
:10344000FB010843787224E0022D22D10020009075
:103450006A460121404600F076F99DED000AF7EE3C
:10346000000AB4EE600AF1EE10FA1CBFB5EE400A95
:10347000F1EE10FA0DD0787A40F001007872042055
:1034800001F0C0FB7861042101F01CFC786900990F
:10349000016087F80180BE70FC7045F08005002057
:1034A00012493D70B871F961BDE8F381B461002043
:1034B000D121000038842A357BA0453F66665A3FFB
:1034C0009A9999999999B93F0000594000408F40C5
:1034D0004437002034370020C86100203D3200000E
:1034E000C0260020308C11000132E600AD32000011
:1034F000A0F11701082902D21738C0B27047FF2087
:1035000070470C480178CA0700D5704710B541F0E4
:10351000010101700020084905E0C3B20C24634397
:10352000FF22CA54401C054B1C78C2B2A242F4D3FD
:1035300010BD0000D1610020C0260020FE25020041
:1035400070473EB509280446154605D101F085FCB3
:1035500001F0B2FC80B23EBD01F0D7FC01A801F041
:103560000FFD01A9204601F0EBFC040001D1002071
:103570003EBD694601F0C3FC08B1002009E055B129
:10358000BDF80010204601F0BDFC4FF47A71B0FB8D
:10359000F1F0ADF80000204601F0AEFCBDF80000EF
:1035A0003EBD0022CDE70143F0B5AF4BAF4C1B5CF5
:1035B000245C024600E0491CAD4D2E78C8B2B042F2
:1035C00017D25FFA81FC2C25AA4F15FB0CFC07EBE8
:1035D0000C052878C0090CD06878904202BF2F787B
:1035E00007F07F079F4204BFA878A042E3D148B20A
:1035F000F0BD4FF0FF30F0BDF0B5034600240020D1
:103600000EE0E4B266440E5507F00F076C1C0A2F5B
:10361000ACBF37263026EDB2F6194E55401CC0B26D
:103620009E79B042E5B212DAEF1CBA420FDB10B15C
:103630002D264E55641C1D182F7AC7F30316651CE2
:103640000A2EB4BF4FF0300C4FF0370CD9E7E0B280
:1036500090423CBF00204855E0B2F0BD10B500F0EC
:103660000CF8854C03E010B500F007F8834C81B2EC
:103670002078BDE8104001F08DBC012303FA00F072
:1036800000F0FF0000EB0120704770B500F006F875
:103690007A4E00F00AF800B90FE070BD0446012030
:1036A00000FA04F404F0FF047047307804EB0124BE
:1036B000A4B21546214601F09DBC30782A46214629
:1036C000BDE8704001F066BC012202FA00F000F093
:1036D000FF0000EB0120684B07E0012202FA00F036
:1036E00000F0FF0000EB0120644B81B2187801F07C
:1036F00055BC012303FA01F101F0FF0101EB0221A6
:10370000002819BF5C4800785C4A107889B201F043
:1037100071BC1CB500F032F80CBF02F1FC0102F1E3
:10372000AC016846052201F035FD9DF80000032834
:1037300018BF062805D10DF101010868206001209D
:1037400016BD002016BD1CB500F018F80CBF02F124
:10375000FC0102F1AC016846052201F01BFD9DF859
:103760000000072808D10DF10100016800EE101AD1
:1037700084ED000A012016BD002016BD1446404A03
:1037800000EB80000229024470470A78521C001D99
:1037900001F02EBABDEEC00A10EE100A3949884277
:1037A00001D1012070470020704770B51026022813
:1037B000054604DB0C2110FB01F6361DB6B230467F
:1037C00001F020FA040003D0314601F07BFA2570A5
:1037D000204670BD420602D5491E8941C90F00F03E
:1037E00082BD2C22234B504318440079002818BF77
:1037F000FFF7F0BF704738B500241D4D03E00021EE
:10380000FFF7EFFF641C2978E0B28842F7D331BD9F
:1038100070B52C2606E0D5B2164C75432C44521CCC
:1038200020716171D4B29C42F5D370BD70B52C2269
:10383000104B0446191D54430C5D00E0401C0C4D18
:103840002E78C1B2B1420CD251435D1829790029BA
:103850001CBFA9780029F1D02979A142EED101201D
:1038600070BD002070BD00002C37002034370020D0
:10387000C861002044370020E3250020E425002013
:10388000C821000019FCFFFF7CB5C4000D46164698
:10389000103433462A46A1B2102001F0CFFC48B9BB
:1038A00000962B460022A1B2102001F02CFD08B991
:1038B000012076BD002076BD1346C00080B50A46C3
:1038C000103081B2102001F0FCFC012002BD015635
:1038D000C0F3C75181B1FF2906D0C110400721F0C4
:1038E000E04101F16051704741020CBF40F4E0013A
:1038F0006FF000410020704700F0004100020AD044
:10390000B0FA80FC00FA0CF001F16051A1EB0C510F
:1039100001EBD0214005704730B540F2FF7C1CEA36
:1039200011541DBF1CEA1355644565453FE06419F9
:1039300081EA030C6FF35F530CF0004C43F48013E7
:10394000C90241F0004141EA505EC5021100A5FBE9
:10395000020200284FF00000EEFB01204FF00001B2
:10396000E3FB052118BF42F0010240180021494144
:10397000E3FB0E01A4F580640D0302D292184041CE
:10398000494154F1010470DD450872F1004250F1E3
:10399000000051EB0451A1F5801102D441EA0C0161
:1039A00030BD40F2FF7E4CEA0E51002030BD0CEAE3
:1039B0001355644518BF654581EA030C0CF0004CB3
:1039C00041D050EA410E1CBF52EA430E02E061466C
:1039D000002030BD24422C441BD15FEA050EF6D0F6
:1039E000090302BF01460020AEF1140EB1FA81F5C1
:1039F000AEEB050401FA05FE0C35C5F1200100FA15
:103A000005F5C8404EEA000E6FF35F5343F4801390
:103A10009CE733F00043B3FA83F504BFB2FA82FEA9
:103A200075440B3D641BB5F1200E2FBF02FA0EF357
:103A3000AB40C5F1200E22FA0EFE38BF43EA0E035A
:103A4000AA40641C7CE750EA410E14BF52EA430EC0
:103A50006FF000014FF4001515EB430F8EBF1946B0
:103A600015EB410F9DE7B4D830BDD4F10104B4F19A
:103A700020050FDAC4F12005520828BF42F00102E8
:103A800010FA05FE01FA05F57244E2BFE040284352
:103A9000E1400FE0352C9ADCC5F1200452EA4002E7
:103AA00020FA05F218BF42F0010231FA05F0A140F8
:103AB0000A43002172F1004250F1000051EB0C0169
:103AC00030BD014101F000428B1AA3F16051B1F504
:103AD000801F0ADBB1F17F6F1FD242EAC102C10031
:103AE00071F1004142EB507070470B15C3F10903AF
:103AF000212B10D2890241EA9051800201284941CC
:103B000041F0004121FA03F0C3F12003994071F123
:103B1000004150417047100070476FF0000013EBF8
:103B2000103F5CBF000E42EAC0507047DFF800F063
:103B3000DBFD0210DFF800F0B1BF021038B50C4613
:103B4000010048BF494200220A250A2391FBF3F3F2
:103B500005FB13113031A154521C19460029F4DC25
:103B6000002802D52D20A054521C0021A15420462B
:103B7000FFF7DCFF002504E0615D225C6255215403
:103B80006D1C401E8542F7DB31BD10B501F08EFC87
:103B90004FF47A71B0FBF1F401F085FC604310BD85
:103BA00038B5044601F030F805463D48017822005A
:103BB00008D10A0710D441F008010170022001F079
:103BC000EDFD09E0012C07D10A0705D501F0F70149
:103BD0000170022001F077FD2846BDE8324001F077
:103BE0001EB880B501281FD12D4801780A0701D4DD
:103BF000C80602D44FF0FF3002BD2A4A106808B14F
:103C0000880611D5012002F0FEFA01F06DFCC00714
:103C100044BF012001F057FD23490120C1F83401C0
:103C20000021002001F021FE002002BD80B503F03C
:103C300014F9BDE80240012004F085B880B503F016
:103C400000F9BDE80240002004F07DB870477047DD
:103C500038B5164D124C2A68217878B941F03001F8
:103C600021701046002104F0B5FE28684FF0FF31A6
:103C7000FFF760FF207800F0CF000FE041F0100167
:103C800021704FF47A710A4B1D684843B0FBF5F17F
:103C90001046FFF74FFF207800F0EF00207031BD95
:103CA000D16100208C390020482B0020FC25002009
:103CB0000816000050B1B0FA80F18840C91CC1F567
:103CC0008461090501EBD02140057047014670472A
:103CD00051EC100B00B500F003F841EC100B00BDE7
:103CE00040F2FF7C0B0D4DD0634566D230B421EA23
:103CF000035141F4801103F2FD3C5FEA5C0C01D3F7
:103D000000184941890041EA907180004FF4401445
:103D10000023E202D50AB1F5100107D46D081DD2C7
:103D2000091B641900184941491BF7D56D080AD2CF
:103D30000919641B00184941491BEFD56D08F7D3D9
:103D400001E0520817D0C01861419B1AAC4100181D
:103D50004941801AA941F4D452080AD0C01AA1419D
:103D60009B186C4100184941801AA941E9D45208B6
:103D7000F4D15B1C6C4161084FEA330001EB0C513C
:103D800030BC704750EA0103FBD030B4B1FA81F384
:103D900011B9B0FA80F41B190B3BB3F120042FBF0B
:103DA00000FA04F19940C3F1200420FA04F438BF6A
:103DB00021439840D3F101039DE7634514BF50EAC6
:103DC000410CDEE711F5801FDBD8D943AFF300804B
:103DD00070470157C1F30A5340F21E42D31A0CDD5B
:103DE000CA0283F3070342EA505242F00042DA402B
:103DF00002EBE17282EAE17070476FEAE17203F26E
:103E0000E13008B182F000407047012510F0004118
:103E100060B148BF4042B0FA80F29040D21CC2F577
:103E2000846241EA025202EBD02140057047E80368
:103E3000F0B540F2FF7581EA030C0CF0004C15EA76
:103E400011541DBF15EA1357AC42AF42E5E0BC4127
:103E5000C1F31301C3F31303801A994143F4801390
:103E600004D2641E0018494180185941C90241EA30
:103E70005051B1FBF3F603FB1611A2FB0675D7EB0D
:103E8000C020A94102D2761E80185941C90241EAD8
:103E90005051B1FBF3FE03FB1E11A2FB0E75D7EBD5
:103EA000C020A94103D2AEF1010E80185941890208
:103EB00041EA9051760546EA8E2EB1FBF3F603FBFC
:103EC0001611A2FB0675D7EB8020A94102D2761EFF
:103ED00080185941C90241EA50514EEA060EB1FB21
:103EE000F3F603FB1611A2FB0675D7EBC020A94120
:103EF00002D2761E80185941C90241EA5051B1FBE5
:103F0000F3F703FB1711A2FB0735D3EBC020A94140
:103F100067F100070CBF004247F0010766F3D527A1
:103F20004FEA1E31B80814F5806412DDBD0775F143
:103F3000004250EB0E5051EB045111F5801F5CBF55
:103F400041EA0C01F0BD4CF07F6141F0E0410020FE
:103F5000F0BDBD076D0840EA0E5041F48011D4F168
:103F60000104B4F120060ADAC4F120060200E040A0
:103F700001FA06F3E1401843B24015430EE0342C39
:103F800013DCC6F1200445EA40056D0820FA06F26C
:103F9000154321FA06F0A1400D43002175F10042BE
:103FA00050F1000051EB0C01F0BD00205FEA0C0164
:103FB000F0BDCFB992185B41B3FA83F704BFB2FAF0
:103FC00082F6BF190B3FB7F120062FBF02FA06F3A6
:103FD000BB40C7F1200622FA06F638BF3343BA4089
:103FE0001CB1E419641E33E77F4231F00041B1FA9D
:103FF00081F404BFB0FA80F6A4190B3CB4F120069A
:104000002FBF00FA06F1A140C4F1200620FA06F6FF
:1040100038BF3143A0403C1B1AE7AC421ABF05EA47
:104020001357AF4212E050EA41061CBF52EA430662
:10403000BFE750EA4107304661461CBF41EA0551DF
:10404000F0BD52EA430C08BFC143F0BD00204FF45D
:10405000001616EB410F98BF16EB430F08BF16EB87
:10406000410F24BFC14305E016EB430F0CBF61466F
:104070004CEA0551F0BD0E00F8B50D4688B0044677
:10408000287800F0BAF800283ED1DFF83C22002161
:10409000131D53F8310018B1491C0829F9DB33E02E
:1040A00005A800230026002780E8C80002F8314058
:1040B000121D42F8315028788DF80000A868418818
:1040C000ADF802108188ADF80410807900F00F007F
:1040D0008DF80600A868C1798DF80710A868816876
:1040E0000291007B8DF80C00A8680169049105A974
:1040F00028788DF814008DF81C30CDF818D02046A3
:1041000004F0D8FC012000E0002009B0F0BDDFF889
:10411000BC11086070472DE9F041DFF8B4512C68FC
:1041200080460F4600F069F8002630B90020BDE84F
:10413000F081206800B9264604462CB1207940451C
:10414000F7D1A7600120F2E70C2000F05BFD00280A
:10415000ECD00022026080F8048087602968002982
:1041600014BF30602860EDE710B559490A6800E0D7
:10417000126852B1036811791C7DA142F8D191688F
:104180000029F5D0BDE810400847012010BD00F01F
:1041900039BD10B5044610460A460146204604F0D3
:1041A00005FD204610BD03E011F8013B00F8013B7E
:1041B00013465A1E002BF7D17047002818BF00F095
:1041C00022BD704701700A0A0B0C090E4270837001
:1041D000C170001D704700223B4B03EBC2014968D0
:1041E00011B10978884203D0521C082AF5DB02E09D
:1041F00013F8320070470020704710B501460022C6
:10420000314800EBC203586810B10478A14203D0D2
:10421000521C082AF4DB00E010BD002010BDF0B5F0
:104220008BB007460C4615461E462C21684604F006
:10423000C7FC397A8DF80010032906D108223946C7
:104240000DF1020000F0D4FC03E011B13988ADF8A3
:104250000210797A12988DF80A107989ADF80C104D
:10426000810744BF01228DF81C20C10644BF0122F2
:104270008DF81D20010744BF01228DF81E20810604
:1042800044BF01228DF81F20410644BF01228DF852
:104290002020000644BF01218DF821101398119BA6
:1042A000109A27788DF822008DF81470ADF816500A
:1042B0000693ADF824600A922078FFF78CFF6946D8
:1042C00004F0FCFB0BB0F0BDEC490020E8490020F5
:1042D0002C4A002001467548006801F03F01C840A3
:1042E00000F001007047012200F03F0002FA00F0E8
:1042F0006F4A09B11060704710617047F8B500F05F
:1043000053F81043086024F0005404F09AFC00F0C5
:104310003DF8684902202A001CBF032D042D0860C7
:1043200002D144F4C04408E0012D08BF44F48044A5
:1043300003D0022D08BF44F400541FE0F8B500F08C
:1043400033F822EA0000086044F0005404F079FCDD
:1043500000F01CF8574902202A001CBF032D042D31
:10436000086002D144F4C04408E0012D08BF44F4C1
:10437000804403D0022D08BF44F4005404F061FCD3
:10438000240A3C70BDE8F24004F088BC0021317082
:10439000220AB11C3A70230C0B70210E06F8031F81
:1043A00024F4C04404F07ABC0D464349860001233E
:1043B00000F03F0006F0FC0603FA00F006F180462C
:1043C00006F50126771C34680A68704770B500F05E
:1043D00026F8012200F03F00266802FA00F0364A73
:1043E00021B1116826F00056084304E0136846F036
:1043F000005623EA00001060350C04F022FC002176
:10440000631C2170320AA11C1A700D70360E04F85C
:10441000036F04F043FC27490220086070BD84004C
:1044200004F0FC0404F1804404F5012470470122E7
:1044300000F03F0002FA00F01D4A136C03431364BE
:1044400009B11060704710617047000038B58500F1
:1044500005F0FC0505F1804505F50125174C286898
:104460000440032915D8DFE801F002050B081449C0
:104470000C430EE0134804430BE044F4E02408E04E
:1044800000F4E020B0F5C02F0CBF44F4A02444F4A5
:10449000C02404F0D6FBAA1C210C1170240E05F8D0
:1044A000034FBDE8324004F0F9BB0000C0200240D9
:1044B00090200240E0200260D0200240FFFFF8E799
:1044C0000000061800000510F8B504460D46012648
:1044D0000027344203D02946F8B2FFF7B7FF7F1C0C
:1044E0007600F8B22028F4DBF1BD0300DFF800F01D
:1044F000C5E20210DFF800F0E7E90210DFF800F093
:104500009DEB0210DFF800F025DB0210DFF800F071
:10451000F5EA0210DFF800F021CD0210DFF800F01C
:10452000C3EC0210DFF800F0BBEC0210DFF800F083
:104530004DEA0210DFF800F045DF021038B5DFF871
:104540002C46207801282DD0DFF82406DFF8242619
:1045500080088000121AE261024602E0002342F85D
:10456000043BE3691D18AA42F8D39B0800EB8302C1
:10457000002142F8041CE8230360E16989088900EE
:10458000EC39C0F8E810A06100F1E801A16000205A
:1045900000F009F8E060A069E169A060091F01204E
:1045A0002161207031BDF8B500260027051D15F0EA
:1045B00003001CBF291D0D1A00F026FBDFF8AC25F7
:1045C000112D34BF9468D46801462068002803D5B3
:1045D00080F0004000271AE03B0014D03368D4F884
:1045E00000C06344AB42336011D334461846ECB18B
:1045F000401B042811D3605145F00040206013692E
:104600005D1B156111E0A842F1D201272646044442
:1046100020680028DAD1002408E0136920681B1AFA
:104620001361256845F000452560241D516008464A
:10463000F4E010B504001BD000F0E6FADFF82C150A
:10464000486054F8042C002A03D44A69521C4A6179
:104650000BE022F0004244F8042C0B69D2180A61E6
:10466000221F8B689A4238BF8A60BDE81040D6E2AC
:1046700010BD2DE9F04100F0C7FADFF8F024D3684F
:10468000002400250026002709E00E4601251C46CF
:1046900004E011D581F00041002547460B4419681C
:1046A000B046BE4238BFB8460029F2D1506000F093
:1046B000B6FA4046BDE8F081002DE6D0D4F800C03F
:1046C0008C44C4F800C08E19E8E710B50446DFF842
:1046D0009C04C169216000696060FFF7CAFF092876
:1046E0002CBF08380020A06010BD80B5FFF726FF62
:1046F0004BF6BE2002BD084655E7084699E702B5CD
:104700006846FFF7E2FF01BD01207047F0B5DFF812
:10471000684425782E460F2E0BDA1823DFF85C74D8
:104720005E43BB19586000201D70D96098601874F2
:104730005A616D1C2570681EF0BD38B50446002511
:10474000200001D1002032BD04F10C0000F05AFA23
:1047500028B10560FF220481827200F10C05284611
:1047600032BD80B508B9052002BD10F8021CFF2932
:1047700001D0042002BD0C3800F045FA002002BD33
:104780002DE9F0410C00064602D10520BDE8F0817C
:104790000020DFF8E85300E0401CDFF8DC2313784A
:1047A000C1B2994217D2C7B218214F43EA5DB24253
:1047B000F2D100F029FA8046E8192146083000F0CD
:1047C000C3F84FF40041304600F055F8404600F081
:1047D00026FA0020DAE70320D8E7F8B505460E46AA
:1047E00000F012FA00240021DFF8902300E0491CB9
:1047F000DFF884733F78CBB2BB420FD2182717FB88
:1048000003F3D75CAF42F2D1D1188C6801E054F8C1
:104810000C4C002C1CBF2178B142F8D100F0FFF9FC
:104820002046F2BD2DE9F84380464FF000090026EE
:10483000DFF84843DFF8405316E000F01CF812E0C0
:1048400018225043215C41450DD1271807F108007B
:1048500000F0AEF88146B86800284FF40041F0B28D
:10486000EBD100F049F8761C2978F0B28842E7D302
:104870004846BDE8F2832DE9F04781468A46032683
:104880000025BD4C17E000F032F847183A784A4549
:104890000FD100F0B9F98046786901684AEA010150
:1048A0000160F86808B1FFF735FE404600F0B7F93F
:1048B00000266D1CEDB220788542E4DB3046BDE871
:1048C000F08770B504460025AB4E0CE000F00FF801
:1048D00008444268A24204D1C0684FF0FF31FFF79C
:1048E00029F96D1CEDB230788542EFDB70BD1821DF
:1048F000A24811FB05F170472DE9F04180460C46B6
:1049000000279D4E04E02878404511D07F1CFFB25F
:104910003078874216DA1822984912FB07F28D1870
:10492000B8F1FF0FEFD1FFF7F1FD69688142EDD1DA
:1049300000F06AF969690A6822EA04040C60BDE8BB
:10494000F0416CE1BDE8F08138B505460C4600F059
:104950005BF96CB1002144F80C1C2A6812B92C6078
:1049600006E00A4652F80C1C0029FAD142F80C4C19
:1049700067E02DE9F84304460D46904600F044F9FF
:10498000814620680027002628B100E07F1C50F8EF
:104990000C0C0028FAD1474504D229462046FFF7DF
:1049A000D3FF0126484600F03AF93046BDE8F283CD
:1049B00038B5044600F028F92168002541B10D46BC
:1049C000A5F10C0100230A682260FF240B608C72A1
:1049D00000F025F9284632BDF8B507460E4600F02E
:1049E00013F9002400250021644A00E0491C624BB1
:1049F0001B7899421BDA18234B4312F803E0BE459B
:104A0000F4D1D1188C6801E0254614467CB1237896
:104A100054F80C2CB342F7D1002D0CBF8A6045F836
:104A20000C2C0021FF2244F80C1C04F8022CF5E6A3
:104A300038B504460D4600F0E7F8216845F80C1C2F
:104A40002560BDE83240EAE070B504460D461646E2
:104A500000F0DAF8A5F10C0123680A689D420CBF4A
:104A6000226046F80C2C0022FF230A608B72BDE8FE
:104A70007040D4E0F8B5404C404B627800250026E9
:104A800011E01827774303EB070CDF5D874204D161
:104A90000F0018BF01278CF810709CF810703D4370
:104AA00018BF0125761C2778BE42EADB280009D111
:104AB000012A10460FD100F006FE022000F003FE8E
:104AC000002208E0100006D1012000F067FE02205D
:104AD00000F064FE012262702846F2BD014688683B
:104AE000496808472DE9F84180461D0089B00F4606
:104AF000164608BF022034D02C68ECB90C20FFF712
:104B000052FD040014D00823242200216846FFF738
:104B1000F5FC00200590ADF81000069400236A46CD
:104B200041461748FFF7EEFC20606760A66008B9B1
:104B3000082016E02C600CE000F066F805462068BE
:104B400004F0AEF810B12068FFF7D0FC284600F062
:104B500066F820684146FFF7E1FC2068FFF7CAFCD1
:104B600000200AB0BDE8F0810000000028420020CB
:104B700007620020FF3B0120D2610020BC400020E2
:104B8000DD4A000070B505001CBF2C68002C01D068
:104B9000206808B9022070BD00F036F8064620688B
:104BA00004F07EF810B12068FFF7A0FC2046FFF764
:104BB000B9FC204600F027F800202860304600F0BD
:104BC0002EF8002070BD20B10068002818BFFFF744
:104BD0008DBC704710B513465A1E3BB110F8013B0F
:104BE00011F8014BA342F6D0002010BD012010BDEA
:104BF00003E011F8013B00F8013B13465A1E002B5D
:104C0000F7D17047CFE414E580B5FFF78FFCADF81E
:104C1000000004F016F8ADF80200009802BD01B5DE
:104C2000BDF8020004F03AF8BDF80000BDE802400B
:104C3000FFF780BC80B5022100F002F880B202BD0F
:104C4000012901D100787047022904D10178407808
:104C500001EB00207047032907D102784378807860
:104C600002EB032101EB0040704704290AD10278CE
:104C7000437802EB03218278C07801EB024101EB1B
:104C8000006070474FF0FE30704701700A0A0B0C4D
:104C9000090E42708370C170001D704710B540B19D
:104CA000002300E05B1CDCB2944204D2045D8C4221
:104CB000F8D0002010BD012010BD80B504F01CF814
:104CC00080B202BD002203F071BF010070B503F095
:104CD000B8FF06467D484068FA246FF0F90560B1D8
:104CE000B0F90C108C42C8BF0C46B0F90E10006829
:104CF0008D42B8BF0D460028F2D12946204600F06B
:104D000005F83046BDE8704003F0C8BFF0B46F4B03
:104D1000B3F90040A0421ADA6D4D6E4C2E7825682A
:104D2000A5F5407576B2821C7543D7052D1105EBAC
:104D3000E735803D12F1F90F2ADA4FF4803505F49A
:104D40007F4525631880206A40F004002062B3F993
:104D5000020088421ADA5E4C5E4A25781468A4F58F
:104D600040746DB2881E6C43C605241104EBE63412
:104D7000803C10F1F90F15DA4FF4803404F47F44CD
:104D800054635980106A40F008001062F0BC70470C
:104D9000FA2AA8BF4FF47F45D1DA002DCFD54E4A6D
:104DA0001540CEE7FA28A8BF4FF47F44E6DA002C7E
:104DB000E4D549480440E3E72DE9F0474448454D30
:104DC00001782A68414E454F4FF47F432B63FA2107
:104DD00031802A6A22F004022A62002200782968BF
:104DE0006A636FF0F9007080296A21F00801296276
:104DF000F86B7468D0F8001088470FFA80FAE4B1B5
:104E0000B4F90E90D4F80080D145BCBFB4F90C10B1
:104E10008A450FDBD145B8BFB4F90C902146301D4F
:104E200003F0EEFF0020226920752346A46849465E
:104E30005046A0475FEA0804E2D1FFF747FF686ADF
:104E400000F00C006862686A10F00C0FF7D1396846
:104E50000A6ABDE8F0473520104770B584B003F00A
:104E6000F0FE1F4D0446287808BB684603F00EFF8D
:104E70001C490A78019201218DF808106B461A4AE4
:104E80003521281D03F0BAFE1848194B816C21F01A
:104E9000040181640322816C21F0080181640260B5
:104EA00009211A6816680220B047012028702046A0
:104EB00003F0F4FE04B070BD00B50E4881B0016887
:104EC0000A68904700B201B000BD00003C2B0020F2
:104ED0000C1300502850094000FF0100B0010010E1
:104EE000285A0020FA520200B94D00000050094033
:104EF00084010010EC01001001680A681047026884
:104F00009368184702681369184770B503F099FE53
:104F100018490546087860B9012217480A700478D4
:104F20003CB1164E304656F80C1B4A699047641E39
:104F3000F8D12846BDE8704003F0B0BE0000000084
:104F400030B50C4C237881B000227BB10A4C257817
:104F5000A8420BD209B900BF0CA100EB400292009D
:104F6000064B98189B589A6990470246104601B024
:104F700030BD0000ED610020FE250200202500006C
:104F800002A1D1E90023C0E900237047000000001E
:104F900001000000002387E0012385E070B504468E
:104FA0000E46FFF731FE05463146204600F0DEF89A
:104FB00004001AD02068FFF799FA2046FFF7B2FAEA
:104FC000714881688C4203D12169816005E0014606
:104FD0000869A042FBD1206908612046FFF713FE53
:104FE0002846FFF71CFE002070BD2846FFF717FE7D
:104FF000022070BDF8B505460E46FFF705FE0446D3
:105000003146284600F0B2F8002750B1006803F09E
:105010000EFF5E4A13684FF47A71B1FBF3F3B0FBF5
:10502000F3F72046FFF7FBFD3846F2BD70B5564D4D
:10503000EC6854B126692046FFF774FA2046FFF762
:10504000E2FD3400F6D10020E86070BD4E4A1070D9
:105050005160704710B50446A1682079FFF70BFC3A
:10506000207B00BB2068FFF741FA474A90688442E2
:1050700003D12069906005E008460169A142FBD197
:10508000216901610020D168206111B9D46004E078
:10509000014608690028FBD10C61BDE81040516849
:1050A0001078FFF7E8BB10BD2DE9F8471F46374BD6
:1050B00080468A4618684FF47A71B1FBF0F042439B
:1050C00089B01546FFF7A0FD81465146404600F0E5
:1050D0004DF8082604000AD02068FFF707FA206878
:1050E0002946FFF71BFA2068FFF704FA37E014207F
:1050F000FFF788FD040032D00823242200216846EF
:10510000FFF7FCF9002F14BF059505970121ADF8B5
:105110001010069400236A4629461D48FFF7F2F94D
:105120002060C8B184F80480C4F808A02773002068
:1051300020611548816811B9846004E0014608695E
:105140000028FBD10C6120682946FFF7E7F92068A9
:10515000FFF7D0F9002602E02046FFF754FD48464D
:10516000FFF75DFD30460AB0BDE8F08720B5024686
:105170000548806800E0006928B10379934204BFC4
:1051800085688D42F7D120BD4842002008160000F6
:105190005550000062B38B0708D0521E11F8013B36
:1051A00000F8013B00F024808B07F6D1830740F024
:1051B000208000BF103A07D330B4B1E83810103A5D
:1051C000A0E83810F9D230BC530724BFB1E808106A
:1051D000A0E8081044BF51F8043B40F8043BD20754
:1051E00024BF31F8022B20F8022B44BF0B78037048
:1051F0007047121F17D35B0009D151F8043B20F808
:10520000023B1B0C121F20F8023BF6D20BE051F8B8
:10521000043B00F8013B1B0A20F8023B1B0C121F49
:1052200000F8013BF3D238BF121D521E24BF11F803
:10523000013B00F8013BF8D870477047FEB5684E57
:105240001D4633681446002B1CBF1A69002A1AD069
:1052500001228DF8002000F04CF800279A6A1AB15C
:10526000DDE9000190470746A74201D10020FEBDBD
:10527000224634682B46DDE900012569A84701284C
:1052800001D10A20FEBD0920FEBD13460A46014693
:105290000020D3E71CB5524B1B680022002B1CBF1B
:1052A0009B6A002B08D0012400F023F88DF8004001
:1052B000DDE900019847024690B216BD0146002084
:1052C000E8E7BCB5464C24680025002C1CBF646987
:1052D000002C0CD0012700F00CF88DF80070DDE9EF
:1052E0000001A04718B10A280CBF09250A25284645
:1052F000B6BDADF80200ADF80410704713460A467B
:1053000001460020DDE77FB5354C2468002C1CBF2A
:10531000E469002C0FD00126ADF80600ADF80810A6
:105320008DF80460DDE90101089D0095A047012882
:1053300018BF002000D10A2004B070BD78B5284CF9
:10534000246887B0002C1CBF246A002C16D004915E
:10535000ADF8160001260F99BDF838000C9D039199
:105360008DF814600026BDF8341002900191ADF85C
:105370001860DDE905010095A04700B10A2008B0DA
:1053800070BD80B5009313460A4601460020FFF722
:10539000BAFF02BDFEB5124E336800251446002B3D
:1053A0001CBF9A69002A18D001278DF80070FFF7FA
:1053B000A0FF9A6A1AB1DDE90001904708B90925F2
:1053C0000BE0A04218BF0C2507D132689369DDE9D4
:1053D00000019847012808BF0A252846FEBD0000A5
:1053E000604B0020DFF800F08DDD0210DFF800F0E8
:1053F00049E60210DFF800F0FDE90210DFF800F0E6
:1054000011DC0210F0B51C0089B005460E461746A7
:1054100005D10023FFF7E6FF284609B0F0BD0823B9
:10542000242200216846FFF769F8A16806916B46BF
:105430002278ADF810203A4660680590314628463B
:10544000FFF7D0FF284609B0F0BDF0B5140089B0D1
:1054500005460E46224F05D13B460022FFF752F883
:1054600009B0F0BD0823242200216846FFF746F862
:10547000A16806913B462278ADF810206A46606824
:10548000059031462846FFF73DF809B0F0BD00B55C
:1054900081B000906846FFF745F801B000BDFFF706
:1054A000A5BFFFF7A7BF0F4800687047FFF7A6BF6B
:1054B00003F0BDBC00B581B003F0F2FB401E80419B
:1054C000C043C00F01B000BD002181600170416088
:1054D0007047FFF723B8FFF70DB8FFF707B80000D4
:1054E0001C29002008160000DFF8C00980687047FA
:1054F00002460020022904D1012A06D140F2EE2002
:105500007047012A08BF4FF47A707047DFF89C1982
:1055100091F8410120B1D1F86C01002818BF004773
:1055200070472DE9F041DFF8844994F842010028E2
:1055300084B040F0AE800121DFF87469DFF874595F
:1055400084F84211307B84F841017168C4F86C1111
:10555000A868C0F38140B8B93069A8B12F68FFF7D7
:10556000A2FFC7F30662642111FB02F2B2FBF0F264
:1055700000230FF6211104F19400FFF743FFDFF839
:1055800038194FF00040086001A8FFF79DFF002088
:1055900002908DF804000022039201AB0FF24171DA
:1055A000DFF8187904F10C00FFF72CFF01A8FFF7D2
:1055B0008BFF002002908DF80400039001AB0822BD
:1055C000DFF8FC1804F15000FFF71CFF00230FF276
:1055D0005562322104F1D80003F010FB002038603E
:1055E0000023DFF8E0282C2104F1F40003F006FB8F
:1055F000DFF8D4080178A968707BC1F3815128B124
:10560000032903D1012084F8390121E0032918BFBF
:1056100002291DD001291AD1DFF8B068DFF8B0786F
:10562000032000901C23D6F800C0DCF804804FF063
:10563000405200213846C047012000903846366865
:10564000776809234FF400720021B84711E081B94F
:10565000386840F04000386003F0F3FAA16841F088
:105660000401A16094F84511491C84F8451103F028
:1056700015FB686840070CD403F0E3FAA16841F019
:105680000101A16094F84311491C84F8431103F00F
:1056900005FB002004B0BDE8F08130B581B00024E6
:1056A00008B1150004D16FF00204204601B030BDEE
:1056B0008160C26003610146DFF8F00703F076FB0A
:1056C000204601B030BD10B5044603F0BAFADFF849
:1056D000DC170A1992F843315B1E82F84331DBB2C2
:1056E00033B98A68012303FA04F422EA04048C60C3
:1056F00003F0D4FA002010BDF0B581B0054603F0E8
:10570000A0FA0446DFF8A417481990F84A21521E5F
:1057100080F84A21D2B232BBDFF8B80700EB85022D
:1057200010F825505688280623D5DFF8AC7739685D
:105730000A6A3046904739688A6A30469047396825
:105740000A6B30469047DFF8941701200860DFF8B5
:10575000900701688907FCD505F03F05152DBCBFF2
:105760002846FFF7C9FF204603F098FA002001B051
:10577000F0BD680606D501EB86010020D1F8602156
:105780009047E9E7DFF850170B689A693046904771
:10579000304603F065FB0228FAD1DDE710B5044678
:1057A00003F04FFADFF804178A680123A3401A4375
:1057B0008A60214491F84321521C81F8432103F06F
:1057C0006DFA002010BD2DE9F041064603F039FACC
:1057D0000446DFF8D856A81990F84A114A1C80F8F8
:1057E0004A2139BBDFF8EC8618F8260000F03F00AC
:1057F0001428D8BFFFF7E7FF08EB8600478818F8A2
:10580000260001061CD5DFF8D0562A68D169384633
:1058100088472A68516A384688472A68D16A3846D4
:105820008847DFF8B82601201060DFF8B406016869
:105830008907FCD5204603F031FA0020BDE8F0814D
:10584000400606D505EB87010120D1F8602190477D
:10585000F0E7DFF884160B685A69384690473846F7
:1058600003F01BFB0128FAD1E4E770B503F0E9F976
:10587000DFF838660546307A810748BF6FF00304C9
:1058800017D4D6F83401012811D10421C6F83411F7
:10589000022000F028FA04000BD1DFF84816DFF8E8
:1058A000482600200860136803F02AFB01E06FF02F
:1058B00004040120C6F83401284603F0EFF920461D
:1058C00070BD2DE9F04F0025012881B0AA46A946F8
:1058D00018BF6FF0010840F03581DFF8D075D7F8B8
:1058E0003401012844D10221C7F8341103F042FCED
:1058F000012000F0F8F95FEA00083FD197F85B015A
:1059000008B14FF0010A97F85A0108B14AF0020AAB
:1059100097F8590108B14AF0040ADFF8BC45A16ABA
:105920000A680120904701281CBF97F83801012818
:1059300051D103F08FFCDFF87CB5DBF808000125BE
:10594000C0F3814040BBDFF86805016900910800A1
:1059500022D007F19400FFF7C0FDDBF80000DFF86C
:105960008C15C00F14BF4FF441504FF482500EE01D
:105970006FF00408404601B0BDE8F08F0120C7F881
:10598000340103F000FC404601B0BDE8F08FC1F8DF
:10599000800000200099884797F83801D8B1DFF8D7
:1059A0005005D0F8841221F08001C0F884128022C2
:1059B000C0F88C2203F045F997F84611491E87F884
:1059C0004611C9B219B9B96821F00801B96003F0EC
:1059D00065F987F83891387AC10748BF4FF0010957
:1059E00007D4216ADFF80C058A6890470646042E22
:1059F000F7D04FF0FF320021484603F0A4FAB9F186
:105A0000000F0FD1012E05D1226ADFF8E804536898
:105A100001219847DFF8D804D0F8181241F00301AB
:105A2000C0F81812504621684A69904797F8550106
:105A300020B12168CA6A4FF48060904797F85401FA
:105A400020B12168CA6A4FF481609047DFF88C1456
:105A5000DFF89C94012008600022C9F80020032090
:105A6000C7F83401504603F018FA0128FAD1DFF8DC
:105A700078643068042000F036F98246DFF8781444
:105A800001200860002D32684DD0A16A0A68904755
:105A9000012848D097F83801002844D1DFF8144491
:105AA000A068C0F38140C0B9DFF804040569A5B15E
:105AB0002068DFF83814C00F19BF4FF44050086059
:105AC0004FF480520A60502003F014FC0120A847D4
:105AD00007F19400FFF7FFFC01E003F081FB0120D8
:105AE00087F83801A068C0F3814018B9DFF8C01307
:105AF000086958B9387A810608D48020C9F88C0220
:105B0000D9F8841241F08001C9F8841203F099F8A1
:105B1000B96841F00801B96097F84611491C87F847
:105B2000461103F0BBF803F0E1FB082000F0DBF8BE
:105B300040EA0A040120C7F8340103F024FB0CB149
:105B40004FF0FF38404601B0BDE8F08F30B581B06E
:105B5000044603F076F805462146DFF8500303F0CB
:105B60004FF9284601B0BDE8304003F097B810B5B2
:105B70000024022802D0032805D008E003F0BEFB71
:105B80000446204610BD03F043FD204610BDFEE74D
:105B90000000F0B581B003F054F8C449054691F80F
:105BA0003801012460B1DFF82463DFF8240337688B
:105BB000D7F80CC0002301223C21E04700B90024A3
:105BC000284603F06BF8204601B0F0BD30B581B037
:105BD00003F037F8044603F012FBB44D002085F8BB
:105BE000380103F02EF895F84611491E85F8461144
:105BF000C9B219B9A96821F00801A96003F04EF8EB
:105C0000204603F04BF8AA4884680220A0470546C6
:105C1000102000F068F8012D04BF0320A04701B058
:105C200030BD00002DE9F041A44C82B065682068C9
:105C300020EA050105406A06216049D5A34EF16BB3
:105C40000A6804209047022818BF032819D00128A9
:105C50003ED1032000901C23D6F800C09C4FDCF8F6
:105C600004804FF0405200213846C0470120009088
:105C700038463668776809234FF400720021B84728
:105C800026E0032000901C23D6F800C0904FDCF8DB
:105C900004804FF0405200213846C0470120009058
:105CA00038463668776809234FF400720021B847F8
:105CB00002F0C7FF7D4991F84521521E81F8452128
:105CC000D2B21AB98A6822F004028A6002F0E6FFB2
:105CD000280648BF00F022F8A56002B0BDE8F081B8
:105CE00070470020704730B505467048046881B0A1
:105CF0005CB1A068284205D02269E36800212846EB
:105D0000984728B92468002CF3D1002001B030BD99
:105D10004FF0FF3001B030BD0020704730B581B08A
:105D200002F08FFF4FEA000403F069FA0028FBD06D
:105D300002F087FF5D4D95F84611491E85F8461122
:105D4000C9B219B9A96821F00801A96002F0A6FF3B
:105D5000002085F83801204602F0A0FF54488468EE
:105D60000220A04705461020FFF7BDFF012D04BF0C
:105D70000320A04701B030BD70B501284CD15F4968
:105D80000A6813689847012800F08180474D95F80C
:105D9000380100287BD1474EB068C0F38140B0B9CC
:105DA000434804699CB130685049C00F19BF4FF493
:105DB000405008604FF480520A60502003F09AFA75
:105DC0000120A04705F19400FFF785FB01E003F0F7
:105DD00007FA012085F83801B068C0F3814010B996
:105DE0003349086948B9287A810606D433488022A5
:105DF0008260016841F08001016002F022FFA96821
:105E000041F00801A96095F84611491C85F8461132
:105E100002F044FF002070BD002838D103F01AFAC8
:105E2000244E224DB068C0F38140A0B920480469D7
:105E30008CB105F19400FFF750FB30682B49C00F7F
:105E400019BF4FF44150C1F880004FF48252C1F89D
:105E500080200020A04795F83801C0B1174801689C
:105E600021F0800101608021816002F0EAFE95F856
:105E70004611491E85F84611C9B219B9A96821F021
:105E80000801A96002F00AFF002085F8380100200F
:105E900070BD000000B5154981B04020086003F0D6
:105EA0009FF901B05DF804EB38E70000482B0020B3
:105EB00004260000AC4F005000A10C409022084086
:105EC0007D9700006D93000001620020A401001086
:105ED00000A00C40942A0000B8010010282008609F
:105EE00028200840340009402C200940A8A00C407C
:105EF0000C200840004003400C400940E001001025
:105F000010B504460B38102805D3DFF8D406816895
:105F1000D1F84C058047DFF8CC168C7310BDDFF844
:105F2000C406DFF8C4160161D723DFF8C01601628A
:105F300001F14C02426130310522C3738277C2778E
:105F4000416270472DE9F041DFF8A406DFF8906662
:105F50000568F068DFF89C761446C268984601210F
:105F6000117004F00202002018F0E04308BF002A7C
:105F7000F8702DD097F90600012802DBB879411E90
:105F8000B97197F90500012802DB7879411E797112
:105F9000DFF86406426832B118F0807013D0002137
:105FA0000020904704E018F0807308BF002A0AD050
:105FB00097F90700012802DBF879411EF9710120E9
:105FC000387103F086FC0020287103F025FD17E0EE
:105FD000E00304D50021297103F04DFD0CE0A0037E
:105FE00004D50021297104F05CF805E0600203D5B6
:105FF0000021297103F010FDA00648BF04F0A3FAA8
:1060000097F9050030B90021B970B268D2F8583458
:1060100098470EE004F0020018F0E04108BF0028A5
:1060200007D097F90500012803DAB068D0F84C15BD
:106030008847F168CA6800201070BDE8F0812DE93A
:10604000F843DFF8B045616A8AB051F8642F02A8BE
:10605000904794F9070000281CBF94F90600002817
:1060600078D102F0EEFDDFF8946580463078810744
:1060700002D50020079007E000217D2000F010FAF3
:10608000079000208DF8180002908DF80C00DFF8C2
:106090006895D9F8141009B130788847D9F80C0000
:1060A00008B18047089000210322DFF83855059198
:1060B0008DF818206980A96005F11C01287BDFF8A4
:1060C000207500F0F00040F080002873E87E00F0BA
:1060D000E30040F06300E876F420BA68D2F8283490
:1060E0009847207990B9317888060FD5616A51F8C0
:1060F0003C0F8047A8600122287B00F0F00040F0B0
:1061000002002873A96802918DF80C204FF080716D
:10611000DFF8EC64DFF8EC04DFF8EC34CDE90001E3
:1061200002AA3068666A06F1500C2946DCF8006065
:10613000B047002820830ED5D9F8042012B10021E1
:106140000020904741F28831022000F0FFF94046DC
:1061500002F0A4FD4CE0A079401CA0710021607900
:10616000401C6071E079401CE071E561022000F0A4
:10617000EDF900202071B968D1F8AC20107800B199
:106180008020218908432081B868D0F8AC102A8B80
:1061900009784FF67F70024042EAC1122A83B8683C
:1061A000D0F8D410C88CE082B968D1F8D400418D01
:1061B000A18200F021F804F10B0011680160516820
:1061C0004160B968D1F8D400C18C6986B868D0F84C
:1061D000D410488D288600F00FF805F128001168CA
:1061E000016051684160404602F058FD012000E026
:1061F00000200BB0BDE8F083B868D0F8D41001F1EE
:10620000440270471BE738B5044602F01AFD054604
:106210000021022000F09AF9DFF8D833DFF8E0031C
:10622000006822465C6A54F8183F4FF0FF319847E7
:106230002846BDE8324002F031BD80B5FFF760FE70
:10624000012002BDF8B5DFF8AC53DFF8B463696A2A
:10625000DFF88C7351F8542F044630689047E10FF3
:10626000B1EBD07F1FBFB868D0F8D41091F883008D
:1062700001280AD100F019F89847832814D0B8688B
:10628000D0F84C15BDE8F140084703F06FFB00F073
:106290000CF89847832803D0B868D0F84C15884785
:1062A000BDE8F14003F015BBF1BD6A6A306852F8F1
:1062B000583F214670472DE9F04F85B00D4600212B
:1062C00000910446CB4ECE4F0FF2F9090FF21D1884
:1062D00002F0B7FC736A01906A46386853F84CCFF5
:1062E0000521E04702A807F0DBFA02946108049553
:1062F00049004FEA59026FF0010A3868B84DB1EB16
:10630000420FD3460FD196F90030534521D096F96C
:106310000010726A52F8383F9847812819D000F06F
:106320004BF8884715E0620852004FEA5803B2EB79
:10633000430F19D196F9011051450AD096F9011071
:10634000726A52F8383F9847812802D000F034F83A
:106350008847736A386853F82CAF002202A9D047E7
:106360005FEA000B06D502E000F026F8884700F04F
:1063700023F88847600840004FEA5901B0EB410F0D
:1063800008BF86F800B008D0640864004FEA5800DF
:10639000B4EB400F08BF86F801B00120736A00908B
:1063A0006A46386853F84CAF0521D047019802F08F
:1063B00075FC05B0BDE8F08FA868D0F84C157047A3
:1063C0000000000010B5864CE168CA6889490120C8
:1063D00010706FF00100087007F036FE07F06FFED6
:1063E000E168CA680020107010BD000010B5814936
:1063F0007B4C6FF001004870A168D1F8E82010686C
:1064000048B1E068C2680121117007F016FEE1682A
:10641000CA680020107010BD7C49086070470028D1
:1064200000D1704710B5734C2062006920B96C49E7
:106430008868D0F84C158847206A4168616210BDB1
:1064400070B56C4D6E4E95F900206FF00104A242BC
:1064500006D095F900106A6A306852F8383F9847BC
:1064600095F90100A04206D095F901106A6A3068DA
:1064700052F8383F98476C702C7070BD38B55D4D40
:1064800095F901006FF00104A04208D095F90110C0
:106490005B4A6B6A106853F8382F90476C7031BDB7
:1064A000F8B54F4E5A4FB26804460D46D2F828341C
:1064B00069464F20984700F040F89047042808D1DB
:1064C000600100F5867045B300F031F802F5F67210
:1064D00022E000F032F89047B8B904F10801490011
:1064E00035B13A784FF47A7090FBF2F216325118C7
:1064F000F2689DF9000001238340506805785B1E17
:1065000008356B4313FA81F007E004F10C00C0007A
:106510001DB100F00CF898321018132C2CBF282154
:106520000C210818397880B248438000F2BD3A78CF
:106530004FF47A7191FBF2F27047B068D0F8D41042
:1065400091F85300B168D1F81824704770B504462B
:106550000D46FEF759FB0646FEF7A5FF012CB5FBDD
:10656000F0F02C4B06D108B918680FE000220FF2AA
:10657000390112E0022C07D108B9586806E01B1D4A
:1065800000220FF2350108E018B99868FEF71BFBEE
:1065900005E0083300220FF23101FEF7A3FA30467E
:1065A000BDE87040FEF73BBB0D498A68D2F82C135A
:1065B0004FF400600847000009498A68D2F82C139C
:1065C0004FF48050084700000A484179491C417146
:1065D00000224FF080730021002008F0E7B800008F
:1065E0000C010020602D0020E05F0020605F002093
:1065F000EC5F0020D82C0020202E0000FC61002041
:10660000642E002020004300455F00005C5F0020F6
:10661000F05F0020C05F002010B5DFF864496073B0
:1066200002204FF6FE712072218008F0CAFB09F0AB
:106630006DFC04F148000AF022FB00F070FEBDE89A
:106640001040F8E138B50AF0E2FFDFF83459E86BA2
:1066500030B1E86B0468FEF7D6FA002CEC63F8D191
:1066600031BD70B50D462904DFF8146916D4EA0768
:106670001CD5012000F078FEDFF8F8080078717C66
:106680000F230F2200F0070009F051FC85F00100F4
:1066900070BD00F063F92046FEF763F8707BFEF7EB
:1066A000C1F80400F5D185F4004070BDE90612D5AB
:1066B000F07B09F0B6FCDFF8C0080178012907D1AA
:1066C000DFF8B808007864224FF40061FEF762FC3E
:1066D00085F0100070BD290702D585F0080070BD57
:1066E000E90511D5DFF89C0890F82600082818BFA6
:1066F000042806D10F2008F093FD022100200BF0A2
:10670000B1FD85F4807070BD69070AD50321FF20B3
:106710000BF0A8FD02F0E6FDDFF86C180120086020
:10672000FEE72946BDE8704010B50C4620060DD5A1
:1067300000F05FFA00F0D2F801200CF018FD012102
:1067400003200BF06FFF84F0800010BDA00504D57E
:1067500000F07FFA84F4007010BD200504D50BF022
:106760006BFC84F4006010BD600504D50BF088FC60
:1067700084F4806010BD002010BD2DE9FE4F8046DE
:1067800089460CF011FEDFF8EC77DFF8F847B978AE
:10679000DFF8EC57A1730026E87B38B90BF02BFD2E
:1067A000A07B01070BD58DF8006004E0080706D533
:1067B00001218DF80010694652200CF0B5FF0DF054
:1067C00075F900F05CF8824640B900F09EF8824608
:1067D00094F9180001218140A96305E008F081FCCB
:1067E00008F0A7FC0BF092FCBAF1010F4FF6FF7B0B
:1067F00033D100F050F8FEF760FA00F07F06DFF8C2
:106800008C070168A963FF2002210BF02BFD4FF6D6
:10681000FE70E0826083A4F824B0002008F01AFD26
:10682000DFF8700801784644643601290CD1B9F1CB
:10683000010F03D100200BF04FFC05E0684600215A
:10684000C0E900110BF048FC224674212120FEF71C
:1068500055FD022100200BF005FD5046FFF7F2FE2A
:10686000D84506D00120E87300F0CCFAB0B200F0B1
:10687000DDFCB87808F050FE5046BDE8FE8F10B53C
:106880000BF0E1FC0024800703D500200CF06FFC26
:106890000124204610BD10B5DFF8D816DFF8F40744
:1068A0000A780078DFF8D84602F0F80210B9022022
:1068B0000A7011E0012808BF42F0010203D002284B
:1068C00002D142F002020A70DFF8540809F0ECFA33
:1068D00010B1042103202174607410BD80B5DFF86D
:1068E000A006C17B05290CD100F07FFA062000F03C
:1068F0003BFD00F00EFD00F0ACF9BDE8014000F0FA
:10690000C4BCBDE8014000F004BD10B508F0E9FBCF
:1069100010BB08F020FCDFF80C48D8B108F05AFA98
:10692000DFF85C26108028B9DFF84806017801F00E
:10693000F8010170032050740021DFF8480680F848
:10694000261000F1390102F140000DF023F900207A
:10695000208010BD00212180012010BD80B5DFF80E
:10696000341703780978DFF81826012B0FD0022B93
:1069700023D01A2B04D0D32B06D0FD2B33D02FE0FD
:10698000BDE802400DF02ABEBDE802402CE0D07BFD
:10699000022828D1012918BF022924D10BF085FF34
:1069A00018B10BF088FFF0B160E20EF08CFD00B181
:1069B0000120BDE802400BF0EBBF012918BF0229FE
:1069C00011D1DFF858070078072818BF082804D12C
:1069D000917B11B901210BF025FEBDE801405CE07F
:1069E000BDE802403EE001BD10B5044686B0E08936
:1069F0002138012813D947F6DF71401A012818D829
:106A0000204609F0F2FF040013D0207818B96088FE
:106A1000211D09F07DFD2046FEF7F5F809E0207BF9
:106A200038B96946204609F0BFFF6946204609F09B
:106A3000D3FC06B010BD10B5DFF84445607B48F2CA
:106A400001010DF071FD607B4FF400410DF06CFD14
:106A5000607B21210DF068FD607BBDE810402221A4
:106A60000DF062BDDFF82C1602780978042A04D0F4
:106A7000062A08D0082A0AD07047012918BF02291F
:106A80000AD10AF0EBBD012906D10AF0CBBE0129DB
:106A900014BF02290AF0DABE704738B5DFF8E044C7
:106AA000E17BA07B032908D00A29DFF8C85431D143
