:020000040000FA
:060000000216FF020A1CBB
:03001300020AD806
:03002B000214229A
:03003300020C6953
:03003B00020B2D88
:03004B0002138716
:0300530002094B54
:03005B000211DFB0
:0300630002120086
:03006B00020C0C78
:03007B00020C4034
:100083000209AD01010020FD0002012F050000005F
:1000930001551D611D0000671D731D0000000079DF
:1000A3001D9D1DA31DA91D0000000000000000FFF1
:1000B300FF01010204081020408001FFFF090D0128
:1000C300010401FEFF000000000000000612FFFF14
:1000D300FFFFFFFFFF01010104004914000000E8D6
:1000E300030000FFFFF114E803000064006400B89C
:1000F30001A0BB0D00A0BB0D00020200F8FF070525
:10010300021E0401051E02051E020A0A0101080857
:1001130003102702803E0102FEFFE8030A050001E7
:10012300FFFF020A1401E0C503423F1A51123FF3D5
:1001330004B53F0000803E05030101FF8B39000039
:1001430000005F3800000000FF000000FF00C082D5
:10015300C083E9FA5407F8748E28F582E43417F55E
:1001630083E0F87900EAC4540F540360081460096B
:1001730014600D8012E5808002E5905870078007B7
:10018300E5A05860027901020258C082C0831202BE
:10019300EA600814601214601C802BEA6005EB42CD
:1001A300808023E85280801EEA6005EB429080162F
:1001B300E852908011EBC39420500BEA6005EB42A8
:1001C300A08003E852A0020258C082C0831202EA50
:1001D300600814602C146050807BE852F374016A49
:1001E300601274026A601574046A7003EB428FEB49
:1001F30042FD806153F7DFE8528F80F343F720809D
:10020300F6E852F474016A601274026A60157404A9
:100213006A7003EB42F6EB42FE803A53F7BFE852B3
:10022300F680F343F74080F6EBC394205027E8525F
:10023300F574016A601274026A601574046A7003CB
:10024300EB42F7EB42FF800D53F77FE852F780F361
:1002530043F78080F6D083D08222C082C08312020B
:10026300EA600814602B14604E806CE852F352FD70
:1002730074016A600F74026A600F74046A7058EB49
:10028300428F805353F7DF800343F720E8528F8078
:1002930046E852F452FE74016A600F74026A600FFA
:1002A30074046A7032EB42F6802D53F7BF80034328
:1002B300F740E852F68020EBC39420501AE844E05C
:1002C300F852F552FF74016A601074026A60137485
:1002D300046A7003EB42F702025853F77FE852F7C0
:1002E30080F543F78080F6E95407FC748E2CF58281
:1002F300E43417F583E0FBF4F8E9C4540F54032204
:10030300C082C0831202EA600814601214601C8069
:100313002DEA6005EB42FD8025E852FD8020EA606E
:1003230005EB42FE8018E852FE8013EBC394205085
:100333000DEA6005EB42FF800574E04852FF0202BC
:1003430058C082C0831202EA600814601514602248
:100353008034EA6005EB42808003E85280EB42FD83
:100363008024EA6005EB42908003E85290EB42FE62
:100373008014EBC39420500EEA6005EB42A0800387
:10038300E852A0EB42FF020258E9C4540F54036041
:1003930007146013146020227801E8F4FBEA60205C
:1003A30014602114601522740F59C3940450047807
:1003B3000280E7780480E3780880DFE58C586004E6
:1003C300EB528C22E8428C2212170F601D12171E6B
:1003D3007005191919801A121578701F1215A0C308
:1003E3007003E6673319191940071818182208080B
:1003F3000874FFF618F618F618F6221215A06017FF
:100403001217C4702192F01217CD7019501720F0F3
:1004130014080808090909E7F61819E7F61819E78F
:10042300F61819E7F6221217CD60E6E869701F087F
:1004330008E62480F608E436F618547FB47F0CE609
:1004430054806007F6E418F618F622181822E9C655
:10045300CC08C6CD08C6CE08C6CFC0E0E8C0E0EAE7
:10046300C0E0EBC0E009E9F809E7FA09E7FBE6F9C0
:1004730018E6F8C3EC98ED99EE9AEBC2E7F5F0EFC6
:10048300C2E795F0500E600CEBCFFBEACEFAE9CD54
:10049300F9E8CCF8EAA2E7D2E7FAEB33FB13F5F07D
:1004A300EEA2E7D2E7FEEF33FFC5F013A2E730E693
:1004B30001B313C5F0C3C0E0C0F07F00C39BFB6072
:1004C3005E9418600F401D14601AD0E023F9D0E049
:1004D300F80205AC8AF0E9486003D2F0E4AFF0FA21
:1004E300F9F8803BEB30E40D89F0EA6003D2F0E4E5
:1004F300AFF0F9CAF8EB30E30D88F0EF6002D2F009
:10050300AFF0E4CAC9F8EB54076014FBC3EA13FA6B
:10051300E913F9E813F8EF135002D2E0FFDBEDD053
:10052300E0C0E030E739C3E49FFFF5F0EC98FC420C
:10053300F0ED99FD42F0EE9AFE42F0D0E0F9D0E002
:10054300F8E5F0607AE923F9EE20E742D802806704
:10055300C3EF33FFEC33FCED33FDEE33FE80EAEC07
:1005630028FCED39FDEE3AFED0E023F9D0E0F84067
:1005730002801BC3EE13FEED13FDEC13FCEF1350CF
:1005830002D2E0FF08B800067F7F74FF802EEF33AE
:1005930050178CF020F00260100CBC000C0DBD0055
:1005A300080EBE000408E860DFE933E813FFEE231A
:1005B30013FE4F4D4C8008E95480FFE4FEFDFCEE32
:1005C30033EF33F47004FCFD7E80D0E0FBD0E0FA1F
:1005D300D0E0F8D0E0CFC618CEC618CDC618CCC62A
:1005E300F92212170F70041818182212171E700D13
:1005F30074FFF61819F61819F61819F622E754803D
:1006030066F61217CD700F1217C470F014F608F6C1
:1006130008F608F680D11217C4700CF608F60876AF
:100623008008E6447F80EC1215A3700C12157B60E2
:10063300BFE65480F6E480BB12157B7005191919C7
:1006430080A5E869700C763F18768018F618F6E8EE
:10065300F922E6CDC0E018ECC0E0E633CD33CDD3CC
:1006630013F6E719FCE7191933CC33C3947F400E13
:10067300CD9D502408E65480F6E418F6800FF40468
:100683003D14501408E6447FF6187680E418F618F3
:10069300F6D0E0FCD0E0FD22CCD313CCFD18E4C6A9
:1006A300CBC0E018E4C6CAC0E00808ED08C633E6CC
:1006B30013F618E433C675F003C3CA97CA09CB9778
:1006C300CB199C40047D08802EBD000302078E16C3
:1006D300B6FF050606081618C3CA33CACB33CB3395
:1006E300CA27CA09CB37CB193CC37D08803E187D86
:1006F3000820E75CC633C6CA33CACB33CB33DDF13C
:10070300D5F0EB30E77BCA97CA09CB974ACB199C44
:10071300406F4B7025E620E0218066187D08C3CA30
:1007230097CA09CB97CB199CD3C633C6CA33CACB56
:1007330033CB3350C9DDE7D5F0E1D3E4C636C60881
:10074300C636C608C636C608C636C6181818803157
:10075300C3CA97CA09CB97CB199CB34097C633C674
:10076300CA33CACB33CB33DD34D5F02EC6A2E0C6B1
:1007730040C8CA27CA09CB37194A70BECB3CB480DC
:10078300B90808E63308E633601F181818D0E0FAF2
:10079300D0E0FBD0E0FCD0E0FD22187D08CA27CAD8
:1007A30009CB37CB193CD3808013F618E4B67F11FD
:1007B300F618B6FF0EF618C60470D20808768080C5
:1007C300CAF618F618F680C50012170F604F1217F5
:1007D3001E6012E7548066F612157870111217C462
:1007E300703B090909F4F618F618F618F6221215E3
:1007F300A070151217CD08080860EAE6447FF618C2
:10080300768018E4F618F6221217CD60161217C474
:100813007012E4F608F608F608E65480F6090909AA
:1008230018181822EAC0E0EBC0E0ECC0E0EDC0E02D
:10083300E687F0A4FBACF008E687F0A42CFCE435D3
:10084300F0FA1809E687F0A42C4B60027401CA354C
:10085300F0FCE433FB09E687F0D2F7A42CCB35F0A8
:10086300FC1908E687F0A42BCC35F0FBE433FD0834
:1008730019E687F0D2E7A42C4ACB35F0CD3400FC3F
:1008830009E687F0D2E7A42DCC35F0FDE433FA096D
:1008930018E687F0D2F7A42CCD35F0CA3400FC0853
:1008A300E687F0D2E7D2F7A42ACC35F07A7E20E7A8
:1008B3000B0ACB33CBCD33CDCC33CC33CB3350142A
:1008C3007004ED30E00ED2F1E4CD3DCDCC3CCC3B19
:1008D3005005DA05C2F1EB547FC63308E63392F0D4
:1008E300FBE73309E733C39A502D2B70190C0D4CDA
:1008F3004D70151806E608C333700D20F10AA2F0F7
:1009030013F6E418800B4024E4F630F002768018E6
:10091300F618F618F68024D33B14501074FFA2F097
:1009230013F6187680E418F618F6800FA2F013F683
:1009330018E63303F618ECF618EDF6D0E0FDD0E038
:10094300FCD0E0FBD0E0FA22C0E074F1120ECDA29D
:10095300AFE433F509D2AF85A708AFA1EF5508FE81
:1009630074105E6006121A1975A1EF74085E6008B0
:10097300121A1F75A1F78024EFA2E092F0E508A2F6
:10098300E082F05017906198E0F890049DE0C398DE
:10099300A2D265D0335002E8F075A1FE751A00E5C6
:1009A30009A2E092AF7F02020F2CC0E074F2120E94
:1009B300CDA2AFE433FED2AF9061A4E0F8759B0003
:1009C300E59158540860087591F7121A678023E57A
:1009D3009158541060087591EF121A6D8014E591C7
:1009E300A2E092F0E8A2E082F05007E0C2E0F01249
:1009F3001BD59061A3E0F8E5E9585404600E121B7F
:100A0300AB75E9FB906193E0A2E640F2751A00EE44
:100A1300A2E092AF7F01020F2CC0E074F2120ECD60
:100A2300A2AFE433FED2AF9061A5E0F8E5BF58541E
:100A330004600675BFFB121BED80D1C3E498F8E494
:100A430099F9120A7F8026C3E49AFAE49BFBE92012
:100A5300E7E9120A7FE498F8E499F922C3E498F8E5
:100A6300E499F9120A7FE498F8E499F9C3E49AFA4D
:100A7300E49BFB22EB20E7CFE920E7E0B90010BBC2
:100A83000008E88AF084F8AAF022E4FBC8FA22EB13
:100A930070227B10C833C8C933C9335007C39AC304
:100AA300DBF280069A50012ADBEAC833F4C8C93363
:100AB300F4C9FA2275F008E4C833C8C933C933C985
:100AC3009AC99B5004C92AC93BD5F0ECFBC833F43F
:100AD300C8E4C9FA22C0E0C0D0E8C0E0E9C0E0C081
:100AE30082C083A8C1E8C0E090040AE0F8748928B2
:100AF300F582E43403F583D0E0F0900409E0F8A331
:100B0300E0687006E59590040CF090040AE004F0A8
:100B1300C394804002E4F0A374C6F0D083D082D0A3
:100B2300E0F9D0E0F8D0D0D0E032C0E0C0D0E8C0E7
:100B3300E0E9C0E0C082C08390048DE0F8A3E068E0
:100B43007008539AFBA374018022C2E990048DE0DC
:100B5300F8740128F0740D28F582E43404F583E079
:100B6300F5C190048DE0C394804002E4F080AC12A0
:100B73000BBD30F039120C028034120BBD20F0147F
:100B830030E72B74FFFCFBFA747F8022E4FCFBFA52
:100B93007480801AB48008BC00F2BB00EF800F5051
:100BA300EBF9E4C39AFAE49BFBE49CFCE499C6CC1E
:100BB30018C6CB18C6CA18C6F922E4C9C608CAC6DD
:100BC30008CBC6D3330308CCC63392F0C3947F401B
:100BD3002E94184019C9B90704CACBCC225025C397
:100BE30009CA33CACB33CBCC33CC33D9F422F46028
:100BF3000DC9CCC313CB13CBCA13CAD9F6CC22E489
:100C0300FCFBFA2214FCFBFA22C0E074F2120ECDB4
:100C1300A2AFE433FED2AF900630E05589600FE512
:100C230089FA7900121EAB900630E0F45289C2C5EE
:100C3300751A00EEA2E092AF7F01020F2CC0E074A0
:100C4300F2120ECDA2AFE433FED2AF900631E055DF
:100C53008A600FE58AFA7901121EAB900631E0F43F
:100C6300528AC2EB80CAC0E074F2120ECDA2AFE486
:100C730033FED2AF900632E0558B600FE58BFA79E5
:100C830002121EAB900632E0F4528BC2E880A10838
:100C93000808EAC0E0EBC0E086F0E7A4FA1809868A
:100CA300F0E7A42AFA180986F0E7A42AFA180986B5
:100CB300F0E7A42AFA1986F0E7A4FBE5F02AFA196B
:100CC3000886F0E7A42BFBE5F03AFA190886F0E76B
:100CD300A42BFBE5F03AFA18180986F0E7A4C5F04F
:100CE3002BFBE43AFA1908E7C5F0C6A426F6E5F0AB
:100CF3003BFBE43AFA1886F0E7A4F6E5F00826F69B
:100D0300E43B08F6E43A08F6D0E0FBD0E0FA220828
:100D13000808E630E7111215DC120D2A080808C688
:100D23004480C618181822181818E9799EC608CAEC
:100D3300C608CBC608CCC6C370207996CACBCC7084
:100D430019798ECBCC70137986CC700EF9802ACAB0
:100D530033CACB33CBCC33CC331930E7F2CCCBCA49
:100D63003350147004EA30E00DE4CA3ACACB3BCBEB
:100D7300CC3CCC500209C3E913C6CC182313C6CB11
:100D830018C6CA18C6F922E4CFC0E0E4CEC0E0E436
:100D9300CDC0E0E4CCC0E075F020E626F608E633EB
:100DA300F608E633F608E633F6181818EC33FCEDCC
:100DB30033FDEE33FEEF33FFC3EC9709ED9709EEF6
:100DC3009709EF97191919400FFFEC97FC09ED9755
:100DD300FD09EE97FE191906D5F0BFECF709EDF7FB
:100DE30009EEF709EFF7191919D0E0FCD0E0FDD0AF
:100DF300E0FED0E0FF222518C582C0E0E51934FFEC
:100E0300C583C0E0E518C3958224F810AF08858335
:100E1300198582188008858319858218D2AFCEF090
:100E2300A3E520F0A37808E608F0A3DEFAEFF0A329
:100E3300E58124FAF8E608F0A3E608F0A3E608F053
:100E4300A30808E608F0A3E608F0A315811581D0EE
:100E5300E0FED0E0F8158115811581E8C0E0EEC011
:100E6300E0221217AFB90003020EB7E49003317802
:100E73003079158002F0A3D8FCD9FA781A9000864D
:100E83007A01BA00028007E493A3F608DAF97A60DC
:100E93007B1790008778CB79018015E493A3AD820B
:100EA300AE838A828B83F0A3AA82AB838D828E83E7
:100EB300D8E9D9E775823D7583C3740612140475A6
:100EC30082297583347400121404C0D02518C58296
:100ED300C0E0E51934FFC583C0E0E518C39582245B
:100EE300F310AF08858319858218800885831985D7
:100EF3008218D2AFC8F0A3E9F0A3EAF0A3EBF0A302
:100F03007908E709F0A3D8FAECF0A3EDF0A3EEF02B
:100F1300A3EFF0A3D0E0F0A3D0E0F0A3D0E0F0A3E0
:100F2300E520F0A3E5F0F0A322851983851882E07C
:100F3300C0E0A3E0F9A3E0FAA3E0FBA37808E0F69E
:100F430008A3DFFAE0FCA3E0FDA3E0FEA3E0FFA318
:100F5300E0C0E0A3E0C0E0A3E0F5D0A3E0F520A368
:100F6300E0A3F5F010AF0885831985821880088502
:100F73008319858218D2AFD082D083D0E0F8D0E035
:100F8300321215DF181818120D8A1216AE19191914
:100F9300221216AE191919080808E618181820E7BE
:100FA300E0120D8A1215DF18181822090909E7192A
:100FB300191920E7DC080808E618181820E70302C7
:100FC3000D8A1215DF181818120D8A1215DF18185A
:100FD300181216AE191919220475F0108E218F22DA
:100FE300858226858325851882851983E0CEA3E033
:100FF300CF852682852583EBC9EAC8EDCBECCAC32E
:10100300E833C8E933C9EA33CAEB33CBC3EA9EF505
:1010130024EB9FF523B35004AB23AA24EC33CCED8C
:1010230033CDD5F0DAAE21AF222212170F601C1296
:10103300171E60171217CD70071217C47001D32241
:10104300C0D01217C47006D0D0B322C32233D0D07D
:10105300501430E0F6C3E7960809E7960809E796C7
:101063000809E796B32220E0D5E6970809E6970832
:1010730009E6970809E697B322D083D082ECC0E053
:10108300EDC0E0E493A3FCE493A3FDED4C600D12EB
:1010930011A0EC24FFFCED34FFFD80EFE493A3FCEF
:1010A300E493A3FDED4C600D1212A7EC24FFFCEDBD
:1010B30034FFFD80EFD0E0FDD0E0FCE493A3C0E07B
:1010C300E493C0E02212170F601B12171E60161262
:1010D30017CD70071217C4600CB322C0D01217C407
:1010E3007005D0D022C32233D0D0501330E0EBC3ED
:1010F300E7960809E7960809E7960809E796222084
:10110300E0E4E6970809E6970809E6970809E697F1
:1011130022851983851882E0A3FEE0A3F5207808D1
:10112300E0A3F608DFFAE0A3FFE0A3C0E0E0A3C07A
:10113300E0E0A3C0E0E0A3C0E0E0A3C0E010AF089C
:101143008582188583198008858218858319D2AF13
:10115300D083D08202140AD083D082E9C0E0E49322
:10116300A3C386F0C5F095F0F908E493A386F0C510
:10117300F095F0700BE493A3C3994005E904800252
:10118300A3E475F002A42582F582E5F03583F583A7
:10119300D0E0F9E493A3C0E0E493C0E022C0E0C34D
:1011A300E49396087401939618400FE493667008CD
:1011B30008740193661870007019A3A3C3E493968F
:1011C300087401939618A3A3400DD0E0D0E0D0E0BB
:1011D3000210B8A3A3A3A3A3A3D0E022C0E074F298
:1011E300120ECDC2D99017ACE0C39400A2D265D041
:1011F300334005E0F91221E77F01020F2CC0E074B0
:10120300F2120ECDC2DC9017AEE0F9C39400A2D265
:1012130065D03340031221E780DE74048004740236
:101223008000CCC0E0EDC0E0E518C39CCCAD195004
:10123300011D10AF068C188D1980068C188D19D2DC
:10124300AF121366D0E0FDD0E0FC2274028000CC24
:10125300C0E0EDC0E0E518C39CCCAD1950011D10F2
:10126300AF068C188D1980068C188D19D2AF121306
:1012730022D0E0FDD0E0FC2212170F602512171ECA
:1012830060201217CD70030217C4080808E76670C0
:10129300101819E766700A1819E76670041819E739
:1012A3006622F422C0E0C0F088F0E4936670080878
:1012B30074019366187000A8F0A3A3700BD0F0D04C
:1012C300E0D0E0D0E00210B8A3A3D0F0D0E022D069
:1012D30083D082CCC0E0E493A360061213A71470FA
:1012E300FAE493A3600612150D1470FAD0E0FCE43F
:1012F30093A3C0E0E493C0E022C008C3E096F508DE
:1013030008A3E096420808A3E096420808A3E096E3
:101313004208A2D265D033E5087001D3D00822CAAF
:10132300C0E0E493A3C582CCC582C583CDC583F059
:10133300A3C582CCC582C583CDC583DAE5D0E0CA17
:1013430022A2E792D65002F40430F70663F0FF05B9
:10135300F0B3400384800384F40430D60563F0FFC4
:1013630005F022CAC0E0E0A3C582CCC582C583CD07
:10137300C583F0A3C582CCC582C583CDC583DAE618
:10138300D0E0CA22C0E0C0D0C082C08375AF009055
:10139300066EE02401F0A3E03400F0D083D082D0C5
:1013A300D0D0E032C0E0E493A3D39C5010E493A3E5
:1013B300C39C400AD0E0D0E0D0E00212EFA3A3A385
:1013C300D0E0227009080808226016181818C6C34E
:1013D30033C608C633C608C633C608C633C6D5E007
:1013E300EA22C008C3E096F50808A3E0964208087D
:1013F300A3E096420808A3E09645087001D3D008FD
:1014030022C09FF59FE473D09F22D083D082C09FD8
:10141300E493C0E0740193C0E0740293F59F22C08B
:10142300E0C0D0E8C0E0A8A8D2AFC2C7751A00E8F0
:10143300A2E792AFD0E0F8D0D0D0E03200C0D02500
:101443001810AF08F518500C05198008F51850024C
:101453000519D2AFD0D0222518F58210AF08F518A0
:10146300400C15198008F51840021519D2AF8519DB
:1014730083227404800A7403800674028002740158
:10148300C0E0F40412145AD0E012175A22BB01022E
:10149300E722C082C08389828A83BB0003E0800283
:1014A300E493D083D082226017080808C6A2E7130A
:1014B300C618C613C618C613C618C613C6D5E0E9A0
:1014C300226016080808C6C313C618C613C618C672
:1014D30013C618C613C6D5E0EA222518F8E4351951
:1014E300F9222518FAE43519FB222518FCE43519ED
:1014F300FD22C3E0C696F608A3E0C696F608A3E06D
:10150300C696F608A3E0C696F622C0E0E493A36C61
:101513007009D0E0D0E0D0E00212EFA3A3D0E02224
:10152300251810AF08F518400C15198008F5184058
:10153300021519D2AF22C3E09608A3E09608A3E0F0
:101543009608A3E096A2D265D03322E7667010080E
:1015530009E766700A0809E76670040809E7662266
:10156300E066701008A3E066700A08A3E0667004E2
:1015730008A3E06622181818E60846087009E6264C
:10158300087005E633F4220822C3E4939608740135
:101593009396087402939608740393962219191963
:1015A300E70947097009E727097005E733F42209BA
:1015B30022C3E096F008A3E096F008A3E096F008B3
:1015C300A3E096F022C3E697F60809E697F6080922
:1015D300E697F60809E697F622181818E4C396F674
:1015E30008E496F608E496F608E496F622E026F672
:1015F30008A3E036F608A3E036F608A3E036F622A1
:10160300E627F60809E637F60809E637F60809E695
:1016130037F622E493F608740193F608740293F6FE
:1016230008740393F622E657F60809E657F6080905
:10163300E657F60809E657F622E056F008A3E05607
:10164300F008A3E056F008A3E056F022E647F608B8
:1016530009E647F60809E647F60809E647F6227061
:101663000422600D18C6C333C608C633C6D5E0F4DA
:101673001822E667F60809E667F60809E667F6083A
:1016830009E667F622E026F008A3E036F008A3E0B7
:1016930036F008A3E036F022E056F608A3E056F64B
:1016A30008A3E056F608A3E056F622E4C397F70929
:1016B300E497F709E497F709E497F722600D08C662
:1016C300A2E713C618C613C6D5E0F322C6F4C608AC
:1016D300C6F4C608C6F4C608C6F4C622C3E0960814
:1016E300A3E09608A3E09608A3E09622C3E7960832
:1016F30009E7960809E7960809E7962275D0007569
:10170300813F75183175190300020E65E608460816
:10171300C3134608336002E633F422E7094709C3DB
:10172300134709336002E733F422600C08C6C3137E
:10173300C618C613C6D5E0F422E6F008A3E6F008FF
:10174300A3E6F008A3E6F022E0F608A3E0F608A378
:10175300E0F608A3E0F622CAC0E0E6F0A308DAFA4E
:10176300D0E0FA22E0FCA3E0FDA3E0FEA3E0FF2229
:10177300EAF0A3EBF0A3ECF0A3EDF022E0FAA3E090
:10178300FBA3E0FCA3E0FD22E8F0A3E9F0A3EAF069
:10179300A3EBF022ECF0A3EDF0A3EEF0A3EFF02225
:1017A300E0F8A3E0F9A3E0FAA3E0FB22E5C754F8CD
:1017B3004401F5C77901222518F582E43519F5832B
:1017C30022E72719471947194722E62618461846DC
:1017D300184622C2AF75D69F0200002212140D468E
:1017E300D20412140D9AD30412140D50D4041214FB
:1017F3000D4FD50412140D82D60412140DBBB3067B
:1018030012140D3CB40612140D77B50612140D28EC
:10181300FF0412140D39FF0412140DD7FF04121420
:101823000DE2FF0412140DFDFF0212140DE47F00FC
:1018330012140D99D60612140DA9D60612140DBE54
:10184300D60612140D70D70612140DB2D206121456
:101853000D35D30612140D9BD30612140DEABA06E6
:1018630012140D25BB0612140D80BB0612140DD8DD
:10187300BB0612140D5EBC0612140D9ABC0612149C
:101883000DE8BC0612140DFFBC0612140D2ADD066A
:1018930012140D3ADD0612140D3DDD0612140D402F
:1018A300DD0612140DC6950612140D1C96061214AD
:1018B3000D6B960612140D98960612140DEE9606ED
:1018C30012140DF87F0012140D39BF0612140D7196
:1018D300BF0612140DBCC00612140D40C10612142B
:1018E3000D4BB60612140D95B60612140D2BB70642
:1018F30012140DB1B70612140DE2B70612140DFA45
:10190300B70612140D6EB80612140D84B80612141D
:101913000D97B80612140DA1B80612140D7BC1045D
:1019230012140D2CC60412140D41C70412140D6DAC
:10193300C70412140DFCC70412140DC3CA041214F5
:101943000DB3EC0412140D16ED0412140DC6ED04C0
:1019530012140D91EE0412140DE6EF0412140DC6C9
:10196300F00412140DC3F10412140D9BF3041214AA
:101973000DC2F30412140D4EF40412140DA8F50451
:1019830012140D1EF60412140D5CF60412140D6EDF
:10199300F60412140DDAA50512140DA8A7051214E6
:1019A3000DD3A80512140D96AA0512140DF3F5050F
:1019B30012140D1FF60512140D90F80512140DD014
:1019C300F80512140D10F90512140D24F90512145B
:1019D3000D3DF90512140D2EFA0512140DD3FA0557
:1019E30012140DE7FA0512140D74C80612140D989B
:1019F300C80612140DB1C80612140DE3C80612145A
:101A03000D13C90612140D40C90612140D4AC90656
:101A130012140DACC90612140DBBC90612140DC560
:101A2300C90612140DD2C90612140D4E7D001214EC
:101A33000D6E7D0012140DAD7D0012140DC87D00D6
:101A430012140DE77D0012140D4D7E0012140D5675
:101A53007E0012140DB37E0012140DD77E001214F3
:101A63000D987F0012140DA57F0012140DB67F0090
:101A730012140D9DDA0612140DB5DA0612140DE1D7
:101A8300DA0612140D52FB0112140DA8FC011214F4
:101A93000DB6FC0112140DC9FC0112140DDEFC017C
:101AA30012140DF3FC0112140D06FD0112140D7A2C
:101AB300FD0112140DDFFD0112140D67FE01121456
:101AC3000DE3FE0112140DA7FF0112140DB7FF0160
:101AD30012140DC6FF0112140DDED80612140D02E6
:101AE300D90612140D2AD90612140D52D90612144E
:101AF3000D94DB0612140D16BD0612140D3DBD0622
:101B030012140D5BBD0612140DCEBD0612140DB0DA
:101B1300AD0612140DC9AD0612140DD5AD0612147F
:101B23000DE9AD0612140D07AE0612140D11AE0623
:101B330012140D1BAE0612140D2EAE0612140DB8A0
:101B4300AE0612140D2DAF0612140D61AF0612145A
:101B53000DAFAF0612140DFCAF0612140D17B0062D
:101B630012140D21B00612140D47B00612140DAC59
:101B7300B00612140DAFD50612140DD1D5061214EA
:101B83000D61D60612140D43DD0612140DB7890537
:101B930012140DE1890512140DFE890512140D119D
:101BA3008A0512140D278A0512140D858A0512144D
:101BB3000DBD8A0512140DB58E0512140DFA8F058D
:101BC30012140D2D900512140D90900512140D137F
:101BD300920512140D3B920512140D509205121426
:101BE3000D60920512140DA4920512140DFF9205B7
:101BF30012140D0F930512140D61D00612140D7BF0
:101C0300D00612140DA3D00612140DBCD006121464
:101C13000DE0D00612140DFED00612140D15D106D8
:101C230012140D43D10612140D5ED10612140D7D4C
:101C3300D70612140DC3D70612140D4E9D061214A7
:101C43000D5E9D0612140D659E0612140D999E06D7
:101C530012140DBB9E0612140DDE9E0612140DFC0B
:101C63009E0612140D369F0612140D9B9F06121426
:101C73000DDD9F0612140D1CA00612140D4DA006B7
:101C830012140D84A00612140DD9F60412140DD5E6
:101C9300F70412140DF3F70412140D1AF8041214B6
:101CA3000DDFF90412140D0DFA0412140DC2FA0417
:101CB30012140D89FB0412140D98FC0412140DCA9E
:101CC300FD0412140DB3910612140D08920612149A
:101CD3000D82920612140D95920612140DBC9206F3
:101CE30012140D4F930612140D29940612140D3F6E
:101CF300930512140D6A930512140D3594051214ED
:101D03000D72940512140D03950512140D93980585
:101D130012140DA69A0512140D00800312140D3A25
:101D2300800312140D3A820312140DB584031214A6
:101D33000D35850312140DF4880312140D668903FF
:101D430012140D038A0312140D238A0312140DDCDB
:101D53008A0312140D2B8B0312140D678B031214B9
:101D63000D818B0312140DAD8B0312140DB08B0375
:101D730012140D098C0312140D5C8C0312140D1430
:101D83008D0312140D518E0312140D0B91031214B3
:101D93000D25930312140D58930312140DB89303D6
:101DA30012140D0A940312140D8D940312140D21B1
:101DB300950312140D39970312140DD698031214B8
:101DC3000D1D9A0312140DAB9B0312140DCC9B0330
:101DD30012140D43C10612140DB4D40612140DCE01
:101DE300D40612140D10D50612140D3ED506121486
:101DF3000D58D50612140D71D50612140D95D5067E
:101E030012140D64EB0512140DB8EB0512140D88B2
:101E1300EC0512140DB5EC0512140DE2EC051214C9
:101E23000D34ED0512140D5EED0512140D82ED0552
:101E330012140DAAED0512140DEAED0512140D741A
:101E4300EE0512140DA5EE0512140DCCEE051214B9
:101E53000D12EF0512140D30EF0512140D54EF059A
:101E630012140D74EF0512140DAAEF0512140D09C7
:101E7300F00512140D78F00512140D53B405121465
:101E83000D8DB40512140DC8B50512140DE0B60579
:101E930012140D19BB0512140D49E00512140D831C
:101EA300E00512140D37E10512140D91D106121439
:101EB3000D1CD20612140D7ED20612140D1CC2057F
:101EC30012140D39C30512140D3CC40512140D9ED2
:101ED300C50512140DF4C50512140D34C6051214EC
:101EE3000DABC60512140DB9C60512140D8CC80529
:101EF30012140D68A70612140DCAA70612140DC6F4
:101F0300A90612140DB6F00512140DF7F0051214FC
:101F13000D2DF10512140D54F20512140D12F405D2
:101F230012140DB2F40512140DE0E50512140D3A66
:101F3300E90512140DBAE90512140D9EEA051214EF
:101F43000DD7FC0312140D26FD0312140D3AFD03E5
:101F530012140D9AFD0312140DDCC90612140D1987
:101F6300CA0612140D4DCA0612140D60CA061214C5
:101F73000DDCA00612140DEFA10612140DA1A2068A
:101F830012140DBBA20612140D66A30612140D92B1
:101F9300A30612140D09A40612140D39CB0612144C
:101FA3000D4BCB0612140D5ECC0612140D61CC063C
:101FB30012140DDFCD0612140D15CE0612140D2FBB
:101FC300CE0612140D71CE0612140D81CE06121414
:101FD3000D1BCF0612140D53AD0512140D5DAD0587
:101FE30012140D97AD0512140D00AE0512140D1D3C
:101FF300AE0512140DBFAE0512140DC8AE051214B2
:102003000D0DAF0512140D36AF0512140D43AF05B8
:1020130012140DB4AF0512140D3FB00512140D8D3B
:10202300B00512140DCBB00512140D30B105121406
:102033000D53B10512140DCAB10512140D21B205C9
:1020430012140D5CB20512140D91B20512140DA3F6
:10205300B20512140DB5B20512140DD4B205121443
:102063000DDDB20512140D9DB30512140DE9B30570
:1020730012140D27B40512140D8ECC0612140DCEB6
:10208300CD0612140DC4FF0512140DE6FF0512143C
:102093000DB4B80612140DEAB80612140D32B906BF
:1020A30012140D8BBA0612140D22DB0612140DE85E
:1020B300B60312140D0CB80312140D46B803121410
:1020C3000DF0B90312140D1ABA0312140D8FBC03C9
:1020D30012140DCFBC0312140D65BE0312140D02AE
:1020E300BF0312140D54BF0312140DF7BF031214D0
:1020F3000D2FC00312140D71C00312140DE0C103A0
:1021030012140D2EC30312140D5FC50312140D8D8B
:10211300C50312140DB4C50312140DBDC503121467
:102123000D0DC60312140D9FC60312140DCEC90361
:1021330012140D51CA0312140D77D90612140D8D02
:10214300D90612140D97D90612140DEBD9061214E1
:102153000DF6880612140D0C890612140DAD8906AE
:1021630012140DEC890612140D098A0612140D3A85
:102173008A0612140D878A0612140DBA8A061214DF
:102183000DF58A0612140DF08C0612140D588D06E7
:1021930012140DD7D40512140DFDD60512140D2FEC
:1021A300D80512140D47D80512140DFBFA051214A5
:1021B3000D36FC0512140DC8FD0512140D40BB05A8
:1021C30012140D44BC0512140D60BD0512140D7BD1
:1021D300BE0512140D51BF0512140D22C5061214AB
:1021E3000D98C50612140D00800412140DC5800449
:1021F30012140DD2800412140D7B810412140DDA13
:10220300810412140D4B830412140DC3830412149E
:102213000D85850412140DB1850412140DB48704C1
:1022230012140DDC870412140D3D880412140D984A
:10223300880412140DE9890412140D3C8A04121443
:102243000DC18A0412140DA4DA0512140DCBDA059C
:1022530012140D1FDD0512140D46DD0512140D9B1E
:10226300DD0512140DCDDE0512140D49DF05121420
:102273000DB4D30612140D13D40612140D51D40643
:1022830012140D92D40612140D909C0412140DF91D
:102293009C0412140D449D0412140D7F9D0412140A
:1022A3000DF49F0412140D0EA40412140D2EA60493
:1022B30012140D3CA70412140D16A80412140D9742
:1022C300C80512140DD1C80512140D0ACA0512143B
:1022D3000DB0CB0512140DDDCB0512140D80CC050A
:1022E30012140DE3CC0512140D1ACE0512140D3180
:1022F300D80612140D7BD80612140DF5CE05121450
:102303000D52CF0512140D30D00512140D21D10535
:1023130012140D4DD10512140D29D20512140D45B9
:10232300D20512140DDED20512140D67D305121453
:102333000D25CF0612140D34CF0612140D94CF06BB
:1023430012140DEAFF0212140D3EB60412140DA965
:10235300B60412140DA7B70412140DBDB804121459
:102363000D43B90412140D1CBA0412140DFCBA0463
:1023730012140D1EBC0412140D37BD0412140DC02B
:10238300BF0412140D00800212140D0C80021214EB
:102393000D6E800212140D78800212140D0B81024F
:1023A30012140D47810212140D07820212140D1428
:1023B300820212140D77820212140D0C830212147E
:1023C3000D42830212140DBF830212140D5F8502A6
:1023D30012140D33870212140D14880212140D5EA9
:1023E300890212140DC08B0212140D258D021214D2
:1023F3000DBA8D0212140DED8E0212140DE18F022F
:1024030012140D1A910212140DB0950212140D9D9F
:10241300960212140D35970212140D5A97021214D4
:102423000D86970212140D1E980212140D34980291
:1024330012140D56980212140DBC980212140DDBDF
:10244300980212140D04990212140D249A02121404
:102453000DFA9A0212140D6F9C0212140D909C0235
:1024630012140D119D0212140DB79D0212140DFFCB
:102473009D0212140D709E0212140DFC9E02121482
:102483000D609F0212140DC09F0212140D6FA00263
:1024930012140DDBA00212140D0EA10212140D8CE6
:1024A300A10212140DE8A20212140D58A302121471
:1024B3000DEAA30212140D4DA50212140DD4A502A8
:1024C30012140D39A60212140D67A80212140DF38B
:1024D300A90212140D03AA0212140D37AA02121430
:1024E3000DA5AA0212140DE0AA0212140D42AB02AA
:1024F30012140DD7AB0212140D92830512140D7D25
:10250300AF0212140D87B00212140D84B402121418
:102513000D51B50212140D69B60212140D13B8024F
:1025230012140DAC990612140D1C9A0612140D2ADE
:102533009A0612140D389B0612140DB68E0412144B
:102543000D6D8F0412140D74900412140DF2900487
:1025530012140D34920412140D55920412140D0D1D
:10256300930412140DB8930412140D9897041214C3
:102573000DB4990412140D1B9B0412140D5ADC069E
:1025830012140DF59C0312140D4D9D0312140D64CA
:10259300CF0412140DE59E0312140D329F0312147F
:1025A3000D18A00312140D2FA00312140D81A00304
:1025B30012140DBEA00312140DD1A00312140D2783
:1025C300A10312140D80A10312140D98A103121478
:1025D3000D2DA40312140DC4A40312140DEEA403B1
:1025E30012140D26A50312140D56A70312140D9CE5
:1025F300A70312140DE6A70312140DBAA8031214AD
:102603000DFBA80312140D1EA90312140D65A903D3
:1026130012140D85A90312140D06AA0312140D8AB0
:10262300AA0312140DE4AA0312140D2CAB03121403
:102633000D35AC0312140DF5AE0312140D21B003C6
:1026430012140D5EB00312140D25B10312140D659F
:10265300B10312140D68B10312140D72B1031214F5
:102663000D85B10312140D0AB20312140D40B20307
:1026730012140D6CB20312140D93B20312140DB79E
:10268300B20312140D4EB30312140DC0B30312148C
:102693000DD9B30312140D0CB40312140D2CB4038F
:1026A30012140D69B40312140DA0B40312140D9F78
:1026B300B50312140DD2B60312140D16DA06121452
:1026C3000D22DA0612140D68DA0612140D008006C4
:1026D30012140D3E800612140DCA800612140DD575
:1026E300810612140DF1830612140D9ECA031214EF
:1026F3000DC1CA0312140D98CB0312140DE1CB03C1
:1027030012140D39CC0312140D93CC0312140DDFE4
:10271300CC0312140D55CD0312140DE3CD03121483
:102723000D5BCE0312140D9ECE0312140D6CD20357
:1027330012140DB3D40312140DEDD40312140D7738
:10274300D50312140DF6D50312140DC3D6031214B8
:102753000DEFD70312140DDAD80312140DAED903FB
:1027630012140D32DB0312140DC8DB0312140DE92E
:10277300DD0312140D89DE0312140DF3DE031214AC
:102783000D9ADF0312140DF9DF0312140DA5E003F4
:1027930012140DD8E10312140DFEE20312140D7787
:1027A300E30312140D4FE50312140DEFE5031214A6
:1027B3000D92E60312140DF1E60312140DACE703B8
:1027C30012140D72E90312140D15EB0312140DC14B
:1027D300EB0312140DD6EC0312140D3EE602121491
:1027E3000DB6E60212140DFEE60212140D42E702C4
:1027F30012140D8BE70212140DD5E70212140D0A01
:10280300E80212140D88E80212140DE2E802121411
:102813000D3BEA0212140DC4EA0212140D20EB025E
:1028230012140D3AEB0212140D61EB0212140DB9DE
:10283300EB0212140D23ED0212140D42ED021214D9
:102843000D6AEE0212140DE7EE0212140D54EF029C
:1028530012140DB6EF0212140D66F00212140D38A5
:10286300F20212140D23F30212140D1DF4021214BA
:102873000D23F50212140D3FF60212140D4DF6024C
:1028830012140D26F70212140DC6F70212140D0AC4
:10289300F80212140D1FF80212140D30F90212146B
:1028A3000DD3F90212140D2BFA0212140D31A406E2
:1028B30012140DD9A50612140D96A60612140DEBCB
:1028C300A60612140D8CAA0612140DA7AA0612143A
:1028D3000DEBAA0612140D11AB0612140D37AB063D
:1028E30012140D4FAB0612140DB2AB0612140DC722
:1028F300AB0612140DE9AC0612140DF2AC06121459
:102903000DFBAC0612140D04AD0612140D0EAD062C
:1029130012140D658D0612140D45910612140D4AFD
:10292300910612140D4C910612140DAFC306121426
:102933000DF9DB0612140DE0DC0612140DE8C606D1
:1029430012140D0CDD0612140DC1D50112140D184D
:10295300D60112140D84D60112140D10D7011214CE
:102963000DC6D70112140D0ED80112140D27D8016C
:1029730012140D4AD80112140D6CD80112140DAAA9
:10298300D80112140DF9D80112140D24D90112140F
:102993000D82D90112140D29DA0112140DD1DA01B5
:1029A30012140D4DDB0112140D1ADC0112140D6605
:1029B300DC0112140DEEDC0112140D27DD011214DB
:1029C3000D7DDD0112140D30DE0112140D14DF0133
:1029D30012140D25DF0112140D97DF0112140D30AF
:1029E300E00112140D9AE00112140D8AE101121490
:1029F3000DAFE10112140DACE20112140DB9E201A5
:102A030012140DC2E20112140DABE40112140DC72E
:102A1300E50112140D58E60112140DC9E601121452
:102A23000DA3E80112140D6EEC0112140D82EC01DA
:102A330012140D92EC0112140D9CEC0112140DA54D
:102A4300EC0112140DAEEC0112140DB8EC011214CA
:102A53000DE7EC0112140D15ED0112140D20ED011B
:102A630012140D44ED0112140D68ED0112140DDA68
:102A7300ED0112140D23EE0112140D3FEE01121499
:102A83000DB0EE0112140DFCEE0112140D45EF0111
:102A930012140D83EF0112140D04F00112140DD35F
:102AA300F10112140D72F20112140D3AF301121412
:102AB3000DC6F50112140D1BF60112140D43F60198
:102AC30012140D76F70112140DBBF70112140D1039
:102AD300F80112140DBEF80112140D63F90112145A
:102AE3000D98F90112140D38FA0112140DB4FA01FC
:102AF30012140D98840112140DCA840112140DFED0
:102B0300840112140DB2860112140D86870112146A
:102B13000DE5870112140DFB880112140D4789017D
:102B230012140DE48B0112140D598E0112140DA50C
:102B33008F0112140D3D900112140D4990011214CE
:102B43000D92900112140DC5900112140D519101B3
:102B530012140D63920112140DA4930112140DA308
:102B6300940112140DCD940112140D389501121411
:102B73000D91950112140D04960112140D3A98014A
:102B830012140DC0990112140DAB9A0112140DF910
:102B93009B0112140D319E0112140D28A101121470
:102BA3000D37A10112140DCBA10112140D76A20150
:102BB30012140DB9A20112140D02A30112140D5225
:102BC300A30112140DBFA30112140D2BA40112149F
:102BD3000D47A40112140D76A40112140DB5A4011E
:102BE30012140D9DA50112140D4CA60112140DC350
:102BF300A80112140DF5A90112140DC4AA0112148F
:102C03000D46AB0112140D92AF0112140DC1AF01A9
:102C130012140D1CB00112140D4FB00112140DAAA1
:102C2300B00112140DC6B00112140D27B101121414
:102C33000D77B10112140D26B20112140DE9B20180
:102C430012140DB1B30112140DFDB50112140D8947
:102C5300B70112140DE0B80112140DFCB9011214DE
:102C63000DFFB90112140D2EBA0112140D1DBC0172
:102C730012140DE6BC0112140D27BD0112140D7DB3
:102C8300BE0112140DF3BE0112140D26BF0112145E
:102C93000D8ABF0112140DABC10112140D0AC2013A
:102CA30012140DE0C20112140DF4C20112140D0826
:102CB300C30112140D35C30112140D65C30112149F
:102CC3000D09C50112140D06C60112140D54C601D7
:102CD30012140D7BC60112140D56C70112140DFCFC
:102CE300C70112140D82C90112140DC9C9011214AE
:102CF3000D36CA0112140D8BCB0112140D34CC0105
:102D030012140D68CC0112140D80CC0112140D2382
:102D1300CD0112140D9FCF0112140D47D1011214CE
:102D23000D6BD10112140D89D10112140D55D2016D
:102D330012140DA3D50112140DFA3B0012140D2C1D
:102D43003C0012140DAC400012140DFB4000121491
:102D53000D41410012140DE4410012140D494200CB
:102D630012140D8D420012140DF4430012140D20A1
:102D7300450012140D1D490012140D9C4900121434
:102D83000DC24A0012140D254B0012140D714C0094
:102D930012140D094F0012140D964F0012140DA0BA
:102DA3004F0012140DC84F0012140D90500012144E
:102DB3000D25510012140D4E510012140D7B5100BC
:102DC30012140DD0530012140D9D540012140DDC77
:102DD300540012140D5E550012140D0956001214FE
:102DE3000D3B560012140D86560012140DBF5600EB
:102DF30012140D0E570012140D6A570012140DEC25
:102E0300570012140D51580012140DC95800121412
:102E13000D725A0012140D6A5B0012140DAB5C00A4
:102E230012140DFF5F0012140D5B620012140D14D7
:102E3300630012140D5C630012140D3D650012143F
:102E43000D78650012140D81650012140D8A65005A
:102E530012140D95650012140DB4650012140D675C
:102E6300660012140DC4660012140DCE660012140F
:102E73000DD8660012140D24670012140D6C670040
:102E830012140D70680012140D09690012140DD08C
:102E9300690012140DFA6A0012140D256C00121445
:102EA3000D1B6D0012140D336D0012140D676D00B0
:102EB30012140D856D0012140DCD6D0012140D0644
:102EC3006E0012140DBD6E0012140D7E6F001214ED
:102ED3000DF16F0012140D6D700012140D097100C5
:102EE30012140D2F720012140DEB720012140D8BBD
:102EF300730012140D78740012140DD074001214A0
:102F03000D96750012140DB9750012140DCE7600CE
:102F130012140D19770012140D75770012140DDDBC
:102F2300770012140D01780012140D297800121481
:102F33000D6E780012140D92780012140D1679009C
:102F430012140DFF790012140D447A0012140D6D42
:102F53007A0012140D0B7B0012140D767B001214F1
:102F63000DA27B0012140D837C0012140D33E204B6
:102F730012140D6BE20412140D8CE20412140DCE24
:102F8300E20412140D32E30412140D3CE304121490
:102F93000D4CE30412140D83E30412140D2CE70407
:102FA30012140DF4E80412140DD8EA0412140D7A65
:102FB300EB0412140D04EC0412140D56BB0212148C
:102FC3000DBABB0212140D18BC0212140D63BC021D
:102FD30012140D7EBC0212140DA5BC0212140DC2F4
:102FE300BC0212140DCEBC0212140D5FBE021214E9
:102FF3000D78BE0212140DF4BE0212140D07BF02A7
:1030030012140D17BF0212140DBBBF0212140D27A9
:10301300C10212140D3AC20212140DDAC2021214C2
:103023000DE4C20212140D63C30212140D74C30221
:1030330012140DB3C30212140DE1C30212140DAE28
:10304300C40212140D05C50212140D3EC50212145A
:103053000D94C50212140DB2C50212140D00C6025E
:1030630012140DCBC60212140D19C70212140D66E9
:10307300C70212140DE9C70212140D13C802121469
:103083000D49C80212140D58C80212140DB7C80214
:1030930012140D2FC90212140D70C90212140DC09F
:1030A300C90212140DEBC90212140D05CA0212143F
:1030B3000D1FCA0212140DF4CA0212140DFECA0225
:1030C30012140D39CB0212140D49CB0212140D52F6
:1030D300CB0212140DA3CB0212140DB7CB021214A0
:1030E3000DD9CC0212140DF0CC0212140D05CD0231
:1030F30012140D98CD0212140D0CCE0212140DB140
:10310300CE0212140DBCCE0212140D1CD0021214E6
:103113000D38D00212140D84D00212140DF2D00215
:1031230012140D24D10212140D3ED10212140D807B
:10313300D10212140DD3D30212140D6BD402121444
:103143000DE2D40212140D3FD70212140D57D70209
:1031530012140D5AD70212140D66D70212140D7AE7
:10316300D70212140D82D70212140DB9D70212140A
:103173000DADD80212140D37D90212140DB9D902AC
:1031830012140D39DA0212140D10DB0212140D326F
:10319300DB0212140DCBDB0212140D28DC02121415
:1031A3000D2BDC0212140D58DC0212140D6DDC021F
:1031B30012140DDCDC0212140D28DE0212140D3B76
:1031C300DF0212140DC6DF0212140DD9E00212142D
:1031D3000D9EE10212140DCFE10212140DF5E1026E
:1031E30012140DFEE10212140D2DE20212140DDD74
:1031F300E20212140D8DE30212140D00E402121404
:103203000DA3E40212140D16E50212140D55E50286
:1032130012140D9EE50212140DD3E50212140D755E
:10322300820512140D2A820512140D8F81051214C2
:103233000D00800512140D0CFB0312140D91F903FC
:1032430012140D8FF80312140D50F60312140DFA15
:10325300F50312140D3DF40312140DB4F10312140B
:103263000D2EF10312140D90CE0412140D90CD0403
:1032730012140DEAEF0312140DA6EE0312140DB18E
:10328300CC0412140D7FFF0212140D1FEE0312144F
:103293000DACB10612140D84B10612140D17B1064C
:1032A30012140DB7B00612140D65B50412140D8B6C
:1032B300B40412140DC1B30412140D30B204121469
:1032C3000DF9B10412140DCBB10412140D7FB10426
:1032D30012140DE8B00412140D58B00412140D3278
:1032E300B00412140DE7AF0412140DB1AF0412149D
:1032F3000D34AF0412140DCFAE0412140D7EAE04C0
:1033030012140DA6AD0412140D16AD0412140DCA39
:10331300AC0412140D45AC0412140D00AC041214C9
:103323000DE4AB0412140DE2FE0212140D8CAA0478
:1033330012140D9AFB0212140D17FB0212140DC482
:10334300FA0212140DB9DC0612140D9EDC061214D7
:103353000D59880512140DFB860512140D9286056E
:1033630012140D5EAA0412140D2BAA0412140DAF2D
:10337300A90412140DCD860612140D298605121404
:103383000DBE850612140DF8840612140D7F8406F3
:1033930012140DE8E10412140D09850512140D8FA2
:1033A300E10412140DD39D0312140D5AE1041214F7
:1033B3000D25E10412140DF1E00412140D84E00450
:1033C30012140D6CE00412140D47E00412140D20C6
:1033D300DD0412140DF3DA0412140DFAD8041214D6
:1033E3000D86D80412140D37D80412140DF1D70426
:1033F30012140D93D70412140DA0A20512140D4B31
:10340300840512140D0EA20512140D23A105121426
:103413000DAB9F0512140D669D0512140DA19C059D
:1034230012140DB2AD0200000080FBE47300000033
:1034330000201193840000010020119384000002F6
:1034430000201197840000030020119484000004DD
:103453000042116D800000050042117E80000006CD
:10346300004211A080000007002011AB8000000083
:10347300404211A0800000100042118F8000001113
:1034830000201106070000120010138D1701002001
:103493000020118B170100210020118C170600005A
:1034A300001011000008000000203300000C00553C
:1034B30000393300000C001C004233000012005599
:1034C300002001000014000E0042220000050B0042
:1034D3000021010000050B010021010000050B0084
:1034E3000123010000050B010123010000050B026C
:1034F3000123010000050B030123010000050B0458
:103503000121010000050B050121010000050B0647
:103513000121010000050B070121010000050B0833
:103523000121010000050B090121010000050B0A1F
:103533000121010000050B0B0121010000050B0C0B
:103543000121010000050B0D0121010000050B0EF7
:103553000121010000050B0F0121010000050B10E3
:103563000121010000050B110121010000050B12CF
:103573000121010000050B130121010000050B14BB
:103583000121010000050B150121010000050B16A7
:103593000121010000050B170121010000050B1893
:1035A3000121010000050B190121010000050B1A7F
:1035B3000121010000050B1B0121010000050B1C6B
:1035C3000120010000050B1D01280100008F0001EF
:1035D300008E1587000100FE1735000400C3172570
:1035E300000200C71726000200C91727000200CBFC
:1035F3001728000100D51729000100D617840004FD
:1036030000D71786000100DB172A000100DC172B07
:10361300000100DD172C000100E1172D00080071E7
:10362300152E000100E2172F000100E317300001FF
:1036330000E41731000100E517320001007915336A
:103643000001007A1534000100E617360001007B03
:103653001538000100E71739000100E01783000265
:1036630000FC17630001008B1564000100DE176581
:10367300000100DF176D0001008C1571000800695F
:103683001566000100FB1743000100EC174400021C
:1036930000ED1745000100EF1746000200F0174741
:1036A300000800831548000100F2174B000100F3E6
:1036B3001704000100FF17A10001000218370001E1
:1036C3000001188800010000183C0001007C153D32
:1036D300000100E81749000200F417670001008D9C
:1036E300154D000200F6174E000100F8174F0002B7
:1036F30000F9173E000100821551000100E917523D
:10370300000100EA1753000100EB17540001007D8C
:10371300150000000000000001363601010001021F
:103723000100010301000104010606050200000770
:103733000100340801000F090401010D0100FF0E0F
:1037430008000017020000190100FF1A0100011B05
:103753000100FE1C0100081D0200001F01000120E2
:10376300010001210200002301000F2402000026B2
:1037730001000127010008280200FF2A0100072B8E
:103783000102402C0100002D0100012E0100012F38
:103793000100FF30010B1D310800003A0100083B16
:1037A30001000F3C0100013D0100FF3E0400004207
:1037B300040000460400004A0400004E04000052C6
:1037C300040000560400005A040000000021010018
:1037D30001002102000001236600010123670002AA
:1037E3000123680003012369000401216A00050124
:1037F300216B000601212C010701212D0108012164
:103803002E010901212F010A012130010B01213170
:10381300010C0121C8000D0121C9000E0121CA00BC
:103823000F0121CB00100121CC00110121CD001289
:103833000121CE00130121320114012133011501AD
:1038430021CF001601213401170121D000180121D5
:10385300D100190121D2001A0121D3000103710300
:103863000103010301030103010322030203010313
:10387300100300030003000300030003000300031D
:10388300420300032403060300030003040312039B
:103893002503230325032303040304030003000375
:1038A3000003440300030003230300036503210013
:1038B3003503810300030503000300030003000332
:1038C300250323030101710101010101110101011B
:1038D3003101010101018001100161013B0014006C
:1038E30063017301720162014301000113010601C7
:1038F3003D01350004011201000100010001000136
:1039030004010401330133013C0144013201360057
:10391300000100016501000135008101000105017D
:10392300820183010001030271023001600211026E
:1039330070020102020202028002100261023A00D6
:103943004100630273027202620243020002130225
:103953003800000200020402120200020002000208
:10396300000204020402370037003C024402000252
:1039730039000002000265020002350281020002E2
:10398300050282028302000203007100300160001D
:103993001100700031022003500480001000610008
:1039A3000000140063007300720062004300000013
:1039B30013000600000000000400120000000000D5
:1039C3000000000004000400370037003C024400FC
:1039D30000000000000000006500000035008100C9
:1039E300000005000000830000003600010006000F
:1039F30000000F00000000000000000000000000B5
:103A030003FFFF00000403FFFF0000FFFF0FF401AB
:103A13000005C4040320000100000B0000000000A7
:103A230000000003010F0000000000000000000080
:103A33000000000000000000000000000000000083
:103A430000000000000000009924F3249F24A32316
:103A5300A5242334A5240525AB24A323A52423349B
:103A6300B124A323B724A323BD24A323C324A323C3
:103A7300C924A323CF24A323D5240B25DB24A323E9
:103A8300000000000000000000000000E1241D25EC
:103A9300E724A323E1241D25E724A323D5240B2511
:103AA300ED24A3230A00000002000000040000002C
:103AB300080000001000000020000000400000008B
:103AC300800000000001000000020000000400006C
:103AD300000800000010000000200000004000006B
:103AE30001008D270200092703000F270400152773
:103AF30005001B270600272730003F2733004B27ED
:103B0300340051271100572714005D27150039276A
:103B1300FFFF000007ECFDFDFDECDCDCCCBCACAC36
:103B23009C9C8C7C7C6C6C5C5C5C4C4C3C3C2C2C82
:103B33001C1C0AAB2D027B2D058D2D07812D0C63DB
:103B43002D0D6F2DFF000000160F00000B150B024B
:103B53000002220F3300000E5A6967426565416C0B
:103B63006C69616E6365303901030507090B0D0F3D
:103B730000020406080A0C0D140AE5D5C5B5A5A56F
:103B8300958585756500393D3F373C3C362C442D82
:103B9300303016181920231A1C1E3000011916186C
:103BA30016161823030000034A49434E181A250525
:103BB30002303017181921301B1D1F300C0E020B59
:103BC300040B0A0708000F020402010101010902A4
:103BD30000BE040AE8030000FA06173BE8037B3B38
:103BE3000E000410030A0C0308280C05081E1534E4
:103BF3000900FFFF04041E74F7120DF9E99016592A
:103C0300F090160EE4F0121F9B901662E4F0A3F0FE
:103C130090165AF0A3F0122F0D121FA190159EE4D7
:103C2300F0A3F01228F502576574EC120DF974D75E
:103C3300121523EAFEEBFF54806068901659E0F9F1
:103C43001220138A088B09EA4509604F7C00800122
:103C53000CEC75F003A4F8A9F0743528F582743BD5
:103C630039F583E493F4602CE493F88508828B831D
:103C7300E06870DCAA08EC75F003A4F8743628F544
:103C830082743B39F583E493C0E0740193F583D0E8
:103C93008212342EAA08AB09122001EEFAEF6480D7
:103CA30002408EEF5420601E122E058A088B09EA0B
:103CB3004509600A122D6FAA08AB09122001EEFA1A
:103CC300EF642002408EEEA2E0501F901613E064D2
:103CD3000F70117900122D45E960099017C312176F
:103CE3007F122D5DEE6401024063EF5440604F90FC
:103CF30017B3E064067028740BF09017DBE0F975D6
:103D03000801750900750A00750B00901601E0782B
:103D1300081213C6AA08AB09AC0AAD0B1229F1901D
:103D2300157E12121D7A007B40901659E0F912217C
:103D33006F740412143FEEFAEF644002408EEE54A7
:103D43002070030240677A207B00901659E0F91235
:103D5300217BEA4B4C4D701A90165E1217A3E8496B
:103D63004A4B700E750C01750D00750E00750F0032
:103D73008061750C00750D00750E00750F00122122
:103D83008D8A088B098C0A8D0B90165E1217A3E897
:103D9300494A4B602A90165E78081213E5400E7567
:103DA3000CFF750DFF750EFF750FFF801285080C54
:103DB30085090D8C0E8D0F90165E780C1214F57418
:103DC30001780C1214C4E50C450D450E450F700324
:103DD300023F947C0079047A007B00122DE18A086B
:103DE3008B09023EBB85188285198374FFF0740129
:103DF3001217BA74FFF074021217BA74FF124C54FC
:103E0300FAA3E0FB74031214ED126D001265711234
:103E13002E23E964016003023E9DE508125B5D12F7
:103E230053A44480F8A3E0F974241217BAE8F0A36A
:103E3300E91264DCA3A3A3E0C0E074261217BAD08E
:103E4300E0126AF2A3E05408601674241217BAA3AE
:103E5300E044011240A6C0E074281217BAD0E0F083
:103E63001278EB3509126DFE60181278EB1264922A
:103E7300A3E0C8127C02E0F874121217BAE8F0A3A8
:103E8300E4F090838B12121D74041214ED74071264
:103E930014E5122A21740412143F850882850983CC
:103EA300A3A3A3A3A3A3A3A3A374061240A6F912D7
:103EB3002DC3850A08850B09E50845097003023FF0
:103EC300947C007904AA08AB09122DE18A0A8B0BB2
:103ED300850882850983A3A3A3A3E0F510A3E0F5D6
:103EE30011E4F512F513780C79101216EF4029E559
:103EF300082404F8E43509F9850C10850D1188822E
:103F03008983C3E09510F0A3E095111243EFF8A362
:103F1300E0F9E849709C800E850882850983A3A394
:103F2300A3A3E4F0A3F0850882850983A3A3A3A335
:103F3300A3A3A3A3A3A3E06401850882850983A3A4
:103F4300A3A3A3A3A3702BE054046003023DE8855D
:103F53000882850983A3A3A3A3A3A3A3A3A374068E
:103F6300F07AB78508828509831241DB122D570247
:103F73003EB5A3A3A3A3E06003023DE885088285C1
:103F83000983A3A3A3A3A3A3A3A3A37401F0023E42
:103F9300B5122DB17C0079017A007B00122DE18BE3
:103FA30009EA4509600C7A207B00901659E0F91262
:103FB300203D850C0A850D0B7C0079047A007B007B
:103FC300122DE1EA4B701580538A828B83A3A3A33E
:103FD300A3127696E50898E5099940078A828B83B0
:103FE3001257D07C007904122DE18B0DA90DEA49FB
:103FF30070D7C3E50A9508E50B95095013C3E50887
:10400300950AF508E509950BF509E50845097016C4
:104013007A207B00901659E0F912203D90165E122B
:10402300409FA3F08037E50825E0F508E50933F55F
:1040330009E4F50AF50B78081214757A207B0090D1
:104043001659E0F9122169740412143F12218DEA02
:10405300F8EBF9ECFAEDFB90165E12178BEE642089
:10406300FAEF8027EF5402600A122F07EEFAEF648B
:10407300028018EF540460161269B3790190160C8C
:10408300126573122A33EEFAEF6404FB80047A009C
:104093007B00742912143F7F0C021114E4F0A3F087
:1040A300A3F0221264E0A3E022C082C08374EA1268
:1040B30015237C167D007900AA18AB19121FE97429
:1040C300081217BA7402F0901602126D111240EF23
:1040D30074091217BA126C1F74131217BAE4126917
:1040E300031228E9741612143F026553E8F0A3E99A
:1040F300F090160C125FF02274F7120DF974DA12B5
:104103001523EAFEEBFFEE4F602DAC18AD19122E0E
:104113002374061217BAE0601E74171217BAE0FD73
:1041230074011217BAE0FCEEFAEFFB7900122D1BB3
:10413300E9600479A480027900742602576274F757
:10414300120DF9EAFEEBFF8E828F83A3A3A3A3A331
:10415300A3E05440601712765A126573122EB3E926
:1041630060067AFF7BFF801512765A800390160251
:1041730012657374FE6A700374FF6B604712765A9C
:10418300127229122EB3E98E828F83600E125C990C
:10419300125B5D38F583E4F0A38003127C2DF07C81
:1041A3004B7D2D8E828F831265731228EFE9F508FC
:1041B3007015EE4F60097901EEFAEFFB122DBDA9E0
:1041C300080257657508CDAA081241D7122D57E981
:1041D30060E080EB8E828F83125C9D127BE5E0F9B9
:1041E3002274F6120DF9E9FEEAFF7A0F7B00121F23
:1041F300FBEA4B601F8A828B83740CF0EEA3A3F05F
:10420300EF8A828B83125542901659E0F9122007E8
:104213007900802FEEF9122DE78A088B09A808A9E7
:1042230009E849601C88828983A3A3A3A3A3A3A34A
:10423300A3A374061278F3E0F9122AC3EEF9122D40
:10424300C379100268C174F4120DF98A088B098CC2
:104253000A8D0B901613E0640F702CEA4509450A8A
:10426300450B602390160EE064086005E06404705B
:104273001678081214757A017B00901659E0F9122A
:104283002169740412143F02451B74F4120DF9746E
:10429300FC121523EAFEEBFF8E828F83A3A3E0F9C2
:1042A300122DE78A088B09EA450970030243CA8E77
:1042B300828F83A3A882A983E0C0E0EA240B12645F
:1042C3008FD0E01243EF64F160288E828F83A3E0E6
:1042D30064CD601E8E828F83A3E0641A60148E8285
:1042E3008F83A3E064E9600A8E828F83A3E064E195
:1042F30070367900122DBDE9602EE5082404F50A15
:10430300E43509F50B8508828509831243DBA3E0B5
:10431300F9850A82850B83126573121FAD850A82A4
:10432300850B83127229806E8E828F83A3E0C0E097
:1043330074021217BAD0E0124EFD127C6F124EEFC8
:10434300C0E074031217BAD0E0F0E508240C12534E
:10435300A1AA18AB197005122A1B8003122E9B7495
:10436300021217BAE064E9702D8508828509831269
:104373004C69750A01780A121481750AE9780A12E0
:104383001481125397124EDF1257A4126573122E23
:1043930059740212143F850882850983A3A3A3A33A
:1043A300A3A3A3A3A3E064027012850882850983F3
:1043B300A3A3A3A3A3A3A3A3A37406F08E828F83B3
:1043C300A3A3E0F9122DC3122DB19017C912490B03
:1043D300122D5D7404024518A3A3A3A3A3A3124340
:1043E300E522E0FCA3E0FD8E828F8322127903E0B5
:1043F3002274F4120DF9EAFEEBFF7508008E828F2A
:1044030083A3A3A3A3A3E060487508088E828F83C8
:10441300A3A3A3A3A3A3A3A3A312657379FF122B3F
:10442300AD8B0BEA450B601075082C8E828F83A32E
:10443300A3A3A3A3E0D2E0F08E828F83A3A3A3A3BD
:10444300A3E05403640160030245144308110245C9
:1044530014EE2418125A596038EE241A125A59606D
:1044630003F470131275807003A3E06960030245BF
:1044730014750822024514EE241B127468EE241AE4
:10448300125A59FAEE2419125A59F9122AB102454D
:10449300148E828F83A3A3A3A3A3A3A3A3A31265B1
:1044A30073122EB3E96402700375080112758070EC
:1044B30003A3E0697006E508D2E1F508E508601595
:1044C3008E828F83A3A3E07006E508D2E58004E51E
:1044D30008D2E6F5088E828F83A3A3A3A3A3A3A385
:1044E300A3A3126573122EB3E964017006E508D223
:1044F300E0F5088E828F83A3A3E06015EE241D12DE
:1045030058B7F9122EA1E964016006E508C2E0F587
:1045130008A908800312143F7F0402111474F012D7
:104523000DF974D7121523EAFEEBFF8E828F83A356
:10453300A3A3A3E060119017C7126E006009901740
:10454300C712490B122D5D74031214ED8E828F83F3
:10455300A3A3A3A3124ED0126573122E23E97003F3
:104563000246B9780174051217BAE0C394024002F7
:10457300780074071217BAE0C394024002780074FB
:104583000C1217BAE064F87003A3E0F47003024658
:10459300B9740C1217BAE064F97003A3E0F4700362
:1045A3000246B9740C1217BAE064FA7003A3E0F47C
:1045B30070030246B9740C1217BAE064FB7003A3CC
:1045C300E0F470030246B974061217BAE0F99015C5
:1045D300FCE06960030246B9E8A2E040030246B981
:1045E30074271217BAE060030246B9EE2413125F70
:1045F300E674221217BA126ADA241C125FE67410E8
:104603001217BA126C1F74091217BAE0601F741ADA
:104613001217BAE0FD74041217BAE0FC8E828F837E
:10462300A3A31265737901122D1BE9703D74031264
:1046330014E5122D69E9F50874091217BAE0702E12
:104643009015F6E0602874225508642260207442B5
:1046530055086442701474201217BA124917600E79
:1046630074201217BA1248F460047ACF804AE9A280
:10467300E6504D74201217BA1258BD24FD600F1472
:10468300600C24FD600824FD600424FE702874205F
:104693001217BA1248ED700E74201217BA12686B13
:1046A300A3E0640D601A74031214E5122ECBE964BF
:1046B30001700D0248E07AD37B001226D90248E04C
:1046C300EE242DF582E43FF583124C477003A3E0FB
:1046D300697022750900780912148178091214810E
:1046E300EE242F125A59F91248FB12656D122E59F6
:1046F300740212143F74091217BAE0700302479C44
:104703001248FB12656D122F318A0A8B0BEA450B97
:10471300700302483974041217BAE0F88E828F834B
:10472300A3A3E028F8A3E03400F9E8240D1248E538
:10473300F88A828B83A3A3A3E068600EE88A828B46
:1047430083A3A3A312553B1240A07904E91217BA1D
:10475300124EC7E02AF8A3E034008882F583A3AAA7
:1047630082AB83121FEF8A0C8B0D8C0E8D0F850A83
:1047730082850B83A3A3A3A3780C1213E540030242
:1047830048E0908423780C1215F0850A82850B8308
:10479300A3A3A3A3780C12173C90160EE064046045
:1047A30008E0640960030248E0E508A2E54003026B
:1047B3004873EE242F125A59851882851983F0EE17
:1047C3002430125A59C0E074011217BAD0E0F0EE47
:1047D3002431125A59C0E074021217BAD0E0F074AF
:1047E300141217BAE06401702C740E1217BA125324
:1047F300B12413125A59687003A3E0697017740C3B
:104803001217BA126573122EB3E964027007741497
:104813001217BAE4F0EE2425F582E43FF583121271
:104823001D74041214ED74071214E5122A21740482
:1048330012143F0248E0901653E0640160030247FC
:104843009C74201217BA1249177009E508A2E650A2
:104853000302479C74101217BAE0F47003A3E0F448
:10486300607BEEFCEFFD74031214E5122D75806D71
:10487300A2E6506974201217BA126CE77016741A04
:104883001217BAE06402705574031214E57900122A
:104893002E95804974201217BA1248F47014741AB2
:1048A3001217BAE06404703574031214E5122E89EA
:1048B300802B74201217BA1248ED700C7900740320
:1048C3001214E5122ED7801574201217BA12686BD2
:1048D300E0640C700874031214E5122EEF742902BD
:1048E30053C8F582E439F583E022127664E0640369
:1048F30022127664E0640722EE242BF582E43FF56E
:1049030083127472EE241322E0F508A3E0AA08FBD5
:10491300E4FCFD221257C064062274F4120DF9EA76
:10492300FEEBFF8C088D09901579E0600F127580FE
:104933007003A3E0697005122A9F805A79008E8262
:104943008F83A3A3A3A3A3A3A3A3A3126573122A71
:10495300CF8A828B83E58245836033A3A3A3A3A37A
:10496300A3E054186028E508241C12648F12122156
:10497300E508241312648F121221EE2418125A59D7
:10498300F912655A122AE1740412143F800879005F
:1049930012655A122AA502451B74F7120DF974F712
:1049A300121523EAFEEBFF90160EE06403600DE0A0
:1049B30064016008E064096003024AB48E828F8355
:1049C300A3E06003024A7A7C007D007A027B001236
:1049D3001FA71276A08A828B83125FEC9015FF12B9
:1049E3006C1F79531228D790160EE0640960099062
:1049F300160C126573122F2B851882851983740187
:104A030012690379421228D790160E7404F07401C8
:104A13001214E5794A1228D174011214ED7A047B39
:104A2300161222839017B3E0640B70057406F080AE
:104A33000B790090160C126573122A339015FF122E
:104A4300746E7A037B00121FA790160212746E7A9B
:104A5300047B00121FA79015F9E0A2E35004D2F0E3
:104A63008002C2F01268F979521228D79017C31244
:104A7300177F122D5D8037FC7D007A037B10121F98
:104A8300A79017B3E0640B7003740AF09017E9E47E
:104A9300F0FA7B40901659E0F91221758E828F83CC
:104AA300124ABB126573122A3390160EE4F0122DCC
:104AB3009F7409025762E0F8A3E0F990160C22C034
:104AC30082C08390159E126E00701F90160EE01424
:104AD300600924FC600A14600C800F9015A88034D0
:104AE3009015A4802F9015A6802AE8496008901598
:104AF3009F124ED9700C8A828B83A3E0F9122A2766
:104B0300801D90159E126CED64027005122EFB80C1
:104B13000E90167D126E00600612686C12342E021F
:104B2300655374F4120DF974FE1215238A088B0968
:104B33007A007B04901659E0F9122175AA18AB1973
:104B430079501228D17A0F7B00121FFB8A0A8B0B34
:104B5300AE0AAF0BEE4F6020850882850983A3E080
:104B6300701690160CE0F47003A3E0F4603B124C53
:104B7300417003A3E0696031850882850983A374CA
:104B8300EA124EF51228D77A027B16794B1228D7F0
:104B93007A0C7B1679501228D77A017B1679E112A9
:104BA30028D7EE4F7003024C358E828F837402F048
:104BB30090160CE0F47003A3E0F4600A124C417009
:104BC30003A3E069704F851882851983124AB9E8F7
:104BD300F0A3E9124EF51228D19015FF1253B61225
:104BE3006C1F7A027B16794B1228D17A017B1679D6
:104BF300E11228D1750A00780A121481780A121476
:104C0300819017A8124ABC125116126573122E59BD
:104C1300740212143F850882850983124C3AA3F06B
:104C230090160E7403F0EEFAEFFB901659E0F912AA
:104C330020077402024518A3E08E828F8322851811
:104C430082851983125FF090160CE06822E8F0A3C6
:104C5300E9124C5822F0850882850983E022F58207
:104C6300E43BF583E022125FF0E8FAE9FB2274F5F6
:104C7300120DF974D11215238A088B098A828B834A
:104C83001258AF741C1214ED8A828B83A3A3A3A3BF
:104C9300A3A3A3A3124EDF126573122DA5741C12D6
:104CA30017BAE0702C850882850983A3A3A3A3A365
:104CB300A3A3A3E0C3940B40188E828F83A3A3A363
:104CC300A3A3A3A3A3E064027007126C0BE0F46038
:104CD30003024EC290160EE064027003024DA9E077
:104CE30064067003024DA990159E126E00600812AF
:104CF3004ED97003024DD990160EE064086008E0A7
:104D030064046003024EC2741E1217BA124EC7A384
:104D1300A3A3A31258AF90159EE0F8496007126C45
:104D2300F36402607790160CE06E7003A3E06F608B
:104D330003024EC274016A601674231217BAAC825E
:104D4300AD837A207B1612227DE96003024EC27A7C
:104D5300007B02901659E0F912217BEA4B4C4D601F
:104D630003024EC290160F1217A38518828519836A
:104D730012178B901615E0C0E074041217BAD0E036
:104D8300F074051217BA7401F074061217BA74029C
:104D93001269031229E5E96003024EBFEEFAEFFB45
:104DA300122EF5024EC290159E126E0070287508E1
:104DB3000078081214817808121481EE2410F58209
:104DC300E43FF583124ED0A31243DB126573122E18
:104DD30059740212143F8E828F83125FEC74071290
:104DE30017BAE8F0A3E91253BC125FEC7409121767
:104DF300BA126ADA125F85C0E0740B1217BAD0E0F8
:104E0300124EEFF508A3E0F509740F780812172D79
:104E1300740C1217BAE508F074201217BAE0C0E058
:104E2300740D1217BAD0E0F074221217BAE0C0E082
:104E3300740E1217BAD0E0F0741D1217BAE0C0E076
:104E430074101217BAD0E0F0741E1217BAE0C0E063
:104E5300740F1217BAD0E0F0EE2410125A59C0E0C2
:104E630074111217BAD0E0F074211217BAE0C0E03F
:104E730074121217BAD0E0F0742E1217BAE0C0E021
:104E830074131217BAD0E0F074231217BAA982AAC6
:104E93008389088A09750A0078081214797C087DC9
:104EA3000074171217BAAA82AB83121FDD740312A0
:104EB300143F74071214E5122A2D80031229EB7490
:104EC3002F0258C1E0FA8E828F83A3A322E0F98ECA
:104ED300828F83A3A322126CF4640122E0F98A82F5
:104EE3008B83A3A3A3A3A3A3A3A3A322F0126C0F57
:104EF300E022F07AFF7B15795322124F0122F085CD
:104F030018828519832274F2120DF974F81215238D
:104F1300EAFEEBFF8C0A8D0B890D908265AC18AD10
:104F2300197408121366750C00EEFCEFFDAA18AB9A
:104F33001912227DE97003750C0190165A801AEE3E
:104F4300FCEFFDE508240BFAE43509FB12227DE9A9
:104F53007023E508241412648F124F8E6024E50C2D
:104F6300A2E040DB850882850983E0650A7004A31B
:104F7300E0650B70DD850882850983A3A3E0650DD9
:104F830070D0AA08AB0974080255561257D8E50821
:104F9300450922C082C08390165A02655074F712E5
:104FA3000DF990165A127911800C12705E1258B2D4
:104FB3001220A3EEFAEFFBEA4B70EF90165AE4F0DF
:104FC300A3F002576574F1120DF9EAFEEBFF890AAB
:104FD3008C088D098E828F83E08C828D83125FB45F
:104FE300AE82AF83E01262F9126500C41262F91255
:104FF3005087E01263001264FEA2E2E4338C828DD8
:10500300831264FD131313541F1262F91264FCA27A
:10501300E7E4338C828D83A3A3A3A31250878E0C62
:105023008F0D750E00780C1214797C087D00E5084D
:105033002407FAE43509FB121FDD740312143FEE53
:105043002408FE50010F8E0C8F0D780C1214797CFE
:10505300037D00E508240FFAE43509FB121FDD7414
:105063000312143FE50AC3940F40118E828F83A36A
:10507300A3A3E0C0E012648BD0E0800412648BE44D
:10508300F002769BA3A3125FB80EAF832274F512CE
:105093000DF98A088B098A828B83A3AE82AF83E0E2
:1050A300F9122A4B8E828F83E064EB602485088299
:1050B300850983A3E064E16018850882850983A3D9
:1050C300E064F1600C850882850983A3E0641A70AB
:1050D30009850882850983A3E4F09017C312177F1B
:1050E300122D5D750A01780A1214818508828509DB
:1050F30083A3E0F5087808121481790090160C1246
:105103005116126573122E59740212143F122DB1E7
:105113000258C412747290160222EAF0A3EBF00252
:10512300655374F6120DF990165DE0701B7C0079DF
:10513300017A007B00122DE1EA4B600C8A828B839B
:10514300126E006003122D510268C1C082C08379C0
:1051530004122DDBE9F8903BEEE493C398401079F9
:10516300FF122DDBE9F8903BEDE493C398500479EB
:10517300018002790002655374F0120DF98A088BDD
:1051830009890B750C008A828B83A3A3A3A3A3A312
:10519300A3A3E0F9122DE78A0E8B0FAE0EAF0F75A6
:1051A3000A01EE4F6003025275850882850983A3C5
:1051B300A3A3A3A3A312746E850882850983A3A363
:1051C300A3A3A3A3A3A3E0F985088285098312659A
:1051D30073122DCF8A0C8B0DAE0CAF0DEE4F7003F7
:1051E3000253908E828F83A3A3A3A3E4F0A3F0E5DD
:1051F30008240CFAE43509FB8A828B83E0C0E012B1
:105203005397D0E0F0E508240D1253AA240D126C35
:1052130019122EB9EE240F127223E508241112532A
:10522300AA2411126C19E50824131253A1C0E01229
:105233006AC3D0E0F0750C01EE2406125F79547F47
:10524300F0A3E054FC1243EF540460030252EA90CB
:1052530017D5E0F508750900740778081216628EF1
:10526300828F83A3A3A3A3A3A3E04508F0A3E045F0
:1052730009F08E828F83A3A31257D0740778081284
:10528300172DE5085407FCE50B606C8E828F83A312
:10529300A3A3A3A3A3A3A3A3740212650112567B22
:1052A300600B9015FA1253B6A3A3126C1FEC700394
:1052B30002535EEE2406127BEE547FF508A3E054FE
:1052C300FCF509EC24FFF50EE434FFF50F740778C1
:1052D3000E121662E508450EF8E509450FF98A82B4
:1052E3008B83126C1F80748E828F83A3A3A3A3A3CB
:1052F300A3E04480025274EC7005750A00805C8E52
:10530300828F83A3A3A3A3A3A3E05420600C121F43
:10531300F5EA547F7900245F80198E828F83A3A3DB
:10532300A3A3A3A3E05410601A121FF5EA540F7944
:1053330000240A5001098E828F83A3A3A3A3F0A3A1
:10534300E9800D8E828F83A3A3A3A37401F0A3E44A
:105353001253BC74041255FE12203DE50CA2E0501A
:105363002F8E828F83A3A3A3A3126FE4E0F9EEFA37
:10537300EFFB122DD5E96018126DF76009EE240FCB
:1053830012656D1220A3EEFAEFFB1220A3750A003B
:10539300A90A8034EE240CF582E43FF58322F582DA
:1053A300E43509F583E022F582E43509F583125FDC
:1053B300F0EE221276C4A3A3221253C02212623C3F
:1053C300A3A3A3A32212143F7F0802111474F4129F
:1053D3000DF974F71215237E00122DE7EA4B7003C3
:1053E3000254968A828B83A3A3A3A3A3A3A3A3A3F9
:1053F300E0640660030254968A828B83A3A3A3A36B
:10540300A3A3A3E0FF8A828B83127C12E0C0E07423
:10541300081217BAD0E01257B7F8A3E0F98518823B
:10542300851983126C1F122DF9EF540860638518D8
:105433008285198312746E7A007B00122DC98B0B3F
:10544300EA450B704C127C611229017C007D007AC5
:10545300007B0080288E828F831258BDF47003A3D3
:10546300E0F4602D90160C1243E11265731228FBD1
:10547300E9641A601C7C007D00EEFAEFFB122DC973
:105483008A0A8B0BAE0AAF0BEE4F70C97900122953
:10549300077E01EEF97409024518C082C083EA4B06
:1054A300700590166280068A828B83A3A31256B37B
:1054B30060208A828B83A3A3A3A3A3A3A3E054089E
:1054C30060E5EC4D60101256BA7003A3E06D70D71F
:1054D30080047A007B0002655374F2120DF9EAFE30
:1054E300EBFF890A8C088D097A147B0012209DEA50
:1054F3004B603A8A828B83A3A3A3A3A3A3A3A3A3EF
:10550300E41257ACA3E50A12766BA3127C6D125515
:105513003B1257CA1255428A828B83127688EA124B
:1055230078ED3BF583E4F0125532F0A3F08027A326
:10553300F08A828B83A3A32212767FE4F0A322A3B3
:10554300F012554D3BF583E4F022EA1268E822A9F4
:105553000A740312143F7F0602111474F4120DF936
:10556300EAFEEBFF89088C0A8D0BEE4F70030255A0
:10557300F97401650870127901122DDBE9F8903B8B
:10558300EFE493C39850228016740465087014796D
:1055930004122DDBE9F8903BEEE493C398500A79AB
:1055A30011805574026508704D8E828F83A3A3A367
:1055B300A3A3A3A3A3A3E508125FB4A31272C2E437
:1055C300F0A3F0901662126E00601A8003E0F8A355
:1055D300E0F988828983A3A31256B388828983A3BF
:1055E300A370EA8003901662EEF0A3EF1255FE1249
:1055F300203D7900800279C102451BF07A207B00AF
:10560300901659E0F922C082C083E9F87900901618
:1056130062801D8A828B83A3A3A3A3A3A3A3A3A3B3
:10562300E068600574FF687001098A828B83A3A315
:105633001256B370DE02655374F7120DF9EA4B701C
:105643000590166280068A828B83A3A31256B360E9
:10565300208A828B83A3A3A3A3A3A3A3A3A3E06909
:1056630070E4EC60108A828B83E012567B70D780E3
:10567300047A007B00025765F8A3E0C8127C39E086
:10568300540422C082C08390166280068A828B8370
:10569300A3A31256B360128A828B83A3A3A3A3A3EB
:1056A300A3A3A3E06970E580047A007B000265533D
:1056B300127911FBEA4B221257BC6C2274F2120DC1
:1056C300F98A0A8B0B8C0C8D0D750800750900EA9D
:1056D300450B603090166280068E828F83A3A312DF
:1056E30058B2EE4F601EAC0CAD0DEEFAEFFB850A1F
:1056F30082850B8312342EE9640170DDEEF8EFF935
:1057030088088909AA08AB0902555974F7120DF9DB
:10571300901662125FEC7C007D00800DE8FCE9FDD1
:1057230088828983A3A3125FECE8496030EA68703A
:1057330002EB6970E7901662126573E86A7002E91A
:105743006B88828983A3A37008125FEC9016628032
:1057530009125FEC8C828D83A3A3126C1F8003124A
:10576300143F7F0102111474F7120DF9EAFEEBFFE7
:10577300EE4F602B122DF31257E01265711220A326
:105783008E828F831265731220A3126DF76009EE68
:10579300240F12656D1220A3EEFAEFFB1220A380F3
:1057A300C11274728A828B83221257B022127683BB
:1057B300A3A3A322F01257BC228A828B83E0F8A30F
:1057C300E0F5838882E0221257B0A3A322A3A3A308
:1057D300A31257D822E0F508A3E0F509228E828FA1
:1057E30083125C9D125C933822C082C083EAFCEB77
:1057F300FDEC4D6017EC24FBF582ED34FF126DFEDA
:105803007007125846E0F4600712200179058030D2
:10581300901659E0C0E0125846D0E0F0903BE8E41F
:1058230093F97A647B16122037E9640170107A00C9
:105833007B20901659E0F912203D7900800279040B
:10584300026553EC24FFF582ED34FFF5832274F4F3
:10585300120DF9A2AFE433F508C2AF9016641258E3
:10586300B2EE4F603AEE24FBF582EF34FF126DFE89
:105873007A007B209016596007E0F912203D8005DD
:10588300E0F9122043E4F50AF50B780A12147DEED1
:10589300FCEFFD7A647B16122031740212143FE58B
:1058A30008A2E092AFEEFAEFFB02451BA3A3A312FB
:1058B30072DAFF22F582E43FF5831257C0221214F5
:1058C3003F7F0302111474F2120DF974FA121523B7
:1058D300EAFEEBFF750AFE750BFF122DB7E96005B3
:1058E3007911025A51EE2415125A5960359017F363
:1058F300E0C43354E0F8E0333354FC48C0E01262B0
:1059030002D0E0127C42FAA3E0FB79FF122BAD8BAD
:1059130009EA4509600C750AFF126AC71269ADD21C
:10592300E0F08E828F83A3A3126573122EB3E96016
:1059330006EE24121268D0EE2413125A59700D90F9
:105943003BF0E493C0E0126AC3D0E0F08E828F8311
:10595300E0A2E7500454038019EE2414125A59703C
:10596300129015EBE0C0E0125F6FD0E0F09015EB02
:10597300E004F0125A56640170169017DEE0600DD1
:105983009015F6E0700A8E828F83E070031268CD63
:105993008E828F83E064017011EE240B1258B7647A
:1059A300027007125A6DE04440F0AC18AD19EEFADC
:1059B300EFFB122E1D8A088B0974FE650A700374AF
:1059C300FFF4700D8E828F83A3A3E0F50AA3E0F5A5
:1059D3000BEA450960748E828F83E0C0E074011284
:1059E30017BAD0E0F074041217BA127688EE241EA8
:1059F300125FE674021217BA126C1F74011214DDDF
:105A0300880C890D780C12147DEE2420125A611231
:105A13001481125A6D121221EE240E125A611214BD
:105A2300819015FF12122174081217BAE0F9AC0A1B
:105A3300AD0B122E17740812143FE9FE74106E702A
:105A43000BAA08AB091220A380027E10EEF974069C
:105A5300025556EE2411F582E43FF583E022F582E8
:105A6300E43FF583E0F50C780C22EE126ACF22C0F6
:105A730082C08374D71215239081C974031214ED65
:105A830074261213668A828B83A3A3A3A3125FECEB
:105A9300740E1217BAE8F0A3E9125533125FEC74CF
:105AA3000C1217BA125B63125B5D124C64C0E07494
:105AB3001A1217BAD0E0F0127068125FEA7420125B
:105AC30017BA125B632415124C61C0E074081217F5
:105AD300BAD0E0F0EA241CF582E43B125FEA7412C8
:105AE3001217BA125B632411124C61C0E0740912DD
:105AF30017BAD0E0F0EA2412124C61C0E074071226
:105B030017BAD0E0F0EA241EF582E43B125FEA7490
