:020000040000FA
:060000000216FF020A1CBB
:03001300020AD806
:03002B000214229A
:03003300020C6953
:03003B00020B2D88
:03004B0002138716
:0300530002094B54
:03005B000211DFB0
:0300630002120086
:03006B00020C0C78
:03007B00020C4034
:100083000209AD01010020FD0002012D0500000061
:1000930001431D4F1D0000551D611D000000006739
:1000A3001D8B1D911D971D0000000000000000FF27
:1000B300FF01010204081020408001FFFF090D0128
:1000C300010401FEFF000000000000000612FFFF14
:1000D300FFFFFFFFFF01010104004714000000E8D8
:1000E300030000FFFFEF14E803000064006400B89E
:1000F30001A0BB0D00A0BB0D00020200F8FF070525
:10010300021E0401051E02051E020A0A0101080857
:1001130003102702803E0102FEFFE8030A050001E7
:10012300FFFF020A1401E0C503423F1A51123FF3D5
:1001330004B53F0000803E05030101FFB538000010
:1001430000004D3800000000FF000000FF00C082E7
:10015300C083E9FA5407F8748C28F582E43417F560
:1001630083E0F87900EAC4540F540360081460096B
:1001730014600D8012E5808002E5905870078007B7
:10018300E5A05860027901020258C082C0831202BE
:10019300EA600814601214601C802BEA6005EB42CD
:1001A300808023E85280801EEA6005EB429080162F
:1001B300E852908011EBC39420500BEA6005EB42A8
:1001C300A08003E852A0020258C082C0831202EA50
:1001D300600814602C146050807BE852F374016A49
:1001E300601274026A601574046A7003EB428FEB49
:1001F30042FD806153F7DFE8528F80F343F720809D
:10020300F6E852F474016A601274026A60157404A9
:100213006A7003EB42F6EB42FE803A53F7BFE852B3
:10022300F680F343F74080F6EBC394205027E8525F
:10023300F574016A601274026A601574046A7003CB
:10024300EB42F7EB42FF800D53F77FE852F780F361
:1002530043F78080F6D083D08222C082C08312020B
:10026300EA600814602B14604E806CE852F352FD70
:1002730074016A600F74026A600F74046A7058EB49
:10028300428F805353F7DF800343F720E8528F8078
:1002930046E852F452FE74016A600F74026A600FFA
:1002A30074046A7032EB42F6802D53F7BF80034328
:1002B300F740E852F68020EBC39420501AE844E05C
:1002C300F852F552FF74016A601074026A60137485
:1002D300046A7003EB42F702025853F77FE852F7C0
:1002E30080F543F78080F6E95407FC748C2CF58283
:1002F300E43417F583E0FBF4F8E9C4540F54032204
:10030300C082C0831202EA600814601214601C8069
:100313002DEA6005EB42FD8025E852FD8020EA606E
:1003230005EB42FE8018E852FE8013EBC394205085
:100333000DEA6005EB42FF800574E04852FF0202BC
:1003430058C082C0831202EA600814601514602248
:100353008034EA6005EB42808003E85280EB42FD83
:100363008024EA6005EB42908003E85290EB42FE62
:100373008014EBC39420500EEA6005EB42A0800387
:10038300E852A0EB42FF020258E9C4540F54036041
:1003930007146013146020227801E8F4FBEA60205C
:1003A30014602114601522740F59C3940450047807
:1003B3000280E7780480E3780880DFE58C586004E6
:1003C300EB528C22E8428C2212170F601D12171E6B
:1003D3007005191919801A121578701F1215A0C308
:1003E3007003E6673319191940071818182208080B
:1003F3000874FFF618F618F618F6221215A06017FF
:100403001217C4702192F01217CD7019501720F0F3
:1004130014080808090909E7F61819E7F61819E78F
:10042300F61819E7F6221217CD60E6E869701F087F
:1004330008E62480F608E436F618547FB47F0CE609
:1004430054806007F6E418F618F622181822E9C655
:10045300CC08C6CD08C6CE08C6CFC0E0E8C0E0EAE7
:10046300C0E0EBC0E009E9F809E7FA09E7FBE6F9C0
:1004730018E6F8C3EC98ED99EE9AEBC2E7F5F0EFC6
:10048300C2E795F0500E600CEBCFFBEACEFAE9CD54
:10049300F9E8CCF8EAA2E7D2E7FAEB33FB13F5F07D
:1004A300EEA2E7D2E7FEEF33FFC5F013A2E730E693
:1004B30001B313C5F0C3C0E0C0F07F00C39BFB6072
:1004C3005E9418600F401D14601AD0E023F9D0E049
:1004D300F80205AC8AF0E9486003D2F0E4AFF0FA21
:1004E300F9F8803BEB30E40D89F0EA6003D2F0E4E5
:1004F300AFF0F9CAF8EB30E30D88F0EF6002D2F009
:10050300AFF0E4CAC9F8EB54076014FBC3EA13FA6B
:10051300E913F9E813F8EF135002D2E0FFDBEDD053
:10052300E0C0E030E739C3E49FFFF5F0EC98FC420C
:10053300F0ED99FD42F0EE9AFE42F0D0E0F9D0E002
:10054300F8E5F0607AE923F9EE20E742D802806704
:10055300C3EF33FFEC33FCED33FDEE33FE80EAEC07
:1005630028FCED39FDEE3AFED0E023F9D0E0F84067
:1005730002801BC3EE13FEED13FDEC13FCEF1350CF
:1005830002D2E0FF08B800067F7F74FF802EEF33AE
:1005930050178CF020F00260100CBC000C0DBD0055
:1005A300080EBE000408E860DFE933E813FFEE231A
:1005B30013FE4F4D4C8008E95480FFE4FEFDFCEE32
:1005C30033EF33F47004FCFD7E80D0E0FBD0E0FA1F
:1005D300D0E0F8D0E0CFC618CEC618CDC618CCC62A
:1005E300F92212170F70041818182212171E700D13
:1005F30074FFF61819F61819F61819F622E754803D
:1006030066F61217CD700F1217C470F014F608F6C1
:1006130008F608F680D11217C4700CF608F60876AF
:100623008008E6447F80EC1215A3700C12157B60E2
:10063300BFE65480F6E480BB12157B7005191919C7
:1006430080A5E869700C763F18768018F618F6E8EE
:10065300F922E6CDC0E018ECC0E0E633CD33CDD3CC
:1006630013F6E719FCE7191933CC33C3947F400E13
:10067300CD9D502408E65480F6E418F6800FF40468
:100683003D14501408E6447FF6187680E418F618F3
:10069300F6D0E0FCD0E0FD22CCD313CCFD18E4C6A9
:1006A300CBC0E018E4C6CAC0E00808ED08C633E6CC
:1006B30013F618E433C675F003C3CA97CA09CB9778
:1006C300CB199C40047D08802EBD000302078E16C3
:1006D300B6FF050606081618C3CA33CACB33CB3395
:1006E300CA27CA09CB37CB193CC37D08803E187D86
:1006F3000820E75CC633C6CA33CACB33CB33DDF13C
:10070300D5F0EB30E77BCA97CA09CB974ACB199C44
:10071300406F4B7025E620E0218066187D08C3CA30
:1007230097CA09CB97CB199CD3C633C6CA33CACB56
:1007330033CB3350C9DDE7D5F0E1D3E4C636C60881
:10074300C636C608C636C608C636C6181818803157
:10075300C3CA97CA09CB97CB199CB34097C633C674
:10076300CA33CACB33CB33DD34D5F02EC6A2E0C6B1
:1007730040C8CA27CA09CB37194A70BECB3CB480DC
:10078300B90808E63308E633601F181818D0E0FAF2
:10079300D0E0FBD0E0FCD0E0FD22187D08CA27CAD8
:1007A30009CB37CB193CD3808013F618E4B67F11FD
:1007B300F618B6FF0EF618C60470D20808768080C5
:1007C300CAF618F618F680C50012170F604F1217F5
:1007D3001E6012E7548066F612157870111217C462
:1007E300703B090909F4F618F618F618F6221215E3
:1007F300A070151217CD08080860EAE6447FF618C2
:10080300768018E4F618F6221217CD60161217C474
:100813007012E4F608F608F608E65480F6090909AA
:1008230018181822EAC0E0EBC0E0ECC0E0EDC0E02D
:10083300E687F0A4FBACF008E687F0A42CFCE435D3
:10084300F0FA1809E687F0A42C4B60027401CA354C
:10085300F0FCE433FB09E687F0D2F7A42CCB35F0A8
:10086300FC1908E687F0A42BCC35F0FBE433FD0834
:1008730019E687F0D2E7A42C4ACB35F0CD3400FC3F
:1008830009E687F0D2E7A42DCC35F0FDE433FA096D
:1008930018E687F0D2F7A42CCD35F0CA3400FC0853
:1008A300E687F0D2E7D2F7A42ACC35F07A7E20E7A8
:1008B3000B0ACB33CBCD33CDCC33CC33CB3350142A
:1008C3007004ED30E00ED2F1E4CD3DCDCC3CCC3B19
:1008D3005005DA05C2F1EB547FC63308E63392F0D4
:1008E300FBE73309E733C39A502D2B70190C0D4CDA
:1008F3004D70151806E608C333700D20F10AA2F0F7
:1009030013F6E418800B4024E4F630F002768018E6
:10091300F618F618F68024D33B14501074FFA2F097
:1009230013F6187680E418F618F6800FA2F013F683
:1009330018E63303F618ECF618EDF6D0E0FDD0E038
:10094300FCD0E0FBD0E0FA22C0E074F1120ECDA29D
:10095300AFE433F509D2AF85A708AFA1EF5508FE81
:1009630074105E6006121A1975A1EF74085E6008B0
:10097300121A1F75A1F78024EFA2E092F0E508A2F6
:10098300E082F05017906198E0F890049DE0C398DE
:10099300A2D265D0335002E8F075A1FE751A00E5C6
:1009A30009A2E092AF7F02020F2CC0E074F2120E94
:1009B300CDA2AFE433FED2AF9061A4E0F8759B0003
:1009C300E59158540860087591F7121A678023E57A
:1009D3009158541060087591EF121A6D8014E591C7
:1009E300A2E092F0E8A2E082F05007E0C2E0F01249
:1009F3001BC39061A3E0F8E5E9585404600E121B91
:100A03009975E9FB906193E0A2E640F2751A00EE56
:100A1300A2E092AF7F01020F2CC0E074F2120ECD60
:100A2300A2AFE433FED2AF9061A5E0F8E5BF58541E
:100A330004600675BFFB121BDB80D1C3E498F8E4A6
:100A430099F9120A7F8026C3E49AFAE49BFBE92012
:100A5300E7E9120A7FE498F8E499F922C3E498F8E5
:100A6300E499F9120A7FE498F8E499F9C3E49AFA4D
:100A7300E49BFB22EB20E7CFE920E7E0B90010BBC2
:100A83000008E88AF084F8AAF022E4FBC8FA22EB13
:100A930070227B10C833C8C933C9335007C39AC304
:100AA300DBF280069A50012ADBEAC833F4C8C93363
:100AB300F4C9FA2275F008E4C833C8C933C933C985
:100AC3009AC99B5004C92AC93BD5F0ECFBC833F43F
:100AD300C8E4C9FA22C0E0C0D0E8C0E0E9C0E0C081
:100AE30082C083A8C1E8C0E090040AE0F8748928B2
:100AF300F582E43403F583D0E0F0900409E0F8A331
:100B0300E0687006E59590040CF090040AE004F0A8
:100B1300C394804002E4F0A374C6F0D083D082D0A3
:100B2300E0F9D0E0F8D0D0D0E032C0E0C0D0E8C0E7
:100B3300E0E9C0E0C082C08390048DE0F8A3E068E0
:100B43007008539AFBA374018022C2E990048DE0DC
:100B5300F8740128F0740D28F582E43404F583E079
:100B6300F5C190048DE0C394804002E4F080AC12A0
:100B73000BBD30F039120C028034120BBD20F0147F
:100B830030E72B74FFFCFBFA747F8022E4FCFBFA52
:100B93007480801AB48008BC00F2BB00EF800F5051
:100BA300EBF9E4C39AFAE49BFBE49CFCE499C6CC1E
:100BB30018C6CB18C6CA18C6F922E4C9C608CAC6DD
:100BC30008CBC6D3330308CCC63392F0C3947F401B
:100BD3002E94184019C9B90704CACBCC225025C397
:100BE30009CA33CACB33CBCC33CC33D9F422F46028
:100BF3000DC9CCC313CB13CBCA13CAD9F6CC22E489
:100C0300FCFBFA2214FCFBFA22C0E074F2120ECDB4
:100C1300A2AFE433FED2AF90062EE05589600FE514
:100C230089FA7900121E9990062EE0F45289C2C502
:100C3300751A00EEA2E092AF7F01020F2CC0E074A0
:100C4300F2120ECDA2AFE433FED2AF90062FE055E1
:100C53008A600FE58AFA7901121E9990062FE0F453
:100C6300528AC2EB80CAC0E074F2120ECDA2AFE486
:100C730033FED2AF900630E0558B600FE58BFA79E7
:100C830002121E99900630E0F4528BC2E880A1084C
:100C93000808EAC0E0EBC0E086F0E7A4FA1809868A
:100CA300F0E7A42AFA180986F0E7A42AFA180986B5
:100CB300F0E7A42AFA1986F0E7A4FBE5F02AFA196B
:100CC3000886F0E7A42BFBE5F03AFA190886F0E76B
:100CD300A42BFBE5F03AFA18180986F0E7A4C5F04F
:100CE3002BFBE43AFA1908E7C5F0C6A426F6E5F0AB
:100CF3003BFBE43AFA1886F0E7A4F6E5F00826F69B
:100D0300E43B08F6E43A08F6D0E0FBD0E0FA220828
:100D13000808E630E7111215DC120D2A080808C688
:100D23004480C618181822181818E9799EC608CAEC
:100D3300C608CBC608CCC6C370207996CACBCC7084
:100D430019798ECBCC70137986CC700EF9802ACAB0
:100D530033CACB33CBCC33CC331930E7F2CCCBCA49
:100D63003350147004EA30E00DE4CA3ACACB3BCBEB
:100D7300CC3CCC500209C3E913C6CC182313C6CB11
:100D830018C6CA18C6F922E4CFC0E0E4CEC0E0E436
:100D9300CDC0E0E4CCC0E075F020E626F608E633EB
:100DA300F608E633F608E633F6181818EC33FCEDCC
:100DB30033FDEE33FEEF33FFC3EC9709ED9709EEF6
:100DC3009709EF97191919400FFFEC97FC09ED9755
:100DD300FD09EE97FE191906D5F0BFECF709EDF7FB
:100DE30009EEF709EFF7191919D0E0FCD0E0FDD0AF
:100DF300E0FED0E0FF222518C582C0E0E51934FFEC
:100E0300C583C0E0E518C3958224F810AF08858335
:100E1300198582188008858319858218D2AFCEF090
:100E2300A3E520F0A37808E608F0A3DEFAEFF0A329
:100E3300E58124FAF8E608F0A3E608F0A3E608F053
:100E4300A30808E608F0A3E608F0A315811581D0EE
:100E5300E0FED0E0F8158115811581E8C0E0EEC011
:100E6300E0221217AFB90003020EB7E49003317802
:100E73002E79158002F0A3D8FCD9FA781A9000864F
:100E83007A01BA00028007E493A3F608DAF97A5EDE
:100E93007B1790008778CB79018015E493A3AD820B
:100EA300AE838A828B83F0A3AA82AB838D828E83E7
:100EB300D8E9D9E77582FF7583C2740612140475E5
:100EC30082177583347400121404C0D02518C582A8
:100ED300C0E0E51934FFC583C0E0E518C39582245B
:100EE300F310AF08858319858218800885831985D7
:100EF3008218D2AFC8F0A3E9F0A3EAF0A3EBF0A302
:100F03007908E709F0A3D8FAECF0A3EDF0A3EEF02B
:100F1300A3EFF0A3D0E0F0A3D0E0F0A3D0E0F0A3E0
:100F2300E520F0A3E5F0F0A322851983851882E07C
:100F3300C0E0A3E0F9A3E0FAA3E0FBA37808E0F69E
:100F430008A3DFFAE0FCA3E0FDA3E0FEA3E0FFA318
:100F5300E0C0E0A3E0C0E0A3E0F5D0A3E0F520A368
:100F6300E0A3F5F010AF0885831985821880088502
:100F73008319858218D2AFD082D083D0E0F8D0E035
:100F8300321215DF181818120D8A1216AE19191914
:100F9300221216AE191919080808E618181820E7BE
:100FA300E0120D8A1215DF18181822090909E7192A
:100FB300191920E7DC080808E618181820E70302C7
:100FC3000D8A1215DF181818120D8A1215DF18185A
:100FD300181216AE191919221075F0108E218F22CE
:100FE300858226858325851882851983E0CEA3E033
:100FF300CF852682852583EBC9EAC8EDCBECCAC32E
:10100300E833C8E933C9EA33CAEB33CBC3EA9EF505
:1010130024EB9FF523B35004AB23AA24EC33CCED8C
:1010230033CDD5F0DAAE21AF222212170F601C1296
:10103300171E60171217CD70071217C47001D32241
:10104300C0D01217C47006D0D0B322C32233D0D07D
:10105300501430E0F6C3E7960809E7960809E796C7
:101063000809E796B32220E0D5E6970809E6970832
:1010730009E6970809E697B322D083D082ECC0E053
:10108300EDC0E0E493A3FCE493A3FDED4C600D12EB
:1010930011A0EC24FFFCED34FFFD80EFE493A3FCEF
:1010A300E493A3FDED4C600D1212A7EC24FFFCEDBD
:1010B30034FFFD80EFD0E0FDD0E0FCE493A3C0E07B
:1010C300E493C0E02212170F601B12171E60161262
:1010D30017CD70071217C4600CB322C0D01217C407
:1010E3007005D0D022C32233D0D0501330E0EBC3ED
:1010F300E7960809E7960809E7960809E796222084
:10110300E0E4E6970809E6970809E6970809E697F1
:1011130022851983851882E0A3FEE0A3F5207808D1
:10112300E0A3F608DFFAE0A3FFE0A3C0E0E0A3C07A
:10113300E0E0A3C0E0E0A3C0E0E0A3C0E010AF089C
:101143008582188583198008858218858319D2AF13
:10115300D083D08202140AD083D082E9C0E0E49322
:10116300A3C386F0C5F095F0F908E493A386F0C510
:10117300F095F0700BE493A3C3994005E904800252
:10118300A3E475F002A42582F582E5F03583F583A7
:10119300D0E0F9E493A3C0E0E493C0E022C0E0C34D
:1011A300E49396087401939618400FE493667008CD
:1011B30008740193661870007019A3A3C3E493968F
:1011C300087401939618A3A3400DD0E0D0E0D0E0BB
:1011D3000210B8A3A3A3A3A3A3D0E022C0E074F298
:1011E300120ECDC2D99017AAE0C39400A2D265D043
:1011F300334005E0F91221D57F01020F2CC0E074C2
:10120300F2120ECDC2DC9017ACE0F9C39400A2D267
:1012130065D03340031221D580DE74048004740248
:101223008000CCC0E0EDC0E0E518C39CCCAD195004
:10123300011D10AF068C188D1980068C188D19D2DC
:10124300AF121366D0E0FDD0E0FC2274028000CC24
:10125300C0E0EDC0E0E518C39CCCAD1950011D10F2
:10126300AF068C188D1980068C188D19D2AF121306
:1012730022D0E0FDD0E0FC2212170F602512171ECA
:1012830060201217CD70030217C4080808E76670C0
:10129300101819E766700A1819E76670041819E739
:1012A3006622F422C0E0C0F088F0E4936670080878
:1012B30074019366187000A8F0A3A3700BD0F0D04C
:1012C300E0D0E0D0E00210B8A3A3D0F0D0E022D069
:1012D30083D082CCC0E0E493A360061213A71470FA
:1012E300FAE493A3600612150D1470FAD0E0FCE43F
:1012F30093A3C0E0E493C0E022C008C3E096F508DE
:1013030008A3E096420808A3E096420808A3E096E3
:101313004208A2D265D033E5087001D3D00822CAAF
:10132300C0E0E493A3C582CCC582C583CDC583F059
:10133300A3C582CCC582C583CDC583DAE5D0E0CA17
:1013430022A2E792D65002F40430F70663F0FF05B9
:10135300F0B3400384800384F40430D60563F0FFC4
:1013630005F022CAC0E0E0A3C582CCC582C583CD07
:10137300C583F0A3C582CCC582C583CDC583DAE618
:10138300D0E0CA22C0E0C0D0C082C08375AF009055
:10139300066CE02401F0A3E03400F0D083D082D0C7
:1013A300D0D0E032C0E0E493A3D39C5010E493A3E5
:1013B300C39C400AD0E0D0E0D0E00212EFA3A3A385
:1013C300D0E0227009080808226016181818C6C34E
:1013D30033C608C633C608C633C608C633C6D5E007
:1013E300EA22C008C3E096F50808A3E0964208087D
:1013F300A3E096420808A3E09645087001D3D008FD
:1014030022C09FF59FE473D09F22D083D082C09FD8
:10141300E493C0E0740193C0E0740293F59F22C08B
:10142300E0C0D0E8C0E0A8A8D2AFC2C7751A00E8F0
:10143300A2E792AFD0E0F8D0D0D0E03200C0D02500
:101443001810AF08F518500C05198008F51850024C
:101453000519D2AFD0D0222518F58210AF08F518A0
:10146300400C15198008F51840021519D2AF8519DB
:1014730083227404800A7403800674028002740158
:10148300C0E0F40412145AD0E012175A22BB01022E
:10149300E722C082C08389828A83BB0003E0800283
:1014A300E493D083D082226017080808C6A2E7130A
:1014B300C618C613C618C613C618C613C6D5E0E9A0
:1014C300226016080808C6C313C618C613C618C672
:1014D30013C618C613C6D5E0EA222518F8E4351951
:1014E300F9222518FAE43519FB222518FCE43519ED
:1014F300FD22C3E0C696F608A3E0C696F608A3E06D
:10150300C696F608A3E0C696F622C0E0E493A36C61
:101513007009D0E0D0E0D0E00212EFA3A3D0E02224
:10152300251810AF08F518400C15198008F5184058
:10153300021519D2AF22C3E09608A3E09608A3E0F0
:101543009608A3E096A2D265D03322E7667010080E
:1015530009E766700A0809E76670040809E7662266
:10156300E066701008A3E066700A08A3E0667004E2
:1015730008A3E06622181818E60846087009E6264C
:10158300087005E633F4220822C3E4939608740135
:101593009396087402939608740393962219191963
:1015A300E70947097009E727097005E733F42209BA
:1015B30022C3E096F008A3E096F008A3E096F008B3
:1015C300A3E096F022C3E697F60809E697F6080922
:1015D300E697F60809E697F622181818E4C396F674
:1015E30008E496F608E496F608E496F622E026F672
:1015F30008A3E036F608A3E036F608A3E036F622A1
:10160300E627F60809E637F60809E637F60809E695
:1016130037F622E493F608740193F608740293F6FE
:1016230008740393F622E657F60809E657F6080905
:10163300E657F60809E657F622E056F008A3E05607
:10164300F008A3E056F008A3E056F022E647F608B8
:1016530009E647F60809E647F60809E647F6227061
:101663000422600D18C6C333C608C633C6D5E0F4DA
:101673001822E667F60809E667F60809E667F6083A
:1016830009E667F622E026F008A3E036F008A3E0B7
:1016930036F008A3E036F022E056F608A3E056F64B
:1016A30008A3E056F608A3E056F622E4C397F70929
:1016B300E497F709E497F709E497F722600D08C662
:1016C300A2E713C618C613C6D5E0F322C6F4C608AC
:1016D300C6F4C608C6F4C608C6F4C622C3E0960814
:1016E300A3E09608A3E09608A3E09622C3E7960832
:1016F30009E7960809E7960809E7962275D0007569
:10170300813F75183175190300020E65E608460816
:10171300C3134608336002E633F422E7094709C3DB
:10172300134709336002E733F422600C08C6C3137E
:10173300C618C613C6D5E0F422E6F008A3E6F008FF
:10174300A3E6F008A3E6F022E0F608A3E0F608A378
:10175300E0F608A3E0F622CAC0E0E6F0A308DAFA4E
:10176300D0E0FA22E0FCA3E0FDA3E0FEA3E0FF2229
:10177300EAF0A3EBF0A3ECF0A3EDF022E0FAA3E090
:10178300FBA3E0FCA3E0FD22E8F0A3E9F0A3EAF069
:10179300A3EBF022ECF0A3EDF0A3EEF0A3EFF02225
:1017A300E0F8A3E0F9A3E0FAA3E0FB22E5C754F8CD
:1017B3004401F5C77901222518F582E43519F5832B
:1017C30022E72719471947194722E62618461846DC
:1017D300184622C2AF75D69F0200002212140D468E
:1017E300D20412140D9AD30412140D50D4041214FB
:1017F3000D4FD50412140D82D60412140D7DB306B9
:1018030012140DFEB30612140D39B50612140D2869
:10181300FF0412140D39FF0412140DD7FF04121420
:101823000DE2FF0412140DF2FF0112140DEBDB069F
:1018330012140D6ED50612140D7ED50612140D93D7
:10184300D50612140D45D60612140D71D2061214C4
:101853000DF4D20612140D5AD30612140DACBA06A7
:1018630012140DE7BA0612140D42BB0612140D9A98
:10187300BB0612140D20BC0612140D5CBC06121418
:101883000DAABC0612140DC1BC0612140DD9FF011A
:1018930012140DE9FF0112140DECFF0112140DEFE8
:1018A300FF0112140DC6950612140D1C9606121490
:1018B3000D6B960612140D98960612140DEE9606ED
:1018C30012140DF87F0012140DFBBE0612140D3313
:1018D300BF0612140D7EC00612140D02C1061214A7
:1018E3000D0DB60612140D57B60612140DEDB606FD
:1018F30012140D73B70612140DA4B70612140DBCFF
:10190300B70612140D30B80612140D46B806121499
:101913000D59B80612140D63B80612140D7BC104D9
:1019230012140D2CC60412140D41C70412140D6DAC
:10193300C70412140DFCC70412140DC3CA041214F5
:101943000DB3EC0412140D16ED0412140DC6ED04C0
:1019530012140D91EE0412140DE6EF0412140DC6C9
:10196300F00412140DC3F10412140D9BF3041214AA
:101973000DC2F30412140D4EF40412140DA8F50451
:1019830012140D1EF60412140D5CF60412140D6EDF
:10199300F60412140DBDA50512140D8BA705121420
:1019A3000DB6A80512140D79AA0512140DD6F50566
:1019B30012140D02F60512140D73F80512140DB36B
:1019C300F80512140DF3F80512140D07F905121496
:1019D3000D20F90512140D11FA0512140DB6FA05AE
:1019E30012140DCAFA0512140D33C80612140D573A
:1019F300C80612140D70C80612140DA2C8061214DC
:101A03000DD2C80612140DFFC80612140D09C9061B
:101A130012140D6BC90612140D7AC90612140D8423
:101A2300C90612140D91C90612140D437D00121438
:101A33000D637D0012140DA27D0012140DBD7D00F7
:101A430012140DDC7D0012140D427E0012140D4B96
:101A53007E0012140DA87E0012140DCC7E00121409
:101A63000D8D7F0012140D9A7F0012140DAB7F00B1
:101A730012140D72D90612140D8AD90612140DB65A
:101A8300D90612140D20FB0512140D7CFC0512144B
:101A93000D8AFC0512140D9DFC0512140DB2FC05F4
:101AA30012140DC7FC0512140DDAFC0512140D4EA9
:101AB300FD0512140DB3FD0512140D3BFE051214A2
:101AC3000DB7FE0512140D7BFF0512140D8BFF05D8
:101AD30012140D9AFF0512140DB3D70612140DD765
:101AE300D70612140DFFD70612140D27D8061214A9
:101AF3000DD8BC0612140DFFBC0612140D1DBD0635
:101B030012140D90BD0612140DB4B00612140DCDAF
:101B1300B00612140DD9B00612140DEDB00612144E
:101B23000D0BB10612140D15B10612140D1FB106DB
:101B330012140D32B10612140DB8B10612140D2D84
:101B4300B20612140D5CB20612140DAAB2061214D8
:101B53000DF9B20612140D14B30612140D1EB306BA
:101B630012140D2FB30612140D72B30612140DD2F4
:101B7300DA0612140D1DDB0612140DB789051214B3
:101B83000DE1890512140DFE890512140D118A0544
:101B930012140D278A0512140D858A0512140DBD22
:101BA3008A0512140DB18E0512140DF68F05121449
:101BB3000D29900512140D8C900512140DF6910544
:101BC30012140D1E920512140D33920512140D43B7
:101BD300920512140D87920512140DE29205121448
:101BE3000DF2920512140D20D00612140D3AD006F0
:101BF30012140D62D00612140D7BD00612140D9F21
:101C0300D00612140DBDD00612140DD4D006121432
:101C13000D02D10612140D1DD10612140D52D60653
:101C230012140D98D60612140D4E9D0612140D5E55
:101C33009D0612140D659E0612140D999E0612142C
:101C43000DBB9E0612140DDE9E0612140DFC9E069D
:101C530012140D369F0612140D9B9F0612140DDDF0
:101C63009F0612140D1CA00612140D4DA00612148B
:101C73000D84A00612140DD9F60412140DD5F70421
:101C830012140DF3F70412140D1AF80412140DDFD5
:101C9300F90412140D0DFA0412140DC2FA041214ED
:101CA3000D89FB0412140D98FC0412140DCAFD04D3
:101CB30012140DB3910612140D08920612140D821C
:101CC300920612140D95920612140DBC920612146C
:101CD3000D4F930612140D29940612140D22930529
:101CE30012140D4D930512140D18940512140D556D
:101CF300940512140DE6940512140D76980512142A
:101D03000D899A0512140D00800312140D3A8003F5
:101D130012140D3A820312140DB5840312140D35F7
:101D2300850312140DF4880312140D66890312142B
:101D33000D038A0312140D238A0312140DDC8A0384
:101D430012140D2B8B0312140D678B0312140D81C8
:101D53008B0312140DAD8B0312140DB08B031214ED
:101D63000D098C0312140D5C8C0312140D148D03D6
:101D730012140D518E0312140D0B910312140D2521
:101D8300930312140D58930312140DB893031214F2
:101D93000D0A940312140D8D940312140D2195034F
:101DA30012140D39970312140DD6980312140D1D36
:101DB3009A0312140DAB9B0312140DCC9B03121444
:101DC3000D05C10612140D73D40612140D8DD4061D
:101DD30012140DCFD40612140DFDD40612140D17D0
:101DE300D50612140D30D50612140D54D50612144F
:101DF3000D47EB0512140D9BEB0512140D6BEC054F
:101E030012140D98EC0512140DC5EC0512140D17E0
:101E1300ED0512140D41ED0512140D65ED051214B7
:101E23000D8DED0512140DCDED0512140D57EE05B4
:101E330012140D88EE0512140DAFEE0512140DF5F4
:101E4300EE0512140D13EF0512140D37EF051214DE
:101E53000D57EF0512140D8DEF0512140DECEF0560
:101E630012140D5BF00512140D36B40512140D7027
:101E7300B40512140DABB50512140DC3B605121437
:101E83000DFCBA0512140D2CE00512140D66E005C5
:101E930012140D1AE10512140D50D10612140DDBA4
:101EA300D10612140D3DD20612140DFFC1051214F2
:101EB3000D1CC30512140D1FC40512140D81C50595
:101EC30012140DD7C50512140D17C60512140D8E65
:101ED300C60512140D9CC60512140D6FC805121405
:101EE3000D68A70612140DCAA70612140DC6A9067B
:101EF30012140D99F00512140DDAF00512140D10D9
:101F0300F10512140D37F20512140DF5F305121431
:101F13000D95F40512140DC3E50512140D1DE90505
:101F230012140D9DE90512140D81EA0512140DD743
:101F3300FC0312140D26FD0312140D3AFD031214B3
:101F43000D9AFD0312140D9BC90612140DD8C90670
:101F530012140D0CCA0612140D1FCA0612140DDC3E
:101F6300A00612140DEFA10612140DA1A20612145D
:101F73000DBBA20612140D66A30612140D92A3063E
:101F830012140D09A40612140DF8CA0612140D0A30
:101F9300CB0612140D1DCC0612140D20CC06121400
:101FA3000D9ECD0612140DD4CD0612140DEECD06E2
:101FB30012140D30CE0612140D40CE0612140DDA93
:101FC300CE0612140D36AD0512140D40AD051214D4
:101FD3000D7AAD0512140DE3AD0512140D00AE0517
:101FE30012140DA2AE0512140DABAE0512140DF0B2
:101FF300AE0512140D19AF0512140D26AF051214F8
:102003000D97AF0512140D22B00512140D70B00513
:1020130012140DAEB00512140D13B10512140D36C2
:10202300B10512140DADB10512140D04B20512144D
:102033000D3FB20512140D74B20512140D86B205CC
:1020430012140D98B20512140DB7B20512140DC077
:10205300B20512140D80B30512140DCCB30512147E
:102063000D0AB40512140D4DCC0612140D8DCD06B8
:1020730012140DAFDB0612140DD1DB0612140D760C
:10208300B80612140DACB80612140DF4B8061214E7
:102093000D4DBA0612140DF7D90612140DE8B60346
:1020A30012140D0CB80312140D46B80312140DF0DC
:1020B300B90312140D1ABA0312140D8FBC031214B0
:1020C3000DCFBC0312140D65BE0312140D02BF0322
:1020D30012140D54BF0312140DF7BF0312140D2F66
:1020E300C00312140D71C00312140DE0C1031214C6
:1020F3000D2EC30312140D5FC50312140D8DC503FA
:1021030012140DB4C50312140DBDC50312140D0D25
:10211300C60312140D9FC60312140DCEC903121465
:102123000D51CA0312140D4CD80612140D62D806B1
:1021330012140D6CD80612140DC0D80612140DF625
:10214300880612140D0C890612140DAD890612149B
:102153000DEC890612140D098A0612140D3A8A062B
:1021630012140D878A0612140DBA8A0612140DF57D
:102173008A0612140DF08C0612140D588D061214D3
:102183000DBAD40512140DE0D60512140D12D8059C
:1021930012140D2AD80512140D10FB0112140D4B45
:1021A300FC0112140DDDFD0112140D23BB051214E5
:1021B3000D27BC0512140D43BD0512140D5EBE059B
:1021C30012140D34BF0512140DE1C40612140D5779
:1021D300C50612140D00800412140DC580041214D8
:1021E3000DD2800412140D7B810412140DDA8104C4
:1021F30012140D4B830412140DC3830412140D85A2
:10220300850412140DB1850412140DB4870412143D
:102213000DDC870412140D3D880412140D988804F4
:1022230012140DE9890412140D3C8A0412140DC111
:102233008A0412140D87DA0512140DAEDA0512148E
:102243000D02DD0512140D29DD0512140D7EDD05C9
:1022530012140DB0DE0512140D2CDF0512140D73CC
:10226300D30612140DD2D30612140D10D406121471
:102273000D51D40612140D909C0412140DF99C04F4
:1022830012140D449D0412140D7F9D0412140DF4B9
:102293009F0412140D0EA40412140D2EA60412147E
:1022A3000D3CA70412140D16A80412140D7AC805C8
:1022B30012140DB4C80512140DEDC90512140D93B3
:1022C300CB0512140DC0CB0512140D63CC051214EB
:1022D3000DC6CC0512140DFDCD0512140D06D7063F
:1022E30012140D50D70612140DD8CE0512140D3545
:1022F300CF0512140D13D00512140D04D1051214B9
:102303000D30D10512140D0CD20512140D28D2056F
:1023130012140DC1D20512140D4AD30512140DE483
:10232300CE0612140DF3CE0612140D53CF0612145B
:102333000DEAFF0212140D3EB60412140DA9B604E1
:1023430012140DA7B70412140DBDB80412140D43D3
:10235300B90412140D1CBA0412140DFCBA0412149D
:102363000D1EBC0412140D37BD0412140DC0BF049E
:1023730012140D00800212140D0C800212140D6E43
:10238300800212140D78800212140D0B81021214B4
:102393000D47810212140D07820212140D148202DA
:1023A30012140D77820212140D0C830212140D42C3
:1023B300830212140DBF830212140D5F85021214DF
:1023C3000D33870212140D14880212140D5E890254
:1023D30012140DC08B0212140D258D0212140DBAA6
:1023E3008D0212140DED8E0212140DE18F021214E0
:1023F3000D1A910212140DB0950212140D9D96023E
:1024030012140D35970212140D5A970212140D86E9
:10241300970212140D1E980212140D34980212140E
:102423000D56980212140DBC980212140DDB98027B
:1024330012140D04990212140D249A0212140DFAA7
:102443009A0212140D6F9C0212140D909C02121426
:102453000D119D0212140DB79D0212140DFF9D0262
:1024630012140D709E0212140DFC9E0212140D60C4
:102473009F0212140DC09F0212140D6FA0021214BA
:102483000DDBA00212140D0EA10212140D8CA10279
:1024930012140DE8A20212140D58A30212140DEA2D
:1024A300A30212140D4DA50212140DD4A502121489
:1024B3000D39A60212140D67A80212140DF3A90216
:1024C30012140D03AA0212140D37AA0212140DA539
:1024D300AA0212140DE0AA0212140D42AB02121446
:1024E3000DD7AB0212140DB2AD0212140D92830577
:1024F30012140D87B00212140D84B40212140D517C
:10250300B50212140D69B60212140D13B802121497
:102513000DAC990612140D1C9A0612140D2A9A0674
:1025230012140D389B0612140DB68E0412140D6D81
:102533008F0412140D74900412140DF290041214EB
:102543000D34920412140D55920412140D0D9304BC
:1025530012140DB8930412140D98970412140DB4A9
:10256300990412140D1B9B0412140D29DB0612147B
:102573000DF59C0312140D4D9D0312140DD39D03F1
:1025830012140DE59E0312140D64CF0412140D18DA
:10259300A00312140D2FA00312140D81A003121413
:1025A3000DBEA00312140DD1A00312140D27A10315
:1025B30012140D80A10312140D98A10312140D2DF2
:1025C300A40312140DC4A40312140DEEA4031214D5
:1025D3000D26A50312140D56A70312140D9CA70371
:1025E30012140DE6A70312140DBAA80312140DFB5F
:1025F300A80312140D1EA90312140D65A9031214C6
:102603000D85A90312140D06AA0312140D8AAA0339
:1026130012140DE4AA0312140D2CAB0312140D357E
:10262300AC0312140DF5AE0312140D21B0031214F2
:102633000D5EB00312140D25B10312140D65B10321
:1026430012140D68B10312140D72B10312140D8527
:10265300B10312140D0AB20312140D40B203121483
:102663000D6CB20312140D93B20312140DB7B2031F
:1026730012140D4EB30312140DC0B30312140DD96B
:10268300B30312140D0CB40312140D2CB40312145F
:102693000D69B40312140DA0B40312140D9FB503F6
:1026A30012140DD2B60312140DEBD80612140DF743
:1026B300D80612140D3DD90612140D00800612140B
:1026C3000D3E800612140DCA800612140DD5810624
:1026D30012140DF1830612140D9ECA0312140DC1B8
:1026E300CA0312140D98CB0312140DE1CB03121479
:1026F3000D39CC0312140D93CC0312140DDFCC034C
:1027030012140D55CD0312140DE3CD0312140D5BFA
:10271300CE0312140D9ECE0312140D6CD2031214A9
:102723000DB3D40312140DEDD40312140D77D50396
:1027330012140DF6D50312140DC3D60312140DEFA4
:10274300D70312140DDAD80312140DAED9031214E1
:102753000D32DB0312140DC8DB0312140DE9DD0384
:1027630012140D89DE0312140DF3DE0312140D9AF5
:10277300DF0312140DF9DF0312140DA5E003121485
:102783000DD8E10312140DFEE20312140D77E303D7
:1027930012140D4FE50312140DEFE50312140D92FD
:1027A300E60312140DF1E60312140DACE703121441
:1027B3000D72E90312140D15EB0312140DC1EB0393
:1027C30012140DD6EC0312140D3EE60212140DB6CC
:1027D300E60212140DFEE60212140D42E702121471
:1027E3000D8BE70212140DD5E70212140D0AE8024D
:1027F30012140D88E80212140DE2E80212140D3BC4
:10280300EA0212140DC4EA0212140D20EB02121490
:102813000D3AEB0212140D61EB0212140DB9EB0227
:1028230012140D23ED0212140D42ED0212140D6A5F
:10283300EE0212140DE7EE0212140D54EF021214FD
:102843000DB6EF0212140D66F00212140D38F202E7
:1028530012140D23F30212140D1DF40212140D238E
:10286300F50212140D3FF60212140D4DF602121466
:102873000D26F70212140DC6F70212140D0AF80200
:1028830012140D1FF80212140D30F90212140DD395
:10289300F90212140D2BFA0212140D31A4061214AC
:1028A3000DD9A50612140D96A60612140DEBA60655
:1028B30012140D8CAA0612140DA7AA0612140DEBFE
:1028C300AA0612140D11AB0612140D37AB0612141F
:1028D3000D4FAB0612140DB2AB0612140DC7AB06A7
:1028E30012140DE9AC0612140DF2AC0612140DFB12
:1028F300AC0612140D04AD0612140D0EAD0612141F
:102903000D658D0612140D45910612140D4A91069C
:1029130012140D4C910612140D6EC30612140D6998
:10292300DA0612140DD3FF0512140DA7C6061214EE
:102933000DD97F0012140DC1D50112140D18D60143
:1029430012140D84D60112140D10D70112140DC6E2
:10295300D70112140D0ED80112140D27D801121429
:102963000D4AD80112140D6CD80112140DAAD80106
:1029730012140DF9D80112140D24D90112140D8269
:10298300D90112140D29DA0112140DD1DA0112142E
:102993000D4DDB0112140D1ADC0112140D66DC015E
:1029A30012140DEEDC0112140D27DD0112140D7D3E
:1029B300DD0112140D30DE0112140D14DF011214A7
:1029C3000D25DF0112140D97DF0112140D30E00104
:1029D30012140D9AE00112140D8AE10112140DAFC5
:1029E300E10112140DACE20112140DB9E20112144B
:1029F3000DC2E20112140DABE40112140DC7E5017F
:102A030012140D58E60112140DC9E60112140DA398
:102A1300E80112140D6EEC0112140D82EC01121474
:102A23000D92EC0112140D9CEC0112140DA5EC0196
:102A330012140DAEEC0112140DB8EC0112140DE7D3
:102A4300EC0112140D15ED0112140D20ED011214F9
:102A53000D44ED0112140D68ED0112140DDAED01B0
:102A630012140D23EE0112140D3FEE0112140DB0DA
:102A7300EE0112140DFCEE0112140D45EF011214B8
:102A83000D83EF0112140D04F00112140DD3F101A3
:102A930012140D72F20112140D3AF30112140DC641
:102AA300F50112140D1BF60112140D43F601121455
:102AB3000D76F70112140DBBF70112140D10F80176
:102AC30012140DBEF80112140D63F90112140D98BE
:102AD300F90112140D38FA0112140DB4FA0112148B
:102AE3000D98840112140DCA840112140DFE840181
:102AF30012140DB2860112140D86870112140DE50E
:102B0300870112140DFB880112140D478901121459
:102B13000DE48B0112140D598E0112140DA58F01B2
:102B230012140D3D900112140D49900112140D92CF
:102B3300900112140DC5900112140D51910112143C
:102B43000D63920112140DA4930112140DA39401A9
:102B530012140DCD940112140D38950112140D9118
:102B6300950112140D04960112140D3A98011214D2
:102B73000DC0990112140DAB9A0112140DF99B01AA
:102B830012140D319E0112140D28A10112140D37D8
:102B9300A10112140DCBA10112140D76A20112147E
:102BA3000DB9A20112140D02A30112140D52A301B7
:102BB30012140DBFA30112140D2BA40112140D47FF
:102BC300A40112140D76A40112140DB5A40112145C
:102BD3000D9DA50112140D4CA60112140DC3A801DD
:102BE30012140DF5A90112140DC4AA0112140D46F5
:102BF300AB0112140D92AF0112140DC1AF011214E7
:102C03000D1CB00112140D4FB00112140DAAB00126
:102C130012140DC6B00112140D27B10112140D7751
:102C2300B10112140D26B20112140DE9B2011214EE
:102C33000DB1B30112140DFDB50112140D89B701C5
:102C430012140DE0B80112140DFCB90112140DFF9A
:102C5300B90112140D2EBA0112140D1DBC01121468
:102C63000DE6BC0112140D27BD0112140D7DBE012A
:102C730012140DF3BE0112140D26BF0112140D8A96
:102C8300BF0112140DABC10112140D0AC2011214BB
:102C93000DE0C20112140DF4C20112140D08C30198
:102CA30012140D35C30112140D65C30112140D095D
:102CB300C50112140D06C60112140D54C6011214D7
:102CC3000D7BC60112140D56C70112140DFCC7016A
:102CD30012140D82C90112140DC9C90112140D3643
:102CE300CA0112140D8BCB0112140D34CC01121432
:102CF3000D68CC0112140D80CC0112140D23CD01EB
:102D030012140D9FCF0112140D47D10112140D6B34
:102D1300D10112140D89D10112140D55D2011214CF
:102D23000DA3D50112140DEF3B0012140D213C002D
:102D330012140DA1400012140DF0400012140D36B0
:102D4300410012140DD9410012140D3E4200121419
:102D53000D82420012140DE9430012140D154500B3
:102D630012140D12490012140D91490012140DB7DB
:102D73004A0012140D1A4B0012140D664C00121463
:102D83000DFE4E0012140D8B4F0012140D954F00C3
:102D930012140DBD4F0012140D85500012140D1A9C
:102DA300510012140D43510012140D7051001214EE
:102DB3000DC5530012140D92540012140DD154007A
:102DC30012140D53550012140DFE550012140D303C
:102DD300560012140D7B560012140DB45600121433
:102DE3000D03570012140D5F570012140DE1570025
:102DF30012140D46580012140DBE580012140D671C
:102E03005A0012140D5F5B0012140DA05C00121423
:102E13000DF45F0012140D50620012140D096300CB
:102E230012140D51630012140D32650012140D6D4E
:102E3300650012140D76650012140D7F65001214DF
:102E43000D8A650012140DA9650012140D5C66004D
:102E530012140DB9660012140DC3660012140DCDC1
:102E6300660012140D19670012140D616700121425
:102E73000D65680012140DFE680012140DC569007B
:102E830012140DEF6A0012140D1A6C0012140D10B7
:102E93006D0012140D286D0012140D5C6D001214D8
:102EA3000D7A6D0012140DC26D0012140DFB6D002E
:102EB30012140DB26E0012140D736F0012140DE68E
:102EC3006F0012140D62700012140DFE70001214C4
:102ED3000D24720012140DE0720012140D807300A1
:102EE30012140D6D740012140DC5740012140D8BA1
:102EF300750012140DAE750012140DC37600121472
:102F03000D0E770012140D6A770012140DD277009C
:102F130012140DF6770012140D1E780012140D63AF
:102F2300780012140D87780012140D0B7900121417
:102F33000DF4790012140D397A0012140D627A001F
:102F430012140D007B0012140D6B7B0012140D97ED
:102F53007B0012140D787C0012140D33E20412145A
:102F63000D6BE20412140D8CE20412140DCEE20474
:102F730012140D32E30412140D3CE30412140D4C2D
:102F8300E30412140D83E30412140D2CE70412144A
:102F93000DF4E80412140DD8EA0412140D7AEB04AC
:102FA30012140D04EC0412140D56BB0212140DBAC4
:102FB300BB0212140D18BC0212140D63BC021214CE
:102FC3000D7EBC0212140DA5BC0212140DC2BC026C
:102FD30012140DCEBC0212140D5FBE0212140D7832
:102FE300BE0212140DF4BE0212140D07BF02121416
:102FF3000D17BF0212140DBBBF0212140D27C1021D
:1030030012140D3AC20212140DDAC20212140DE4A4
:10301300C20212140D63C30212140D74C3021214FC
:103023000DB3C30212140DE1C30212140DAEC40298
:1030330012140D05C50212140D3EC50212140D948F
:10304300C50212140DB2C50212140D00C6021214E9
:103053000DCBC60212140D19C70212140D66C70256
:1030630012140DE9C70212140D13C80212140D49EC
:10307300C80212140D58C80212140DB7C802121454
:103083000D2FC90212140D70C90212140DC0C9020A
:1030930012140DEBC90212140D05CA0212140D1FEE
:1030A300CA0212140DF4CA0212140DFECA0212143B
:1030B3000D39CB0212140D49CB0212140D52CB025F
:1030C30012140DA3CB0212140DB7CB0212140DD997
:1030D300CC0212140DF0CC0212140D05CD02121401
:1030E3000D98CD0212140D0CCE0212140DB1CE02A6
:1030F30012140DBCCE0212140D1CD00212140D3882
:10310300D00212140D84D00212140DF2D002121444
:103113000D24D10212140D3ED10212140D80D102DE
:1031230012140DD3D30212140D6BD40212140DE238
:10313300D40212140D3FD70212140D57D7021214E2
:103143000D5AD70212140D66D70212140D7AD70244
:1031530012140D82D70212140DB9D70212140DAD39
:10316300D80212140D37D90212140DB9D902121450
:103173000D39DA0212140D10DB0212140D32DB02C8
:1031830012140DCBDB0212140D28DC0212140D2BCA
:10319300DC0212140D58DC0212140D6DDC02121441
:1031A3000DDCDC0212140D28DE0212140D3BDF02CB
:1031B30012140DC6DF0212140DD9E00212140D9E73
:1031C300E10212140DCFE10212140DF5E102121403
:1031D3000DFEE10212140D2DE20212140DDDE202C6
:1031E30012140D8DE30212140D00E40212140DA348
:1031F300E40212140D16E50212140D55E502121421
:103203000D9EE50212140DD3E50212140D7582050D
:1032130012140D2A820512140D8F810512140D004C
:10322300800512140D0CFB0312140D91F9031214F3
:103233000D8FF80312140D50F60312140DFAF50353
:1032430012140D3DF40312140DB4F10312140D2ED8
:10325300F10312140D90CE0412140D90CD04121428
:103263000DEAEF0312140DA6EE0312140DB1CC04F4
:1032730012140D7FFF0212140D1FEE0312140DA57D
:10328300AE0612140D7DAE0612140D10AE06121406
:103293000DB0AD0612140D65B50412140D8BB404F4
:1032A30012140DC1B30412140D30B20412140DF92B
:1032B300B10412140DCBB10412140D7FB104121416
:1032C3000DE8B00412140D58B00412140D32B004FA
:1032D30012140DE7AF0412140DB1AF0412140D3420
:1032E300AF0412140DCFAE0412140D7EAE041214EB
:1032F3000DA6AD0412140D16AD0412140DCAAC04C0
:1033030012140D45AC0412140D00AC0412140DE498
:10331300AB0412140DE2FE0212140D8CAA04121453
:103323000D9AFB0212140D17FB0212140DC4FA02BC
:1033330012140D88DB0612140D6DDB0612140D59E1
:10334300880512140DFB860512140D9286051214BE
:103353000D5EAA0412140D2BAA0412140DAFA904B6
:1033630012140DCD860612140D29860512140DBEF6
:10337300850612140DF8840612140D7F84061214A8
:103383000DE8E10412140D09850512140D8FE104F3
:1033930012140D329F0312140D5AE10412140D2559
:1033A300E10412140DF1E00412140D84E00412146C
:1033B3000D6CE00412140D47E00412140D20DD041B
:1033C30012140DF3DA0412140DFAD80412140D8634
:1033D300D80412140D37D80412140DF1D7041214A3
:1033E3000D93D70412140D83A20512140D4B8405FB
:1033F30012140DF1A10512140D06A10512140D8E60
:103403009F0512140D499D0512140D849C05121479
:103413000D7DAF0200000080FBE47300000000207C
:103423001193840000010020119384000002002006
:1034330011978400000300201194840000040042CB
:10344300116D800000050042117E800000060042DD
:1034530011A080000007002011AB80000000404253
:1034630011A0800000100042118F80000011002085
:103473001104070000120010138B17010020002015
:103483001189170100210020118A1706000000107E
:1034930011000008000000203300000C0055003923
:1034A3003300000C001C00423300001200550020C2
:1034B30001000014000E0042220000050B00002151
:1034C300010000050B010021010000050B00012391
:1034D300010000050B010123010000050B0201237C
:1034E300010000050B030123010000050B0401216A
:1034F300010000050B050121010000050B06012158
:10350300010000050B070121010000050B08012143
:10351300010000050B090121010000050B0A01212F
:10352300010000050B0B0121010000050B0C01211B
:10353300010000050B0D0121010000050B0E012107
:10354300010000050B0F0121010000050B100121F3
:10355300010000050B110121010000050B120121DF
:10356300010000050B130121010000050B140121CB
:10357300010000050B150121010000050B160121B7
:10358300010000050B170121010000050B180121A3
:10359300010000050B190121010000050B1A01218F
:1035A300010000050B1B0121010000050B1C01207C
:1035B300010000050B1D01280100008F0001008C94
:1035C3001587000100FC1735000400C11725000210
:1035D30000C51726000200C71727000200C91728D5
:1035E300000100D31729000100D41784000400D57B
:1035F3001786000100D9172A000100DA172B0001F2
:1036030000DB172C000100DF172D0008006F152EBB
:10361300000100E0172F000100E11730000100E274
:103623001731000100E31732000100771533000161
:1036330000781534000100E41736000100791538CD
:10364300000100E51739000100DE1783000200FACC
:103653001763000100891564000100DC1765000190
:1036630000DD176D0001008A1571000800671566FB
:10367300000100F91743000100EA1744000200EBC0
:103683001745000100ED1746000200EE174700083A
:1036930000811548000100F0174B000100F11704E9
:1036A300000100FD17A1000100001837000100FF11
:1036B3001788000100FE173C0001007A153D000148
:1036C30000E61749000200F217670001008B154D51
:1036D300000200F4174E000100F6174F000200F736
:1036E300173E000100801551000100E71752000149
:1036F30000E81753000100E917540001007B15008F
:103703000000000000000136360101000102010043
:103713000103010001040106060502000007010080
:10372300340801000F090401010D0100FF0E080018
:103733000017020000190100FF1A0100011B01001C
:10374300FE1C0100081D0200001F010001200100F2
:1037530001210200002301000F24020000260100C2
:103763000127010008280200FF2A0100072B01029C
:10377300402C0100002D0100012E0100012F01004A
:10378300FF30010B1D310800003A0100083B010026
:103793000F3C0100013D0100FF3E04000042040014
:1037A30000460400004A0400004E040000520400D6
:1037B30000560400005A040000000021010001002B
:1037C3002102000001236600010123670002012397
:1037D300680003012369000401216A000501216BCC
:1037E300000601212C010701212D010801212E01D1
:1037F3000901212F010A012130010B012131010CA3
:103803000121C8000D0121C9000E0121CA000F01C9
:1038130021CB00100121CC00110121CD0012012187
:10382300CE0013012132011401213301150121CFEF
:10383300001601213401170121D000180121D10004
:10384300190121D2001A0121D300010371030103DD
:103853000103010301030103220302030103100314
:1038630000030003000300030003000300034203FB
:1038730000032403060300030003040312032503C8
:1038830023032503230304030403000300030003AA
:1038930044030003000323030003650321003503EE
:1038A3008103000305030003000300030003250352
:1038B3002303030071003001600011007000310226
:1038C3002003500480001000610000001400630016
:1038D3007300720062004300000013000600000042
:1038E30000000400120000000000000000000400BB
:1038F3000400370037003C024400000000000000D1
:103903000000650000003500810000000500000094
:103913008300000001017101010101011101010195
:103923003101010101018001100161013B0014001B
:103933006301730172016201430100011301060176
:103943003D013500040112010001000100010001E5
:1039530004010401330133013C0144013201360007
:10396300000100016501000135008101000105012D
:10397300820183010001030271023001600211021E
:1039830070020102020202028002100261023A0086
:1039930041006302730272026202430200021302D5
:1039A30038000002000204021202000200020002B8
:1039B300000204020402370037003C024402000202
:1039C3003900000200026502000235028102000292
:1039D3000502820283020002360001000600000095
:1039E3000F0000000000000000000000000003FFC3
:1039F300FF00000403FFFF0000FFFF0FF4010005B9
:103A0300C4040320000100000B00000000000000BC
:103A13000003010F00000000000000000000000090
:103A23000000000000000000000000000000000093
:103A33000000000000008724E1248D2491239324B7
:103A4300E7249324F324992491239324E7249F24A4
:103A53009123A5249123AB249123B1249123B7244B
:103A63009123BD249123C324F924C9249123000065
:103A730000000000000000000000CF240B25D52427
:103A83009123CF240B25D5249123C324F924DB24AC
:103A930091230A0000000200000004000000080057
:103AA3000000100000002000000040000000800023
:103AB30000000001000000020000000400000008F4
:103AC3000000001000000020000000400000010082
:103AD3007B270200F7260300FD26040003270500C9
:103AE30009270600152730002D2733003927340016
:103AF3003F271100452714004B2715002727FFFFF9
:103B0300000007ECFDFDFDECDCDCCCBCACAC9C9C0C
:103B13008C7C7C6C6C5C5C5C4C4C3C3C2C2C1C1C92
:103B230003EAF5E5D5D5C5B5A5959585857575657F
:103B33006555554545353525251515050A992D0234
:103B4300692D057B2D076F2D0C512D0D5D2DFF006C
:103B53000000160F00000B150B020002220F3300AA
:103B6300000E01030507090B0D0F00020406080AE6
:103B73000C0D5A6967426565416C6C69616E6365DA
:103B83003039303017181921301B1D1F3000034AFC
:103B930049434E181A25050200011916181616185E
:103BA300230300303016181920231A1C1E30003945
:103BB3003D3F373C3C362C442D0C0E020B040B0AC4
:103BC3000708000F020402010101010902E80300D2
:103BD3000000BE040AE8030E001E1E050804150CAF
:103BE300040904030334FF0A0C04082874F7120DB4
:103BF300F9E9901657F090160CE4F0121F8990160D
:103C030060E4F0A3F0901658F0A3F0122EFB121FFD
:103C13008F90159CE4F0A3F01228E302575A74EC3A
:103C2300120DF974D7121523EAFEEBFF5480606876
:103C3300901657E0F91220018A088B09EA450960BA
:103C43004F7C0080010CEC75F003A4F8A9F0743FDD
:103C530028F582743B39F583E493F4602CE493F8FC
:103C63008508828B83E06870DCAA08EC75F003A4F6
:103C7300F8744028F582743B39F583E493C0E0740B
:103C83000193F583D08212341CAA08AB09121FEFEB
:103C9300EEFAEF6480024083EF5420601E122DF38E
:103CA3008A088B09EA4509600A122D5DAA08AB0947
:103CB300121FEFEEFAEF6420024083EEA2E0501FE2
:103CC300901611E0640F70117900122D33E9600929
:103CD3009017C112177F122D4BEE6401024058EF6B
:103CE3005440604F9017B1E064067028740BF09055
:103CF30017D9E0F9750801750900750A00750B00FD
:103D03009015FFE078081213C6AA08AB09AC0AADF8
:103D13000B1229DF90157C12121D7A007B4090163E
:103D230057E0F912215D740412143FEEFAEF644078
:103D3300024083EE5420700302405C7A207B0090A3
:103D43001657E0F9122169EA4B4C4D701A90165C34
:103D53001217A3E8494A4B700E750C01750D0075D7
:103D63000E00750F008061750C00750D00750E0057
:103D7300750F0012217B8A088B098C0A8D0B901614
:103D83005C1217A3E8494A4B602A90165C78081224
:103D930013E5400E750CFF750DFF750EFF750FFFD4
:103DA300801285080C85090D8C0E8D0F90165C789A
:103DB3000C1214F57401780C1214C4E50C450D456E
:103DC3000E450F7003023F897C0079047A007B0063
:103DD300122DCF8A088B09023EB08518828519837C
:103DE30074FFF074011217BA74FFF074021217BA59
:103DF30074FF124C49FAA3E0FB74031214ED126C26
:103E0300F5126566122E11E964016003023E92E524
:103E130008125B521253994480F8A3E0F9742412F8
:103E230017BAE8F0A3E91264D1A3A3A3E0C0E07436
:103E3300261217BAD0E0126AE7A3E054086016749A
:103E4300241217BAA3E0440112409BC0E074281265
:103E530017BAD0E0F01278E03509126DF36018124A
:103E630078E0126487A3E0C8127BF7E0F8741212BB
:103E730017BAE8F0A3E4F090838B12121D740412B6
:103E830014ED74071214E5122A0F740412143F85FB
:103E93000882850983A3A3A3A3A3A3A3A3A374064F
:103EA30012409BF9122DB1850A08850B09E50845D7
:103EB300097003023F897C007904AA08AB09122D1B
:103EC300CF8A0A8B0B850882850983A3A3A3A3E06A
:103ED300F510A3E0F511E4F512F513780C7910123F
:103EE30016EF4029E5082404F8E43509F9850C1098
:103EF300850D1188828983C3E09510F0A3E09511A5
:103F03001243E4F8A3E0F9E849709C800E85088227
:103F1300850983A3A3A3A3E4F0A3F08508828509FD
:103F230083A3A3A3A3A3A3A3A3A3A3E064018508DB
:103F330082850983A3A3A3A3A3A3702BE0540460E6
:103F430003023DDD850882850983A3A3A3A3A3A35D
:103F5300A3A3A37406F07AB7850882850983124167
:103F6300D0122D45023EAAA3A3A3A3E06003023D02
:103F7300DD850882850983A3A3A3A3A3A3A3A3A386
:103F83007401F0023EAA122D9F7C0079017A007B16
:103F930000122DCF8B09EA4509600C7A207B009033
:103FA3001657E0F912202B850C0A850D0B7C00793E
:103FB300047A007B00122DCFEA4B701580538A825E
:103FC3008B83A3A3A3A312768BE50898E5099940F5
:103FD300078A828B831257C57C007904122DCF8BFD
:103FE3000DA90DEA4970D7C3E50A9508E50B9509B4
:103FF3005013C3E508950AF508E509950BF509E59E
:1040030008450970167A207B00901657E0F91220B4
:104013002B90165C124094A3F08037E50825E0F559
:1040230008E50933F509E4F50AF50B780812147568
:104033007A207B00901657E0F9122157740412146A
:104043003F12217BEAF8EBF9ECFAEDFB90165C12D8
:10405300178BEE6420FAEF8027EF5402600A122ECA
:10406300F5EEFAEF64028018EF540460161269A8A3
:10407300790190160A126568122A21EEFAEF640498
:10408300FB80047A007B00742912143F7F0C021119
:1040930014E4F0A3F0A3F0221264D5A3E022C082BB
:1040A300C08374EA1215237C167D007900AA18AB2D
:1040B30019121FD774081217BA7402F0901600125F
:1040C3006D061240E474091217BA126C14741312B9
:1040D30017BAE41268F81228D7741612143F02654F
:1040E30048E8F0A3E9F090160A125FE52274F7128C
:1040F3000DF974DA121523EAFEEBFFEE4F602DACD7
:1041030018AD19122E1174061217BAE0601E741737
:104113001217BAE0FD74011217BAE0FCEEFAEFFBD6
:104123007900122D09E9600479A4800279007426CC
:1041330002575774F7120DF9EAFEEBFF8E828F8355
:10414300A3A3A3A3A3A3E05440601712764F126561
:1041530068122EA1E960067AFF7BFF801512764F65
:10416300800390160012656874FE6A700374FF6B17
:10417300604712764F12721E122EA1E98E828F8330
:10418300600E125C8E125B5238F583E4F0A3800359
:10419300127C22F07C397D2D8E828F83126568120A
:1041A30028DDE9F5087015EE4F60097901EEFAEFA5
:1041B300FB122DABA90802575A7508CDAA08124164
:1041C300CC122D45E960E080EB8E828F83125C92E6
:1041D300127BDAE0F92274F6120DF9E9FEEAFF7AAE
:1041E3000F7B00121FE9EA4B601F8A828B83740CDA
:1041F300F0EEA3A3F0EF8A828B8312553790165704
:10420300E0F9121FF57900802FEEF9122DD58A08F7
:104213008B09A808A909E849601C88828983A3A39C
:10422300A3A3A3A3A3A3A374061278E8E0F9122A15
:10423300B1EEF9122DB179100268B674F4120DF9CA
:104243008A088B098C0A8D0B901611E0640F702C71
:10425300EA4509450A450B602390160CE0640860A3
:1042630005E06404701678081214757A017B0090D7
:104273001657E0F9122157740412143F02451074C3
:10428300F4120DF974FC121523EAFEEBFF8E828FF4
:1042930083A3A3E0F9122DD58A088B09EA45097097
:1042A300030243BF8E828F83A3A882A983E0C0E069
:1042B300EA240B126484D0E01243E464F160288E94
:1042C300828F83A3E064CD601E8E828F83A3E0641C
:1042D3001A60148E828F83A3E064E9600A8E828F52
:1042E30083A3E064E170367900122DABE9602EE51B
:1042F300082404F50AE43509F50B8508828509834A
:104303001243D0A3E0F9850A82850B8312656812F4
:104313001F9B850A82850B8312721E806E8E828F8D
:1043230083A3E0C0E074021217BAD0E0124EF21277
:104333007C64124EE4C0E074031217BAD0E0F0E5D7
:1043430008240C125396AA18AB197005122A098077
:1043530003122E8974021217BAE064E9702D8508DE
:1043630082850983124C5E750A01780A12148175DD
:104373000AE9780A12148112538C124ED4125799F7
:10438300126568122E47740212143F85088285094C
:1043930083A3A3A3A3A3A3A3A3A3E064027012858F
:1043A3000882850983A3A3A3A3A3A3A3A3A374063A
:1043B300F08E828F83A3A3E0F9122DB1122D9F906B
:1043C30017C7124900122D4B740402450DA3A3A372
:1043D300A3A3A31243DA22E0FCA3E0FD8E828F8322
:1043E300221278F8E02274F4120DF9EAFEEBFF755D
:1043F30008008E828F83A3A3A3A3A3E0604875085C
:10440300088E828F83A3A3A3A3A3A3A3A3A312654D
:104413006879FF122B9B8B0BEA450B601075082CF8
:104423008E828F83A3A3A3A3A3E0D2E0F08E828F17
:1044330083A3A3A3A3A3E054036401600302450978
:10444300430811024509EE2418125A4E6038EE242F
:104453001A125A4E6003F470131275757003A3E0B9
:10446300696003024509750822024509EE241B12FF
:10447300745DEE241A125A4EFAEE2419125A4EF9AA
:10448300122A9F0245098E828F83A3A3A3A3A3A30A
:10449300A3A3A3126568122EA1E964027003750831
:1044A300011275757003A3E0697006E508D2E1F5A2
:1044B30008E50860158E828F83A3A3E07006E508E4
:1044C300D2E58004E508D2E6F5088E828F83A3A3A4
:1044D300A3A3A3A3A3A3A3126568122EA1E9640156
:1044E3007006E508D2E0F5088E828F83A3A3E0600F
:1044F30015EE241D1258ACF9122E8FE964016006E3
:10450300E508C2E0F508A908800312143F7F0402FE
:10451300111474F0120DF974D7121523EAFEEBFF90
:104523008E828F83A3A3A3A3E060119017C5126D9E
:10453300F560099017C5124900122D4B740312142C
:10454300ED8E828F83A3A3A3A3124EC512656812B7
:104553002E11E970030246AE780174051217BAE012
:10456300C394024002780074071217BAE0C394029E
:1045730040027800740C1217BAE064F87003A3E0E9
:10458300F470030246AE740C1217BAE064F97003B8
:10459300A3E0F470030246AE740C1217BAE064FA97
:1045A3007003A3E0F470030246AE740C1217BAE072
:1045B30064FB7003A3E0F470030246AE74061217A3
:1045C300BAE0F99015FAE06960030246AEE8A2E0AA
:1045D30040030246AE74271217BAE060030246AEE8
:1045E300EE2413125FDB74221217BA126ACF241C53
:1045F300125FDB74101217BA126C1474091217BA13
:10460300E0601F741A1217BAE0FD74041217BAE0BF
:10461300FC8E828F83A3A31265687901122D09E9A9
:10462300703D74031214E5122D57E9F5087409124D
:1046330017BAE0702E9015F4E060287422550864D0
:10464300226020744255086442701474201217BA11
:1046530012490C600E74201217BA1248E960047AEA
:10466300CF804AE9A2E6504D74201217BA1258B20D
:1046730024FD600F14600C24FD600824FD600424F5
:10468300FE702874201217BA1248E2700E742012BA
:1046930017BA126860A3E0640D601A74031214E57C
:1046A300122EB9E96401700D0248D57AD37B00124A
:1046B30026C70248D5EE242DF582E43FF583124C3C
:1046C3003C7003A3E0697022750900780912148114
:1046D3007809121481EE242F125A4EF91248F0125F
:1046E3006562122E47740212143F74091217BAE05E
:1046F30070030247911248F0126562122F1F8A0A53
:104703008B0BEA450B700302482E74041217BAE0B0
:10471300F88E828F83A3A3E028F8A3E03400F9E89E
:10472300240D1248DAF88A828B83A3A3A3E068607E
:104733000EE88A828B83A3A3A31255301240957986
:1047430004E91217BA124EBCE02AF8A3E034008839
:1047530082F583A3AA82AB83121FDD8A0C8B0D8C97
:104763000E8D0F850A82850B83A3A3A3A3780C1256
:1047730013E540030248D5908423780C1215F08585
:104783000A82850B83A3A3A3A3780C12173C90166C
:104793000CE064046008E0640960030248D5E5089E
:1047A300A2E54003024868EE242F125A4E85188270
:1047B300851983F0EE2430125A4EC0E074011217AB
:1047C300BAD0E0F0EE2431125A4EC0E07402121750
:1047D300BAD0E0F074141217BAE06401702C740EAE
:1047E3001217BA1253A62413125A4E687003A3E089
:1047F300697017740C1217BA126568122EA1E96456
:1048030002700774141217BAE4F0EE2425F582E45B
:104813003FF58312121D74041214ED74071214E58C
:10482300122A0F740412143F0248D5901651E06403
:1048330001600302479174201217BA12490C7009E0
:10484300E508A2E6500302479174101217BAE0F488
:104853007003A3E0F4607BEEFCEFFD74031214E538
:10486300122D63806DA2E6506974201217BA126C80
:10487300DC7016741A1217BAE064027055740312CE
:1048830014E57900122E83804974201217BA124856
:10489300E97014741A1217BAE064047035740312C1
:1048A30014E5122E77802B74201217BA1248E27087
:1048B3000C790074031214E5122EC58015742012AE
:1048C30017BA126860E0640C700874031214E512DE
:1048D3002EDD74290253BDF582E439F583E02212FB
:1048E3007659E0640322127659E0640722EE242B02
:1048F300F582E43FF583127467EE241322E0F50892
:10490300A3E0AA08FBE4FCFD221257B56406227457
:10491300F4120DF9EAFEEBFF8C088D09901577E090
:10492300600F1275757003A3E0697005122A8D80FC
:104933005A79008E828F83A3A3A3A3A3A3A3A3A3C4
:10494300126568122ABD8A828B83E58245836033B0
:10495300A3A3A3A3A3A3E054186028E508241C126F
:104963006484121221E5082413126484121221EEC6
:104973002418125A4EF912654F122ACF74041214D6
:104983003F8008790012654F122A9302451074F78D
:10499300120DF974F7121523EAFEEBFF90160CE0E3
:1049A3006403600DE064016008E064096003024A87
:1049B300A98E828F83A3E06003024A6F7C007D008F
:1049C3007A027B00121F951276958A828B83125F7F
:1049D300E19015FD126C1479531228C590160CE062
:1049E3006409600990160A126568122F19851882E6
:1049F30085198374011268F879421228C590160C40
:104A03007404F074011214E5794A1228BF74011278
:104A130014ED7A027B161222719017B1E0640B70C9
:104A2300057406F0800B790090160A126568122A45
:104A3300219015FD1274637A037B00121F95901663
:104A4300001274637A047B00121F959015F7E0A29D
:104A5300E35004D2F08002C2F01268EE79521228B9
:104A6300C59017C112177F122D4B8037FC7D007A3A
:104A7300037B10121F959017B1E0640B7003740A47
:104A8300F09017E7E4F0FA7B40901657E0F9122113
:104A9300638E828F83124AB0126568122A219016A0
:104AA3000CE4F0122D8D7409025757E0F8A3E0F9D6
:104AB30090160A22C082C08390159C126DF5701F58
:104AC30090160CE014600924FC600A14600C800F3B
:104AD3009015A680349015A2802F9015A4802AE803
:104AE30049600890159D124ECE700C8A828B83A369
:104AF300E0F9122A15801D90159C126CE264027075
:104B030005122EE9800E90167B126DF56006126871
:104B13006112341C02654874F4120DF974FE121507
:104B2300238A088B097A007B04901657E0F9122137
:104B330063AA18AB1979501228BF7A0F7B00121F92
:104B4300E98A0A8B0BAE0AAF0BEE4F602085088211
:104B5300850983A3E0701690160AE0F47003A3E0BE
:104B6300F4603B124C367003A3E069603185088220
:104B7300850983A374EA124EEA1228C57A007B16CC
:104B8300794B1228C57A0A7B1679501228C57AFF09
:104B93007B1579E11228C5EE4F7003024C2A8E82F1
:104BA3008F837402F090160AE0F47003A3E0F460BC
:104BB3000A124C367003A3E069704F851882851979
:104BC30083124AAEE8F0A3E9124EEA1228BF901509
:104BD300FD1253AB126C147A007B16794B1228BF6B
:104BE3007AFF7B1579E11228BF750A00780A12143F
:104BF30081780A1214819017A6124AB112510B122E
:104C03006568122E47740212143F85088285098352
:104C1300124C2FA3F090160C7403F0EEFAEFFB90F6
:104C23001657E0F9121FF5740202450DA3E08E82B8
:104C33008F8322851882851983125FE590160AE017
:104C43006822E8F0A3E9124C4D22F0850882850919
:104C530083E022F582E43BF583E022125FE5E8FA84
:104C6300E9FB2274F5120DF974D11215238A088B0E
:104C7300098A828B831258A4741C1214ED8A828BC6
:104C830083A3A3A3A3A3A3A3A3124ED41265681261
:104C93002D93741C1217BAE0702C85088285098342
:104CA300A3A3A3A3A3A3A3A3E0C3940B40188E823F
:104CB3008F83A3A3A3A3A3A3A3A3E06402700712F8
:104CC3006C00E0F46003024EB790160CE0640270CF
:104CD30003024D9EE064067003024D9E90159C12E4
:104CE3006DF56008124ECE7003024DCE90160CE0A7
:104CF30064086008E064046003024EB7741E121770
:104D0300BA124EBCA3A3A3A31258A490159CE0F817
:104D1300496007126CE86402607790160AE06E70CF
:104D230003A3E06F6003024EB774016A6016742335
:104D33001217BAAC82AD837A1E7B1612226BE9601E
:104D430003024EB77A007B02901657E0F9122169ED
:104D5300EA4B4C4D6003024EB790160D1217A38514
:104D6300188285198312178B901613E0C0E0740420
:104D73001217BAD0E0F074051217BA7401F0740672
:104D83001217BA74021268F81229D3E96003024EAB
:104D9300B4EEFAEFFB122EE3024EB790159C126DA0
:104DA300F5702875080078081214817808121481A8
:104DB300EE2410F582E43FF583124EC5A31243D0CF
:104DC300126568122E47740212143F8E828F83126B
:104DD3005FE174071217BAE8F0A3E91253B1125F47
:104DE300E174091217BA126ACF125F7AC0E0740B2A
:104DF3001217BAD0E0124EE4F508A3E0F509740FD8
:104E0300780812172D740C1217BAE508F0742012E3
:104E130017BAE0C0E0740D1217BAD0E0F074221292
:104E230017BAE0C0E0740E1217BAD0E0F0741D1286
:104E330017BAE0C0E074101217BAD0E0F0741E1273
:104E430017BAE0C0E0740F1217BAD0E0F0EE2410E6
:104E5300125A4EC0E074111217BAD0E0F074211246
:104E630017BAE0C0E074121217BAD0E0F0742E1231
:104E730017BAE0C0E074131217BAD0E0F07423122B
:104E830017BAA982AA8389088A09750A00780812C1
:104E930014797C087D0074171217BAAA82AB8312A7
:104EA3001FCB740312143F74071214E5122A1B80DC
:104EB300031229D9742F0258B6E0FA8E828F83A386
:104EC300A322E0F98E828F83A3A322126CE96401EB
:104ED30022E0F98A828B83A3A3A3A3A3A3A3A3A3FF
:104EE30022F0126C04E022F07AFD7B157953221232
:104EF3004EF622F08518828519832274F2120DF979
:104F030074F8121523EAFEEBFF8C0A8D0B890D90C2
:104F13008265AC18AD197408121366750C00EEFCAB
:104F2300EFFDAA18AB1912226BE97003750C0190FF
:104F33001658801AEEFCEFFDE508240BFAE4350958
:104F4300FB12226BE97023E5082414126484124FC8
:104F5300836024E50CA2E040DB850882850983E0B9
:104F6300650A7004A3E0650B70DD850882850983FB
:104F7300A3A3E0650D70D0AA08AB09740802554BD2
:104F83001257CDE508450922C082C0839016580206
:104F9300654574F7120DF9901658127906800C12B4
:104FA30070531258A7122091EEFAEFFBEA4B70EF01
:104FB300901658E4F0A3F002575A74F1120DF9EA6F
:104FC300FEEBFF890A8C088D098E828F83E08C8229
:104FD3008D83125FA9AE82AF83E01262EE1264F595
:104FE300C41262EE12507CE01262F51264F3A2E284
:104FF300E4338C828D831264F2131313541F1262F1
:10500300EE1264F1A2E7E4338C828D83A3A3A3A3FE
:1050130012507C8E0C8F0D750E00780C1214797C57
:10502300087D00E5082407FAE43509FB121FCB7459
:105033000312143FEE2408FE50010F8E0C8F0D78DF
:105043000C1214797C037D00E508240FFAE435097A
:10505300FB121FCB740312143FE50AC3940F4011D4
:105063008E828F83A3A3A3E0C0E0126480D0E0808C
:1050730004126480E4F0027690A3A3125FAD0EAF36
:10508300832274F5120DF98A088B098A828B83A314
:10509300AE82AF83E0F9122A398E828F83E064EB0C
:1050A3006024850882850983A3E064E1601885088C
:1050B30082850983A3E064F1600C850882850983F6
:1050C300A3E0641A7009850882850983A3E4F0903C
:1050D30017C112177F122D4B750A01780A1214811A
:1050E300850882850983A3E0F5087808121481797D
:1050F3000090160A12510B126568122E47740212A1
:10510300143F122D9F0258B912746790160022EAB9
:10511300F0A3EBF002654874F6120DF990165BE00C
:10512300701B7C0079017A007B00122DCFEA4B6063
:105133000C8A828B83126DF56003122D3F0268B6D1
:10514300C082C0837904122DC9E9F8903BDEE49351
:10515300C398401079FF122DC9E9F8903BE2E4931C
:10516300C398500479018002790002654874F012F3
:105173000DF98A088B09890B750C008A828B83A32E
:10518300A3A3A3A3A3A3A3E0F9122DD58A0E8B0F88
:10519300AE0EAF0F750A01EE4F600302526A850827
:1051A30082850983A3A3A3A3A3A31274638508829F
:1051B300850983A3A3A3A3A3A3A3A3E0F9850882DB
:1051C300850983126568122DBD8A0C8B0DAE0CAF59
:1051D3000DEE4F70030253858E828F83A3A3A3A387
:1051E300E4F0A3F0E508240CFAE43509FB8A828B8A
:1051F30083E0C0E012538CD0E0F0E508240D125395
:105203009F240D126C0E122EA7EE240F127218E5B6
:1052130008241112539F2411126C0EE50824131253
:105223005396C0E0126AB8D0E0F0750C01EE240684
:10523300125F6E547FF0A3E054FC1243E454046005
:10524300030252DF9017D3E0F5087509007407785D
:10525300081216628E828F83A3A3A3A3A3A3E045A0
:1052630008F0A3E04509F08E828F83A3A31257C5EC
:105273007407780812172DE5085407FCE50B606CDA
:105283008E828F83A3A3A3A3A3A3A3A3A3740212B6
:1052930064F6125670600B9015F81253ABA3A31269
:1052A3006C14EC7003025353EE2406127BE3547F19
:1052B300F508A3E054FCF509EC24FFF50EE434FFF4
:1052C300F50F7407780E121662E508450EF8E50926
:1052D300450FF98A828B83126C1480748E828F83BC
:1052E300A3A3A3A3A3A3E04480025269EC700575B2
:1052F3000A00805C8E828F83A3A3A3A3A3A3E0549D
:1053030020600C121FE3EA547F7900245F80198E1A
:10531300828F83A3A3A3A3A3A3E05410601A121F35
:10532300E3EA540F7900240A5001098E828F83A384
:10533300A3A3A3F0A3E9800D8E828F83A3A3A3A3CA
:105343007401F0A3E41253B174041255F312202B29
:10535300E50CA2E0502F8E828F83A3A3A3A3126F29
:10536300D9E0F9EEFAEFFB122DC3E96018126DECE8
:105373006009EE240F126562122091EEFAEFFB1220
:105383002091750A00A90A8034EE240CF582E43FCB
:10539300F58322F582E43509F583E022F582E435CD
:1053A30009F583125FE5EE221276B9A3A322125305
:1053B300B522126231A3A3A3A32212143F7F0802D2
:1053C300111474F4120DF974F71215237E00122DC3
:1053D300D5EA4B700302548B8A828B83A3A3A3A3C6
:1053E300A3A3A3A3A3E06406600302548B8A828B66
:1053F30083A3A3A3A3A3A3A3E0FF8A828B83127C2B
:1054030007E0C0E074081217BAD0E01257ACF8A353
:10541300E0F9851882851983126C14122DE7EF5475
:105423000860638518828519831274637A007B0090
:10543300122DB78B0BEA450B704C127C561228EFDA
:105443007C007D007A007B0080288E828F83125837
:10545300B2F47003A3E0F4602D90160A1243D6123F
:1054630065681228E9E9641A601C7C007D00EEFA85
:10547300EFFB122DB78A0A8B0BAE0AAF0BEE4F7000
:10548300C979001228F57E01EEF9740902450DC0B1
:1054930082C083EA4B700590166080068A828B83F4
:1054A300A3A31256A860208A828B83A3A3A3A3A3DA
:1054B300A3A3E0540860E5EC4D60101256AF7003EF
:1054C300A3E06D70D780047A007B0002654874F214
:1054D300120DF9EAFEEBFF890A8C088D097A147B19
:1054E3000012208BEA4B603A8A828B83A3A3A3A387
:1054F300A3A3A3A3A3E41257A1A3E50A127660A36F
:10550300127C621255301257BF1255378A828B8331
:1055130012767DEA1278E23BF583E4F0125527F028
:10552300A3F08027A3F08A828B83A3A3221276742D
:10553300E4F0A322A3F01255423BF583E4F022EA00
:105543001268DD22A90A740312143F7F06021114A4
:1055530074F4120DF9EAFEEBFF89088C0A8D0BEE49
:105563004F70030255EE7401650870127901122D14
:10557300C9E9F8903BDFE493C39850228016740482
:10558300650870147904122DC9E9F8903BDEE493A1
:10559300C398500A7911805574026508704D8E8244
:1055A3008F83A3A3A3A3A3A3A3A3A3E508125FA924
:1055B300A31272B7E4F0A3F0901660126DF5601AAF
:1055C3008003E0F8A3E0F988828983A3A31256A895
:1055D30088828983A3A370EA8003901660EEF0A308
:1055E300EF1255F312202B7900800279C102451086
:1055F300F07A207B00901657E0F922C082C083E93D
:10560300F87900901660801D8A828B83A3A3A3A3DD
:10561300A3A3A3A3A3E068600574FF687001098ACC
:10562300828B83A3A31256A870DE02654874F71217
:105633000DF9EA4B700590166080068A828B83A36E
:10564300A31256A860208A828B83A3A3A3A3A3A338
:10565300A3A3A3E06970E4EC60108A828B83E01259
:10566300567070D780047A007B0002575AF8A3E083
:10567300C8127C2EE0540422C082C083901660803E
:10568300068A828B83A3A31256A860128A828B8315
:10569300A3A3A3A3A3A3A3A3E06970E580047A0053
:1056A3007B00026548127906FBEA4B221257B16C64
:1056B3002274F2120DF98A0A8B0B8C0C8D0D75086E
:1056C30000750900EA450B603090166080068E82F3
:1056D3008F83A3A31258A7EE4F601EAC0CAD0DEE43
:1056E300FAEFFB850A82850B8312341CE96401708F
:1056F300DDEEF8EFF988088909AA08AB0902554ECF
:1057030074F7120DF9901660125FE17C007D008042
:105713000DE8FCE9FD88828983A3A3125FE1E849D0
:105723006030EA687002EB6970E790166012656892
:10573300E86A7002E96B88828983A3A37008125F09
:10574300E19016608009125FE18C828D83A3A3121E
:105753006C14800312143F7F0102111474F7120DAD
:10576300F9EAFEEBFFEE4F602B122DE11257D51233
:1057730065661220918E828F8312656812209112C2
:105783006DEC6009EE240F126562122091EEFAEFC0
:10579300FB12209180C11274678A828B8322125775
:1057A300A522127678A3A3A322F01257B1228A82EC
:1057B3008B83E0F8A3E0F5838882E0221257A5A348
:1057C300A322A3A3A3A31257CD22E0F508A3E0F5D8
:1057D30009228E828F83125C92125C883822C082E7
:1057E300C083EAFCEBFDEC4D6017EC24FBF582ED86
:1057F30034FF126DF3700712583BE0F46007121F79
:10580300EF79058030901657E0C0E012583BD0E0A6
:10581300F0903BEAE493F97A627B16122025E9645F
:105823000170107A007B20901657E0F912202B7933
:105833000080027904026548EC24FFF582ED34FF11
:10584300F5832274F4120DF9A2AFE433F508C2AF65
:105853009016621258A7EE4F603AEE24FBF582EFE2
:1058630034FF126DF37A007B209016576007E0F93E
:1058730012202B8005E0F9122031E4F50AF50B78AC
:105883000A12147DEEFCEFFD7A627B1612201F7460
:105893000212143FE508A2E092AFEEFAEFFB0245D5
:1058A30010A3A3A31272CFFF22F582E43FF5831264
:1058B30057B52212143F7F0302111474F2120DF92B
:1058C30074FA121523EAFEEBFF750AFE750BFF123D
:1058D3002DA5E960057911025A46EE2415125A4E98
:1058E30060359017F1E0C43354E0F8E0333354FCEF
:1058F30048C0E01261F7D0E0127C37FAA3E0FB79ED
:10590300FF122B9B8B09EA4509600C750AFF126A8B
:10591300BC1269A2D2E0F08E828F83A3A3126568C2
:10592300122EA1E96006EE24121268C5EE241312AA
:105933005A4E700D903BDCE493C0E0126AB8D0E09D
:10594300F08E828F83E0A2E7500454038019EE2483
:1059530014125A4E70129015E9E0C0E0125F64D041
:10596300E0F09015E9E004F0125A4B6401701690D0
:1059730017DCE0600D9015F4E0700A8E828F83E0EF
:1059830070031268C28E828F83E064017011EE246B
:105993000B1258AC64027007125A62E04440F0AC38
:1059A30018AD19EEFAEFFB122E0B8A088B0974FE61
:1059B300650A700374FFF4700D8E828F83A3A3E0D6
:1059C300F50AA3E0F50BEA450960748E828F83E044
:1059D300C0E074011217BAD0E0F074041217BA12BF
:1059E300767DEE241E125FDB74021217BA126C145A
:1059F30074011214DD880C890D780C12147DEE24C9
:105A030020125A56121481125A62121221EE240ED7
:105A1300125A561214819015FD121221740812178E
:105A2300BAE0F9AC0AAD0B122E05740812143FE963
:105A3300FE74106E700BAA08AB0912209180027ECF
:105A430010EEF9740602554BEE2411F582E43FF58E
:105A530083E022F582E43FF583E0F50C780C22EE37
:105A6300126AC422C082C08374D71215239081C9DD
:105A730074031214ED74261213668A828B83A3A314
:105A8300A3A3125FE1740E1217BAE8F0A3E912554B
:105A930028125FE1740C1217BA125B58125B521290
:105AA3004C59C0E0741A1217BAD0E0F012705D12AC
:105AB3005FDF74201217BA125B582415124C56C0BC
:105AC300E074081217BAD0E0F0EA241CF582E43B34
:105AD300125FDF74121217BA125B582411124C565C
:105AE300C0E074091217BAD0E0F0EA2412124C563F
:105AF300C0E074071217BAD0E0F0EA241EF582E47E
:105B03003B125FDF74241217BA125B582420124C25
